:020000021000EC
:10800000004000200912020045120200471202003F
:108010000000000000000000000000000000000060
:1080200000000000000000000000000049120200F3
:1080300000000000000000004B1202004D12020080
:108040004F120200DDB60100B50E02004F12020011
:108050004F12020000000000091002004F1202003F
:108060004F1202001D0A0200790F02004F12020097
:108070004F1202004F1202004F1202004F12020074
:108080004F1202004F1202004F1202004F12020064
:108090004F120200D1EC0100A1FA01004F120200C0
:1080A0004F1202004F12020000000000000000000A
:1080B00000000000000000000000000000000000C0
:1080C00010B5064C2378002B07D1054B002B02D0AE
:1080D000044800E000BF0123237010BDB020002041
:1080E00000000000AC880200044B10B5002B03D048
:1080F0000349044800E000BF10BDC0460000000076
:10810000B4200020AC880200164B002B00D1144B89
:108110009D46402292029A1A924600218B460F46B3
:108120001348144A121A0FF028FA0F4B002B00D0F4
:1081300098470E4B002B00D09847002000210400E8
:108140000D000D48002802D00C4800E000BF0BF0E5
:10815000C9F8200029000EF09FFD0BF0ADF8C046D5
:1081600000000800004000200000000000000000A7
:10817000A8200020D02800200000000000000000FF
:1081800010B50400034B036040300BF01BFF2000D0
:1081900010BDC0462C77020007B5084901A801F0C0
:1081A000CBFC782201A9064802F0BEFE01A80BF024
:1081B00009FFFA20800001F08DFA07BD3E8202001F
:1081C000F4210020F0B5050085B0344903A801F082
:1081D000B3FC334C782203A9200002F0A5FE03A8CB
:1081E0000BF0F0FE6E6AAB6AF718BE4212D031781F
:1081F00003A80BF011FFC82203A95200200002F0CF
:1082000003FE03A80BF0DEFEFA20400001F062FA44
:108210000136EAE720000CF08AFDFA20800001F028
:1082200059FA204903A801F087FC782203A920000D
:1082300002F07AFE03A80BF0C5FE6E6AAB6AF31873
:108240000193019B9E421FD0337802AAD71C3B703A
:108250002B0045331B78002B03D0390028000BF08E
:108260008AFB397803A80BF0D7FEC82203A9520075
:10827000200002F0C9FD03A80BF0A4FEFA20400084
:1082800001F028FA0136DCE720000CF050FDFA205E
:10829000800001F01FFA05B0F0BDC0460382020065
:1082A000F42100200982020070B50B782E2B15D026
:1082B0002D2B15D0232B15D0402B15D0FFF76CFF9D
:1082C00000240A4D0121280003F022F9200001F0CA
:1082D00001FA2800002103F01BF970BD044CF0E7FF
:1082E000044CEEE7044CECE7044CEAE7CC20002019
:1082F0000D0200001A04000002080000BA1300007A
:1083000070B504000D00F24E86B0310068460BF0E7
:1083100001FB6B464122290020000BF03CFB684624
:108320000EF0C6FFEB4968460BF0F4FA6B464222AA
:10833000290020000BF02FFB68460EF0B9FFE6493C
:1083400068460BF0E7FA6B464322290020000BF049
:1083500022FB68460EF0ACFFE04968460BF0DAFA03
:108360006B464422290020000BF015FB68460EF0F6
:108370009FFFDB4968460BF0CDFA6B46452229008A
:1083800020000BF008FB68460EF092FFD5496846C6
:108390000BF0C0FA6B464622290020000BF0FBFAD6
:1083A00068460EF085FFD04968460BF0B3FA6B467D
:1083B0004722290020000BF0EEFA68460EF078FF05
:1083C000CA4968460BF0A6FA6B46482229002000ED
:1083D0000BF0E1FA68460EF06BFFC54968460BF0FA
:1083E00099FA6B464922290020000BF0D4FA68461E
:1083F0000EF05EFFBF4968460BF08CFA6B464A22CE
:10840000290020000BF0C7FA68460EF051FFBA4968
:1084100068460BF07FFA6B464B22290020000BF0D8
:10842000BAFA68460EF044FFB44968460BF072FA97
:108430006B464C22290020000BF0ADFA68460EF086
:1084400037FFAF4968460BF065FA6B464D222900AD
:1084500020000BF0A0FA68460EF02AFFA9496846F2
:108460000BF058FA6B464E22290020000BF093FACD
:1084700068460EF01DFFA44968460BF04BFA6B46A8
:108480004F22290020000BF086FA68460EF010FFFC
:108490009E4968460BF03EFA6B46502229002000A8
:1084A0000BF079FA68460EF003FF994968460BF025
:1084B00031FA6B465122290020000BF06CFA684615
:1084C0000EF0F6FE934968460BF024FA6B465222F2
:1084D000290020000BF05FFA68460EF0E9FE8E4995
:1084E00068460BF017FA6B465322290020000BF068
:1084F00052FA68460EF0DCFE884968460BF00AFA2C
:108500006B465422290020000BF045FA68460EF015
:10851000CFFE834968460BF0FDF96B4655222900D2
:1085200020000BF038FA68460EF0C2FE7D4968461E
:108530000BF0F0F96B465622290020000BF02BFAC5
:1085400068460EF0B5FE784968460BF0E3F96B46D5
:108550005722290020000BF01EFA68460EF0A8FEF4
:10856000724968460BF0D6F96B4658222900200064
:108570000BF011FA68460EF09BFE6D4968460BF051
:10858000C9F96B465922290020000BF004FA68460D
:108590000EF08EFE674968460BF0BCF96B465A2216
:1085A000290020000BF0F7F968460EF081FE6249C1
:1085B00068460BF0AFF96B463022290020000BF023
:1085C000EAF968460EF074FE5C4968460BF0A2F9C1
:1085D0006B463122290020000BF0DDF968460EF0D1
:1085E00067FE574968460BF095F96B463222290021
:1085F00020000BF0D0F968460EF05AFE514968464B
:108600000BF088F96B463322290020000BF0C3F9E8
:1086100068460EF04DFE4C4968460BF07BF96B4600
:108620003422290020000BF0B6F968460EF040FE17
:10863000464968460BF06EF96B463522290020004A
:108640000BF0A9F968460EF033FE414968460BF07D
:1086500061F96B463622290020000BF09CF9684630
:108660000EF026FE3B4968460BF054F96B46372264
:10867000290020000BF08FF968460EF019FE3649EC
:1086800068460BF047F96B463822290020000BF0B2
:1086900082F968460EF00CFE304968460BF03AF954
:1086A0006B463922290020000BF075F968460EF060
:1086B000FFFD310068460BF02DF96B464122290081
:1086C00020000BF068F968460EF0F2FD06B070BDB0
:1086D000BA810200F2810200A4810200F981020045
:1086E00001820200A9810200FF810200EC810200E8
:1086F000FA810200D4810200B9810200AE81020039
:10870000CA81020000820200C9810200B381020016
:10871000B8810200A5810200F3810200CB81020032
:10872000BE810200E0810200C3810200BD8102001F
:10873000C2810200F8810200C7810200CD810200DF
:10874000D3810200D9810200DF810200E5810200AD
:10875000EB810200F1810200F7810200FD8102003D
:10876000020070B5012300253C32137005641372BA
:10877000030004000C4E45331D7031000C300EF028
:1087800094FE2000310024300EF08FFE2000216D79
:1087900048300BF01AF923004C332565E565636515
:1087A000A3656034257070BD8B8602000200002333
:1087B00010B504001432C260183203604360836055
:1087C0000361037583624262137020321370036584
:1087D00042658265C365044800F062FB2000FFF734
:1087E000BFFF200010BDC04604210020F0B5036982
:1087F00091B005001400002B00D1D4E003000C332D
:1088000019000AA805930EF068FE21000AAA2000AC
:108810000BF0BAF906AB98710AA89C1D0EF048FD42
:108820002B0045331B780293002B00D1AEE02100D2
:1088300028000BF090F82A004C3201922B6D227820
:10884000019C002B09D0197C914203D399681C002C
:108850000B00F6E7D9682300F9E7019BA34202D099
:10886000237C934238D92B002C20483303930EF0FD
:108870003EFC03001033049306AB9F7903001C33C6
:108880004361060007740020019BB0613077A3426A
:1088900038D1EB6D834203D0AA6D137CBB420AD35F
:1088A000049A039908A80BF0B9F8089C099A002AC1
:1088B00060D0002C07D1019B934204D0137C9F42CF
:1088C000BF417B420293019B310002980EF082FC73
:1088D000EB6D0133EB65340021000AA814310EF072
:1088E000FCFD2B6C002B4ED10A9C0B9BE618B4426E
:1088F00049D0237806AAD11D28000B700134FFF758
:10890000D3FCF4E7237CBB4219D96B6D9C420BD09E
:1089100020000EF05BFC037CBB4208D2C26823003F
:10892000002A01D10400130022001C00BFE7049AB2
:10893000039908A80BF072F8089B099CF4E7BB4266
:1089400018D2AA6D94420BD020000EF029FC037CB3
:10895000BB4207D9E3680200002B01D122001800B6
:108960000400A4E7049A08A803990BF057F80898A4
:10897000099AF5E7300014300EF09AFC30000EF042
:10898000ABFB2600A7E70AA80EF092FC280006AB76
:10899000997924300EF056FD044905980EF085FDB6
:1089A000002344352B7011B0F0BDC0468B86020009
:1089B000F0B504008DB00C200EF099FB00900BF088
:1089C000B3F804ABDF1C9E4906A801F0B5F89D4D35
:1089D000782206A9280002F0A7FA06A80BF0F2FAFE
:1089E000994906A80AF096FF7E2301263B703B7842
:1089F000232B1BD0954906A80EF05BFD00280FD055
:108A000001F056F8236C02900391002B1ED1904880
:108A10000BF086FD002819D0230060331E70F6E7A6
:108A20008C4906A80EF045FD0028E9D18A4906A820
:108A300026000EF03EFD453600285ED0874906A888
:108A40000EF037FD00285AD1307058E0844802F00B
:108A500095FD230060330193002805D01E70236C20
:108A6000002BF3D12664F1E701F022F8019B1B787B
:108A7000002B29D0029A039B801A9941002902D128
:108A8000784B984225D940236F4906A83B700EF0D9
:108A90000CFD397805A80BF0BFFAC82205A95200D1
:108AA000280002F0B1F905A80BF08CFA236C002B1A
:108AB00003D139002000FFF7F7FBFA20400000F057
:108AC00009FE28000CF033F92300002260331A70ED
:108AD0008DE7FA232321DB00984209D8FA232D21C0
:108AE0009B00984204D8FA235B009842E5D92E21D6
:108AF00006A839700EF0A6FCCBE70123337031785D
:108B000005A80BF07CFA782205A9280002F00CFADF
:108B100005A80BF057FA00992000FFF7F1FB236C32
:108B20005149002B00D1514905A801F005F87822E0
:108B300005A9280002F0F8F905A80BF043FA012670
:108B400023003C331B78002B6BD000F0B1FF236C6B
:108B500002900391002B08D13D480BF0E1FC002866
:108B600003D0230060331E70F6E73D4802F006FD97
:108B7000230060330193002805D01E70236C002B66
:108B8000F3D12664F1E700F093FF019B1B78002BE3
:108B900021D0029A039B801A9941002902D1314BBE
:108BA00098421DD94021009A20000AF062FF40211E
:108BB00005A80BF031FAC82205A95200280002F0DE
:108BC00023F905A80BF0FEF9FA20400000F082FD21
:108BD00028000CF0ACF82300002260331A70AFE7D5
:108BE000FA23DB00984206D92321009A20000AF0DC
:108BF00040FF2321DCE7FA239B00984206D92D2170
:108C0000009A20000AF035FF2D21D1E7FA235B00FE
:108C10009842D9D92E21009A20000AF02AFF2E214D
:108C2000C6E72000FFF7CEFAFA20400000F052FD20
:108C30002000FFF795FD06A80EF03AFBC3E6C046FC
:108C400018820200F42100208B860200C2810200FB
:108C5000DC20002000820200218202002782020024
:108C6000CC20002088130000378202002B820200F3
:108C700037B5124D280000F05BF8114C1149220065
:108C800028000EF02DFA104D03230222082128009F
:108C900002F0F2FB22000D4928000EF021FA002319
:108CA0000B4D009301331A002800112101F052FBF3
:108CB0002800220007490EF013FA37BD04210020D6
:108CC00000200020D98C0100CC20002001390200B6
:108CD000DC2000203DA30100CA23144A9B0010B5EC
:108CE000C2501C330400C0180BF06CF9D0239B0059
:108CF000E0180BF067F920009130FF3001F01EFB07
:108D000020006930FF3001F019FB2000F03001F045
:108D100097FE2000D03002F09BFA2000643007F06C
:108D200083FD201DFFF72CFA200010BDB87B020048
:108D30001423F0B5040093B00093192218210430D5
:108D400002F01CFD2200250026006432B4351321F8
:108D500010001092B83607F073FD28000CF047FBA6
:108D600000221E2130000BF0E7FF2000D03002F07F
:108D70008FFA2200F03211920621464A119801F032
:108D800083FE20000027012369301A00009711217B
:108D9000FF3001F0DFFA200091300097012302221A
:108DA0001A21FF3001F0D6FA2000B9301A23012130
:108DB0000222FF3002F028FB300001F0D7F8E42255
:108DC0005200A050300001F01FFBE6235B00E05092
:108DD0000100E42220005200D130119BA2580095DE
:108DE000FF3001F061FD2000E13029001C22FF303E
:108DF00002F05CFE192320000F93013B0E93013B10
:108E00000D93013B0C93013B0B93013B0A93013BF8
:108E10000993013B0893013B0793013B0693013BF8
:108E20000593013B0493013B0393013B0293013BF8
:108E30000193F930013B082200930721013BFF30E9
:108E40000BF09BFFCA239B00E018290003F040FEB3
:108E5000D3239B00E0181D2102F0DCFBDD239B00E7
:108E6000E7501098277003210DF046FE23002200E2
:108E7000200009499C33A0321C6011605760074AEA
:108E800080305A610221012208F070F9200013B0ED
:108E9000F0BDC04634770200CF3B0200B93B020070
:108EA0000123F0B506788FB004001E4000D082E0A8
:108EB0000300D0331800039300F0EEFA00F0E6F957
:108EC00028200EF014F9050010300BF017F96C4B48
:108ED00018202B600EF00BF907006A4B0460082283
:108EE00031000C300C930D960EF047FB0CA9381D89
:108EF00008220EF026FB644BAF607B611223EE600C
:108F0000AB802E626E622900039802F035F90028CA
:108F100005D028000BF00CF828000EF0DDF8012336
:108F200022785A49134323702300B4331800059361
:108F30000CF063FA5649049005980CF05EFA00258F
:108F40000690642000F0C6FB2F002E00230069333A
:108F5000FF33180007930BF0E3FA00282DD1049B90
:108F6000002B33D1069B002B30D1DD2549494A48DF
:108F7000AD0000F08FFC6359002B1CD100F09AF873
:108F800001000AA800F0D8FD0BA80AF093FECA233E
:108F90009B00E018069B0BAA0AA90093039B03F011
:108FA000EDFD0BA80BF00EF80AA80BF00BF8CC2384
:108FB0009B00E35863510FB0F0BD20009130FF30AB
:108FC0000BF0AEFA0028CAD0182EC8DC200065309D
:108FD00039B22AB2FF23FF30013700F02BFEFFB277
:108FE000322000F077FB0136052F02D10027013532
:108FF000EDB2049B192E06D0002BA7D0234905986B
:1090000002F0E8FC01E0002BF8D104980EF064F8BF
:1090100006980EF061F81F491F4800F03BFCCA2378
:109020009B00E3180893DD239B00E3580993002B72
:109030001ED100F03FF801000AA800F07DFD0BA84A
:109040000AF038FE01230BAA0AA900930898039B93
:1090500003F094FD0BA80AF0B5FF0AA80AF0B2FFCE
:10906000CC239B00E3580993DD23099A9B00E2502F
:109070002100079AF031089803F07AFF66E7C046AE
:10908000FD030000413C0200013C02007882020026
:109090008382020000200020001C0020BFF34F8FBD
:1090A000024B034ADA60BFF34F8FFEE700ED00E0AA
:1090B0000400FA05F0B58DB005AF19221549380046
:1090C0000EF03FFA0022144B05245A7180225205FB
:1090D000566E0122250001940292039301993000FB
:1090E00008F048FB0800029908F0BEFA019B0399BA
:1090F0006B430193029B361A6B430293631E2C1B36
:109100006C433C19225C1C1ECA54E7D108000DB008
:10911000F0BDC04693820200FE270020F0B597B054
:1091200018220021060010A80EF027FA132110A81B
:109130000DF021FE032110A80DF0ECFE4C4B1B6836
:10914000002B00D10133DBB202934A4A01230021F4
:109150000BA807F045FF484B9E4200D9002672B687
:10916000464B64211D68464B30000793052408F0E8
:1091700005FB60435030281808900A21300008F0A1
:10918000FDFA0A2108F0E0FB6143503169180991AA
:1091900030000A2108F0D8FB8023614300245031BD
:1091A00069189B010A910193029B002B5DD0002559
:1091B00000272E1F07AB9B190593032C03D1802397
:1091C00000249B01019307AB5B592E4A0393630074
:1091D000D31804930023190006205843049A161844
:1091E0007678B4466246039EB25C10269446049A92
:1091F000105C62460641164202D0012098400143AD
:109200000133092BE8D1C9431F4B059A09011940C5
:109210001268039B934225D1312F23DC00210BA838
:109220000DF039FFFA23159A1199DB0010680142FD
:109230001BD0013B002BF9D1019B01345B00019352
:10924000FA230137E4B25B009F42B6D10435102DFA
:10925000AED1074B1B68002BA6D0029F013FFBB28B
:109260000293A1E7019B1943D9E7FFF717FFC04617
:1092700080240020F0FF0000E7030000042000200D
:10928000E2820200AC820200F01F0000F8B5002369
:10929000124C23600AF02FFD002808D00421200082
:1092A0000AF025FD002801D00D4B2360F8BD0122F6
:1092B000A12704250B4B0C491A602268FF00486067
:1092C0004E68002EFCD0DE591202013D3243002DC3
:1092D000F5D1226001225A60E8E7C0467C240020D4
:1092E000ED5EBC0B00D00040FCD00040F0B585B076
:1092F0001F000AAB1B880600029115000393002F84
:109300001BD028200DF0F3FE6B4604001989039B47
:10931000AAB200933B000AF0F5FD336821005B68B8
:1093200030009847002806D020000AF001FE2000F7
:109330000DF0D2FE024805B0F0BD0248FBE7C04682
:1093400016FCFFFF17FCFFFF0B4B70B51C68002CD1
:1093500010D0656D00F0ACFBA36C002901D18342F5
:1093600006D820000AF0FAFC044920000AF0E4FCC8
:109370002C00ECE770BDC04688240020A824002003
:10938000F0B593B007932A4B04AC1E680490059186
:109390000692002E4AD0274B258867881C68002338
:1093A0000293002C2ED0636D23480393A36C9AB2D2
:1093B000A36C1B0C99B2854214D12048824211D172
:1093C000002B01D0B9420BD1029B002B08D1200009
:1093D0000AF0C4FC1A4920000AF0AEFC01230293F3
:1093E000039CDEE7002A01D09542F9D1002B01D081
:1093F000B942F5D120000AF0B1FC114920000AF071
:109400009BFCEDE70F4BEB18012B0FD910233A0013
:10941000009329000C4B08A80AF074FD336808A9D2
:109420009B683000984708A80AF082FD13B0F0BD91
:1094300084240020B4240020FE030000FF03000069
:10944000A824002002FCFFFF8193010010B572B632
:109450000B4B1C68002C08D020000AF07FFC002376
:10946000E364084B2000E36310BD62B65C200DF09E
:109470003EFE5C22002104000EF07FF8EFE7C046BC
:10948000AC24002000400020024B18780123184033
:109490007047C04604280020F7B50600FFF7F4FF28
:1094A000051E33D11A4C2660FFF7D0FF194B1A491D
:1094B00018600AF041FCFFF7C9FF184B1860184B01
:1094C0004363184B8363206800280ED0C027164ED4
:1094D0002A00330015490097FFF708FF0097330073
:1094E0002A0013492068FFF701FF0C200DF0FFFD53
:1094F0000023838083710F4B03600F4B836000F068
:10950000EFFA01230D4A11780B431370F7BDC046E3
:1095100084240020B8240020A8240020B0240020A7
:10952000FC3F0020233E020081930100FF03000066
:10953000FE03000054770200499301000428002034
:10954000F7B506000D0017000193002802D1002492
:109550002000FEBD0029FAD0FFF778FF041EF6D0E8
:10956000074B019A4363066045608760054B002AFC
:1095700000D0054BA363054920000AF0DDFBE7E7B7
:10958000FC3F0020ED3D02000B3E0200A82400201D
:10959000024B1868434258417047C046A824002037
:1095A000002310B504499C006258002A01D0013301
:1095B000F9E76050100010BD90240020002310B582
:1095C000044A99008C58844201D00133F9E7002005
:1095D000885010BD9024002010B50024084BA20034
:1095E000D058002802D003685B6898470134062CE5
:1095F000F4D1044B1B68002B00D120BF10BDC04626
:1096000090240020A8240020F8B5FFF73DFF002893
:109610001CD02A4D2C68E36CDA0718D502273B438F
:10962000E364274B1E680423F26C30001343F36499
:10963000636BF3630AF0B8FB3000716C04F08DF8D3
:109640002868C36C3B4201D004F0C1F8F8BD1D4F3F
:109650001D4E3A683168002A1ED129602A6891425D
:1096600008D11B0706D52C60FFF7B6FF3B68002B1F
:10967000FAD02B6029688C42E8D03368994214D123
:10968000124B4B63124B8B6320000AF08DFB296851
:10969000626C4B6C20000DE0206DB84203D1606D10
:1096A000002800D002002A60D8E79C42ECD10022BA
:1096B00010004B6C04F010F8C8E7C046B824002036
:1096C0008C240020A8240020B0240020FC3F00208F
:1096D000233E020070B50500FFF7D6FE002803D137
:1096E00028000DF00BFC70BD0C4B1C68E36CDB0715
:1096F00006D5FFF7ABFE0A4B1860002800D0040027
:1097000000F0D6F92D18A56420000AF027FB0549C2
:1097100020000AF011FBFFF777FFE4E7B8240020F0
:109720008C24002088240020F0B51E4B1E4F1C689E
:109730003B6885B006000391002B30D0FFF7A4FEF4
:1097400000282CD0E36CDB070ED5FFF77FFE174B0C
:10975000051E186008D00AF001FB154928000AF020
:10976000EBFA2C00FFF750FF039B20001B04334350
:10977000A3640AF0F3FA20000E490AF0DDFA0E4B5A
:109780000024F318012B07D9C0230093039A0B4B35
:1097900031003868FFF7AAFD200005B0F0BD084C85
:1097A000FAE7C046B8240020842400208C2400203E
:1097B000A8240020B424002002FCFFFF81930100B4
:1097C00016FCFFFF10B5FFF75FFE002809D0054C1F
:1097D00020680AF0C3FA044920680AF0ADFAFFF7DE
:1097E00013FF10BDB8240020AC240020F7B50700FB
:1097F0000D0000282ED0FFF747FE00282CD00724AC
:10980000164E3068C36C1C4007D0154A290038003A
:109810000AF0BBFA00242000FEBD03F0C0FF0221C5
:109820003268D36C1940019103D003218B43D36478
:10983000F1E701242343D3642800B8473268D36C8E
:109840001900A143D164019C5B07E4D528000AF00C
:10985000D4FAE0E7034CDEE7034CDCE7B824002051
:10986000FB3D020017FCFFFF16FCFFFF020010B5D6
:10987000014B12CB12C210BDBC240020034B1A684E
:10988000034B1A607E225A607047C04604200020B5
:10989000BC24002070B5114E3278022A1AD08142C1
:1098A0001AD90C1A072C17D90D00032305432B4096
:1098B00012D172B60A4DD2005051AA1851608022BE
:1098C000A40812061443046032780132327062B682
:1098D000180070BD0348FCE70348FAE7062800209B
:1098E000C424002013FCFFFF17FCFFFF70B5134CCE
:1098F00006002378124D002B0CD1124912482B7010
:10990000FFF7C8FF114B984202D11E20FFF706FC5B
:109910000123237000242B78A34209DD0C49E300C6
:10992000C91830000AF083FA002805D10134F2E7A3
:109930001420FFF7F3FB002070BDC046052800206F
:109940000628002000380020D028002017FCFFFF48
:10995000C424002070B5002819D0104B10491C7881
:1099600000239C4216DDDA005558854210D28A1831
:10997000526882420CD9041F2368002B02DC1E208F
:10998000FFF7CCFB802322681B061343236070BDC6
:109990000133E6E71E20FFF7C1FBF8E706280020A9
:1099A000C424002070B5051E14DD0B4E0B4C33682B
:1099B000002B02D020680DF01CF9FA212068002449
:1099C000074B89008361C462694335600DF019F962
:1099D000200070BD0348FCE7D424002004250020AB
:1099E0008D9A010017FCFFFFF8B5114F06003D6886
:1099F000002D0AD130200DF07AFB040006F044FF60
:109A00000C4BA5612360E5623C600B4D2B68002B7D
:109A100009D110200DF06BFB04000DF0B3F820000D
:109A20002C600DF089F83000FFF7BCFFF8BDC04690
:109A300004250020547F020000250020014B1868F7
:109A40007047C046D424002070B50D4C2368002B0D
:109A500003D00C4B1B68002B02D10620FFF7C4FF7C
:109A600020680DF080F802000749C3170D684E68A2
:109A70005219734120680A604B600DF07AF870BD8E
:109A80000025002004250020A820002010B5FFF7A5
:109A9000DBFF0024054BA200D058002802D0036849
:109AA0001B68984701340A2CF4D110BDD82400203B
:109AB00010B5FFF7C9FFFA22034B920018685968E6
:109AC000002307F081FF10BDA820002010B5FFF78C
:109AD000BBFF024B1868596810BDC046A820002083
:109AE0000B4B10B51B680400002B03D0094B1B68FF
:109AF000002B02D10620FFF777FF0023064A9900CA
:109B00008858002801D00133F9E78C5010BDC046B9
:109B10000025002004250020D8240020002310B5B3
:109B2000044A99008C58844201D00133F9E700209F
:109B3000885010BDD824002010B50400002902D0A0
:109B40000B78002B03D1034B2360200010BD0AF0DB
:109B500040FAFAE764770200F8B504000E00150039
:109B600000290AD00B78002B07D0002A05D0080066
:109B700097B20DF042FD874203D90B4B23602000C2
:109B8000F8BD681DFFF7B2FE20600AF0D1FB236824
:109B90002A005F8023683100181D0DF0D2FC236875
:109BA0005D1900232B71EAE764770200014B036023
:109BB0007047C0466477020010B50548054C206028
:109BC0000AF0B9FB044A054920000DF089FA10BDDE
:109BD000647702000825002000200020C53F020015
:109BE000084B73B51C680500002C0AD001002668DC
:109BF0000831082268460DF0A4FC0CCD3168200025
:109C0000884773BD0C250020014B03607047C04698
:109C10006C77020010B50400002903D1044B0360E7
:109C2000200010BD016008000AF085FBF8E7C0467F
:109C30006C77020030B500684488A1420CDA858850
:109C4000AA4209DA002907DB002A05DB5443401841
:109C500000198371002030BD0048FCE717FCFFFFAE
:109C6000F0B5070085B00E001D00002921DD002A97
:109C70001FDD002B1DD00468638803938B4200DD39
:109C80000391A3880293934200DD029200230634DD
:109C90000193019B029A93420EDA29002000039A55
:109CA0000DF04FFC3B68AD195B88E418019B013354
:109CB000EEE7024805B0F0BD0020FBE717FCFFFF10
:109CC000F8B504000D0016001F00002901DB002A72
:109CD00002DA0E4B2360F8BD100048430630FFF750
:109CE00005FE20600AF024FB23685D8023689E80C7
:109CF000002F06D03B00320029002000FFF7B0FF04
:109D0000E9E720000AF04BFAE5E7C0466C7702006D
:109D1000F7B506000D1E03D1244B03603000FEBDD5
:109D200000200F000400010001903B78002B1AD0A6
:109D30003022524294469C446246092A11D90A2B89
:109D40000AD1019B241801330193A14200DA2100BA
:109D5000002004000137E8E70028FBD00134002090
:109D6000F8E70120F6E70127019A09B212B23000A4
:109D70007F42FFF7A5FF39000A2033689A1D2C782F
:109D8000002CCBD02300303B092B08D8FB43DB173A
:109D90003B4043431B19303B1F000135EFE7002FC9
:109DA000FBDB177001320F00F7E7C0466C7702004B
:109DB000F0B5040089B006A80E0002921D00FFF75E
:109DC00055FD236802995A88914235DA9B889D4255
:109DD00032DA1F2E30D9079B01939E422CDC0523DB
:109DE000002273430393069B0493039B04999B18DF
:109DF000A03BCB5C00210593AE18029BCF182368D3
:109E00005888019087420EDA9888B0420BDDDB1942
:109E100010270F41019870431B1805980740781EC2
:109E200087417F429F7101310529E6D10132052A20
:109E3000DBD1002009B0F0BD0048FBE717FCFFFFB5
:109E4000F7B50468070063880E1E01931EDD994272
:109E500018DA0023063400933B68009A9B889A42E4
:109E600012DA019BA1199D1B2A0020000DF069FB4D
:109E7000601931000AF076F93B685B88E418009BB2
:109E80000133E8E70AF08BF9002000E00048FEBD4E
:109E900017FCFFFF10B50548054C20600AF04BFA8F
:109EA000044A054920000DF01BF910BD6C77020033
:109EB00010250020002000205741020010B5054C5D
:109EC000012120000AF02BFA034A044920000DF07A
:109ED00007F910BD1425002000200020DB420200FD
:109EE0000388074A10B50120934208D0834202D06C
:109EF0000020DB0703D41E20FFF710F9002010BD5F
:109F0000FFFF00000048704716FCFFFF10B532202D
:109F1000FFF704F9004810BD16FCFFFF10B5124C06
:109F2000002308348280046041620224142201006C
:109F30008371847203638386028136310A78C36039
:109F4000A243F1342240036143618361C361036230
:109F50000A70020040321370021DD3870133438719
:109F60008387C38710BDC0468C770200F0B5544F7D
:109F700097B03B6806000593002B00D08BE006AC41
:109F80000B331C222121200001F076FA0EAD0B23A9
:109F90001D2222210AA801F06FFA0B231B22232184
:109FA000280001F069FA08200DF0A1F80122059BB4
:109FB000110004900BF04CFD3A2130000BF0A2FA96
:109FC00000281DD0A38812ADAB80A3795C20AB71B3
:109FD0003C4B1293A3681493237B2B73637B6B73AB
:109FE000A37BAB730DF083F8042301933633009306
:109FF0002A00049B3100040002F05CF83C604AE057
:10A00000322130000BF0ACFA00281CD0A38812AD2E
:10A01000AB80A3795C20AB712A4B1293A368149395
:10A02000237B2B73637B6B73A37BAB730DF05FF8A8
:10A03000042301932E3300932A00049B3100040073
:10A0400002F0D6F9DAE73C2130000BF044FA0028A0
:10A050002CD0AB8812ACA380AB79A420A371194B90
:10A060001293AB6814932B7B23736B7B6373AB7B73
:10A07000A3730DF03CF8052305000293013B019307
:10A08000383300932200049B310001F031FF0E4B66
:10A090003D6044351D600C4B094C1868002802D007
:10A0A00021680AF0ABFA206817B0F0BD44200DF02B
:10A0B0001EF8042204990400FFF730FF9EE7C04613
:10A0C000182500207C7702001C250020F0B561498E
:10A0D000C56885B08D4254DA0300022236331B78FE
:10A0E000134059D104698C4264DA02003632127886
:10A0F000520768D4426901920200019E40328E42AA
:10A100006FDA010036310978090774D4002B7DD14C
:10A1100013780293002B16D006000127011DCB8F68
:10A12000363601339BB2CB8703963678BC46374030
:10A1300000D188E01D2B06D963469E43039B1E7009
:10A140000023CB8713700AF039F9434A0723904262
:10A1500076D94249043B8D4272DBC822013392001A
:10A1600095426DDC023B8C426ADB013B944267DC2A
:10A1700001980433884263DB0133904260DC0023A2
:10A180005EE0C822002352009542ABDD0300363367
:10A190001A7800239207A5D4012306001F00363643
:10A1A00032785408A7433C0002279C40BA4322431C
:10A1B000327097E7C822520094429BDD020036328B
:10A1C0001278520796D406000122363633789F085B
:10A1D000BA439700042293431A003A433270012392
:10A1E00088E7C821019E49008E428FDD010036318B
:10A1F000097809078AD40100012636310B78DF0877
:10A20000BE430827F600BB4333430B701378032B80
:10A2100000D97DE70133DBB21370012B03D100219C
:10A22000031DD98774E7042B00D071E70200363292
:10A230001178033B0B43137000230430C3870B33A7
:10A24000180005B0F0BD092B00D87CE7029BCF8732
:10A25000013B77E770FEFFFFFF700200E0FCFFFFAD
:10A2600070B5C369C1681A68451D8AB00400EB7FE8
:10A27000114255D0002B58D1EB7F082B0DD901226C
:10A28000A379134209D11343A371A188130006A82F
:10A2900009F03EFFFFF70CFC2062EB7F012B23D877
:10A2A0000123A2791A421FD00025A188A57102229C
:10A2B00002A809F02DFFA31DDE7F012E14D1FFF7A8
:10A2C000F7FB2B00226A801A994100900191019BB3
:10A2D000A188AB4203D1174B009A9A4227D9012398
:10A2E000042206A809F014FF0322A3791340012BCE
:10A2F00014D1FFF7DDFB0023226A801A99419942AD
:10A3000002D10D4B984209D90223A279A1881343A7
:10A31000A3710522012306A809F0FAFE0AB070BD58
:10A320000B2BA9D80133EB77A6E7013BFBE7330002
:10A330000322D6E7E7030000DB05000010B50400A8
:10A34000034B08330360FFF7E9FB200010BDC04654
:10A35000C0770200F0B5070000250E00040085B0AC
:10A3600002930AAB1B78083703930F4B0192083313
:10A370000360858085712900182238000DF0FDF8F2
:10A38000039A310038000CF0FBFC019B029AA38079
:10A39000A31DE671DA77631D25622000DD77FFF7E4
:10A3A0009FFB200005B0F0BDC07702000048704759
:10A3B00016FCFFFF10B53320FEF7B0FE004810BDBD
:10A3C00016FCFFFF002310B50400838083710D4845
:10A3D0002164083020608020C000A061E06120621C
:10A3E000E3602000236163616362A362E36223632D
:10A3F0006363A363E363636411000AF0D7F820008A
:10A4000010BDC046D8770200F0B5534F97B03B68F7
:10A4100006000593002B00D08BE00B331C2221217A
:10A4200006A80AAC01F028F80EAD0B231D2222214C
:10A43000200001F021F80B231B222321280001F02A
:10A440001BF808200CF053FE0122059B110004901C
:10A450000BF0FEFA1D2130000BF06BF800281DD028
:10A46000A38812ADAB80A3796020AB713B4B1293F4
:10A47000A3681493237B2B73637B6B73A37BAB73F6
:10A480000CF035FE05230193183300932A00049B3A
:10A490003100040001F0E2FE3C604AE03C21300063
:10A4A0000BF075F800281CD0A38812ADAB80A379FF
:10A4B0006020AB71294B1293A3681493237B2B73F9
:10A4C000637B6B73A37BAB730CF011FE05230193CD
:10A4D000373300932A00049B3100040002F02AF86D
:10A4E000DAE73C2130000AF0F6FF00282AD0AB88DA
:10A4F00012ACA380AB79A420A371184B1293AB6864
:10A5000014932B7B23736B7B6373AB7BA3730CF074
:10A51000EEFD052305000293013B019338330093C0
:10A520002200049B310001F0E3FC0D4B1D6044351B
:10A530003D600B4B084A1B681068002B00D0436439
:10A5400017B0F0BD48200CF0D2FD0522049904009C
:10A55000FFF738FFA0E7C0461C2500207C770200EB
:10A560001825002082B0F0B50400EDB0642073938C
:10A5700072920CF0C3FC052210A8110009F018FE1D
:10A58000974911A8FFF7C4FB002221AB6CA91A6000
:10A590005A609A600C339942F9D11922002113A80C
:10A5A0000CF0EBFFA0680AF0C0FB00260B90FF2127
:10A5B000A06800F047FD8B4FA06800F05DFB079698
:10A5C0000996884B9F4203D0874B9F4200DBFDE0FA
:10A5D000A0680AF0ACFBA56884491AA8FFF7ACFA9A
:10A5E00078221AA9280000F075FC1AA809F0EAFCE4
:10A5F00000267C4F0322099B606801331A400992B0
:10A6000009F074FF0500606809F077FF0022784BBD
:10A6100005929D4210DB013205922A00C8320BDB05
:10A62000AA22042192000591954205DC022205929E
:10A63000C82D01DD0132059200220692984210DBFE
:10A64000012306930300C8330BDBAA2304329B00CB
:10A650000692984205DC02230693C82801DD0133E7
:10A66000069310A809F09BFD002513ABEB5C012BB2
:10A6700008D160496B00CA185278C95C10A8FF2342
:10A68000FFF7D8FA0135192DEFD16B4618229A5EE3
:10A690006B4610A81421595E099BFFF7CBFA002FD7
:10A6A00001DB0F2E07D90023A068009374301A0035
:10A6B00010A909F08AFD01230893089B05995A0007
:10A6C0004C4B9B189A1E12788A4226D1013B1B786C
:10A6D000069A934221D1089A6CAB9B18663BFF3BCC
:10A6E0000A931B78012B18D00C23079A2168534337
:10A6F0001D0000220CA809F083FF21AA2B0094461C
:10A700000CAA634423CA23C301220A9B01361A7090
:10A71000079BF6B20133DBB20793089B0133089322
:10A720001A2BCAD164200CF0E9FB079B643F3FB2AF
:10A73000182B00D845E71A0021A91AA80AF06EF9CB
:10A740006A461DAB23CB23C21B6813601A991B9A60
:10A750001C9B206809F03CFFE568002D0CD02649C1
:10A7600012A8FFF7E9F91C231AAA12A928000AF077
:10A770007DFE12A809F026FCA0680AF0D8FA11A9FB
:10A7800012A8A56809F0F4FC00221C4B009212A943
:10A7900001932800130000F00DFB12A809F0DBFC68
:10A7A000FA2080000CF0AAFBA0680AF0C0FA0B990E
:10A7B000A06800F047FC11A809F0CDFC10A809F032
:10A7C000CAFC6DB0F0BC08BC02B01847002F02D024
:10A7D0000F2E00D00EE7A06800F04EFA0AE7C04640
:10A7E000C28402008C3C0000D18AFFFF0785020072
:10A7F00058FDFFFF278502001C850200DC050000D4
:10A80000F0B587B001930EAB1B88060003930D9B38
:10A810000D000093019B02920C9F002B3CD0002F57
:10A8200002D1009BDB0737D528200CF060FC040028
:10A83000103009F063FC029B1820258063800CF027
:10A8400056FC0500009B08220593019B0021036034
:10A850000C3004970CF091FE082204A9281D0CF07E
:10A8600070FE0E4B02226B6100230399E3602362AA
:10A87000636233680A43A560A2805B6821003000F0
:10A880009847002806D0200009F052FB20000CF069
:10A8900023FC034807B0F0BD0248FBE74146020035
:10A8A00016FCFFFF17FCFFFF70B58CB08360109B98
:10A8B00001604260C3600400184918000AF09DFD61
:10A8C000051E14D001001C22103105A80CF039FE21
:10A8D0006A4608AB43CB43C21B68136020680599E6
:10A8E000069A079B09F074FE28000CF0F5FB0C4B50
:10A8F000186800280ED00B4A05AB0592002206927C
:10A90000C03202926A4622CB22C2230003220521D2
:10A91000FFF776FF20000CB070BDC0461C8502001A
:10A920000C25002065A50100F0B5040085B0637A10
:10A930009C46002B04D120000AF08EF805B0F0BD33
:10A94000A37A266F01931023019AF35600259B18D2
:10A9500001229A402900F36803920293029BAB42C2
:10A9600031DDB368019A6B439B1872695B00E77A2B
:10A97000D3181A785878E379012F14D15F1E3F1A43
:10A9800010003A005B004343606F8218D3189B7934
:10A99000634500DD6346627B1A4202D00123AB406F
:10A9A00019430135DAE7022F05D15F1EBA1A277A5B
:10A9B000013F381AE6E7032FE4D1277A013FBF1A97
:10A9C00002003800DEE71123C943F356606C99405A
:10A9D00023691940039B19430CF05DFBA27B072AF6
:10A9E000ACD8637B0C495B006373531CDBB29000F3
:10A9F0004158A373022A03D808000CF074FA96E7B2
:10AA0000064B2000236300236363054BE462236449
:10AA100014300CF0F6F891E70478020029A901003F
:10AA2000434A020010B50400044B03600CF0E1F847
:10AA3000200005F03FFF200010BDC046547F0200FB
:10AA400010B504000E4B08330360FFF767F82000D1
:10AA5000743009F080FB2000603009F07CFB20009E
:10AA6000583009F0AFFA2000503009F0ABFA20005E
:10AA7000044B14306361FFF7D5FF200010BDC046C2
:10AA800024780200887F0200F8B500250400324BCC
:10AA90008580083303608571143016000F0005F0BF
:10AAA000F3FE20002D4BE562636125645030FFF713
:10AAB0007DF820005830FFF779F820006030FFF76C
:10AAC000A3F820000423F25E33682667590009B218
:10AAD000743009F06DFB3368226FE37173680126EF
:10AAE000237210236581A7802561D3569168591878
:10AAF000994204DD3000984001330543F8E7112303
:10AB00000120D356D1685918994206DD02009A40B7
:10AB10002669013332432261F6E714200CF0E7FA8C
:10AB2000226900212A430123060006F059FAFF2377
:10AB3000220063720133A381002348326664A37349
:10AB400020001370A366FEF7CBFF0123A27920003B
:10AB50001343A371F8BDC04624780200887F020029
:10AB6000F0B5437A85B00400002B04D1200009F031
:10AB700073FF05B0F0BD0122837A11009C461023BB
:10AB8000066F0025F3560392634499400291290011
:10AB9000F3680193019BAB422CDDB36872696B4390
:10ABA00063445B00E77AD3181A785878E379012F69
:10ABB00010D15F1E3F1A10003A005B004343606FE4
:10ABC0008218D3189B79002B02D0039BAB4019430A
:10ABD0000135DFE7022F05D15F1EBA1A277A013F40
:10ABE000381AEAE7032FE8D1277A013FBF1A02009B
:10ABF0003800E2E71123C943F356606C994023699A
:10AC00001940029B19430CF046FA667AB31EDBB278
:10AC1000FC2B14D8FEF712FF0B4B05002363002317
:10AC20000A4863630A4BFF21E4622364704306F021
:10AC3000A5FD29004143200014300BF0E2FF637AA8
:10AC4000012B00D995E791E7594A0200B6030000AD
:10AC5000434A02001FB5012381881A00684609F0A3
:10AC600057FA012303491A00684609F051FA05B062
:10AC700000BDC046FE0300001FB5030048331A782C
:10AC80000400002A0DD000221A70012381881A00C6
:10AC9000684609F03DFA012304491A00684609F0A4
:10ACA00037FA2000743009F07AFA1FBDFF03000064
:10ACB00010B548300378002B06D00378012B03D061
:10ACC0000121024809F089F810BDC046FF030000C9
:10ACD00010B501210400062009F07FF8064B9842C8
:10ACE00008D148342378002B04D02378012B01D0DD
:10ACF00020BFF7E710BDC04616FCFFFF70B5060089
:10AD0000141E19DB050048352B78002B02D02B7858
:10AD1000012B13D1002330001A007430FFF748F8DC
:10AD2000002C07D033004A331C80002407234C3604
:10AD300034802B70200070BD014CFBE7014CF9E71B
:10AD400017FCFFFF12FCFFFFF8B517000A680500AB
:10AD500052880B00012A09D10021180009F0C1F91D
:10AD6000002201002800FFF7C9FFF8BD002F19DD00
:10AD7000060048363278002A02D03278012A13D1F0
:10AD80002A00002428005C3219001480583009F091
:10AD900083F92B004A331F8003234C352C8020007D
:10ADA0003370E2E70148E0E70148DEE717FCFFFF08
:10ADB00012FCFFFF73B5079C0500002C1CDB06008E
:10ADC00048363078002802D03078012816D106980D
:10ADD0001BB2C0B20090280012B2743009F0F5F92D
:10ADE000002C07D02B004A331C80002407234C354D
:10ADF0002C803370200076BD014CFBE7014CF9E755
:10AE000017FCFFFF12FCFFFFF7B505000E00171E31
:10AE100026DDFFF74DFF2B0048331C78E4B2002CF1
:10AE200020D133685B88012B09D12100300009F063
:10AE300058F9220001002800FFF760FFFEBD310035
:10AE400001A809F021F93A0001A92800FFF77CFFC9
:10AE500001A809F0B7F82800FFF73AFF2000EDE756
:10AE60000148EBE70148E9E717FCFFFF11FCFFFF92
:10AE7000F0B587B00D9C06000F0002920393002CE2
:10AE800020DBFFF715FF330048331D78EDB2002DAE
:10AE90001AD1390005A809F06BF90C9B01940093B5
:10AEA000029A039B05A93000FFF784FF05A809F06B
:10AEB00052F9002C03D03000FFF70AFF2C002000CD
:10AEC00007B0F0BD014CFAE7014CF8E717FCFFFFB3
:10AED00011FCFFFFF8B50400171E1DDD0600483603
:10AEE0003378002B02D03378012B17D12200E3797D
:10AEF0005632013B137023000025200054331D807F
:10AF0000503009F0C9F823004A331F80022328007B
:10AF10004C3425803370F8BD0148FCE70148FAE75E
:10AF200017FCFFFF12FCFFFFF7B505000F00161E10
:10AF300018DDFFF7BDFE2B0048331C78E4B2002C6F
:10AF400012D1390001A809F09FF8320001A92800A8
:10AF5000FFF7C0FF01A809F035F82800FFF7B8FE99
:10AF60002000FEBD0148FCE70148FAE717FCFFFF9F
:10AF700011FCFFFFF8B50400171E2DDD0600483652
:10AF80003278002A02D03278012A27D15D42069B0E
:10AF9000FF331FD16B1D22001BB2643213802300CC
:10AFA000200066331D70603009F0EAF823000022AB
:10AFB0006C331A70954200D03D0023004A331D8047
:10AFC000079B00205A1E9341013F4C3405332780D4
:10AFD0003370F8BD069BDEE70148FAE70148F8E761
:10AFE00017FCFFFF12FCFFFFF0B587B005000F0054
:10AFF000161E03931EDDFFF75BFE2B0048331C7803
:10B00000E4B2002C18D1390005A809F0B1F80D9B65
:10B01000320001930C9B05A900932800039BFFF7C6
:10B02000A9FF05A809F097F82800FFF751FE2000B6
:10B0300007B0F0BD0148FBE70148F9E717FCFFFF47
:10B0400011FCFFFFFF2902D8417200207047014820
:10B05000FCE7C04617FCFFFF13B5040004A8007806
:10B06000009020000BF0F3FD002801D1207516BDE3
:10B070000048FCE70EFCFFFF13B5040004A80078AD
:10B08000009020000BF0CBFD002801D1207516BDEB
:10B090000048FCE70EFCFFFF7FB50D0011000F22FA
:10B0A0006A4404001E1E117016D0089B002B13DD8D
:10B0B000012329000093FFF7DFFF002802D0074893
:10B0C00004B070BD0090089B320029002000FFF7FB
:10B0D000C3FF0028F4D0F2E70148F1E70EFCFFFFC0
:10B0E00017FCFFFFF7B507000D1E3FD00023022617
:10B0F00004690193002C35D0AA88A38853403342B9
:10B1000004D1324204D1AB88334226D0646AF1E7DD
:10B11000A968A0680AF081FC0028F4D02B88002BD5
:10B1200002D022889A42F1D16B88002B02D062882B
:10B130009A42EBD1EB68E268934201D0002BE5D153
:10B140007B68002B01D020009847A288084B13434E
:10B15000A380019B01330193D8E7A368AA689342B7
:10B16000D4D1DBE7019B2000002B00DC0148FEBDB1
:10B170000080FFFF17FCFFFFF0B5060085B00D1E35
:10B180005DD001270469002C26D00221AA88002363
:10B190000A4202D0A3885B083B40226829688A42A1
:10B1A00014D1A068A968002B0ED00AF036FC002844
:10B1B0000CD0EB68E268934208D1A3881AB2002A47
:10B1C00006DB204805B0F0BD8842F2D0646ADAE7B9
:10B1D0005B045B0CA380F4E730692A88002807D160
:10B1E000356101231849684608F092FF0020E9E71D
:10B1F000010003001C88944206D25C6A1900002CEE
:10B200000DD02300F6E723001C88944207D15F8805
:10B210006C88A74203D85C6A1900002CF3D18842DD
:10B2200009D10B889A4204D305D148886B8898428B
:10B2300001D96962D4E74B6A6B624D62D1E703487A
:10B24000C0E7C04616FCFFFFFD03000017FCFFFF30
:10B25000064B10B51A00040008322C3302608360DC
:10B260000830FEF7ABF9200010BDC0463C78020064
:10B2700008B4024B9C46083808BC604751B2010034
:10B2800008B4024B9C46083808BC6047A14E020037
:10B290000C4A002311002C32083110B54360838121
:10B2A00083738260036143618361C383016004002F
:10B2B0000830FEF775F9044B1A68002A00D11C60AB
:10B2C000200010BD3C7802000C250020F7B50E00D0
:10B2D000012504690192002C36D0238832889A42D5
:10B2E00001D0002B23D1638872889A4201D0002BB1
:10B2F0001DD1FEF7C9F80123002806D0C022A3887B
:10B300001340C03B5A425341DBB2019A934219D1D8
:10B31000A7883BB2002B15DB10223100A0180CF0DF
:10B3200010F940231F4204D0200009F0C2FD646AD6
:10B33000D1E7FEF7A9F80028F6D021000348FEF770
:10B3400055FAF4E70025F2E72800FEBDB34E0200EF
:10B3500008B4024B9C46083808BC60473B500200CA
:10B36000F0B587B001930EAB1B88060003930D9BCD
:10B370000D000093019B02920C9F002B3CD0002FEC
:10B3800002D1009BDB0737D528200BF0B0FE04006C
:10B39000103008F0B3FE029B1820258063800BF06C
:10B3A000A6FE0500009B08220593019B0021036077
:10B3B0000C3004970CF0E1F8082204A9281D0CF0C9
:10B3C000C0F80E4B02226B6100230399E3602362F5
:10B3D000636233680A43A560A2805B682100300085
:10B3E0009847002806D0200008F0A2FD20000BF0AE
:10B3F00073FE034807B0F0BD0248FBE7755002003A
:10B4000016FCFFFF17FCFFFFF0B504001600002537
:10B410008380164A164B857102602181468105732F
:10B42000186889B08C46A8421DD0124A059504922E
:10B43000C02202926A4604AB82CB82C223002A0059
:10B440006146FFF78DFFC022094B0A491868029236
:10B450006A46069106AB079582CB82C223002A007A
:10B460003100FFF77DFF200009B0F0BD80780200B9
:10B470000C2500209F51020030B5002403730123E6
:10B48000034D84710560818082734373846030BD95
:10B490007C77020070B583790400DB0702D58068F1
:10B4A0000BF01AFEA3799B0702D5A0680BF014FEDF
:10B4B000A3795B0707D5A0230021144ADB00D150F4
:10B4C000A0680BF009FEA3791B0708D5A568002D1D
:10B4D00005D028000AF012FB28000BF0FDFDA3792F
:10B4E000DB0605D5A068002802D00368DB68984712
:10B4F0006023A2791A4205D0A068002802D0036810
:10B500005B6898470023A360A37170BD0070004082
:10B51000F7B50227037B04000D003B4226D001292A
:10B5200026D886793E40009614D1FFF7B3FF182045
:10B530000BF0DDFD0E230600E3561822009901935F
:10B540000CF01BF8019930000BF02CFCA379A660DD
:10B550003B43A371A3685A68002D04D00025DB6823
:10B560001A602800FEBD1B691A60FAE7014DF8E772
:10B57000014DF6E716FCFFFF17FCFFFFF7B50126AC
:10B58000037B040033422AD0612385791D4017D103
:10B59000FFF780FF18200BF0AAFD0E230700E356EB
:10B5A00018220093637B290001930BF0E6FF019AB8
:10B5B000009938000BF0E4FBA379A7603343A37133
:10B5C0006023A279A0681A4202D00BF08EFAFEBD69
:10B5D000436940681B681840431E9841F7E70148DB
:10B5E000F5E7C04616FCFFFF10B5012483794173CF
:10B5F0001C4004D080680BF08DFC002010BD602240
:10B60000134203D080680BF077FAF6E70048F5E7BD
:10B6100016FCFFFF70B5040000250C4B0E0008332C
:10B620008580857103602100183009F069FE2000D3
:10B630002100203009F087FE054BA680E5802572A9
:10B64000E5602561656120001C6070BD9078020096
:10B65000202500208379DB0702D5C16000207047D8
:10B660000048FCE716FCFFFF8379DB0701D5C068C3
:10B6700070470148FCE7C04616FCFFFF70B54569FE
:10B680000400002D22D0037A032B21D8FFF7ECFF12
:10B69000A8622C200BF02BFD2C22002105000BF0C2
:10B6A0006CFF002263695A622369934208D163697F
:10B6B00023610020237A65610133237270BD13007A
:10B6C0005A6A002AFBD162695A62F2E70148F5E73B
:10B6D0000148F3E717FCFFFF13FCFFFF144B70B5A5
:10B6E0005A68144C002A03D000225A600132A2602A
:10B6F0001A69002A17D0002119618023DB000E4D42
:10B70000E3582868012B0FD1A923DB00E1584942F7
:10B71000FFF7A0FF2868FFF7B1FF2B685A69074BB6
:10B72000E2500123A36070BDFFF794FFF9E7C04624
:10B73000FC100040001000402025002004050000FF
:10B7400003000069002809D00221054AD167426A36
:10B750001A611A7A013A1A72024B19607047C04690
:10B7600004E100E000E100E010B5002903DB024B3A
:10B7700019600BF0BCFA10BD2425002070B5040040
:10B780001E0004AB1D7805F0C7F820000E4B4030BA
:10B790002360FEF70BFA230001364C3301352200FB
:10B7A0001E701D730023E1214E32A3646365138074
:10B7B00053809381D381013B200063644902FFF7EA
:10B7C000D3FF200070BDC0462C770200F7B580275C
:10B7D0007F053D697C690822113C6C43060021000D
:10B7E00068460BF0AEFE104B009A9A4219D00093B7
:10B7F00000230193796930001339694309F0B8FDDA
:10B80000019A0099300009F0CBFD2100300009F0C9
:10B81000AFFD7969AB08133969432200300009F0A4
:10B82000B1FD0198FEBDC046FECA0000F0B50D0096
:10B83000A9B00D9200213022060010A80B930BF046
:10B840009CFE28000BF0D9FE431C0C93102B00D952
:10B85000B5E00B9B202B00D9B1E02900300009F0A6
:10B86000CCFD071E50D129000C9A10A80BF069FEE0
:10B870000D990B9A14A80BF064FE80235B051A69DE
:10B880005F690C92113F7A4330005D690B92FFF7BC
:10B890009DFF3022002104001CA80BF06EFE290041
:10B8A00000270C9B13395943300009F061FD0D97B7
:10B8B00030257D430B9B0833ED18A74242DA29005F
:10B8C00030221CA80BF03DFE10A91CA80BF08BFE2B
:10B8D000002827D13C49300022000E910F9409F036
:10B8E0005FFD6A46099513AB23CB23C223CB23C24A
:10B8F00023CB23C23000129B1099119A09F05EFDF0
:10B9000001230D930137D3E710300B9A0D990BF0FB
:10B9100009FE040038000BF0DFFB002CA3D120004F
:10B9200029B0F0BD6A4609951FAB23CB23C223CBB8
:10B9300023C223CB23C230001C991D9A1E9B09F001
:10B940003DFDDFE7E5433023ED1725405D430B9BCD
:10B9500008355D190D9B002B1DD10C9B3021981EC5
:10B9600005F082FEA0422CD017490134300022009D
:10B970000E910F9409F014FD6A46099513AB23CB81
:10B9800023C223CB23C223CB23C230001099119AA8
:10B99000129B09F013FD0B99300009F0E9FC80239C
:10B9A0005B0559690C230C9A133963434A430233EC
:10B9B000110030000B9A09F0E5FC0024AFE7034CBE
:10B9C000ADE7034CABE7C046FECA000017FCFFFF23
:10B9D00013FCFFFF8023F0B55B051A6995B0039255
:10B9E0005A6905910399113A51435D69039B133DCF
:10B9F000040002915D43FFF7E9FE061E3BD00027DD
:10BA000030220021083508A801950BF0B6FD0199F8
:10BA1000200009F0ADFC049730237B43029D0835DC
:10BA2000ED18B7421FDA2900302208A80BF089FD73
:10BA3000059908A80BF0D7FD00280AD11949721EF4
:10BA400020000691079209F0ABFC01230493013713
:10BA5000E2E70C23019A2900200009F093FC019BE6
:10BA600030330193F3E7049B002B06D10D493200DC
:10BA7000200009F095FC0C4812E00299200009F022
:10BA800077FC80235B0559690C23039A13394A43D9
:10BA90007343110020000233029A09F073FC002066
:10BAA00015B0F0BDFECA00000CFCFFFF70B504002D
:10BAB000A280FA22002308000C499200083121607C
:10BAC000A3716061E260A3606382094909F095FC9B
:10BAD000051E09D0010020001031022212300BF0A7
:10BAE00030FD28000BF0F8FA200070BDA8780200A5
:10BAF0005985020030B50225837987B004002B42B6
:10BB000004D1FDF74DFDA3791D43A571200009F077
:10BB1000BEFC00281CD06B46DD1C280009F0AEFCE2
:10BB20002B78002B17D001A809F0A6FC0321019A5D
:10BB3000D3170B409B189B102382FDF7B9FFE368D6
:10BB4000A18818180123A0601A0002A808F0E0FAE2
:10BB5000002007B030BD0122064B1A60064A51682A
:10BB60000029FCD000215160044A12680192012290
:10BB70005A60DBE700C00040FCC0004008C5004040
:10BB8000022802D10122014B1A70704707280020B9
:10BB900070B5064C05002378002B04D1044802F050
:10BBA000FFFA01232370280070BDC046082800203A
:10BBB00081BB010070B50C0008F09DF8002810D082
:10BBC0000023144DA40A2B70200009F074FC0028F7
:10BBD00003D00A200BF092F9F6E72B78002BFCD06B
:10BBE00070BD02210C4B0D4A99508021C9000800FC
:10BBF0005D58002DFCD0A121C9005C5019580029C6
:10BC0000FCD0002199508021C9005A58002AFCD04C
:10BC1000E6E7C0460728002000E0014004050000D8
:10BC2000F8B50C0015001E0008F065F8002811D0CA
:10BC30000023174F3B7032002900200009F039FC27
:10BC4000002803D00A200BF059F9F4E73B78002BC9
:10BC5000FCD0F8BD01210F480F4B844619508021BC
:10BC6000C9005A58002AFCD080270022FF009642C3
:10BC700007DD910068586050D9590029FCD0013285
:10BC8000F5E7002261465A50DA59002AFCD0E0E775
:10BC9000072800200405000000E0014008B4024B22
:10BCA0009C46443808BC6047BB540200FA21F8B5F2
:10BCB0000389C90004005943324809F0C4FEFA213F
:10BCC000890005F0D1FC304F2081A17A380009F0BD
:10BCD000BAFE23002600250022894C33A072A0362C
:10BCE0001A808C35317800232A22286809F02CF834
:10BCF000002801D02548F8BD31781F235B22286831
:10BD000009F022F80028F5D1317820235C22286838
:10BD100009F01AF80028EDD1317801232C22286887
:10BD200009F012F80028E5D1317801232D22286886
:10BD300009F00AF80028DDD1317801232E22286885
:10BD400009F002F80028D5D1A17A380009F076FE72
:10BD50003178C3B20E22286808F0F6FF0028C9D156
:10BD6000FA21238989005943064809F067FE012317
:10BD70000343DBB231782A22286808F0E5FF002867
:10BD8000B9D0B7E7C8780200C07802000EFCFFFF08
:10BD900008B4024B9C46443808BC6047ADBC010067
:10BDA000074B10B51A00040008323C3302604364AC
:10BDB000443008F0C9FB200008F0F9FA200010BD5B
:10BDC0002879020008B4024B9C46443808BC6047FE
:10BDD000A1BD010008B4024B9C46443808BC604732
:10BDE000C5540200F0B5042583798BB004002B42C2
:10BDF00004D1FDF7D5FBA3791D43A5712000903038
:10BE0000FFF7BCFB0026B0420FD12300A033197806
:10BE100020000C2307AD00938C302B00012200681A
:10BE2000FFF73AF9061E03D02C4E30000BB0F0BDE0
:10BE30000A2304AA9B182A785A706A781A7000227A
:10BE4000985EAA785A70EA781A700022995E039177
:10BE50002A795A706A791A7000229F5EAA795A70FC
:10BE6000EA791A7000215A5E04922A7A5A706A7A24
:10BE70001A7000215A5E0592AA7A5A70EA7A1F2532
:10BE80001A7000229B5EA27A03999C465143494254
:10BE90005043CB172B407A435B185B11A361C31748
:10BEA0002B401818D3171D406423AD18059A5B4228
:10BEB0005343A36764236146049A40115A434B439A
:10BEC000E2676D11221DE06125622000D36708F052
:10BED000E0FA2000443008F03EFBA6E70EFCFFFF2E
:10BEE00008B4024B9C46443808BC6047E5BD0100DD
:10BEF000F7B51E00040008AB1B881500019309ABC1
:10BF000000911A8831000AAB1F88FEF707F820005D
:10BF10003A0031004430FEF755FA134B20001A0066
:10BF20003C336364230008322260009A8C331A6029
:10BF3000AB8890308380AB79019A83710B4B0321DE
:10BF40000360AB6883602B7B03736B7B4373AB7BBA
:10BF500083732300A0331A80FFF746FB2000FFF70E
:10BF6000A5FE2000FEBDC046287902007C770200B5
:10BF7000F8B5FA260189B60004007143264809F095
:10BF800062FD310005F070FB244F2081A17A38005A
:10BF900009F059FD2500A0725835297800232A227E
:10BFA000606C08F0D1FE002801D01D48F8BD29784A
:10BFB00010232B22606C08F0C7FE0028F5D12978E9
:10BFC00001232D22606C08F0BFFE0028EDD12978F6
:10BFD00001232E22606C08F0B7FE0028E5D1A17A7B
:10BFE000380009F02BFD2978C3B20E22606C08F0EE
:10BFF000ABFE0028D9D121890748714309F01EFD05
:10C0000001230343DBB229782A22606C08F09CFEEE
:10C010000028CBD0C9E7C046907902008879020099
:10C020000EFCFFFF10B50400034B0833036008F05B
:10C03000BEF9200010BDC046F07902007FB504258E
:10C04000837904002B4204D1FDF7AAFAA3791D439A
:10C05000A57120004830FFF791FA0025A8420DD1C4
:10C06000230058331978062302AE009301223300CF
:10C07000606CFFF711F8051E03D00D4D280004B0C9
:10C0800070BD022300210420F356A27ADB00715612
:10C0900030565343C000C900514342435B42A36141
:10C0A0002368E16122629B6A20009847E6E7C04668
:10C0B0000EFCFFFFF8B50400150006AA168807AAB3
:10C0C0000F0012881900FDF729FF0F4B6764083332
:10C0D00023602300AA8848339A80AA7920009A71A5
:10C0E0000A4AA264AA6822652A7B1A736A7B5A7379
:10C0F000AA7B9A730023A371230058331E80FFF795
:10C1000037FF2000F8BDC046F07902007C770200BE
:10C1100010B50400034B0833036008F015FA200043
:10C1200010BDC046847A0200F0B507005C3787B0C6
:10C130000400397800231022806C08F005FE0326E5
:10C14000002802D01F4807B0F0BD0F2502ABED1844
:10C150000123397808220093A06C2B00FEF79CFF86
:10C16000184B9842EED02B78334203D06420FDF771
:10C17000B1FAEAE7FA262189134DB6007143280087
:10C1800009F061FC310005F06FFA20813978A023B5
:10C190001122A06C08F0D8FD0028D3D1A36C21890E
:10C1A0000393714328003F7809F048FC01231843AA
:10C1B000C3B210223900039808F0C6FD0028C2D08F
:10C1C000C0E7C0460EFCFFFF247A020070B50825C8
:10C1D000837986B004002B4204D1FDF7E1F9A379FD
:10C1E0001D43A57120004C30FFF7C8F9061E0DD085
:10C1F00023005C331978062304AD009301222B0041
:10C20000A06CFEF749FF061E03D0134E300006B0A7
:10C2100070BD0E232A786B445A706A7820001A7019
:10C220000022995E64224A43A263AA785A70EA788F
:10C230001A700022995E6422524251436163297947
:10C2400059706979197000215B5E5A432368E26373
:10C250001B6A9847DAE7C0460EFCFFFFF8B50400FA
:10C26000150006AA168807AA0F0012881900FEF703
:10C27000A9F80D4BA764083323602300AA884C3328
:10C280009A80AA7920009A71084AE264AA686265D5
:10C290002A7B1A736A7B5A73AA7B1E829A73FFF7F2
:10C2A00043FF2000F8BDC046847A02007C7702007C
:10C2B000F7B5FA250189204FAD0004006943380025
:10C2C00009F0C1FB290005F0CFF9A17A20811B48B4
:10C2D00009F0B9FB2600636CA072009321895836DF
:10C2E000337869433800019309F0A8FB072303431F
:10C2F000DBB220220199009808F026FD002801D029
:10C300000F48FEBD317810232222606C08F01CFD1E
:10C310000028F5D1A17A0948656C377809F08EFBC1
:10C3200080235B420343DBB223223900280008F05C
:10C330000BFD0028E5D0E3E7B87A0200B07A0200EE
:10C340000EFCFFFF10B50400034B0833036008F038
:10C350002EF8200010BDC046287B0200F0B5042551
:10C36000837985B004002B4204D1FDF719F9A37934
:10C370001D43A57120004830FFF700F9061E0DD0BF
:10C38000230058331978062302AD0093A8222B000E
:10C39000606CFEF781FE061E03D0144E300005B01F
:10C3A000F0BD1F200023EA5ED31703409B18022232
:10C3B000A95E5B11CA170240521804216F5E521128
:10C3C000F9170140C91949112B806A80A980A07A08
:10C3D0004343424341435B42E36123685242A261CB
:10C3E00021629B6A20009847D8E7C0460EFCFFFFF9
:10C3F000F8B50400150006AA168807AA0F001288CF
:10C400001900FDF78BFD0F4B676408332360230091
:10C41000AA8848339A80AA7920009A710A4AA264AD
:10C42000AA6822652A7B1A736A7B5A73AA7B9A735D
:10C430000023A371230058331E80FFF739FF20002B
:10C44000F8BDC046287B02007C770200F7B5FA25CC
:10C4500004000189134EAD006943300009F0F3FA7E
:10C46000290005F001F92700A36C208100935C37B7
:10C470003B7881B269433000019309F0DFFA602212
:10C48000C3B20199009808F05FFC002801D006486B
:10C49000FEBD397801236222A06C08F055FC00280B
:10C4A000F6D0F4E75C7B02000EFCFFFF10B5040041
:10C4B000034B0833036008F047F8200010BDC04666
:10C4C000847B02007FB50825837904002B4204D1C8
:10C4D000FDF766F8A3791D43A57120004C30FFF7E6
:10C4E0004DF8051E0DD023005C331978062302AEEB
:10C4F0000093E8223300A06CFEF7CEFD051E03D0AA
:10C500000B4D280004B070BD0223F25E96235B42FF
:10C510005A4362630021725E20005343A3630423E5
:10C52000F25E96235343E36323681B6A9847E8E768
:10C530000EFCFFFFF8B50400150006AA168807AA2E
:10C540000F0012881900FDF73DFF0D4BA76408335B
:10C5500023602300AA884C339A80AA7920009A711C
:10C56000084AE264AA6862652A7B1A736A7B5A7376
:10C57000AA7B1E829A73FFF769FF2000F8BDC046B0
:10C58000847B02007C77020010B50400054B083361
:10C5900003601C3007F016FD2000183007F012FD74
:10C5A000200010BDB07B0200FF23F0B52C4D8DB0F4
:10C5B0002B700023040069460088009303F0B2F951
:10C5C000002802D16B469B782B70264E3368DB68BF
:10C5D000002B07D1002320881A00190008F0E2FF81
:10C5E0000DB0F0BD2B78032BF4D81F4901A8FDF73F
:10C5F000A3FA336801A9DE6804A807F045FD04A981
:10C60000300008F02DFF0027060004A807F0DAFC30
:10C61000BE421ED031002022103104A80AF091FF42
:10C6200030000AF059FD297804ABC90059180822D6
:10C6300002A80AF086FF20880123082202A908F038
:10C64000B1FF0137002804D12088084A0C2108F0E6
:10C65000A7FF01A807F0B6FC002FBBD0C0E7C0467B
:10C660008020002034250020EC850200FFFF000020
:10C67000F0B5837991B004005B071BD5FDF718FA7C
:10C6800000232269801A9941994203D1F423FF3390
:10C6900098420FD9A068002808D0364B1D8809F0B1
:10C6A0004AFA036815221B6A290098470422A379D5
:10C6B0009343A371A3799B0759D52F4D2B68DB6852
:10C6C000002B50D02D4B1B78032B4CD8294B2C49D9
:10C6D0001B8804A80193FDF72FFA2B6804A9DE68D4
:10C6E00008A807F0D1FC08A9300008F0B9FE07003F
:10C6F00008A807F067FC02AB9E1D082332003380B8
:10C7000006A9073B019808F04FFF002F08D0390019
:10C710002022103108A80AF014FF38000AF0DCFCCF
:10C72000164B32881B7806A9DE0008AB9E19300034
:10C730000AF0F8FE002813D0082206A930000AF0FB
:10C7400000FF2B6804A9DD6805A807F09DFC2023E5
:10C7500008AA05A9280008F089FE05A807F032FC00
:10C7600004A807F02FFC0222A3799343A37111B010
:10C77000F0BDC046B02700203425002080200020D6
:10C78000EC850200F7B5089E0500152922D8012086
:10C7900007008F40244C27421CD0E97FCC181F2C67
:10C7A00041DC69183418A14210D80021C8B2834274
:10C7B00004D9545C701884700131F7E732789A1804
:10C7C0003270EA7F9B18EB7700202CE00878C85481
:10C7D0000139E8E73478013CE4B2A34208D10023F0
:10C7E000D9B28C42F0D9D05CF11888700133F7E7E8
:10C7F000EF7F0120FF183F1B1F2F14DC0227A01C16
:10C800007F423618381B0190E87F2F18BE4204D2B1
:10C810003078019FF0550136F6E7041B023CEC77B7
:10C82000280008F00BFFFEBDFC002000F0B504005E
:10C8300085B001930AAB1E880BAB1B78451C029395
:10C840000EAB1B78170003930B78102203704B8AF2
:10C850000131438228000AF074FE2683002601225B
:10C86000019B67616383039BE6832377029B200020
:10C87000EB77A31CDA770C9B0C25636223000D9ADF
:10C8800028331A705E709E702A0031002C300AF036
:10C8900074FE2000064BE663A3632A00310040309B
:10C8A0000AF06BFE2000034B2665E36405B0F0BD83
:10C8B000BF550200B155020070B50D0009F03BF9FB
:10C8C00004000368002D09D15B699847FA208000B5
:10C8D0006843074904F0C8FEE08070BD9B68984734
:10C8E0008542F3D2236820009B6898470500EDE756
:10C8F00071020000F0B507001600A1B002C70400E5
:10C900006B4918A81D0008F0E0FE331E03D030006C
:10C910000AF073FE83B20122049200220392029273
:10C92000023201920093320018A93800FFF77EFF0F
:10C9300023006049583318A8079308F0C6FE2B1E41
:10C9400003D028000AF059FE83B20122049200228B
:10C95000039202920232019200932A0018A90798CA
:10C96000FFF764FF23005449AC3318A8089308F07C
:10C97000ACFE269B002B03D018000AF03EFE83B2CB
:10C980000122049200220392029202320192009349
:10C99000269A18A90898FFF749FF631CFF334749F7
:10C9A00018A8099308F091FE279B002B03D01800CC
:10C9B0000AF023FE83B2012204920022601C03923B
:10C9C0000292023201920093279A18A9FF30FFF7D2
:10C9D0002DFF23005533FF33394918A8099308F078
:10C9E00074FE289B002B03D018000AF006FE83B2C9
:10C9F00001220492002203920292023201920093D9
:10CA0000289A18A90998FFF711FF2300A933FF33CB
:10CA10002C4918A80A9308F058FE299B002B03D034
:10CA200018000AF0EAFD83B201220492002218AD38
:10CA300003920292023201920093299A29000A98E5
:10CA4000FFF7F4FE204B1B780B93002B2CD1079B98
:10CA500012971393089B0DAF1493631CFF33159328
:10CA6000099B1A4916930A9B3800179308F02DFE6C
:10CA70001D2149203B7810222B707B8A12AE6B82DD
:10CA800006ABC918C0180AF05CFD06232B750B9B7A
:10CA90002068AB83AE6109F052F8036829001B6877
:10CAA00098470122084B1A70200021B0F0BDC04603
:10CAB000292A0000242A0000252A0000272A000035
:10CAC000262A0000282A0000092800200A18000051
:10CAD00070B5002504000B4B858008338571036019
:10CAE000C1601830FDF762F820001C30FDF75EF8D9
:10CAF0000123621CD377044AA5606561200014609D
:10CB0000A37170BDB07B020034250020FA2130B53E
:10CB100085B00500012302228900684607F0F8FA73
:10CB2000074C2068002809D008F008FE2988054B2A
:10CB300022681980022391790B43937105B030BDAF
:10CB400034250020B027002010B50C0007290DD88F
:10CB5000806808F0F0FF064B195703685B6C984734
:10CB6000431E9841034B4042184010BD0248FCE769
:10CB7000E485020016FCFFFF17FCFFFFF0B5A44C94
:10CB80000D00A544040007939AAB1B78A14909A89E
:10CB900004930692FCF7D0FF200029001C3007F018
:10CBA0007BFAC020800001F0F1FA08200AF09FFA19
:10CBB0000600002100F0AEFE15ADA66000210C229B
:10CBC0000EA80AF0DAFC2B000EAA83CA83C3924B8C
:10CBD0002900EB60002330002B6108F095FFA0686E
:10CBE00008F0A9FF08220021059016A80AF0C5FC4C
:10CBF00014200AF07CFA29000200884B1593C8C95A
:10CC0000C8C2874B059EC3600023A4360361336806
:10CC1000002B00D0F5E03060A06808F090FF0822FB
:10CC20000021060016A80AF0A8FC14200AF05FFAFA
:10CC30007C4B1593030086CD86C37B4BC3600023DA
:10CC40000361336B002B00D0DDE03063A06808F097
:10CC500072FF08220021050016A80AF08EFC14209D
:10CC60000AF045FA714B15AE1593030086CE86C3C4
:10CC70006F4B9835C360002303612B68002B00D0F5
:10CC8000C3E02860012504AB1B7C04AA2B4308A940
:10CC90002800137408F08AFCA06808F054FF0368A9
:10CCA00064495B6A9847A06808F04DFF03686249D1
:10CCB0009B699847A06808F046FF0023026800932C
:10CCC000166804992A00B047049B002B0AD0200064
:10CCD00008F03DFD032805DDA06808F034FF036877
:10CCE000DB6898470EA808F0A0FC2F2004ABC01802
:10CCF00008F09BFC362004ABC01808F096FC3D20E1
:10CD0000042504ABC01808F090FC0EAB0A93A06891
:10CD100004AB5D7708F017FF03680AA91B69984701
:10CD2000A06808F008FF03680AA95B6D9847A0682F
:10CD300008F001FF03680021DB6D9847A06808F048
:10CD4000FAFE036802219B6D984700212000FFF73F
:10CD5000FBFE18200AF0CBF9A16800F055FA374B1A
:10CD6000374A1B68A1680393364B15A81B68002639
:10CD70000293354B0CAF1B680193069B1B685B1934
:10CD80000093324B12681B68FFF7B4FD30200AF0A5
:10CD9000AEF9079AA16800F0F7FAA06808F0CBFE98
:10CDA000036839009B6A9847294BBE80A0680C93A2
:10CDB00008F0C1FE03683900DB6A98472900A068C3
:10CDC00008F08FFC099A09219378A068521908F09D
:10CDD0009BFCA06808F0AFFE32210671A068FFF747
:10CDE0006BFD04AB1B7FB34204D0A06808F0A3FE28
:10CDF00008F061FC09A807F0E5F895239B009D4425
:10CE0000F0BD036107E703611FE7036139E7C0462F
:10CE1000ACFDFFFFD1860200CD5502000DCB010015
:10CE2000DB550200A9C50100E955020017560200B2
:10CE3000F755020055CE010089CE010030250020B3
:10CE40002C25002008200020282500200C20002070
:10CE50000800100013B506226846FCF77DFE094B5A
:10CE60001C68002C0AD0694601A807F00DF92000C3
:10CE700001A908F08DFC01A807F0A4F8684607F0A6
:10CE8000A1F813BD34250020002373B501AE0C00BA
:10CE900031000500019302F045FD002802D1B2786F
:10CEA000064B1A70064B1868002806D06142614193
:10CEB000044BC9B21D8008F073FC73BD80200020B4
:10CEC00034250020B027002030B5284CA9B06A22B4
:10CED0000D000DA821000AF034FB0DA903A8FCF7F2
:10CEE00099FE03A906A807F043F901230193013B2A
:10CEF000FF3B00930533FF33642206A92800FEF7A9
:10CF000073F806A807F027F9210019226A3106A84C
:10CF10000AF017FB05220024110006AB04A807F055
:10CF20004EF904A905A807F023F901940094230001
:10CF3000220005A92800FDF79BFF05A807F00BF9C3
:10CF400021002800FEF77EF805340520FCF7C2FB1F
:10CF5000FF2CF5D1FA208000FCF7BCFB04A807F0F9
:10CF6000FAF803A807F0F7F829B030BD6185020090
:10CF7000F0B59C4B95B005921A6808230400039104
:10CF8000D16C06A80B43D3649749FCF7D5FD9749AC
:10CF900007A8FCF7D1FD220000250DAE30001C32A1
:10CFA00006A907F088F807AA310008A807F083F857
:10CFB000300007F007F8631CDD77A06808F0BBFDC0
:10CFC00003680BAF5B699847300008F02EFB2B20FD
:10CFD00004ABC01808F029FB322004ABC01808F0DD
:10CFE00024FB392004ABC01808F01FFB8023DB00B2
:10CFF000BB80A0680B9608F09EFD036839005B6D4E
:10D000009847A06808F097FD036829009B6D984732
:10D01000A06808F090FD070006000A371F222900CB
:10D0200038000AF0AAFAFD77300008F03BFB062131
:10D03000A06808F056FB089A09219378A06804328A
:10D0400008F062FBA06808F076FDC8210571A068B1
:10D05000FFF732FCA06808F06EFDFF272E00058167
:10D06000A06808F068FD08F026FB0398FDF704FEB1
:10D070002000FCF795FA03992000FFF725FF03999C
:10D08000200008F0A0FB0495012563691D402DD008
:10D09000574909A8FCF73CFE09A90AA807F068F857
:10D0A00000220AA91300019200920398FDF7E0FE06
:10D0B0000AA807F050F8049B002B42D1043F282F08
:10D0C00041DD0025FE2F00DC049D059807F028FABD
:10D0D000002806D0012362699A43130004221343F7
:10D0E0006361002609A807F036F8049504226369F5
:10D0F000134233D0FF210398C826FDF7A3FF002574
:10D10000B600A36902229B5EAB4222DD200029B259
:10D11000183006F0E6FF0023010003981A0074306F
:10D12000FCF746FE3000FCF7D5FA039807F0FFFD48
:10D13000C820FCF7CFFA02226369134209D10135F6
:10D14000DFE70437BBE7039807F0F1FD002FBCDDF4
:10D15000BAE7FA208000FCF7BDFA002602236569D1
:10D160001D421CD006331D4024D0224909A8FCF7DB
:10D17000CFFD09A90AA806F0FBFF00220AA9019227
:10D18000009213000398FDF773FE0AA806F0E3FF70
:10D190001948FCF79FFA09A806F0DDFF174E642036
:10D1A000FCF798FA164B01369E4200DC6CE706F05D
:10D1B000B4FD69E7134909A8FCF7AAFD09A90AA863
:10D1C00006F0D6FF2B002A000AA9019500950398C6
:10D1D000FDF74EFE0AA806F0BEFF09A806F0BBFF49
:10D1E000DDE7C046B8240020F8850200088602006A
:10D1F0000A8602004F860200983A00008C0A00005E
:10D200008B0A00008C8602000022594BF0B50833CF
:10D21000060003600F001000A9B0B1600BAB9918B5
:10D2200001324870102AFAD10F3A524C1A700E325D
:10D23000105D991A0874013AFAD2997B5A7B090257
:10D240000A4331000C31039125211B7813AD2B705B
:10D2500002ABC918452302A81B186A8218001022C5
:10D260000AF06FF9039B64216B610123002402AA79
:10D270002B7752181993093313701DAB1C706D2353
:10D2800002AA9B181C706E2321009B181EA80C225A
:10D29000EC836C621C700AF070F9374B0C22210091
:10D2A00023A8AB63EC630AF068F9344B02AAEB6481
:10D2B00046239B180322DA7722002C6505953473E8
:10D2C00006AD2B1901345A70102CFAD101232C48C9
:10D2D0002B700E33195CEA1A1174013BFAD211213A
:10D2E0002520AA7B6B7B12020BAC13432A78638246
:10D2F00002ABC9182270C01810220AF022F90123CB
:10D30000237505ABA36100233800A38308F017FC45
:10D31000036821001B68984713ABDB8BB068B382AE
:10D3200008F00DFC002203680092B18A039ADC68C1
:10D330000123A047B06808F002FC0700142009F0A0
:10D34000D6FE0022012304000261069240C008328A
:10D35000290007930AF0F5F80A4BE360BB69002B3C
:10D3600003D13000BC6129B0F0BD2361F9E7C046AC
:10D37000C87B0200E5860200BF550200B1550200DD
:10D38000F586020027580200F0B500260400724B13
:10D39000DDB0083303608160C26086808671320030
:10D3A0006E4947A808F0DFFA23001433012504274B
:10D3B00008931223009704950193089A330047A914
:10D3C000039602961DA8FFF731FA3200644947A878
:10D3D00008F0C9FA0C2322000097103215AF04950B
:10D3E000019347A933000396029632A8FFF71EFA6D
:10D3F00032005C49380008F0B6FA21001C3109916E
:10D400000423082104950191009339003300099AFF
:10D410000396029647A8FFF709FA320052493800EE
:10D4200008F0A1FA542009F062FE21001222042320
:10D43000183107910495019200930A0033003900D6
:10D44000039602960690FFF7F1F9069A474B1000F3
:10D45000A262D4620AA9082230300A930B960AF01D
:10D4600070F8434B069A0999936329321570266127
:10D470000422E66107980AF064F8042207990898E4
:10D480000AF05FF86622032304A95218D377BA2260
:10D490005218D377872252005218D377069A35490B
:10D4A0000232D3771DAA0C9232AA0D9247AA0E928D
:10D4B000069AA6850F9210A8320008F054FA30217F
:10D4C000452004AA52181378123104AA3B7052184E
:10D4D000138811397B8204AB1022C918C0180AF0D6
:10D4E00030F804230CADA0683B75BD61BE8308F025
:10D4F00026FB036839001B689847822204AB9B18FF
:10D500001B885432238404AB9B181B885432A38499
:10D5100004AB9B181B88A068638408F010FB07000D
:10D52000142009F0E4FD0500134B0661082210C029
:10D5300010A9109311960AF004F8104BEB60BB6928
:10D54000B34206D1BD612000FCF72AF820005DB08F
:10D55000F0BD2B61F6E7C046D47B020025870200B0
:10D56000058702001587020035870200395902003D
:10D57000A558020045870200E9D50100CF580200F6
:10D58000F0B504000E00150085B01F000CAB1B8821
:10D590001030019306F0B2FD26806580182009F056
:10D5A000A6FD02AE050033000AAA03CA03C32F601A
:10D5B0002800082700213A000C3009F0DEFF3A006D
:10D5C0003100281D09F0BDFF064B02226B612000CF
:10D5D00000230199A5600A43E360A280236263628D
:10D5E00005B0F0BDF9580200F0B50B898DB0059378
:10D5F000CB68050004934B88828C9A420ED1049C20
:10D60000049B059A9B181B1B032B39DD628821881C
:10D61000012308A806F07CFD0434F1E7428C9A420D
:10D620002ED1049C049B059A9B181B1B032B27DD02
:10D630002388282006936388EF680793114B08938B
:10D640000023099309F053FDC0236A4606000293A4
:10D6500008AB03CB03C22B000699079A3000FFF7F3
:10D660008FFF3B6831005B6838009847002805D081
:10D67000300006F05DFC300009F02EFD0434D1E7E7
:10D680000DB0F0BDB759020070B5040090B08068CD
:10D6900008F08CF9022101401AD1A38D002B17D07C
:10D6A0000C4B6A4604931023E568A185059102930B
:10D6B00004AB41CB41C20A00230006A8FFF760FF7C
:10D6C0002B6806A99B682800984706A806F030FC3E
:10D6D00010B070BDB7590200002815D0006041603D
:10D6E0008260C360046145618661C761444604622B
:10D6F0004C464462544684625C46C4626446046399
:10D700006E46466374468463002A06D0C46B043CAC
:10D71000043A25681560B442F9D18C6BA6464E6B6D
:10D72000B546002B06D0CC6B043C043B1D6825603D
:10D73000B442F9D10C6BA446CC6AA3468C6AA246CB
:10D740004C6AA1460C6AA046CF698E694D690C6986
:10D75000CB688A68086849687047006041608260E9
:10D76000C360046145618661C761444604624C46FA
:10D770004462544684625C46C462644604636E46F6
:10D78000466374468463C46B043C043925680D60A9
:10D79000B442F9D1C7698669456904697047006078
:10D7A00041608260C360046145618661C76144462F
:10D7B00004624C464462544684625C46C4626446D9
:10D7C00004636C4644637446846304697047846BE5
:10D7D000A646446BA546046BA446C46AA346846A65
:10D7E000A246446AA146046AA046C769866945699B
:10D7F0000469C368826800684168704710B5041EF8
:10D800000CD009F0FAFE431EE3189C4208D222789D
:10D810001978013B21705A700134F6E7014810BDB8
:10D820000020FCE717FCFFFFF0B585B002900C1E4E
:10D830002AD00023C217161A56400193019B3000CC
:10D840005D1C63190A215F1E039304F07DF84942B1
:10D850003031397030000A2103F090FF4742060052
:10D86000002F0FD1029B002B04DA2D23019D039A78
:10D8700002351370002320006355FFF7BFFF380007
:10D8800005B0F0BD0195D9E7004FF8E717FCFFFFA1
:10D890000268084B406810B5C018C000101803009B
:10D8A0009A4205D81C688C4202D31800083BF7E75F
:10D8B00010BDC046FFFFFF1F70B5002817D1114DE6
:10D8C0002E68002E11D1083009F011FC0660466068
:10D8D0000D4E04003368002B02D108F067FB306066
:10D8E00023682C609B00F3586360286870BD012298
:10D8F000064907480B681340F8D1026043600A608C
:10D90000F4E7C0463C2500204825002038250020AB
:10D9100040250020002370B5040001604360994257
:10D920000AD1064D2B68002B02D108F03FFB28607E
:10D9300023689B00EB586360200070BD48250020E1
:10D94000436810B50400002B02D1044809F0DDFA49
:10D95000606803681B69984710BDC0465587020080
:10D96000436810B50400002B02D1044809F0CDFA39
:10D97000606803689B69984710BDC04655870200E0
:10D98000436810B50400002B02D1044809F0BDFA29
:10D99000606803685B6A984710BDC04655870200FF
:10D9A00000487047FFFF0000F0B597B0059303688B
:10D9B00007AD1B680491039311002B00060091C969
:10D9C00091C30024D36821000C220CA8EB602C61C9
:10D9D00009F0D3FD22000B4B10940F9311AB1C7078
:10D9E000191901344A70102CFAD15A820193059BFF
:10D9F0002A00009304990CAB3000039CA04717B099
:10DA0000F0BDC046655C020070B5FC30046C0500DA
:10DA1000002C0DD1242009F06AFB064B4460836181
:10DA2000054B8460C46004614461C4610360286480
:10DA3000286C70BDC07C0200A87D020070B5FC306F
:10DA4000C56B0400002D11D1342009F050FB084BA8
:10DA500085604360074B45610361074B0562C36105
:10DA6000064BC5628362064BE0630360E06B70BDEA
:10DA7000F07C0200E07C0200507D0200607D02002C
:10DA8000707D02007FB503791548002B22D0154E1A
:10DA9000154C33782000002B1CD102AD280008F073
:10DAA000BEF8002810D16B88592B0DD12B78AA888D
:10DAB000D91F012910D800920C4A2021200005F01E
:10DAC00051FC0123337004E020220949200009F0B1
:10DAD0009BFD200004B070BD0092064AEDE7C046F1
