:020000021000EC
:1080000000400020011502003D1502003F1502004E
:108010000000000000000000000000000000000060
:1080200000000000000000000000000041150200F8
:10803000000000000000000043150200451502008A
:1080400047150200D5B90100AD1102004715020025
:10805000471502000000000001130200471502004E
:1080600047150200150D02007112020047150200AB
:108070004715020047150200471502004715020088
:108080004715020047150200471502004715020078
:1080900047150200C9EF010099FD010047150200D4
:1080A0004715020047150200000000000000000014
:1080B00000000000000000000000000000000000C0
:1080C00010B5064C2378002B07D1054B002B02D0AE
:1080D000044800E000BF0123237010BDB020002041
:1080E0000000000074890200044B10B5002B03D07F
:1080F0000349044800E000BF10BDC0460000000076
:10810000B420002074890200164B002B00D1144BC0
:108110009D46402292029A1A924600218B460F46B3
:108120001348144A121A0FF082FA0F4B002B00D09A
:1081300098470E4B002B00D09847002000210400E8
:108140000D000D48002802D00C4800E000BF0BF0E5
:1081500045FA200029000EF0B9FE0BF029FAC046BE
:1081600000000800004000200000000000000000A7
:10817000A8200020D02800200000000000000000FF
:1081800010B50400034B036040300CF035F82000BC
:1081900010BDC046E07702000200002310B50400C5
:1081A0001432C26018320360436083600361037558
:1081B000426283621370024800F0EEFF200010BD9F
:1081C00004210020020070B5012300253C32137009
:1081D0000564137203000400074E45331D7031001F
:1081E0000C300FF0BCF920003100463424300FF081
:1081F000B6F9257070BDC0465487020007B508491E
:1082000001A801F015FE782201A9064803F008F83C
:1082100001A80BF0F1FFFA20800001F0D7FB07BDA9
:1082200007830200F4210020F0B5036C85B0040040
:108230003C4D012B36D13C4903A801F0F9FD7822D1
:1082400003A9280002F0ECFF03A80BF0D5FF666A33
:10825000A36AF718BE4212D0317803A80BF0F6FFDC
:10826000C82203A95200280002F04AFF03A80BF01D
:10827000C3FFFA20400001F0A9FB0136EAE728001D
:108280000CF06FFEFA20800001F0A0FB274903A844
:1082900001F0CEFD782203A9280002F0C1FF03A857
:1082A0000BF0AAFF224903A801F0C2FD782203A91E
:1082B000280002F0B5FF03A80BF09EFF666AA36AD0
:1082C000F3180193019B9E4222D0337802AAD71C57
:1082D0003B70230045331B78002B06D0236C012B09
:1082E00003D1390020000BF0C5FC397803A80BF04E
:1082F000ADFFC82203A95200280002F001FF03A825
:108300000BF07AFFFA20400001F060FB0136D9E75C
:1083100028000CF026FEFA20800001F057FB05B083
:10832000F0BDC046F4210020B7820200C2820200E4
:10833000CD82020073B50B780D002E2B2ED02D2B85
:108340002FD0232B30D0402B31D0FFF757FF002404
:10835000297801A80BF07AFFC822164D520001A916
:10836000280002F0CDFE01A80BF046FF124E0121BD
:10837000300003F049FA200001F028FB0021300012
:1083800003F042FAFA20400001F020FB28000CF034
:10839000E8FDFA20400001F019FB73BDFA246400E7
:1083A000D6E7FA24A400D3E7FA24E400D0E7034C8C
:1083B000CEE7C046F4210020CC2000208813000026
:1083C000F0B503698FB005001600002B53D00300F1
:1083D0000C33009339331F7808AC002F4DD02D4952
:1083E00002A80BF016FC009920000FF0D0F802ABA9
:1083F0002200310030000BF0D8FC070020000EF006
:10840000B1FF2B6C002B1AD12349200001F010FD85
:1084100078222100214802F003FF20000BF0ECFE3F
:10842000029E039BF3180193019BB34207D033785C
:108430002100280023700136FFF77CFFF4E702A833
:108440000EF090FF390020000BF000FFC822210041
:108450005200124802F054FE20000BF0CDFE28001E
:10846000390024300FF048F80A4900980FF077F8E7
:10847000002344352B700FB0F0BD009920000FF0A1
:1084800086F83B002200310030000BF08EFC070024
:108490002000D5E754870200D7820200F421002093
:1084A000F0B50D0091B00390FE4904A80BF0B1FBAC
:1084B000FD4F0AAC390020000BF0ABFB04AB4122AE
:1084C0002900009428000BF040FC060020000EF06C
:1084D00049FF04A80EF046FFF44904A80BF099FBED
:1084E000F34920000BF095FB04AB422229000094D5
:1084F00028000BF02AFC064320000EF033FF04A8EE
:108500000EF030FF390004A80BF083FBE94F200088
:1085100039000BF07EFB4322290004AB00942800B5
:108520000BF013FCF6B20643F3B2200002930EF0F8
:1085300019FF04A80EF016FFDD4904A80BF069FB33
:10854000DD4E200031000BF064FB4422290004AB17
:10855000009428000BF0F9FB029B1843C3B22000E3
:1085600002930EF0FFFE04A80EF0FCFE390004A8F2
:108570000BF04FFBD14F200039000BF04AFB452296
:10858000290004AB009428000BF0DFFB029B18438A
:10859000C3B2200002930EF0E5FE04A80EF0E2FE46
:1085A000310004A80BF035FBC54E200031000BF064
:1085B00030FB4622290004AB009428000BF0C5FBD9
:1085C000029B1843C3B2200002930EF0CBFE04A816
:1085D0000EF0C8FE390004A80BF01BFBB94F2000B9
:1085E00039000BF016FB4722290004AB0094280049
:1085F0000BF0ABFB029B1843C3B2200002930EF0BA
:10860000B1FE04A80EF0AEFE310004A80BF001FB91
:10861000AD4E200031000BF0FCFA4822290004ABDB
:10862000009428000BF091FB029B1843C3B220007A
:1086300002930EF097FE04A80EF094FE390004A8F1
:108640000BF0E7FAA14F200039000BF0E2FA4922C3
:10865000290004AB009428000BF077FB029B184321
:10866000C3B2200002930EF07DFE04A80EF07AFE45
:10867000310004A80BF0CDFA954E200031000BF02C
:10868000C8FA4A22290004AB009428000BF05DFBD5
:10869000029B1843C3B2200002930EF063FE04A8AD
:1086A0000EF060FE390004A80BF0B3FA894F2000E9
:1086B00039000BF0AEFA4B22290004AB00942800DD
:1086C0000BF043FB029B1843C3B2200002930EF051
:1086D00049FE04A80EF046FE310004A80BF099FAFA
:1086E0007D4E200031000BF094FA4C22290004AB9F
:1086F000009428000BF029FB029B1843C3B2200012
:1087000002930EF02FFE04A80EF02CFE390004A8F0
:108710000BF07FFA714F200039000BF07AFA4D22EE
:10872000290004AB009428000BF00FFB029B1843B8
:10873000C3B2200002930EF015FE04A80EF012FE44
:10874000310004A80BF065FA654E200031000BF0F3
:1087500060FA4E22290004AB009428000BF0F5FAD1
:10876000029B1843C3B2200002930EF0FBFD04A845
:108770000EF0F8FD390004A80BF04BFA594F200019
:1087800039000BF046FA4F22290004AB0094280070
:108790000BF0DBFA029B1843C3B2200002930EF0E9
:1087A000E1FD04A80EF0DEFD310004A80BF031FA63
:1087B0004D4E200031000BF02CFA5022290004AB62
:1087C000009428000BF0C1FA029B1843C3B22000AA
:1087D00002930EF0C7FD04A80EF0C4FD390004A8F2
:1087E0000BF017FA414F200039000BF012FA51221A
:1087F000290004AB009428000BF0A7FA029B184351
:10880000C3B2200002930EF0ADFD04A80EF0AAFD45
:10881000310004A80BF0FDF9354E200031000BF0BB
:10882000F8F95222290004AB009428000BF08DFACD
:10883000029B1843C3B2200002930EF093FD04A8DC
:108840000EF090FD390004A80BF0E3F9294F200049
:1088500039000BF0DEF95322290004AB0094280004
:108860000BF073FA029B1843C3B2200002930EF080
:1088700079FD04A80EF076FD310004A80BF0C9F9CB
:108880001D4E200031000BF0C4F95422290004AB26
:10889000009428000BF059FA029B1843C3B2200041
:1088A0002CE0C0466E82020058820200A6820200BE
:1088B000AD820200B58202005D820200B382020036
:1088C000A0820200AE820200888202006D82020055
:1088D000628202007E820200B48202007D82020077
:1088E000678202006C82020059820200A7820200A5
:1088F0007F820200728202009482020002930EF0D4
:1089000031FD04A80EF02EFD390004A80BF081F90A
:10891000CD4F200039000BF07CF95522290004AB23
:10892000009428000BF011FA029B1843C3B22000F8
:1089300002930EF017FD04A80EF014FD310004A8F8
:108940000BF067F9C14E200031000BF062F956229E
:10895000290004AB009428000BF0F7F9029B1843A0
:10896000C3B2200002930EF0FDFC04A80EF0FAFC46
:10897000390004A80BF04DF9B54F200039000BF079
:1089800048F95722290004AB009428000BF0DDF9C8
:10899000029B1843C3B2200002930EF0E3FC04A82C
:1089A0000EF0E0FC310004A80BF033F9A94E2000D2
:1089B00031000BF02EF95822290004AB0094280056
:1089C0000BF0C3F9029B1843C3B2200002930EF0D0
:1089D000C9FC04A80EF0C6FC390004A80BF019F974
:1089E0009D4F200039000BF014F95922290004ABE7
:1089F000009428000BF0A9F9029B1843C3B2200091
:108A000002930EF0AFFC04A80EF0ACFC310004A8F9
:108A10000BF0FFF8914E200031000BF0FAF85A22CB
:108A2000290004AB009428000BF08FF9029B184337
:108A3000C3B2200002930EF095FC04A80EF092FC45
:108A4000390004A80BF0E5F8854F200039000BF041
:108A5000E0F83022290004AB009428000BF075F9EF
:108A6000029B1843C3B2200002930EF07BFC04A8C3
:108A70000EF078FC310004A80BF0CBF8794E200002
:108A800031000BF0C6F83122290004AB0094280015
:108A90000BF05BF9029B1843C3B2200002930EF067
:108AA00061FC04A80EF05EFC390004A80BF0B1F8DC
:108AB0006D4F200039000BF0ACF83222290004ABD6
:108AC000009428000BF041F9029B1843C3B2200028
:108AD00002930EF047FC04A80EF044FC310004A8F9
:108AE0000BF097F8614E200031000BF092F8332222
:108AF000290004AB009428000BF027F9029B1843CF
:108B0000C3B2200002930EF02DFC04A80EF02AFC44
:108B1000390004A80BF07DF8554F200039000BF008
:108B200078F83422290004AB009428000BF00DF9EA
:108B3000029B1843C3B2200002930EF013FC04A85A
:108B40000EF010FC310004A80BF063F8494E200031
:108B500031000BF05EF83522290004AB00942800A8
:108B60000BF0F3F8029B1843C3B2200002930EF0FF
:108B7000F9FB04A80EF0F6FB390004A80BF049F845
:108B80003D4920000BF045F83622290004AB009443
:108B900028000BF0DAF8029B1843C3B220000293BE
:108BA0000EF0E0FB04A80EF0DDFB310004A80BF092
:108BB00030F8324F200039000BF02BF83722290013
:108BC00004AB009428000BF0C0F8029B1843C6B217
:108BD00020000EF0C7FB04A80EF0C4FB264904A831
:108BE0000BF017F8264920000BF013F804AB3822DD
:108BF0002900009428000BF0A8F8064320000EF08E
:108C0000B1FB04A80EF0AEFB390004A80BF001F88C
:108C10001C4920000AF0FDFF04AB39222900009412
:108C200028000BF092F8F6B206432000F6B20EF0E0
:108C300099FB04A80EF096FB002E02D00398FFF7D4
:108C4000DDFA11B0F0BDC0467782020071820200E9
:108C500076820200AC8202007B82020081820200E6
:108C6000878202008D8202009382020099820200B4
:108C70009F820200A5820200AB820200B182020044
:108C80006E820200A6820200F0B504008DB024209E
:108C90000EF047FB009000F0B3F904ABDE1C9C49DA
:108CA00006A801F0C5F89B4D782206A9280002F01D
:108CB000B7FA06A80BF0A0FA974906A80AF0A9FF90
:108CC0007E23012733703378232B1BD0934906A8CA
:108CD0000EF049FC00280FD001F066F8236C0290DA
:108CE0000391002B52D18E480BF034FD00284DD05B
:108CF000230046331F70F6E78A4906A80EF033FCBE
:108D00000028E9D1884906A80EF02DFC002803D0E0
:108D1000864906A80EF027FC23000121453319706F
:108D200005A80BF086FA782205A9280002F078FA47
:108D300005A80BF061FA00992000FFF7B1FB236C46
:108D40007B49002B00D17B4905A801F071F87822FE
:108D500005A9280002F064FA05A80BF04DFA0127D6
:108D600023003C331B78002B00D1C2E001F01CF83B
:108D7000236C02900391002B5FD169480BF0EAFC51
:108D800000285AD0230046331F70F6E76A4802F0E5
:108D900071FD230046330193002805D01F70236C1A
:108DA000002BF3D12764F1E700F0FEFF019B1B7855
:108DB000002B29D0029A039B801A9941002902D1E5
:108DC0005E4B984225D94023534906A833700EF0D4
:108DD000C6FB317805A80BF039FAC82205A9520064
:108DE000280002F08DF905A80BF006FA236C002B81
:108DF00003D131002000FFF79DFAFA20400000F077
:108E0000E5FD28000CF0ADF82300002246331A706F
:108E100059E7FA232321DB00984209D8FA232D21B0
:108E20009B00984204D8FA235B009842E5D92E2192
:108E300006A831700EF060FBCBE73F4802F01AFD48
:108E4000230046330193002805D01F70236C002BAC
:108E5000F3D12764F1E700F0A7FF019B1B78002BFB
:108E600021D0029A039B801A9941002902D1334BE9
:108E700098421DD94021009A20000AF00BFF4021A2
:108E800005A80BF0E3F9C82205A95200280002F05A
:108E900037F905A80BF0B0F9FA20400000F096FD74
:108EA00028000CF05EF82300002246331A7057E7C2
:108EB000FA23DB00984206D92321009A20000AF009
:108EC000E9FE2321DCE7FA239B00984206D92D21F5
:108ED000009A20000AF0DEFE2D21D1E7FA235B0084
:108EE0009842D9D92E21009A20000AF0D3FE2E21D3
:108EF000C6E72000FFF798F9FA20400000F066FD71
:108F00002000FFF75FF906A80EF02CFAC7E6C0466E
:108F1000E1820200F42100205487020076820200E0
:108F2000DC200020B4820200EA820200F08202000B
:108F300000830200F4820200CC200020881300008D
:108F400037B5124D280000F06FF8114C114922007E
:108F500028000EF0DFF9104D03230222082128001B
:108F600002F006FC22000D4928000EF0D3F9002380
:108F70000B4D009301331A002800112101F066FB0C
:108F80002800220007490EF0C5F937BD0421002052
:108F900000200020A98F0100CC200020FF3B020010
:108FA000DC20002035A60100CA23144A9B0010B51E
:108FB000C2501C330400C0180BF01EF9D0239B00D4
:108FC000E0180BF019F920009130FF3001F032FB6E
:108FD00020006930FF3001F02DFB2000F03001F05F
:108FE000ABFE2000D03002F0AFFA2000643007F072
:108FF00097FD201DFFF7C4F8200010BD6C7C020017
:1090000010B5040023001433E360002323612375AB
:10901000236063607E33237202490C300EF09FFAA6
:10902000200010BD548702001423F0B5040093B053
:10903000009319221821043002F01CFD22002500A3
:1090400026006432B435132110001092B83607F0B0
:1090500073FD28000CF0E5FA00221E2130000BF011
:1090600085FF2000D03002F08FFA2200F0321192FA
:109070000621464A119801F083FE200000270123B3
:1090800069301A0000971121FF3001F0DFFA20004B
:1090900091300097012302221A21FF3001F0D6FA05
:1090A0002000B9301A2301210222FF3002F028FBF0
:1090B000300001F0D7F8E4225200A050300001F057
:1090C0001FFBE6235B00E0500100E4222000520079
:1090D000D130119BA2580095FF3001F061FD2000B6
:1090E000E13029001C22FF3002F05CFE1923200031
:1090F0000F93013B0E93013B0D93013B0C93013BFE
:109100000B93013B0A93013B0993013B0893013BFD
:109110000793013B0693013B0593013B0493013BFD
:109120000393013B0293013B0193F930013B082279
:1091300000930721013BFF300BF039FFCA239B004E
:10914000E018290003F040FED3239B00E0181D2106
:1091500002F0DCFBDD239B00E75010982770032111
:109160000DF0E4FD23002200200009499C33A032C9
:109170001C6011605760074A80305A610221012249
:1091800008F070F9200013B0F0BDC046E877020087
:10919000033E0200ED3D02000123F0B506788FB0DA
:1091A00004001E4000D082E00300D0331800039377
:1091B00000F0EEFA00F0E6F928200EF0B2F8050013
:1091C00010300BF0B5F86C4B18202B600EF0A9F89E
:1091D00007006A4B0460082231000C300C930D9696
:1091E0000EF025FA0CA9381D08220EF004FA644B83
:1091F000AF607B611223EE60AB802E626E6229004D
:10920000039802F035F9002805D028000AF0AAFFDB
:1092100028000EF07BF8012322785A49134323706B
:109220002300B433180005930CF001FA564904905A
:1092300005980CF0FCF900250690642000F0C6FBB0
:109240002F002E0023006933FF33180007930BF023
:1092500081FA00282DD1049B002B33D1069B002BD3
:1092600030D1DD2549494A48AD0000F08FFC6359F3
:10927000002B1CD100F09AF801000AA800F0D8FDDC
:109280000BA80AF031FECA239B00E018069B0BAA2C
:109290000AA90093039B03F0EDFD0BA80AF0ACFFB5
:1092A0000AA80AF0A9FFCC239B00E35863510FB032
:1092B000F0BD20009130FF300BF04CFA0028CAD0EE
:1092C000182EC8DC2000653039B22AB2FF23FF30E7
:1092D000013700F02BFEFFB2322000F077FB0136A1
:1092E000052F02D100270135EDB2049B192E06D0BF
:1092F000002BA7D02349059802F0E8FC01E0002BE1
:10930000F8D104980EF002F806980DF0FFFF1F49FF
:109310001F4800F03BFCCA239B00E3180893DD23A1
:109320009B00E3580993002B1ED100F03FF8010089
:109330000AA800F07DFD0BA80AF0D6FD01230BAAB8
:109340000AA900930898039B03F094FD0BA80AF068
:1093500053FF0AA80AF050FFCC239B00E35809935F
:10936000DD23099A9B00E2502100079AF03108980A
:1093700003F07AFF66E7C046FD030000753E020079
:10938000353E0200418302004C8302000020002091
:10939000001C0020BFF34F8F024B034ADA60BFF37B
:1093A0004F8FFEE700ED00E00400FA05F0B58DB048
:1093B00005AF1922154938000EF01DF90022144B93
:1093C00005245A7180225205566E0122250001940F
:1093D000029203930199300008F048FB08000299BB
:1093E00008F0BEFA019B03996B430193029B361A66
:1093F0006B430293631E2C1B6C433C19225C1C1EA6
:10940000CA54E7D108000DB0F0BDC0465C8302002D
:10941000FE270020F0B597B018220021060010A802
:109420000EF005F9132110A80DF0BFFD032110A8BF
:109430000DF08AFE4C4B1B68002B00D10133DBB2D0
:1094400002934A4A012300210BA807F045FF484B2D
:109450009E4200D9002672B6464B64211D68464BD9
:1094600030000793052408F005FB604350302818AE
:1094700008900A21300008F0FDFA0A2108F0E0FB0C
:10948000614350316918099130000A2108F0D8FB76
:10949000802361430024503169189B010A91019394
:1094A000029B002B5DD0002500272E1F07AB9B19C8
:1094B0000593032C03D1802300249B01019307AB68
:1094C0005B592E4A03936300D318049300231900B9
:1094D00006205843049A16187678B4466246039ECE
:1094E000B25C10269446049A105C6246064116420D
:1094F00002D00120984001430133092BE8D1C94330
:109500001F4B059A090119401268039B934225D10C
:10951000312F23DC00210BA80DF0D7FEFA23159A7A
:109520001199DB00106801421BD0013B002BF9D1DF
:10953000019B01345B000193FA230137E4B25B0025
:109540009F42B6D10435102DAED1074B1B68002BBE
:10955000A6D0029F013FFBB20293A1E7019B1943F2
:10956000D9E7FFF717FFC04680240020F0FF000076
:10957000E703000004200020AB8302007583020093
:10958000F01F0000F8B50023124C23600AF0CDFC58
:10959000002808D0042120000AF0C3FC002801D0D4
:1095A0000D4B2360F8BD0122A12704250B4B0C496C
:1095B0001A602268FF0048604E68002EFCD0DE5919
:1095C0001202013D3243002DF5D1226001225A6082
:1095D000E8E7C0467C240020ED5EBC0B00D00040D4
:1095E000FCD00040F0B585B01F000AAB1B88060018
:1095F000029115000393002F1BD028200DF091FE3F
:109600006B4604001989039BAAB200933B000AF041
:1096100093FD336821005B6830009847002806D02E
:1096200020000AF09FFD20000DF070FE024805B0FA
:10963000F0BD0248FBE7C04616FCFFFF17FCFFFF2A
:109640000B4B70B51C68002C10D0656D00F0ACFBA6
:10965000A36C002901D1834206D820000AF098FCAF
:10966000044920000AF082FC2C00ECE770BDC046E3
:1096700088240020A8240020F0B593B007932A4B3B
:1096800004AC1E68049005910692002E4AD0274B28
:10969000258867881C6800230293002C2ED0636DF8
:1096A00023480393A36C9AB2A36C1B0C99B2854216
:1096B00014D12048824211D1002B01D0B9420BD1E4
:1096C000029B002B08D120000AF062FC1A492000FE
:1096D0000AF04CFC01230293039CDEE7002A01D030
:1096E0009542F9D1002B01D0B942F5D120000AF002
:1096F0004FFC114920000AF039FCEDE70F4BEB1845
:10970000012B0FD910233A00009329000C4B08A815
:109710000AF012FD336808A99B683000984708A832
:109720000AF020FD13B0F0BD84240020B4240020F2
:10973000FE030000FF030000A824002002FCFFFF3E
:109740007996010010B572B60B4B1C68002C08D03E
:1097500020000AF01DFC0023E364084B2000E363B3
:1097600010BD62B65C200DF0DCFD5C22002104001F
:109770000DF05DFFEFE7C046AC2400200040002064
:10978000024B1878012318407047C0460428002077
:10979000F7B50600FFF7F4FF051E33D11A4C26601B
:1097A000FFF7D0FF194B1A4918600AF0DFFBFFF7EB
:1097B000C9FF184B1860184B4363184B836320682C
:1097C00000280ED0C027164E2A00330015490097F6
:1097D000FFF708FF009733002A0013492068FFF7BE
:1097E00001FF0C200DF09DFD0023838083710F4B42
:1097F00003600F4B836000F0EFFA01230D4A1178EC
:109800000B431370F7BDC04684240020B824002009
:10981000A8240020B0240020FC3F00205740020074
:1098200079960100FF030000FE03000008780200A3
:109830004196010004280020F7B506000D0017002E
:109840000193002802D100242000FEBD0029FAD097
:10985000FFF778FF041EF6D0074B019A43630660BA
:1098600045608760054B002A00D0054BA36305497E
:1098700020000AF07BFBE7E7FC3F002021400200CC
:109880003F400200A8240020024B18684342584180
:109890007047C046A8240020002310B504499C004E
:1098A0006258002A01D00133F9E76050100010BD62
:1098B00090240020002310B5044A99008C5884425B
:1098C00001D00133F9E70020885010BD902400201A
:1098D00010B50024084BA200D058002802D003681D
:1098E0005B6898470134062CF4D1044B1B68002BAD
:1098F00000D120BF10BDC04690240020A824002025
:10990000F8B5FFF73DFF00281CD02A4D2C68E36C0A
:10991000DA0718D502273B43E364274B1E6804236C
:10992000F26C30001343F364636BF3630AF056FB8D
:109930003000716C04F08DF82868C36C3B4201D094
:1099400004F0C1F8F8BD1D4F1D4E3A683168002A79
:109950001ED129602A68914208D11B0706D52C60C8
:10996000FFF7B6FF3B68002BFAD02B6029688C42CA
:10997000E8D03368994214D1124B4B63124B8B637E
:1099800020000AF02BFB2968626C4B6C20000DE074
:10999000206DB84203D1606D002800D002002A601B
:1099A000D8E79C42ECD1002210004B6C04F010F878
:1099B000C8E7C046B82400208C240020A82400203A
:1099C000B0240020FC3F00205740020070B5050085
:1099D000FFF7D6FE002803D128000DF0A9FB70BDCB
:1099E0000C4B1C68E36CDB0706D5FFF7ABFE0A4B9C
:1099F0001860002800D0040000F0D6F92D18A564E6
:109A000020000AF0C5FA054920000AF0AFFAFFF776
:109A100077FFE4E7B82400208C240020882400206D
:109A2000F0B51E4B1E4F1C683B6885B006000391C5
:109A3000002B30D0FFF7A4FE00282CD0E36CDB070E
:109A40000ED5FFF77FFE174B051E186008D00AF0F1
:109A50009FFA154928000AF089FA2C00FFF750FFF9
:109A6000039B20001B043343A3640AF091FA2000F7
:109A70000E490AF07BFA0E4B0024F318012B07D98C
:109A8000C0230093039A0B4B31003868FFF7AAFDFF
:109A9000200005B0F0BD084CFAE7C046B82400200D
:109AA000842400208C240020A8240020B42400203A
:109AB00002FCFFFF7996010016FCFFFF10B5FFF7CF
:109AC0005FFE002809D0054C20680AF061FA0449BD
:109AD00020680AF04BFAFFF713FF10BDB8240020EE
:109AE000AC240020F7B507000D0000282ED0FFF7AA
:109AF00047FE00282CD00724164E3068C36C1C404B
:109B000007D0154A290038000AF059FA002420002D
:109B1000FEBD03F0C0FF02213268D36C19400191F1
:109B200003D003218B43D364F1E701242343D3649F
:109B30002800B8473268D36C1900A143D164019C56
:109B40005B07E4D528000AF072FAE0E7034CDEE791
:109B5000034CDCE7B82400202F40020017FCFFFF75
:109B600016FCFFFF020010B5014B12CB12C210BD54
:109B7000BC240020034B1A68034B1A607E225A60F3
:109B80007047C04604200020BC24002070B5114E50
:109B90003278022A1AD081421AD90C1A072C17D906
:109BA0000D00032305432B4012D172B60A4DD2009B
:109BB0005051AA1851608022A40812061443046070
:109BC00032780132327062B6180070BD0348FCE78B
:109BD0000348FAE706280020C424002013FCFFFFF6
:109BE00017FCFFFF70B5134C06002378124D002BB5
:109BF0000CD1124912482B70FFF7C8FF114B984245
:109C000002D11E20FFF706FC0123237000242B78CD
:109C1000A34209DD0C49E300C91830000AF021FA1B
:109C2000002805D10134F2E71420FFF7F3FB0020F0
:109C300070BDC046052800200628002000380020FE
:109C4000D028002017FCFFFFC424002070B5002896
:109C500019D0104B10491C7800239C4216DDDA0005
:109C60005558854210D28A18526882420CD9041F76
:109C70002368002B02DC1E20FFF7CCFB8023226828
:109C80001B061343236070BD0133E6E71E20FFF778
:109C9000C1FBF8E706280020C424002070B5051E8B
:109CA00014DD0B4E0B4C3368002B02D020680DF0F6
:109CB000BAF8FA2120680024074B89008361C46246
:109CC000694335600DF0B7F8200070BD0348FCE72C
:109CD000D424002004250020859D010017FCFFFFEF
:109CE000F8B5114F06003D68002D0AD130200DF067
:109CF00018FB040006F044FF0C4BA5612360E562ED
:109D00003C600B4D2B68002B09D110200DF009FB96
:109D100004000DF051F820002C600DF027F8300001
:109D2000FFF7BCFFF8BDC0460425002008800200F4
:109D300000250020014B18687047C046D42400203D
:109D400070B50D4C2368002B03D00C4B1B68002B07
:109D500002D10620FFF7C4FF20680DF01EF80200B4
:109D60000749C3170D684E685219734120680A608D
:109D70004B600DF018F870BD002500200425002070
:109D8000A820002010B5FFF7DBFF0024054BA20040
:109D9000D058002802D003681B68984701340A2C69
:109DA000F4D110BDD824002010B5FFF7C9FFFA2266
:109DB000034B920018685968002307F081FF10BD1B
:109DC000A820002010B5FFF7BBFF024B18685968A8
:109DD00010BDC046A82000200B4B10B51B68040026
:109DE000002B03D0094B1B68002B02D10620FFF784
:109DF00077FF0023064A99008858002801D00133D4
:109E0000F9E78C5010BDC046002500200425002035
:109E1000D8240020002310B5044A99008C588442AD
:109E200001D00133F9E70020885010BDD82400206C
:109E300010B50400002902D00B78002B03D1034B8E
:109E40002360200010BD0AF0DEF9FAE7187802005E
:109E5000F8B504000E00150000290AD00B78002B7D
:109E600007D0002A05D0080097B20DF020FC8742E9
:109E700003D90B4B23602000F8BD681DFFF7B2FE2D
:109E800020600AF06FFB23682A005F80236831009E
:109E9000181D0DF0B0FB23685D1900232B71EAE754
:109EA00018780200014B03607047C0461878020022
:109EB00010B50548054C20600AF057FB044A0549D7
:109EC00020000DF027FA10BD1878020008250020A8
:109ED00000200020F9410200084B73B51C68050002
:109EE000002C0AD0010026680831082268460DF0CF
:109EF00082FB0CCD31682000884773BD0C25002003
:109F0000014B03607047C0462078020010B5040082
:109F1000002903D1044B0360200010BD016008003C
:109F20000AF023FBF8E7C0462078020030B500684D
:109F30004488A1420CDA8588AA4209DA002907DBA5
:109F4000002A05DB5443401800198371002030BDFE
:109F50000048FCE717FCFFFFF0B5070085B00E00D6
:109F60001D00002921DD002A1FDD002B1DD0046803
:109F7000638803938B4200DD0391A388029393428D
:109F800000DD0292002306340193019B029A934262
:109F90000EDA29002000039A0DF02DFB3B68AD1965
:109FA0005B88E418019B0133EEE7024805B0F0BD81
:109FB0000020FBE717FCFFFFF8B504000D001600BA
:109FC0001F00002901DB002A02DA0E4B2360F8BDD6
:109FD000100048430630FFF705FE20600AF0C2FA81
:109FE00023685D8023689E80002F06D03B003200EE
:109FF00029002000FFF7B0FFE9E720000AF0E9F9A7
:10A00000E5E7C04620780200F7B506000D1E03D133
:10A01000244B03603000FEBD00200F00040001004F
:10A0200001903B78002B1AD03022524294469C4437
:10A030006246092A11D90A2B0AD1019B241801333F
:10A040000193A14200DA2100002004000137E8E773
:10A050000028FBD001340020F8E70120F6E70127B3
:10A06000019A09B212B230007F42FFF7A5FF390012
:10A070000A2033689A1D2C78002CCBD02300303B6B
:10A08000092B08D8FB43DB173B4043431B19303BEC
:10A090001F000135EFE7002FFBDB177001320F00C7
:10A0A000F7E7C04620780200F0B5040089B006A8A2
:10A0B0000E0002921D00FFF755FD236802995A8891
:10A0C000914235DA9B889D4232DA1F2E30D9079BA8
:10A0D00001939E422CDC0523002273430393069BCD
:10A0E0000493039B04999B18A03BCB5C0021059330
:10A0F000AE18029BCF1823685888019087420EDA69
:10A100009888B0420BDDDB1910270F41019870438E
:10A110001B1805980740781E87417F429F710131C7
:10A120000529E6D10132052ADBD1002009B0F0BDB6
:10A130000048FBE717FCFFFFF7B5046807006388DA
:10A140000E1E01931EDD994218DA00230634009397
:10A150003B68009A9B889A4212DA019BA1199D1BC9
:10A160002A0020000DF047FA601931000AF014F9B6
:10A170003B685B88E418009B0133E8E70AF029F9A3
:10A18000002000E00048FEBD17FCFFFF10B50548A9
:10A19000054C20600AF0E9F9044A054920000DF059
:10A1A000B9F810BD20780200102500200020002002
:10A1B0008B43020010B5054C012120000AF0C9F9BB
:10A1C000034A044920000DF0A5F810BD1425002015
:10A1D000002000200F4502000388074A10B5012027
:10A1E000934208D0834202D00020DB0703D41E2014
:10A1F000FFF710F9002010BDFFFF00000048704776
:10A2000016FCFFFF10B53220FFF704F9004810BD1F
:10A2100016FCFFFF10B5124C002308348280046046
:10A2200041620224142201008371847203638386D5
:10A23000028136310A78C360A243F13422400361BF
:10A2400043618361C36103620A700200403213708C
:10A25000021DD387013343878387C38710BDC04660
:10A2600040780200F0B5544F97B03B680600059364
:10A27000002B00D08BE006AC0B331C2221212000E8
:10A2800001F076FA0EAD0B231D2222210AA801F05F
:10A290006FFA0B231B222321280001F069FA082002
:10A2A0000DF03FF80122059B110004900BF0EAFC31
:10A2B0003A2130000BF040FA00281DD0A38812ADDF
:10A2C000AB80A3795C20AB713C4B1293A3681493D1
:10A2D000237B2B73637B6B73A37BAB730DF021F834
:10A2E00004230193363300932A00049B31000400B9
:10A2F00002F05CF83C604AE0322130000BF04AFA90
:10A3000000281CD0A38812ADAB80A3795C20AB7170
:10A310002A4B1293A3681493237B2B73637B6B7379
:10A32000A37BAB730CF0FDFF042301932E3300934A
:10A330002A00049B3100040002F0D6F9DAE73C2140
:10A3400030000BF0E2F900282CD0AB8812ACA380CF
:10A35000AB79A420A371194B1293AB6814932B7B98
:10A3600023736B7B6373AB7BA3730CF0DAFF052362
:10A3700005000293013B0193383300932200049BB4
:10A38000310001F031FF0E4B3D6044351D600C4B38
:10A39000094C1868002802D021680AF049FA2068A0
:10A3A00017B0F0BD44200CF0BCFF04220499040057
:10A3B000FFF730FF9EE7C0461825002030780200E6
:10A3C0001C250020F0B56149C56885B08D4254DA7E
:10A3D0000300022236331B78134059D104698C42A2
:10A3E00064DA020036321278520768D44269019268
:10A3F0000200019E40328E426FDA01003631097848
:10A40000090774D4002B7DD113780293002B16D04A
:10A4100006000127011DCB8F363601339BB2CB8757
:10A4200003963678BC46374000D188E01D2B06D90C
:10A4300063469E43039B1E700023CB8713700AF074
:10A44000D7F8434A0723904276D94249043B8D42CC
:10A4500072DBC8220133920095426DDC023B8C42D4
:10A460006ADB013B944267DC01980433884263DB7A
:10A470000133904260DC00235EE0C82200235200DA
:10A480009542ABDD030036331A7800239207A5D43A
:10A49000012306001F00363632785408A7433C00DB
:10A4A00002279C40BA432243327097E7C8225200E9
:10A4B00094429BDD020036321278520796D4060091
:10A4C0000122363633789F08BA439700042293431B
:10A4D0001A003A433270012388E7C821019E4900DF
:10A4E0008E428FDD01003631097809078AD40100D8
:10A4F000012636310B78DF08BE430827F600BB4340
:10A5000033430B701378032B00D97DE70133DBB2A3
:10A510001370012B03D10021031DD98774E7042B8D
:10A5200000D071E7020036321178033B0B43137001
:10A5300000230430C3870B33180005B0F0BD092B8E
:10A5400000D87CE7029BCF87013B77E770FEFFFFD7
:10A55000FF700200E0FCFFFF70B5C369C1681A68B4
:10A56000451D8AB00400EB7F114255D0002B58D115
:10A57000EB7F082B0DD90122A379134209D1134394
:10A58000A371A188130006A809F0DCFEFFF70CFCFC
:10A590002062EB7F012B23D80123A2791A421FD01E
:10A5A0000025A188A571022202A809F0CBFEA31DF7
:10A5B000DE7F012E14D1FFF7F7FB2B00226A801AF1
:10A5C000994100900191019BA188AB4203D1174BA7
:10A5D000009A9A4227D90123042206A809F0B2FE64
:10A5E0000322A3791340012B14D1FFF7DDFB0023D5
:10A5F000226A801A9941994202D10D4B984209D999
:10A600000223A279A1881343A3710522012306A87E
:10A6100009F098FE0AB070BD0B2BA9D80133EB7777
:10A62000A6E7013BFBE733000322D6E7E703000080
:10A63000DB05000010B50400034B08330360FFF78F
:10A64000E9FB200010BDC04674780200F0B5070099
:10A6500000250E00040085B002930AAB1B78083772
:10A6600003930F4B019208330360858085712900A5
:10A67000182238000CF0DBFF039A310038000CF090
:10A6800099FC019B029AA380A31DE671DA77631DF2
:10A6900025622000DD77FFF79FFB200005B0F0BDAD
:10A6A000747802000048704716FCFFFF10B5332095
:10A6B000FEF7B0FE004810BD16FCFFFF002310B5EA
:10A6C0000400838083710D4821640830206080205D
:10A6D000C000A061E0612062E3602000236163614B
:10A6E0006362A362E36223636363A363E3636364FC
:10A6F00011000AF075F8200010BDC0468C780200E9
:10A70000F0B5534F97B03B6806000593002B00D07F
:10A710008BE00B331C22212106A80AAC01F028F89B
:10A720000EAD0B231D222221200001F021F80B2366
:10A730001B222321280001F01BF808200CF0F1FD5A
:10A740000122059B110004900BF09CFA1D213000A2
:10A750000BF009F800281DD0A38812ADAB80A379B7
:10A760006020AB713B4B1293A3681493237B2B7334
:10A77000637B6B73A37BAB730CF0D3FD0523019359
:10A78000183300932A00049B3100040001F0E2FE1C
:10A790003C604AE03C2130000BF013F800281CD04C
:10A7A000A38812ADAB80A3796020AB71294B1293C3
:10A7B000A3681493237B2B73637B6B73A37BAB73B3
:10A7C0000CF0AFFD05230193373300932A00049B5F
:10A7D0003100040002F02AF8DAE73C2130000AF0E8
:10A7E00094FF00282AD0AB8812ACA380AB79A420B8
:10A7F000A371184B1293AB6814932B7B23736B7B61
:10A800006373AB7BA3730CF08CFD052305000293EF
:10A81000013B0193383300932200049B310001F087
:10A82000E3FC0D4B1D6044353D600B4B084A1B6833
:10A830001068002B00D0436417B0F0BD48200CF026
:10A8400070FD052204990400FFF738FFA0E7C04619
:10A850001C250020307802001825002082B0F0B5B9
:10A860000400EDB06420739372920CF061FC052239
:10A8700010A8110009F0B6FD974911A8FFF7C4FB15
:10A88000002221AB6CA91A605A609A600C3399427D
:10A89000F9D11922002113A80CF0C9FEA0680AF012
:10A8A0005EFB00260B90FF21A06800F047FD8B4F58
:10A8B000A06800F05DFB07960996884B9F4203D085
:10A8C000874B9F4200DBFDE0A0680AF04AFBA568C9
:10A8D00084491AA8FFF7ACFA78221AA9280000F0D8
:10A8E00075FC1AA809F088FC00267C4F0322099BFE
:10A8F000606801331A40099209F012FF0500606890
:10A9000009F015FF0022784B05929D4210DB0132C1
:10A9100005922A00C8320BDBAA220421920005917D
:10A92000954205DC02220592C82D01DD0132059217
:10A9300000220692984210DB012306930300C833DD
:10A940000BDBAA2304329B000692984205DC02230B
:10A950000693C82801DD0133069310A809F039FDDC
:10A96000002513ABEB5C012B08D160496B00CA18C2
:10A970005278C95C10A8FF23FFF7D8FA0135192DCA
:10A98000EFD16B4618229A5E6B4610A81421595ECF
:10A99000099BFFF7CBFA002F01DB0F2E07D900230D
:10A9A000A068009374301A0010A909F028FD012353
:10A9B0000893089B05995A004C4B9B189A1E1278D5
:10A9C0008A4226D1013B1B78069A934221D1089AEC
:10A9D0006CAB9B18663BFF3B0A931B78012B18D08E
:10A9E0000C23079A216853431D0000220CA809F08C
:10A9F00021FF21AA2B0094460CAA634423CA23C337
:10AA000001220A9B01361A70079BF6B20133DBB2B2
:10AA10000793089B013308931A2BCAD164200CF0CA
:10AA200087FB079B643F3FB2182B00D845E71A000D
:10AA300021A91AA80AF00CF96A461DAB23CB23C240
:10AA40001B6813601A991B9A1C9B206809F0DAFE98
:10AA5000E568002D0CD0264912A8FFF7E9F91C2360
:10AA60001AAA12A928000AF01BFE12A809F0C4FBBA
:10AA7000A0680AF076FA11A912A8A56809F092FC5C
:10AA800000221C4B009212A901932800130000F031
:10AA90000DFB12A809F079FCFA2080000CF048FBAD
:10AAA000A0680AF05EFA0B99A06800F047FC11A8B4
:10AAB00009F06BFC10A809F068FC6DB0F0BC08BC94
:10AAC00002B01847002F02D00F2E00D00EE7A0686A
:10AAD00000F04EFA0AE7C0468B8502008C3C00006D
:10AAE000D18AFFFFD085020058FDFFFFF0850200EC
:10AAF000E5850200DC050000F0B587B001930EABE0
:10AB00001B88060003930D9B0D000093019B02928E
:10AB10000C9F002B3CD0002F02D1009BDB0737D5C8
:10AB200028200CF0FEFB0400103009F001FC029B11
:10AB30001820258063800CF0F4FB0500009B0822A0
:10AB40000593019B002103600C3004970CF06FFD0E
:10AB5000082204A9281D0CF04EFD0E4B02226B6149
:10AB600000230399E3602362636233680A43A560AC
:10AB7000A2805B68210030009847002806D02000A2
:10AB800009F0F0FA20000CF0C1FB034807B0F0BD5B
:10AB90000248FBE77548020016FCFFFF17FCFFFFA9
:10ABA00070B58CB08360109B01604260C36004008C
:10ABB000184918000AF03BFD051E14D001001C22A4
:10ABC000103105A80CF017FD6A4608AB43CB43C211
:10ABD0001B68136020680599069A079B09F012FE0E
:10ABE00028000CF093FB0C4B186800280ED00B4A81
:10ABF00005AB059200220692C03202926A4622CB31
:10AC000022C2230003220521FFF776FF20000CB0AB
:10AC100070BDC046E58502000C2500205DA801003E
:10AC2000F0B5040085B0637A9C46002B04D1200067
:10AC30000AF02CF805B0F0BDA37A266F019310231B
:10AC4000019AF35600259B1801229A402900F368C7
:10AC500003920293029BAB4231DDB368019A6B43CE
:10AC60009B1872695B00E77AD3181A785878E379F1
:10AC7000012F14D15F1E3F1A10003A005B004343BE
:10AC8000606F8218D3189B79634500DD6346627B51
:10AC90001A4202D00123AB4019430135DAE7022FF3
:10ACA00005D15F1EBA1A277A013F381AE6E7032F4B
:10ACB000E4D1277A013FBF1A02003800DEE71123F2
:10ACC000C943F356606C994023691940039B1943AB
:10ACD0000CF0FBFAA27B072AACD8637B0C495B0023
:10ACE0006373531CDBB290004158A373022A03D84C
:10ACF00008000CF012FA96E7064B200023630023AD
:10AD00006363054BE462236414300CF094F891E71C
:10AD1000B878020021AC0100774C020010B50400A5
:10AD2000044B03600CF07FF8200005F03FFF20008B
:10AD300010BDC0460880020010B504000E4B083359
:10AD40000360FFF767F82000743009F01EFB200055
:10AD5000603009F01AFB2000583009F04DFA20004D
:10AD6000503009F049FA2000044B14306361FFF7BA
:10AD7000D5FF200010BDC046D87802003C800200FC
:10AD8000F8B500250400324B8580083303608571D7
:10AD9000143016000F0005F0F3FE20002D4BE56285
:10ADA000636125645030FFF77DF820005830FFF7CD
:10ADB00079F820006030FFF7A3F820000423F25E4A
:10ADC00033682667590009B2743009F00BFB336809
:10ADD000226FE37173680126237210236581A780B7
:10ADE0002561D35691685918994204DD3000984086
:10ADF00001330543F8E711230120D356D1685918D0
:10AE0000994206DD02009A402669013332432261ED
:10AE1000F6E714200CF085FA226900212A43012369
:10AE2000060006F059FAFF23220063720133A38162
:10AE3000002348326664A37320001370A366FEF7F4
:10AE4000CBFF0123A27920001343A371F8BDC046B4
:10AE5000D87802003C800200F0B5437A85B0040047
:10AE6000002B04D1200009F011FF05B0F0BD012234
:10AE7000837A11009C461023066F0025F356039237
:10AE80006344994002912900F3680193019BAB420E
:10AE90002CDDB36872696B4363445B00E77AD318B7
:10AEA0001A785878E379012F10D15F1E3F1A1000ED
:10AEB0003A005B004343606F8218D3189B79002BE4
:10AEC00002D0039BAB4019430135DFE7022F05D1C8
:10AED0005F1EBA1A277A013F381AEAE7032FE8D132
:10AEE000277A013FBF1A02003800E2E71123C94365
:10AEF000F356606C994023691940029B19430CF08A
:10AF0000E4F9667AB31EDBB2FC2B14D8FEF712FF0D
:10AF10000B4B0500236300230A4863630A4BFF21A0
:10AF2000E4622364704306F0A5FD2900414320003C
:10AF300014300BF080FF637A012B00D995E791E77D
:10AF40008D4C0200B6030000774C02001FB50123B0
:10AF500081881A00684609F0F5F9012303491A00AF
:10AF6000684609F0EFF905B000BDC046FE030000D9
:10AF70001FB5030048331A780400002A0DD00022C0
:10AF80001A70012381881A00684609F0DBF9012351
:10AF900004491A00684609F0D5F92000743009F018
:10AFA00018FA1FBDFF03000010B548300378002BCE
:10AFB00006D00378012B03D00121024809F027F8BD
:10AFC00010BDC046FF03000010B50121040006209B
:10AFD00009F01DF8064B984208D148342378002B1D
:10AFE00004D02378012B01D020BFF7E710BDC04665
:10AFF00016FCFFFF70B50600141E19DB050048356E
:10B000002B78002B02D02B78012B13D1002330009A
:10B010001A007430FFF748F8002C07D033004A3389
:10B020001C80002407234C3634802B70200070BD18
:10B03000014CFBE7014CF9E717FCFFFF12FCFFFF97
:10B04000F8B517000A68050052880B00012A09D1DB
:10B050000021180009F05FF9002201002800FFF725
:10B06000C9FFF8BD002F19DD060048363278002AE6
:10B0700002D03278012A13D12A00002428005C3241
:10B0800019001480583009F021F92B004A331F8031
:10B0900003234C352C8020003370E2E70148E0E7C1
:10B0A0000148DEE717FCFFFF12FCFFFF73B5079CAA
:10B0B0000500002C1CDB060048363078002802D042
:10B0C0003078012816D106981BB2C0B20090280033
:10B0D00012B2743009F093F9002C07D02B004A33D8
:10B0E0001C80002407234C352C803370200076BD53
:10B0F000014CFBE7014CF9E717FCFFFF12FCFFFFD7
:10B10000F7B505000E00171E26DDFFF74DFF2B00DB
:10B1100048331C78E4B2002C20D133685B88012BC3
:10B1200009D12100300009F0F6F8220001002800C2
:10B13000FFF760FFFEBD310001A809F0BFF83A003B
:10B1400001A92800FFF77CFF01A809F055F82800A5
:10B15000FFF73AFF2000EDE70148EBE70148E9E798
:10B1600017FCFFFF11FCFFFFF0B587B00D9C060038
:10B170000F0002920393002C20DBFFF715FF330032
:10B1800048331D78EDB2002D1AD1390005A809F019
:10B1900009F90C9B01940093029A039B05A93000C6
:10B1A000FFF784FF05A809F0F0F8002C03D0300069
:10B1B000FFF70AFF2C00200007B0F0BD014CFAE7B2
:10B1C000014CF8E717FCFFFF11FCFFFFF8B5040086
:10B1D000171E1DDD060048363378002B02D0337869
:10B1E000012B17D12200E3795632013B1370230063
:10B1F0000025200054331D80503009F067F82300EB
:10B200004A331F80022328004C3425803370F8BD58
:10B210000148FCE70148FAE717FCFFFF12FCFFFFBB
:10B22000F7B505000F00161E18DDFFF7BDFE2B0059
:10B2300048331C78E4B2002C12D1390001A809F07F
:10B240003DF8320001A92800FFF7C0FF01A808F06F
:10B25000D3FF2800FFF7B8FE2000FEBD0148FCE741
:10B260000148FAE717FCFFFF11FCFFFFF8B50400E7
:10B27000171E2DDD060048363278002A02D03278BB
:10B28000012A27D15D42069BFF331FD16B1D22008F
:10B290001BB2643213802300200066331D706030BF
:10B2A00009F088F8230000226C331A70954200D010
:10B2B0003D0023004A331D80079B00205A1E934106
:10B2C000013F4C34053327803370F8BD069BDEE721
:10B2D0000148FAE70148F8E717FCFFFF12FCFFFFFF
:10B2E000F0B587B005000F00161E03931EDDFFF7B3
:10B2F0005BFE2B0048331C78E4B2002C18D13900D7
:10B3000005A809F04FF80D9B320001930C9B05A98D
:10B3100000932800039BFFF7A9FF05A809F035F863
:10B320002800FFF751FE200007B0F0BD0148FBE701
:10B330000148F9E717FCFFFF11FCFFFFFF2902D8C6
:10B340004172002070470148FCE7C04617FCFFFF30
:10B3500013B5040004A80078009020000BF091FDC4
:10B36000002801D1207516BD0048FCE70EFCFFFF48
:10B3700013B5040004A80078009020000BF069FDCC
:10B38000002801D1207516BD0048FCE70EFCFFFF28
:10B390007FB50D0011000F226A4404001E1E1170BB
:10B3A00016D0089B002B13DD012329000093FFF723
:10B3B000DFFF002802D0074804B070BD0090089B52
:10B3C000320029002000FFF7C3FF0028F4D0F2E785
:10B3D0000148F1E70EFCFFFF17FCFFFFF7B5070080
:10B3E0000D1E3FD00023022604690193002C35D0A6
:10B3F000AA88A3885340334204D1324204D1AB8897
:10B40000334226D0646AF1E7A968A0680AF01FFCFD
:10B410000028F4D02B88002B02D022889A42F1D148
:10B420006B88002B02D062889A42EBD1EB68E2680D
:10B43000934201D0002BE5D17B68002B01D0200086
:10B440009847A288084B1343A380019B01330193C3
:10B45000D8E7A368AA689342D4D1DBE7019B200018
:10B46000002B00DC0148FEBD0080FFFF17FCFFFF42
:10B47000F0B5060085B00D1E5DD001270469002CD3
:10B4800026D00221AA8800230A4202D0A3885B08A2
:10B490003B40226829688A4214D1A068A968002B21
:10B4A0000ED00AF0D4FB00280CD0EB68E26893427F
:10B4B00008D1A3881AB2002A06DB204805B0F0BDE7
:10B4C0008842F2D0646ADAE75B045B0CA380F4E79D
:10B4D00030692A88002807D1356101231849684658
:10B4E00008F030FF0020E9E7010003001C889442C7
:10B4F00006D25C6A1900002C0DD02300F6E7230069
:10B500001C88944207D15F886C88A74203D85C6A84
:10B510001900002CF3D1884209D10B889A4204D338
:10B5200005D148886B88984201D96962D4E74B6A93
:10B530006B624D62D1E70348C0E7C04616FCFFFFCF
:10B54000FD03000017FCFFFF064B10B51A000400B6
:10B5500008322C33026083600830FEF7ABF920001C
:10B5600010BDC046F078020008B4024B9C46083873
:10B5700008BC604749B5010008B4024B9C46083836
:10B5800008BC6047D55002000C4A002311002C3241
:10B59000083110B543608381837382600361436126
:10B5A0008361C383016004000830FEF775F9044B22
:10B5B0001A68002A00D11C60200010BDF07802003B
:10B5C0000C250020F7B50E00012504690192002C1E
:10B5D00036D0238832889A4201D0002B23D1638849
:10B5E00072889A4201D0002B1DD1FEF7C9F80123C1
:10B5F000002806D0C022A3881340C03B5A425341C2
:10B60000DBB2019A934219D1A7883BB2002B15DB1C
:10B6100010223100A0180BF0EEFF40231F4204D08F
:10B62000200009F060FD646AD1E7FEF7A9F8002860
:10B63000F6D021000348FEF755FAF4E70025F2E7BB
:10B640002800FEBDE750020008B4024B9C460838B3
:10B6500008BC60476F520200F0B587B001930EAB93
:10B660001B88060003930D9B0D000093019B029223
:10B670000C9F002B3CD0002F02D1009BDB0737D55D
:10B6800028200BF04EFE0400103008F051FE029B03
:10B690001820258063800BF044FE0500009B0822E3
:10B6A0000593019B002103600C3004970BF0BFFF52
:10B6B000082204A9281D0BF09EFF0E4B02226B618D
:10B6C00000230399E3602362636233680A43A56041
:10B6D000A2805B68210030009847002806D0200037
:10B6E00008F040FD20000BF011FE034807B0F0BD4C
:10B6F0000248FBE7A952020016FCFFFF17FCFFFF00
:10B70000F0B50400160000258380164A164B85719B
:10B710000260218146810573186889B08C46A84271
:10B720001DD0124A05950492C02202926A4604ABCB
:10B7300082CB82C223002A006146FFF78DFFC02220
:10B74000094B0A49186802926A46069106AB0795AA
:10B7500082CB82C223002A003100FFF77DFF200048
:10B7600009B0F0BD347902000C250020D35302004B
:10B7700030B5002403730123034D8471056081807B
:10B7800082734373846030BD3078020070B5837972
:10B790000400DB0702D580680BF0B8FDA3799B0796
:10B7A00002D5A0680BF0B2FDA3795B0707D5A023F3
:10B7B0000021144ADB00D150A0680BF0A7FDA3794B
:10B7C0001B0708D5A568002D05D028000AF0B0FA9F
:10B7D00028000BF09BFDA379DB0605D5A0680028A7
:10B7E00002D00368DB6898476023A2791A4205D02B
:10B7F000A068002802D003685B6898470023A36014
:10B80000A37170BD00700040F7B50227037B0400F0
:10B810000D003B4226D0012926D886793E4000966D
:10B8200014D1FFF7B3FF18200BF07BFD0E230600A9
:10B83000E3561822009901930BF0F9FE01993000AC
:10B840000BF0CAFBA379A6603B43A371A3685A68B7
:10B85000002D04D00025DB681A602800FEBD1B699E
:10B860001A60FAE7014DF8E7014DF6E716FCFFFF15
:10B8700017FCFFFFF7B50126037B040033422AD0F3
:10B88000612385791D4017D1FFF780FF18200BF049
:10B8900048FD0E230700E35618220093637B29001E
:10B8A00001930BF0C4FE019A009938000BF082FB63
:10B8B000A379A7603343A3716023A279A0681A42D9
:10B8C00002D00BF02CFAFEBD436940681B6818409B
:10B8D000431E9841F7E70148F5E7C04616FCFFFF15
:10B8E00010B50124837941731C4004D080680BF0AB
:10B8F0002BFC002010BD6022134203D080680BF0A7
:10B9000015FAF6E70048F5E716FCFFFF70B50400EE
:10B9100000250C4B0E0008338580857103602100E3
:10B92000183009F007FE20002100203009F025FE24
:10B93000054BA680E5802572E560256165612000E4
:10B940001C6070BD44790200202500208379DB074C
:10B9500002D5C160002070470048FCE716FCFFFFDD
:10B960008379DB0701D5C06870470148FCE7C04612
:10B9700016FCFFFF70B545690400002D22D0037A44
:10B98000032B21D8FFF7ECFFA8622C200BF0C9FC99
:10B990002C22002105000BF04AFE002263695A6246
:10B9A0002369934208D1636923610020237A65618A
:10B9B0000133237270BD13005A6A002AFBD16269F9
:10B9C0005A62F2E70148F5E70148F3E717FCFFFF89
:10B9D00013FCFFFF144B70B55A68144C002A03D0B7
:10B9E00000225A600132A2601A69002A17D0002191
:10B9F00019618023DB000E4DE3582868012B0FD11D
:10BA0000A923DB00E1584942FFF7A0FF2868FFF7B0
:10BA1000B1FF2B685A69074BE2500123A36070BD48
:10BA2000FFF794FFF9E7C046FC100040001000400B
:10BA3000202500200405000003000069002809D02B
:10BA40000221054AD167426A1A611A7A013A1A72CA
:10BA5000024B19607047C04604E100E000E100E0DD
:10BA600010B5002903DB024B19600BF05AFA10BD28
:10BA70002425002070B504001E0004AB1D7805F0DD
:10BA8000C7F820000E4B40302360FEF70BFA23006E
:10BA900001364C33013522001E701D730023E12155
:10BAA0004E32A3646365138053809381D381013B3D
:10BAB000200063644902FFF7D3FF200070BDC04639
:10BAC000E0770200F7B580277F053D697C69082291
:10BAD000113C6C430600210068460BF08CFD104BB6
:10BAE000009A9A4219D0009300230193796930009B
:10BAF0001339694309F056FD019A0099300009F0A5
:10BB000069FD2100300009F04DFD7969AB0813395A
:10BB100069432200300009F04FFD0198FEBDC04688
:10BB2000FECA0000F0B50D00A9B00D920021302230
:10BB3000060010A80B930BF07AFD28000BF0B7FD60
:10BB4000431C0C93102B00D9B5E00B9B202B00D984
:10BB5000B1E02900300009F06AFD071E50D129002C
:10BB60000C9A10A80BF047FD0D990B9A14A80BF036
:10BB700042FD80235B051A695F690C92113F7A438D
:10BB800030005D690B92FFF79DFF30220021040019
:10BB90001CA80BF04CFD290000270C9B13395943BE
:10BBA000300009F0FFFC0D9730257D430B9B0833D7
:10BBB000ED18A74242DA290030221CA80BF01BFD29
:10BBC00010A91CA80BF069FD002827D13C493000C2
:10BBD00022000E910F9409F0FDFC6A46099513AB03
:10BBE00023CB23C223CB23C223CB23C23000129BFF
:10BBF0001099119A09F0FCFC01230D930137D3E74A
:10BC000010300B9A0D990BF0E7FC040038000BF094
:10BC10007DFB002CA3D1200029B0F0BD6A46099518
:10BC20001FAB23CB23C223CB23C223CB23C23000A1
:10BC30001C991D9A1E9B09F0DBFCDFE7E5433023CE
:10BC4000ED1725405D430B9B08355D190D9B002BBF
:10BC50001DD10C9B3021981E05F082FEA0422CD0F5
:10BC600017490134300022000E910F9409F0B2FC04
:10BC70006A46099513AB23CB23C223CB23C223CB24
:10BC800023C230001099119A129B09F0B1FC0B9954
:10BC9000300009F087FC80235B0559690C230C9A5E
:10BCA000133963434A430233110030000B9A09F001
:10BCB00083FC0024AFE7034CADE7034CABE7C04681
:10BCC000FECA000017FCFFFF13FCFFFF8023F0B546
:10BCD0005B051A6995B003925A6905910399113A67
:10BCE00051435D69039B133D040002915D43FFF7DF
:10BCF000E9FE061E3BD0002730220021083508A8A7
:10BD000001950BF094FC0199200009F04BFC04977D
:10BD100030237B43029D0835ED18B7421FDA290016
:10BD2000302208A80BF067FC059908A80BF0B5FCB9
:10BD300000280AD11949721E20000691079209F0C5
:10BD400049FC012304930137E2E70C23019A2900FF
:10BD5000200009F031FC019B30330193F3E7049B91
:10BD6000002B06D10D493200200009F033FC0C48AD
:10BD700012E00299200009F015FC80235B05596947
:10BD80000C23039A13394A437343110020000233F2
:10BD9000029A09F011FC002015B0F0BDFECA0000A7
:10BDA0000CFCFFFF70B50400A280FA2200230800FB
:10BDB0000C49920008312160A3716061E260A360C8
:10BDC0006382094909F033FC051E09D001002000F7
:10BDD0001031022212300BF00EFC28000BF096FA04
:10BDE000200070BD5C7902002286020030B5022579
:10BDF000837987B004002B4204D1FDF74DFDA37970
:10BE00001D43A571200009F05CFC00281CD06B4686
:10BE1000DD1C280009F04CFC2B78002B17D001A862
:10BE200009F044FC0321019AD3170B409B189B1087
:10BE30002382FDF7B9FFE368A18818180123A060E9
:10BE40001A0002A808F07EFA002007B030BD0122D7
:10BE5000064B1A60064A51680029FCD00021516047
:10BE6000044A1268019201225A60DBE700C00040D8
:10BE7000FCC0004008C50040022802D10122014B4D
:10BE80001A7070470728002070B5064C050023780B
:10BE9000002B04D1044802F0FFFA0123237028008C
:10BEA00070BDC0460828002079BE010070B50C00A6
:10BEB00008F03BF8002810D00023144DA40A2B7082
:10BEC000200009F012FC002803D00A200BF030F902
:10BED000F6E72B78002BFCD070BD02210C4B0D4AED
:10BEE00099508021C90008005D58002DFCD0A12187
:10BEF000C9005C5019580029FCD0002199508021BC
:10BF0000C9005A58002AFCD0E6E7C046072800209E
:10BF100000E0014004050000F8B50C0015001E000B
:10BF200008F003F8002811D00023174F3B703200AF
:10BF30002900200009F0D7FB002803D00A200BF0CD
:10BF4000F7F8F4E73B78002BFCD0F8BD01210F484F
:10BF50000F4B844619508021C9005A58002AFCD042
:10BF600080270022FF00964207DD9100685860504C
:10BF7000D9590029FCD00132F5E7002261465A5018
:10BF8000DA59002AFCD0E0E7072800200405000069
:10BF900000E0014008B4024B9C46443808BC6047AE
:10BFA000EF560200FA21F8B50389C900040059438D
:10BFB000324809F062FEFA21890005F0D1FC304FC9
:10BFC0002081A17A380009F058FE230026002500C0
:10BFD00022894C33A072A0361A808C353178002328
:10BFE0002A22286808F0CAFF002801D02548F8BD99
:10BFF00031781F235B22286808F0C0FF0028F5D1A4
:10C00000317820235C22286808F0B8FF0028EDD1A1
:10C01000317801232C22286808F0B0FF0028E5D1F0
:10C02000317801232D22286808F0A8FF0028DDD1EF
:10C03000317801232E22286808F0A0FF0028D5D1EE
:10C04000A17A380009F014FE3178C3B20E222868B4
:10C0500008F094FF0028C9D1FA21238989005943A7
:10C06000064809F005FE01230343DBB231782A229A
:10C07000286808F083FF0028B9D0B7E77C79020070
:10C08000747902000EFCFFFF08B4024B9C46443852
:10C0900008BC6047A5BF0100074B10B51A0004009B
:10C0A00008323C3302604364443008F067FB2000F0
:10C0B00008F097FA200010BDDC79020008B4024BAA
:10C0C0009C46443808BC604799C0010008B4024B44
:10C0D0009C46443808BC6047F9560200F0B5042578
:10C0E00083798BB004002B4204D1FDF7D5FBA379F3
:10C0F0001D43A57120009030FFF7BCFB0026B04225
:10C100000FD12300A033197820000C2307AD009332
:10C110008C302B0001220068FFF73AF9061E03D08D
:10C120002C4E30000BB0F0BD0A2304AA9B182A78CD
:10C130005A706A781A700022985EAA785A70EA7863
:10C140001A700022995E03912A795A706A791A70DE
:10C1500000229F5EAA795A70EA791A7000215A5E0D
:10C1600004922A7A5A706A7A1A7000215A5E0592ED
:10C17000AA7A5A70EA7A1F251A7000229B5EA27A68
:10C1800003999C46514349425043CB172B407A4375
:10C190005B185B11A361C3172B401818D3171D4000
:10C1A0006423AD18059A5B425343A3676423614639
:10C1B000049A40115A434B43E2676D11221DE0611E
:10C1C00025622000D36708F07EFA2000443008F092
:10C1D000DCFAA6E70EFCFFFF08B4024B9C4644388D
:10C1E00008BC6047DDC00100F7B51E00040008ABC5
:10C1F0001B881500019309AB00911A8831000AAB26
:10C200001F88FEF707F820003A0031004430FEF79F
:10C2100055FA134B20001A003C33636423000832A4
:10C220002260009A8C331A60AB8890308380AB799F
:10C23000019A83710B4B03210360AB6883602B7BF6
:10C2400003736B7B4373AB7B83732300A0331A8030
:10C25000FFF746FB2000FFF7A5FE2000FEBDC0460D
:10C26000DC79020030780200F8B5FA260189B600C0
:10C2700004007143264809F000FD310005F070FB11
:10C28000244F2081A17A380009F0F7FC2500A07224
:10C290005835297800232A22606C08F06FFE0028A8
:10C2A00001D01D48F8BD297810232B22606C08F0BE
:10C2B00065FE0028F5D1297801232D22606C08F055
:10C2C0005DFE0028EDD1297801232E22606C08F054
:10C2D00055FE0028E5D1A17A380009F0C9FC29787B
:10C2E000C3B20E22606C08F049FE0028D9D1218922
:10C2F0000748714309F0BCFC01230343DBB22978F2
:10C300002A22606C08F03AFE0028CBD0C9E7C0466C
:10C31000447A02003C7A02000EFCFFFF10B50400D4
:10C32000034B0833036008F05CF9200010BDC046E1
:10C33000A47A02007FB50425837904002B4204D13E
:10C34000FDF7AAFAA3791D43A57120004830FFF735
:10C3500091FA0025A8420DD12300583319780623FD
:10C3600002AE009301223300606CFFF711F8051E46
:10C3700003D00D4D280004B070BD0223002104201D
:10C38000F356A27ADB00715630565343C000C90001
:10C39000514342435B42A3612368E16122629B6A8D
:10C3A00020009847E6E7C0460EFCFFFFF8B5040002
:10C3B000150006AA168807AA0F0012881900FDF7B3
:10C3C00029FF0F4B6764083323602300AA88483392
:10C3D0009A80AA7920009A710A4AA264AA68226502
:10C3E0002A7B1A736A7B5A73AA7B9A730023A37100
:10C3F000230058331E80FFF737FF2000F8BDC046EA
:10C40000A47A02003078020010B50400034B083310
:10C41000036008F0B3F9200010BDC046387B02006D
:10C42000F0B507005C3787B004003978002310228C
:10C43000806C08F0A3FD0326002802D01F4807B037
:10C44000F0BD0F2502ABED180123397808220093C7
:10C45000A06C2B00FEF79CFF184B9842EED02B7877
:10C46000334203D06420FDF7B1FAEAE7FA262189C6
:10C47000134DB6007143280009F0FFFB310005F0B1
:10C480006FFA20813978A0231122A06C08F076FD84
:10C490000028D3D1A36C21890393714328003F78EE
:10C4A00009F0E6FB01231843C3B2102239000398B8
:10C4B00008F064FD0028C2D0C0E7C0460EFCFFFFB4
:10C4C000D87A020070B50825837986B004002B4223
:10C4D00004D1FDF7E1F9A3791D43A57120004C308B
:10C4E000FFF7C8F9061E0DD023005C331978062328
:10C4F00004AD009301222B00A06CFEF749FF061E3D
:10C5000003D0134E300006B070BD0E232A786B4462
:10C510005A706A7820001A700022995E64224A4399
:10C52000A263AA785A70EA781A700022995E64228F
:10C530005242514361632979597069791970002118
:10C540005B5E5A432368E2631B6A9847DAE7C0469A
:10C550000EFCFFFFF8B50400150006AA168807AA0E
:10C560000F0012881900FEF7A9F80D4BA7640833D5
:10C5700023602300AA884C339A80AA7920009A71FC
:10C58000084AE264AA6862652A7B1A736A7B5A7356
:10C59000AA7B1E829A73FFF743FF2000F8BDC046B6
:10C5A000387B020030780200F7B5FA250189204F68
:10C5B000AD0004006943380009F05FFB290005F075
:10C5C000CFF9A17A20811B4809F057FB2600636C44
:10C5D000A07200932189583633786943380001935B
:10C5E00009F046FB07230343DBB2202201990098A0
:10C5F00008F0C4FC002801D00F48FEBD317810239C
:10C600002222606C08F0BAFC0028F5D1A17A094812
:10C61000656C377809F02CFB80235B420343DBB267
:10C6200023223900280008F0A9FC0028E5D0E3E720
:10C630006C7B0200647B02000EFCFFFF10B504005F
:10C64000034B0833036007F0CCFF200010BDC04649
:10C65000DC7B0200F0B50425837985B004002B4211
:10C6600004D1FDF719F9A3791D43A57120004830C5
:10C67000FFF700F9061E0DD0230058331978062362
:10C6800002AD0093A8222B00606CFEF781FE061E0F
:10C6900003D0144E300005B0F0BD1F200023EA5E29
:10C6A000D31703409B180222A95E5B11CA170240F0
:10C6B000521804216F5E5211F9170140C91949112E
:10C6C0002B806A80A980A07A4343424341435B4266
:10C6D000E36123685242A26121629B6A200098476D
:10C6E000D8E7C0460EFCFFFFF8B50400150006AA07
:10C6F000168807AA0F0012881900FDF78BFD0F4B53
:10C700006764083323602300AA8848339A80AA7993
:10C7100020009A710A4AA264AA6822652A7B1A73C9
:10C720006A7B5A73AA7B9A730023A3712300583340
:10C730001E80FFF739FF2000F8BDC046DC7B0200F9
:10C7400030780200F7B5FA2504000189134EAD00D8
:10C750006943300009F091FA290005F001F927003A
:10C76000A36C208100935C373B7881B26943300031
:10C77000019309F07DFA6022C3B20199009808F094
:10C78000FDFB002801D00648FEBD39780123622256
:10C79000A06C08F0F3FB0028F6D0F4E7107C020050
:10C7A0000EFCFFFF10B50400034B0833036007F0D5
:10C7B000E5FF200010BDC046387C02007FB508258B
:10C7C000837904002B4204D1FDF766F8A3791D4359
:10C7D000A57120004C30FFF74DF8051E0DD0230049
:10C7E0005C331978062302AE0093E8223300A06C74
:10C7F000FEF7CEFD051E03D00B4D280004B070BD22
:10C800000223F25E96235B425A4362630021725E0A
:10C8100020005343A3630423F25E96235343E36350
:10C8200023681B6A9847E8E70EFCFFFFF8B5040091
:10C83000150006AA168807AA0F0012881900FDF72E
:10C840003DFF0D4BA764083323602300AA884C33B7
:10C850009A80AA7920009A71084AE264AA686265FF
:10C860002A7B1A736A7B5A73AA7B1E829A73FFF71C
:10C8700069FF2000F8BDC046387C02003078020015
:10C8800010B50400054B083303601C3007F0B4FCFE
:10C890002000183007F0B0FC200010BD647C0200BE
:10C8A000FF23F0B52C4D8DB02B700023040069469A
:10C8B0000088009303F0B2F9002802D16B469B7800
:10C8C0002B70264E3368DB68002B07D100232088AD
:10C8D0001A00190008F080FF0DB0F0BD2B78032B73
:10C8E000F4D81F4901A8FDF7A3FA336801A9DE684F
:10C8F00004A807F0E3FC04A9300008F0CBFE0027F1
:10C90000060004A807F078FCBE421ED031002022A9
:10C91000103104A80AF06FFE30000AF0F7FC297805
:10C9200004ABC9005918082202A80AF064FE208846
:10C930000123082202A908F04FFF0137002804D183
:10C940002088084A0C2108F045FF01A807F054FC94
:10C95000002FBBD0C0E7C046802000203425002037
:10C96000B5860200FFFF0000F0B5837991B00400A6
:10C970005B071BD5FDF718FA00232269801A99413D
:10C98000994203D1F423FF3398420FD9A0680028BD
:10C9900008D0364B1D8809F0E8F9036815221B6A98
:10C9A000290098470422A3799343A371A3799B0795
:10C9B00059D52F4D2B68DB68002B50D02D4B1B78A1
:10C9C000032B4CD8294B2C491B8804A80193FDF755
:10C9D0002FFA2B6804A9DE6808A807F06FFC08A9E5
:10C9E000300008F057FE070008A807F005FC02AB6E
:10C9F0009E1D08233200338006A9073B019808F0EA
:10CA0000EDFE002F08D039002022103108A80AF0CE
:10CA1000F2FD38000AF07AFC164B32881B7806A922
:10CA2000DE0008AB9E1930000AF0D6FD002813D0B6
:10CA3000082206A930000AF0DEFD2B6804A9DD6893
:10CA400005A807F03BFC202308AA05A9280008F048
:10CA500027FE05A807F0D0FB04A807F0CDFB0222B3
:10CA6000A3799343A37111B0F0BDC046B027002055
:10CA70003425002080200020B5860200F7B5089EEE
:10CA80000500152922D8012007008F40244C274299
:10CA90001CD0E97FCC181F2C41DC69183418A14246
:10CAA00010D80021C8B2834204D9545C7018847035
:10CAB0000131F7E732789A183270EA7F9B18EB77EA
:10CAC00000202CE00878C8540139E8E73478013CAC
:10CAD000E4B2A34208D10023D9B28C42F0D9D05C91
:10CAE000F11888700133F7E7EF7F0120FF183F1B33
:10CAF0001F2F14DC0227A01C7F423618381B019020
:10CB0000E87F2F18BE4204D23078019FF0550136DD
:10CB1000F6E7041B023CEC77280008F0A9FEFEBDF6
:10CB2000FC002000F0B5040085B001930AAB1E881C
:10CB30000BAB1B78451C02930EAB1B7817000393BD
:10CB40000B78102203704B8A0131438228000AF0CF
:10CB500052FD268300260122019B67616383039BAC
:10CB6000E6832377029B2000EB77A31CDA770C9BEC
:10CB70000C25636223000D9A28331A705E709E7034
:10CB80002A0031002C300AF052FD2000064BE663EB
:10CB9000A3632A00310040300AF049FD2000034B16
:10CBA0002665E36405B0F0BDF3570200E5570200C7
:10CBB00070B50D0009F0D9F804000368002D09D103
:10CBC0005B699847FA2080006843074904F0C8FE73
:10CBD000E08070BD9B6898478542F3D223682000AF
:10CBE0009B6898470500EDE771020000F0B507006B
:10CBF0001600A1B002C704006B4918A81D0008F078
:10CC00007EFE331E03D030000AF051FD83B20122B4
:10CC100004920022039202920232019200933200A7
:10CC200018A93800FFF77EFF23006049583318A881
:10CC3000079308F064FE2B1E03D028000AF037FD8E
:10CC400083B20122049200220392029202320192E4
:10CC500000932A0018A90798FFF764FF230054499E
:10CC6000AC3318A8089308F04AFE269B002B03D08B
:10CC700018000AF01CFD83B20122049200220392E4
:10CC80000292023201920093269A18A90898FFF79F
:10CC900049FF631CFF33474918A8099308F02FFE8A
:10CCA000279B002B03D018000AF001FD83B201225C
:10CCB00004920022601C03920292023201920093BD
:10CCC000279A18A9FF30FFF72DFF23005533FF33B4
:10CCD000394918A8099308F012FE289B002B03D0AD
:10CCE00018000AF0E4FC83B20122049200220392AD
:10CCF0000292023201920093289A18A90998FFF72C
:10CD000011FF2300A933FF332C4918A80A9308F018
:10CD1000F6FD299B002B03D018000AF0C8FC83B253
:10CD200001220492002218AD039202920232019273
:10CD30000093299A29000A98FFF7F4FE204B1B78EC
:10CD40000B93002B2CD1079B12971393089B0DAFCD
:10CD50001493631CFF331593099B1A4916930A9B7E
:10CD60003800179308F0CBFD1D2149203B78102295
:10CD70002B707B8A12AE6B8206ABC918C0180AF002
:10CD80003AFC06232B750B9B2068AB83AE6108F041
:10CD9000F0FF036829001B6898470122084B1A70AE
:10CDA000200021B0F0BDC046292A0000242A00003E
:10CDB000252A0000272A0000262A0000282A000031
:10CDC000092800200A18000070B5002504000B4B4C
:10CDD0008580083385710360C1601830FDF762F803
:10CDE00020001C30FDF75EF80123621CD377044A53
:10CDF000A560656120001460A37170BD647C0200B1
:10CE000034250020FA2130B585B005000123022227
:10CE10008900684607F096FA074C2068002809D078
:10CE200008F0A6FD2988054B226819800223917914
:10CE30000B43937105B030BD34250020B02700208E
:10CE400010B50C0007290DD8806808F08EFF064B3E
:10CE5000195703685B6C9847431E9841034B404247
:10CE6000184010BD0248FCE7AD86020016FCFFFF2B
:10CE700017FCFFFFF0B5A44C0D00A5440400079378
:10CE80009AAB1B78A14909A804930692FCF7D0FF3E
:10CE9000200029001C3007F019FAC020800001F0A2
:10CEA000F1FA08200AF03DFA0600002100F0AEFE7B
:10CEB00015ADA66000210C220EA80AF0B8FB2B00CD
:10CEC0000EAA83CA83C3924B2900EB600023300073
:10CED0002B6108F033FFA06808F047FF082200210B
:10CEE000059016A80AF0A3FB14200AF01AFA2900EC
:10CEF0000200884B1593C8C9C8C2874B059EC36002
:10CF00000023A43603613368002B00D0F5E03060C5
:10CF1000A06808F02EFF08220021060016A80AF0DB
:10CF200086FB14200AF0FDF97C4B1593030086CD97
:10CF300086C37B4BC36000230361336B002B00D09F
:10CF4000DDE03063A06808F010FF08220021050032
:10CF500016A80AF06CFB14200AF0E3F9714B15AE29
:10CF60001593030086CE86C36F4B9835C3600023AC
:10CF700003612B68002B00D0C3E02860012504ABBF
:10CF80001B7C04AA2B4308A92800137408F028FC72
:10CF9000A06808F0F2FE036864495B6A9847A068DD
:10CFA00008F0EBFE036862499B699847A06808F0A7
:10CFB000E4FE002302680093166804992A00B04733
:10CFC000049B002B0AD0200008F0DBFC032805DDC1
:10CFD000A06808F0D2FE0368DB6898470EA808F046
:10CFE0003EFC2F2004ABC01808F039FC362004ABFF
:10CFF000C01808F034FC3D20042504ABC01808F02C
:10D000002EFC0EAB0A93A06804AB5D7708F0B5FE6A
:10D0100003680AA91B699847A06808F0A6FE036880
:10D020000AA95B6D9847A06808F09FFE036800217D
:10D03000DB6D9847A06808F098FE036802219B6D9D
:10D04000984700212000FFF7FBFE18200AF069F93D
:10D05000A16800F055FA374B374A1B68A168039363
:10D06000364B15A81B6800260293354B0CAF1B6886
:10D070000193069B1B685B190093324B12681B6877
:10D08000FFF7B4FD30200AF04CF9079AA16800F0D0
:10D09000F7FAA06808F069FE036839009B6A9847B0
:10D0A000294BBE80A0680C9308F05FFE036839002E
:10D0B000DB6A98472900A06808F02DFC099A09212D
:10D0C0009378A068521908F039FCA06808F04DFE6A
:10D0D00032210671A068FFF76BFD04AB1B7FB342E2
:10D0E00004D0A06808F041FE08F0FFFB09A807F093
:10D0F00083F895239B009D44F0BD036107E703611E
:10D100001FE7036139E7C046ACFDFFFF9A870200C5
:10D110000158020005CE01000F580200A1C801000D
:10D120001D5802004B5802002B5802004DD101003F
:10D1300081D10100302500202C250020082000206E
:10D14000282500200C2000200800100013B506221E
:10D150006846FCF77DFE094B1C68002C0AD0694626
:10D1600001A807F0ABF8200001A908F02BFC01A8EA
:10D1700007F042F8684607F03FF813BD3425002059
:10D18000002373B501AE0C0031000500019302F0DD
:10D1900045FD002802D1B278064B1A70064B18687C
:10D1A000002806D061426141044BC9B21D8008F0DD
:10D1B00011FC73BD8020002034250020B027002002
:10D1C00030B5284CA9B06A220D000DA821000AF044
:10D1D00012FA0DA903A8FCF799FE03A906A807F007
:10D1E000E1F801230193013BFF3B00930533FF333B
:10D1F000642206A92800FEF773F806A807F0C5F810
:10D20000210019226A3106A80AF0F5F90522002446
:10D21000110006AB04A807F0ECF804A905A807F074
:10D22000C1F8019400942300220005A92800FDF70D
:10D230009BFF05A807F0A9F821002800FEF77EF85B
:10D2400005340520FCF7C2FBFF2CF5D1FA20800045
:10D25000FCF7BCFB04A807F098F803A807F095F8C2
:10D2600029B030BD2A860200F0B59C4B95B00592DE
:10D270001A68082304000391D16C06A80B43D364F9
:10D280009749FCF7D5FD974907A8FCF7D1FD220087
:10D2900000250DAE30001C3206A907F026F807AABB
:10D2A000310008A807F021F8300006F0A5FF631C44
:10D2B000DD77A06808F059FD03680BAF5B699847FC
:10D2C000300008F0CCFA2B2004ABC01808F0C7FAE5
:10D2D000322004ABC01808F0C2FA392004ABC018E1
:10D2E00008F0BDFA8023DB00BB80A0680B9608F035
:10D2F0003CFD036839005B6D9847A06808F035FD78
:10D30000036829009B6D9847A06808F02EFD070070
:10D3100006000A371F22290038000AF088F9FD7735
:10D32000300008F0D9FA0621A06808F0F4FA089A4B
:10D3300009219378A068043208F000FBA06808F087
:10D3400014FDC8210571A068FFF732FCA06808F041
:10D350000CFDFF272E000581A06808F006FD08F0EF
:10D36000C4FA0398FDF704FE2000FCF795FA039930
:10D370002000FFF725FF0399200008F03EFB0495ED
:10D38000012563691D402DD0574909A8FCF73CFED3
:10D3900009A90AA807F006F800220AA913000192B9
:10D3A00000920398FDF7E0FE0AA806F0EEFF049B4A
:10D3B000002B42D1043F282F41DD0025FE2F00DC49
:10D3C000049D059807F0C6F9002806D0012362697C
:10D3D0009A431300042213436361002609A806F050
:10D3E000D4FF049504226369134233D0FF210398CC
:10D3F000C826FDF7A3FF0025B600A36902229B5EA5
:10D40000AB4222DD200029B2183006F084FF002351
:10D41000010003981A007430FCF746FE3000FCF758
:10D42000D5FA039807F09DFDC820FCF7CFFA022239
:10D430006369134209D10135DFE70437BBE703987D
:10D4400007F08FFD002FBCDDBAE7FA208000FCF763
:10D45000BDFA0026022365691D421CD006331D401B
:10D4600024D0224909A8FCF7CFFD09A90AA806F093
:10D4700099FF00220AA90192009213000398FDF778
:10D4800073FE0AA806F081FF1948FCF79FFA09A865
:10D4900006F07BFF174E6420FCF798FA164B013616
:10D4A0009E4200DC6CE706F052FD69E7134909A8CB
:10D4B000FCF7AAFD09A90AA806F074FF2B002A00B0
:10D4C0000AA9019500950398FDF74EFE0AA806F0FB
:10D4D0005CFF09A806F059FFDDE7C046B82400202C
:10D4E000C1860200D1860200D3860200188702009E
:10D4F000983A00008C0A00008B0A00005587020051
:10D500000022594BF0B50833060003600F001000ED
:10D51000A9B0B1600BAB991801324870102AFAD14A
:10D520000F3A524C1A700E32105D991A0874013A73
:10D53000FAD2997B5A7B09020A4331000C310391DC
:10D5400025211B7813AD2B7002ABC918452302A807
:10D550001B186A82180010220AF04DF8039B642100
:10D560006B610123002402AA2B7752181993093307
:10D5700013701DAB1C706D2302AA9B181C706E23C8
:10D5800021009B181EA80C22EC836C621C700AF010
:10D590004EF8374B0C22210023A8AB63EC630AF052
:10D5A00046F8344B02AAEB6446239B180322DA7731
:10D5B00022002C650595347306AD2B1901345A7081
:10D5C000102CFAD101232C482B700E33195CEA1A67
:10D5D0001174013BFAD211212520AA7B6B7B120228
:10D5E0000BAC13432A78638202ABC9182270C018AF
:10D5F00010220AF000F80123237505ABA361002374
:10D600003800A38308F0B5FB036821001B68984726
:10D6100013ABDB8BB068B38208F0ABFB002203686E
:10D620000092B18A039ADC680123A047B06808F031
:10D63000A0FB0700142009F074FE0022012304005F
:10D640000261069240C008322900079309F0D3FF17
:10D650000A4BE360BB69002B03D13000BC6129B0E9
:10D66000F0BD2361F9E7C0467C7C0200AE87020072
:10D67000F3570200E5570200BE8702005B5A020022
:10D68000F0B500260400724BDDB008330360816002
:10D69000C2608680867132006E4947A808F07DFA24
:10D6A00023001433012504270893122300970495BF
:10D6B0000193089A330047A9039602961DA8FFF725
:10D6C00031FA3200644947A808F067FA0C232200B7
:10D6D0000097103215AF0495019347A933000396C4
:10D6E000029632A8FFF71EFA32005C49380008F0B3
:10D6F00054FA21001C310991042308210495019159
:10D70000009339003300099A0396029647A8FFF761
:10D7100009FA32005249380008F03FFA542009F063
:10D7200000FE210012220423183107910495019272
:10D7300000930A0033003900039602960690FFF723
:10D74000F1F9069A474B1000A262D4620AA9082296
:10D7500030300A930B9609F04EFF434B069A099915
:10D7600093632932157026610422E661079809F057
:10D7700042FF04220799089809F03DFF662203231F
:10D7800004A95218D377BA225218D37787225200AD
:10D790005218D377069A35490232D3771DAA0C92D4
:10D7A00032AA0D9247AA0E92069AA6850F9210A849
:10D7B000320008F0F2F93021452004AA52181378FB
:10D7C000123104AA3B705218138811397B8204ABC2
:10D7D0001022C918C01809F00EFF04230CADA06870
:10D7E0003B75BD61BE8308F0C4FA036839001B684D
:10D7F0009847822204AB9B181B885432238404ABC5
:10D800009B181B885432A38404AB9B181B88A06808
:10D81000638408F0AEFA0700142009F082FD0500C9
:10D82000134B0661082210C010A91093119609F03D
:10D83000E2FE104BEB60BB69B34206D1BD61200034
:10D84000FCF72AF820005DB0F0BD2B61F6E7C0467A
:10D85000887C0200EE870200CE870200DE8702008D
:10D86000FE8702006D5B0200D95A02000E8802009A
:10D87000E1D80100035B0200F0B504000E001500C2
:10D8800085B01F000CAB1B881030019306F050FDD3
:10D8900026806580182009F044FD02AE05003300A3
:10D8A0000AAA03CA03C32F602800082700213A00F0
:10D8B0000C3009F0BCFE3A003100281D09F09BFE37
:10D8C000064B02226B61200000230199A5600A43E8
:10D8D000E360A2802362636205B0F0BD2D5B0200AD
:10D8E000F0B50B898DB00593CB68050004934B8888
:10D8F000828C9A420ED1049C049B059A9B181B1B98
:10D90000032B39DD62882188012308A806F01AFD5F
:10D910000434F1E7428C9A422ED1049C049B059A70
:10D920009B181B1B032B27DD238828200693638865
:10D93000EF680793114B08930023099309F0F1FC5A
:10D94000C0236A460600029308AB03CB03C22B0038
:10D950000699079A3000FFF78FFF3B6831005B683C
:10D9600038009847002805D0300006F0FBFB300057
:10D9700009F0CCFC0434D1E70DB0F0BDEB5B020044
:10D9800070B5040090B0806808F02AF902210140C7
:10D990001AD1A38D002B17D00C4B6A460493102389
:10D9A000E568A1850591029304AB41CB41C20A0011
:10D9B000230006A8FFF760FF2B6806A99B682800D4
:10D9C000984706A806F0CEFB10B070BDEB5B0200D6
:10D9D000002815D0006041608260C3600461456129
:10D9E0008661C761444604624C4644625446846280
:10D9F0005C46C462644604636E4646637446846350
:10DA0000002A06D0C46B043C043A25681560B44271
:10DA1000F9D18C6BA6464E6BB546002B06D0CC6B6D
:10DA2000043C043B1D682560B442F9D10C6BA4464C
:10DA3000CC6AA3468C6AA2464C6AA1460C6AA046F0
:10DA4000CF698E694D690C69CB688A680868496836
:10DA50007047006041608260C36004614561866117
:10DA6000C761444604624C464462544684625C4644
:10DA7000C462644604636E46466374468463C46B42
:10DA8000043C043925680D60B442F9D1C769866940
:10DA9000456904697047006041608260C360046149
:10DAA00045618661C761444604624C4644625446FF
:10DAB00084625C46C462644604636C464463744694
:10DAC000846304697047846BA646446BA546046B67
:10DAD000A446C46AA346846AA246446AA146046A6C
