:020000021000EC
:1080000000400020C5130200011402000314020006
:108010000000000000000000000000000000000060
:108020000000000000000000000000000514020035
:108030000000000000000000071402000914020004
:108040000B14020099B80100711002000B14020019
:108050000B14020000000000C51102000B14020006
:108060000B140200D90B0200351102000B140200A0
:108070000B1402000B1402000B1402000B1402007C
:108080000B1402000B1402000B1402000B1402006C
:108090000B1402008DEE01005DFC01000B140200C8
:1080A0000B1402000B14020000000000000000008E
:1080B00000000000000000000000000000000000C0
:1080C00010B5064C2378002B07D1054B002B02D0AE
:1080D000044800E000BF0123237010BDB020002041
:1080E00000000000D4870200044B10B5002B03D021
:1080F0000349044800E000BF10BDC0460000000076
:10810000B4200020D4870200164B002B00D1144B62
:108110009D46402292029A1A924600218B460F46B3
:108120001348144A121A0FF0C3F90F4B002B00D05A
:1081300098470E4B002B00D09847002000210400E8
:108140000D000D48002802D00C4800E000BF0BF0E5
:10815000A7F9200029000EF017FE0BF08BF9C0469E
:1081600000000800004000200000000000000000A7
:10817000A8200020D02800200000000000000000FF
:1081800010B50400034B036040300BF093FF200058
:1081900010BDC0466076020007B5084901A801F08D
:1081A000A9FD782201A9064802F09CFF01A80BF066
:1081B00081FFFA20800001F06BFB07BD66810200A1
:1081C000F4210020020070B5012300253C32137019
:1081D0000564137203000400074E45331D7031001F
:1081E0000C300FF011F920003100463424300FF02C
:1081F0000BF9257070BDC046B38502000200002354
:1082000010B504001432C26018320360436083600A
:1082100003610375426283621370044800F01EFF1D
:108220002000FFF7CFFF200010BDC0460421002032
:10823000F0B5050085B0344903A801F05BFD334C6F
:10824000782203A9200002F04DFF03A80BF032FFB3
:108250006E6AAB6AF718BE4212D0317803A80BF0F1
:1082600053FFC82203A95200200002F0ABFE03A86E
:108270000BF020FFFA20400001F00AFB0136EAE78C
:1082800020000CF0CCFDFA20800001F001FB204919
:1082900003A801F02FFD782203A9200002F022FF9D
:1082A00003A80BF007FF6E6AAB6AF3180193019BFA
:1082B0009E421FD0337802AAD71C3B702B00453357
:1082C0001B78002B03D0390028000BF032FC3978E2
:1082D00003A80BF019FFC82203A95200200002F0E6
:1082E00071FE03A80BF0E6FEFA20400001F0D0FA80
:1082F0000136DCE720000CF092FDFA20800001F04E
:10830000C7FA05B0F0BDC04639810200F421002053
:108310003F81020073B50B780E002E2B3AD02D2B27
:108320003AD0232B3AD0402B3AD0FFF735FF002428
:108330001C4901A801F0DEFC1B4D782201A9280090
:1083400002F0D0FE01A80BF0B5FE317801A80BF0C9
:10835000DBFEC82201A95200280002F033FE01A86A
:108360000BF0A8FE114D0121280003F0AFF9200009
:1083700001F08EFA2800002103F0A8F9002128005E
:1083800003F0A4F91E2001F083FA2800002103F075
:108390009DF973BD064CCBE7064CC9E7064CC7E711
:1083A000064CC5E761810200F4210020CC200020AA
:1083B0000D0200001A04000002080000BA130000B9
:1083C000F0B503698FB005001600002B47D00300FD
:1083D0000C33009339331F7808AC002F41D0274964
:1083E00002A80BF075FB009920000FF011F802AB0A
:1083F0002200310030000BF036FC070020000EF0A8
:1084000006FF2B6C002B0ED1029E039BF3180193E9
:10841000019BB34207D03378210028002370013636
:10842000FFF778FFF4E702A80EF0F1FE3900200014
:108430000BF06AFEC82221005200114802F0C2FD72
:1084400020000BF037FE2800390024300EF0A9FF81
:108450000A4900980EF0D8FF002344352B700FB066
:10846000F0BD009920000EF0D3FF3B002200310048
:1084700030000BF0F8FB07002000D5E7B3850200C1
:10848000F4210020F0B50C008FB0ED4902A80BF0EC
:108490001FFBEC4E08AD310028000BF019FB02ABBE
:1084A00041222100009520000BF0ADFB07002800C1
:1084B0000EF0ADFE02A80EF0AAFE002F01D1FFF7CC
:1084C0006BFE08ADE04902A80BF002FBDF49280073
:1084D0000BF0FEFA02AB42222100009520000BF0C7
:1084E00092FB070028000EF092FE02A80EF08FFE0D
:1084F000002F01D1FFF750FE310002A80BF0E8FA7F
:10850000D34F08AD390028000BF0E2FA02AB43224A
:108510002100009520000BF076FB060028000EF0ED
:1085200076FE02A80EF073FE002E01D1FFF734FE96
:1085300008ADC64902A80BF0CBFAC64928000BF0DB
:10854000C7FA02AB44222100009520000BF05BFB30
:10855000060028000EF05BFE02A80EF058FE002E6A
:1085600001D1FFF719FE390002A80BF0B1FABA4F9A
:1085700008AD390028000BF0ABFA02AB4522210010
:10858000009520000BF03FFB060028000EF03FFE98
:1085900002A80EF03CFE002E01D1FFF7FDFD08AD54
:1085A000AC4902A80BF094FAAC4928000BF090FA01
:1085B00002AB46222100009520000BF024FB0600B0
:1085C00028000EF024FE02A80EF021FE002E01D19C
:1085D000FFF7E2FD390002A80BF07AFAA04F08ADD0
:1085E000390028000BF074FA02AB472221000095F5
:1085F00020000BF008FB060028000EF008FE02A881
:108600000EF005FE002E01D1FFF7C6FD08AD93491F
:1086100002A80BF05DFA934928000BF059FA02AB5F
:1086200048222100009520000BF0EDFA06002800FA
:108630000EF0EDFD02A80EF0EAFD002E01D1FFF7CD
:10864000ABFD08AD390002A80BF042FA86492800BC
:108650000BF03EFA02AB49222100009520000BF0FE
:10866000D2FA060028000EF0D2FD02A80EF0CFFDCF
:10867000002E01D1FFF790FD08AD7A4902A80BF05A
:1086800027FA794928000BF023FA02AB4A2221008D
:10869000009520000BF0B7FA060028000EF0B7FD99
:1086A00002A80EF0B4FD002E01D1FFF775FD6F4951
:1086B00002A80BF00DFA6C4928000BF009FA02AB86
:1086C0004B222100009520000BF09DFA06002800A7
:1086D0000EF09DFD02A80EF09AFD002E01D1FFF7CD
:1086E0005BFD634902A80BF0F3F95F4928000BF02A
:1086F000EFF902AB4C222100009520000BF083FA29
:10870000060028000EF083FD02A80EF080FD002E6A
:1087100001D1FFF741FD574902A80BF0D9F95249A1
:1087200028000BF0D5F902AB4D2221000095200066
:108730000BF069FA060028000EF069FD02A80EF0A1
:1087400066FD002E01D1FFF727FD4B4902A80BF073
:10875000BFF9454928000BF0BBF902AB4E222100BE
:10876000009520000BF04FFA060028000EF04FFD98
:1087700002A80EF04CFD002E01D1FFF70DFD3F4980
:1087800002A80BF0A5F9384928000BF0A1F902ABBB
:108790004F222100009520000BF035FA060028003A
:1087A0000EF035FD02A80EF032FD002E01D1FFF7CC
:1087B000F3FC334902A80BF08BF92B4928000BF08E
:1087C00087F902AB50222100009520000BF01BFA24
:1087D000060028000EF01BFD02A80EF018FD002E6A
:1087E00001D1FFF7D9FC274902A80BF071F91E4906
:1087F00028000BF06DF902AB5122210000952000FA
:108800000BF001FA060028000EF001FD02A80EF0A0
:10881000FEFC002E01D1FFF7BFFC1B4902A80BF0A4
:1088200057F9114928000BF053F902AB52222100ED
:10883000009520000BF0E7F90600280026E0C0466E
:10884000F0800200D8800200288102002F810200FF
:1088500037810200DD8002003581020022810200A2
:10886000308102000A810200E2800200EF800200F3
:10887000E48002000081020036810200FF800200D5
:10888000E9800200EE800200D98002000EF0BFFCF9
:1088900002A80EF0BCFC002E01D1FFF77DFCEB49D5
:1088A00002A80BF015F9EA4928000BF011F902AB08
:1088B00053222100009520000BF0A5F906002800A6
:1088C0000EF0A5FC02A80EF0A2FC002E01D1FFF7CD
:1088D00063FCE04902A80BF0FBF8DD4928000BF02F
:1088E000F7F802AB54222100009520000BF08BF921
:1088F000060028000EF08BFC02A80EF088FC002E6B
:1089000001D1FFF749FCD44902A80BF0E1F8D049A6
:1089100028000BF0DDF802AB552221000095200065
:108920000BF071F9060028000EF071FC02A80EF0A1
:108930006EFC002E01D1FFF72FFCC84902A80BF0F6
:10894000C7F8C34928000BF0C3F802AB5622210038
:10895000009520000BF057F9060028000EF057FC98
:1089600002A80EF054FC002E01D1FFF715FCBC4903
:1089700002A80BF0ADF8B64928000BF0A9F802AB3D
:1089800057222100009520000BF03DF90600280039
:108990000EF03DFC02A80EF03AFC002E01D1FFF7CC
:1089A000FBFBB04902A80BF093F8A94928000BF093
:1089B0008FF802AB58222100009520000BF023F91C
:1089C000060028000EF023FC02A80EF020FC002E6A
:1089D00001D1FFF7E1FBA44902A80BF079F89C490B
:1089E00028000BF075F802AB5922210000952000F9
:1089F0000BF009F9060028000EF009FC02A80EF0A1
:108A000006FC002E01D1FFF7C7FB984902A80BF026
:108A10005FF88F4928000BF05BF802AB5A22210067
:108A2000009520000BF0EFF8060028000EF0EFFB99
:108A300002A80EF0ECFB002E01D1FFF7ADFB8C4934
:108A400002A80BF045F8824928000BF041F802AB70
:108A500030222100009520000BF0D5F806002800F8
:108A60000EF0D5FB02A80EF0D2FB002E01D1FFF7CD
:108A700093FB804902A80BF02BF8754928000BF0F6
:108A800027F802AB31222100009520000BF0BBF843
:108A9000060028000EF0BBFB02A80EF0B8FB002E6B
:108AA00001D1FFF779FB744902A80BF011F868496E
:108AB00028000BF00DF802AB3222210000952000B7
:108AC0000BF0A1F8060028000EF0A1FB02A80EF0A2
:108AD0009EFB002E01D1FFF75FFB684902A80AF058
:108AE000F7FF5B4928000AF0F3FF02AB33222100B5
:108AF000009520000BF087F8060028000EF087FB99
:108B000002A80EF084FB002E01D1FFF745FB5C4963
:108B100002A80AF0DDFF4E4E280031000AF0D8FF0F
:108B200002AB34222100009520000BF06CF8070006
:108B300028000EF06CFB02A80EF069FB002F01D19B
:108B4000FFF72AFB4F4902A80AF0C2FF31002800B4
:108B50000AF0BEFF02AB35222100009520000BF089
:108B600052F8070028000EF052FB02A80EF04FFB4F
:108B7000002F01D1FFF710FB434902A80AF0A8FF1C
:108B8000310028000AF0A4FF02AB36222100009534
:108B900020000BF038F8070028000EF038FB02A880
:108BA0000EF035FB002F01D1FFF7F6FA374902A886
:108BB0000AF08EFF310028000AF08AFF02AB37224C
:108BC0002100009520000BF01EF8070028000EF091
:108BD0001EFB02A80EF01BFB002F01D1FFF7DCFAF1
:108BE0002B4902A80AF074FF310028000AF070FF38
:108BF00002AB38222100009520000BF004F807009A
:108C000028000EF004FB02A80EF001FB002F01D19A
:108C1000FFF7C2FA1F4902A80AF05AFF31002800E4
:108C20000AF056FF210002AB3922200000950AF01D
:108C3000EAFF040028000EF0EAFA02A80EF0E7FAB4
:108C4000002C29D1FFF7A8FA26E0C04629810200AE
:108C5000E280020001810200F4800200168102001D
:108C6000F9800200F3800200F88002002E810200E9
:108C7000FD80020003810200098102000F810200D1
:108C8000158102001B810200218102002781020060
:108C90002D810200338102000FB0F0BDF0B5040059
:108CA00085B024200EF09BFA060000F00BF923009B
:108CB000012245331A70012103A80BF018FA4B4D1D
:108CC000782203A9280002F00DFA03A80BF0F2F9AC
:108CD00031002000FFF7D6FB236C4549002B00D064
:108CE000444903A801F006F8782203A9280002F0FD
:108CF000F9F903A80BF0DEF923003C331B78002BB5
:108D000068D000F0B3FF2700236C00900191463734
:108D1000002B07D138480BF07BFC002802D0012340
:108D20003B70F7E7354802F007FD002807D0012324
:108D30003B70236C002BF5D101332364F2E700F084
:108D400095FF3B78002B21D0009A019B801A994116
:108D5000002902D12A4B98421BD940213200200021
:108D60000AF0F7FE402103A80BF0CEF9C82203A9B0
:108D70005200280002F026F903A80BF09BF9FA2014
:108D8000400000F085FD28000CF049F800233B70FE
:108D9000B2E7FA23DB00984206D9232132002000F3
:108DA0000AF0D7FE2321DEE7FA239B00984206D97A
:108DB0002D21320020000AF0CCFE2D21D3E7FA232A
:108DC0005B009842DBD92E21320020000AF0C1FE60
:108DD0002E21C8E72000FFF72BFAFA20400000F010
:108DE00057FD2000FFF7EEF961E7C046F4210020AF
:108DF0004E8102005A810200DC200020CC2000209D
:108E00008813000037B5124D280000F06FF8114CA0
:108E10001149220028000EF0DBF9104D0323022235
:108E20000821280002F006FC22000D4928000EF05F
:108E3000CFF900230B4D009301331A0028001121B4
:108E400001F066FB2800220007490EF0C1F937BD8A
:108E500004210020002000206D8E0100CC20002085
:108E6000BD3A0200DC200020F9A40100CA23144A04
:108E70009B0010B5C2501C330400C0180BF01AF947
:108E8000D0239B00E0180BF015F920009130FF3043
:108E900001F032FB20006930FF3001F02DFB200093
:108EA000F03001F0ABFE2000D03002F0AFFA20002D
:108EB000643007F097FD201DFFF762F9200010BD18
:108EC000EC7A020010B5040023001433E3600023A1
:108ED00023612375236063607E33237202490C3063
:108EE0000EF092FA200010BDB38502001423F0B5F5
:108EF000040093B0009319221821043002F01CFDE5
:108F00002200250026006432B4351321100010928F
:108F1000B83607F073FD28000CF0E1FA00221E219C
:108F200030000BF081FF2000D03002F08FFA2200D9
:108F3000F03211920621464A119801F083FE20007A
:108F40000027012369301A0000971121FF3001F03A
:108F5000DFFA200091300097012302221A21FF300E
:108F600001F0D6FA2000B9301A2301210222FF3085
:108F700002F028FB300001F0D7F8E4225200A050A4
:108F8000300001F01FFBE6235B00E0500100E4220B
:108F900020005200D130119BA2580095FF3001F003
:108FA00061FD2000E13029001C22FF3002F05CFE50
:108FB000192320000F93013B0E93013B0D93013BBE
:108FC0000C93013B0B93013B0A93013B0993013B3B
:108FD0000893013B0793013B0693013B0593013B3B
:108FE0000493013B0393013B0293013B0193F9304E
:108FF000013B082200930721013BFF300BF035FFB6
:10900000CA239B00E018290003F040FED3239B00F5
:10901000E0181D2102F0DCFBDD239B00E7501098D7
:10902000277003210DF0E0FD2300220020000949F4
:109030009C33A0321C6011605760074A80305A612F
:109040000221012208F070F9200013B0F0BDC046E3
:1090500068760200BF3C0200A93C02000123F0B583
:1090600006788FB004001E4000D082E00300D033A9
:109070001800039300F0EEFA00F0E6F928200EF055
:10908000AEF8050010300BF0B1F86C4B18202B60D7
:109090000EF0A5F807006A4B0460082231000C307E
:1090A0000C930D960EF004FA0CA9381D08220EF050
:1090B000E3F9644BAF607B611223EE60AB802E62FC
:1090C0006E622900039802F035F9002805D02800C7
:1090D0000AF0A6FF28000EF077F8012322785A49FB
:1090E000134323702300B433180005930CF0FDF9EB
:1090F0005649049005980CF0F8F900250690642074
:1091000000F0C6FB2F002E0023006933FF33180048
:1091100007930BF07DFA00282DD1049B002B33D14F
:10912000069B002B30D1DD2549494A48AD0000F0AF
:109130008FFC6359002B1CD100F09AF801000AA89B
:1091400000F0D8FD0BA80AF02DFECA239B00E01802
:10915000069B0BAA0AA90093039B03F0EDFD0BA845
:109160000AF0A8FF0AA80AF0A5FFCC239B00E35849
:1091700063510FB0F0BD20009130FF300BF048FA82
:109180000028CAD0182EC8DC2000653039B22AB2B7
:10919000FF23FF30013700F02BFEFFB2322000F03A
:1091A00077FB0136052F02D100270135EDB2049B74
:1091B000192E06D0002BA7D02349059802F0E8FC11
:1091C00001E0002BF8D104980DF0FEFF06980DF099
:1091D000FBFF1F491F4800F03BFCCA239B00E3181C
:1091E0000893DD239B00E3580993002B1ED100F068
:1091F0003FF801000AA800F07DFD0BA80AF0D2FD9F
:1092000001230BAA0AA900930898039B03F094FD7D
:109210000BA80AF04FFF0AA80AF04CFFCC239B00D2
:10922000E3580993DD23099A9B00E2502100079A35
:10923000F031089803F07AFF66E7C046FD030000AE
:10924000313D0200F13C0200A0810200AB8102002E
:1092500000200020001C0020BFF34F8F024B034A68
:10926000DA60BFF34F8FFEE700ED00E00400FA057F
:10927000F0B58DB005AF1922154938000EF0FCF895
:109280000022144B05245A7180225205566E012289
:1092900025000194029203930199300008F048FBE5
:1092A0000800029908F0BEFA019B03996B430193F1
:1092B000029B361A6B430293631E2C1B6C433C19B2
:1092C000225C1C1ECA54E7D108000DB0F0BDC04698
:1092D000BB810200FE270020F0B597B018220021C4
:1092E000060010A80EF0E4F8132110A80DF0BBFD45
:1092F000032110A80DF086FE4C4B1B68002B00D1FB
:109300000133DBB202934A4A012300210BA807F084
:1093100045FF484B9E4200D9002672B6464B642159
:109320001D68464B30000793052408F005FB604399
:109330005030281808900A21300008F0FDFA0A2160
:1093400008F0E0FB614350316918099130000A21AF
:1093500008F0D8FB802361430024503169189B0139
:109360000A910193029B002B5DD0002500272E1F40
:1093700007AB9B190593032C03D1802300249B0189
:10938000019307AB5B592E4A03936300D3180493F0
:109390000023190006205843049A16187678B4461C
:1093A0006246039EB25C10269446049A105C6246A4
:1093B0000641164202D00120984001430133092B97
:1093C000E8D1C9431F4B059A090119401268039B54
:1093D000934225D1312F23DC00210BA80DF0D3FEC1
:1093E000FA23159A1199DB00106801421BD0013B4A
:1093F000002BF9D1019B01345B000193FA23013763
:10940000E4B25B009F42B6D10435102DAED1074BBC
:109410001B68002BA6D0029F013FFBB20293A1E77D
:10942000019B1943D9E7FFF717FFC04680240020AE
:10943000F0FF0000E7030000042000200A82020081
:10944000D4810200F01F0000F8B50023124C236005
:109450000AF0C9FC002808D0042120000AF0BFFC53
:10946000002801D00D4B2360F8BD0122A12704255F
:109470000B4B0C491A602268FF0048604E68002EB2
:10948000FCD0DE591202013D3243002DF5D122609D
:1094900001225A60E8E7C0467C240020ED5EBC0B48
:1094A00000D00040FCD00040F0B585B01F000AABF2
:1094B0001B880600029115000393002F1BD0282063
:1094C0000DF08DFE6B4604001989039BAAB2009330
:1094D0003B000AF08FFD336821005B68300098473D
:1094E000002806D020000AF09BFD20000DF06CFE45
:1094F000024805B0F0BD0248FBE7C04616FCFFFF7E
:1095000017FCFFFF0B4B70B51C68002C10D0656D6D
:1095100000F0ACFBA36C002901D1834206D82000E7
:109520000AF094FC044920000AF07EFC2C00ECE7D1
:1095300070BDC04688240020A8240020F0B593B058
:1095400007932A4B04AC1E68049005910692002EE6
:109550004AD0274B258867881C6800230293002C7B
:109560002ED0636D23480393A36C9AB2A36C1B0C9B
:1095700099B2854214D12048824211D1002B01D0EA
:10958000B9420BD1029B002B08D120000AF05EFCEF
:109590001A4920000AF048FC01230293039CDEE7ED
:1095A000002A01D09542F9D1002B01D0B942F5D162
:1095B00020000AF04BFC114920000AF035FCEDE7D1
:1095C0000F4BEB18012B0FD910233A000093290001
:1095D0000C4B08A80AF00EFD336808A99B68300000
:1095E000984708A80AF01CFD13B0F0BD84240020A1
:1095F000B4240020FE030000FF030000A824002084
:1096000002FCFFFF3D95010010B572B60B4B1C68C4
:10961000002C08D020000AF019FC0023E364084B5A
:109620002000E36310BD62B65C200DF0D8FD5C2223
:10963000002104000DF03CFFEFE7C046AC24002001
:1096400000400020024B1878012318407047C046A4
:1096500004280020F7B50600FFF7F4FF051E33D1FC
:109660001A4C2660FFF7D0FF194B1A4918600AF010
:10967000DBFBFFF7C9FF184B1860184B4363184B0F
:109680008363206800280ED0C027164E2A003300BE
:1096900015490097FFF708FF009733002A00134988
:1096A0002068FFF701FF0C200DF099FD0023838057
:1096B00083710F4B03600F4B836000F0EFFA0123BF
:1096C0000D4A11780B431370F7BDC0468424002067
:1096D000B8240020A8240020B0240020FC3F002053
:1096E000133F02003D950100FF030000FE03000050
:1096F000887602000595010004280020F7B50600D1
:109700000D0017000193002802D100242000FEBDA7
:109710000029FAD0FFF778FF041EF6D0074B019A14
:109720004363066045608760054B002A00D0054B07
:10973000A363054920000AF077FBE7E7FC3F002020
:10974000DD3E0200FB3E0200A8240020024B186808
:10975000434258417047C046A8240020002310B55A
:1097600004499C006258002A01D00133F9E7605097
:10977000100010BD90240020002310B5044A990069
:109780008C58844201D00133F9E70020885010BD85
:109790009024002010B50024084BA200D0580028C7
:1097A00002D003685B6898470134062CF4D1044B5F
:1097B0001B68002B00D120BF10BDC04690240020A4
:1097C000A8240020F8B5FFF73DFF00281CD02A4D43
:1097D0002C68E36CDA0718D502273B43E364274B78
:1097E0001E680423F26C30001343F364636BF3636D
:1097F0000AF052FB3000716C04F08DF82868C36CDD
:109800003B4201D004F0C1F8F8BD1D4F1D4E3A682F
:109810003168002A1ED129602A68914208D11B07AD
:1098200006D52C60FFF7B6FF3B68002BFAD02B6003
:1098300029688C42E8D03368994214D1124B4B63AB
:10984000124B8B6320000AF027FB2968626C4B6C7B
:1098500020000DE0206DB84203D1606D002800D0DB
:1098600002002A60D8E79C42ECD1002210004B6C29
:1098700004F010F8C8E7C046B82400208C2400206B
:10988000A8240020B0240020FC3F0020133F020049
:1098900070B50500FFF7D6FE002803D128000DF0B3
:1098A000A5FB70BD0C4B1C68E36CDB0706D5FFF70E
:1098B000ABFE0A4B1860002800D0040000F0D6F977
:1098C0002D18A56420000AF0C1FA054920000AF00D
:1098D000ABFAFFF777FFE4E7B82400208C240020E0
:1098E00088240020F0B51E4B1E4F1C683B6885B0D5
:1098F00006000391002B30D0FFF7A4FE00282CD0E7
:10990000E36CDB070ED5FFF77FFE174B051E1860D3
:1099100008D00AF09BFA154928000AF085FA2C00B5
:10992000FFF750FF039B20001B043343A3640AF09E
:109930008DFA20000E490AF077FA0E4B0024F31836
:10994000012B07D9C0230093039A0B4B31003868D1
:10995000FFF7AAFD200005B0F0BD084CFAE7C046AD
:10996000B8240020842400208C240020A824002077
:10997000B424002002FCFFFF3D95010016FCFFFF10
:1099800010B5FFF75FFE002809D0054C20680AF0EB
:109990005DFA044920680AF047FAFFF713FF10BD8B
:1099A000B8240020AC240020F7B507000D000028E3
:1099B0002ED0FFF747FE00282CD00724164E306823
:1099C000C36C1C4007D0154A290038000AF055FA2C
:1099D00000242000FEBD03F0C0FF02213268D36CDA
:1099E0001940019103D003218B43D364F1E7012493
:1099F0002343D3642800B8473268D36C1900A143CD
:109A0000D164019C5B07E4D528000AF06EFAE0E718
:109A1000034CDEE7034CDCE7B8240020EB3E0200F9
:109A200017FCFFFF16FCFFFF020010B5014B12CB25
:109A300012C210BDBC240020034B1A68034B1A60ED
:109A40007E225A607047C04604200020BC240020BB
:109A500070B5114E3278022A1AD081421AD90C1AE6
:109A6000072C17D90D00032305432B4012D172B6E2
:109A70000A4DD2005051AA1851608022A408120643
:109A80001443046032780132327062B6180070BD3F
:109A90000348FCE70348FAE706280020C424002016
:109AA00013FCFFFF17FCFFFF70B5134C0600237873
:109AB000124D002B0CD1124912482B70FFF7C8FF32
:109AC000114B984202D11E20FFF706FC01232370A0
:109AD00000242B78A34209DD0C49E300C9183000AB
:109AE0000AF01DFA002805D10134F2E71420FFF72F
:109AF000F3FB002070BDC04605280020062800208A
:109B000000380020D028002017FCFFFFC4240020CC
:109B100070B5002819D0104B10491C7800239C42C6
:109B200016DDDA005558854210D28A1852688242F2
:109B30000CD9041F2368002B02DC1E20FFF7CCFB8E
:109B4000802322681B061343236070BD0133E6E7C0
:109B50001E20FFF7C1FBF8E706280020C4240020E0
:109B600070B5051E14DD0B4E0B4C3368002B02D074
:109B700020680DF0B6F8FA2120680024074B890010
:109B80008361C462694335600DF0B3F8200070BD95
:109B90000348FCE7D424002004250020499C010050
:109BA00017FCFFFFF8B5114F06003D68002D0AD1E4
:109BB00030200DF014FB040006F044FF0C4BA561AF
:109BC0002360E5623C600B4D2B68002B09D110200F
:109BD0000DF005FB04000DF04DF820002C600DF099
:109BE00023F83000FFF7BCFFF8BDC0460425002075
:109BF000887E020000250020014B18687047C0468F
:109C0000D424002070B50D4C2368002B03D00C4BDE
:109C10001B68002B02D10620FFF7C4FF20680DF05F
:109C20001AF802000749C3170D684E6852197341AC
:109C300020680A604B600DF014F870BD002500200C
:109C400004250020A820002010B5FFF7DBFF00242A
:109C5000054BA200D058002802D003681B68984723
:109C600001340A2CF4D110BDD824002010B5FFF720
:109C7000C9FFFA22034B920018685968002307F0C5
:109C800081FF10BDA820002010B5FFF7BBFF024BDD
:109C90001868596810BDC046A82000200B4B10B5AD
:109CA0001B680400002B03D0094B1B68002B02D15A
:109CB0000620FFF777FF0023064A990088580028FE
:109CC00001D00133F9E78C5010BDC04600250020BB
:109CD00004250020D8240020002310B5044A990050
:109CE0008C58844201D00133F9E70020885010BD20
:109CF000D824002010B50400002902D00B78002BD6
:109D000003D1034B2360200010BD0AF0DAF9FAE713
:109D100098760200F8B504000E00150000290AD05C
:109D20000B78002B07D0002A05D0080097B20DF061
:109D3000FFFB874203D90B4B23602000F8BD681D51
:109D4000FFF7B2FE20600AF06BFB23682A005F80F9
:109D500023683100181D0DF08FFB23685D19002367
:109D60002B71EAE798760200014B03607047C0460A
:109D70009876020010B50548054C20600AF053FBA8
:109D8000044A054920000DF023FA10BD9876020020
:109D90000825002000200020B5400200084B73B5C4
:109DA0001C680500002C0AD0010026680831082232
:109DB00068460DF061FB0CCD31682000884773BD0B
:109DC0000C250020014B03607047C046A0760200BE
:109DD00010B50400002903D1044B0360200010BD1E
:109DE000016008000AF01FFBF8E7C046A0760200F9
:109DF00030B500684488A1420CDA8588AA4209DAA5
:109E0000002907DB002A05DB544340180019837141
:109E1000002030BD0048FCE717FCFFFFF0B507004D
:109E200085B00E001D00002921DD002A1FDD002B5A
:109E30001DD00468638803938B4200DD0391A388DF
:109E40000293934200DD0292002306340193019BAA
:109E5000029A93420EDA29002000039A0DF00CFBBF
:109E60003B68AD195B88E418019B0133EEE70248BB
:109E700005B0F0BD0020FBE717FCFFFFF8B50400BC
:109E80000D0016001F00002901DB002A02DA0E4B2C
:109E90002360F8BD100048430630FFF705FE206040
:109EA0000AF0BEFA23685D8023689E80002F06D0EA
:109EB0003B00320029002000FFF7B0FFE9E7200057
:109EC0000AF0E5F9E5E7C046A0760200F7B506001E
:109ED0000D1E03D1244B03603000FEBD00200F0097
:109EE0000400010001903B78002B1AD0302252422E
:109EF00094469C446246092A11D90A2B0AD1019B37
:109F0000241801330193A14200DA2100002004004B
:109F10000137E8E70028FBD001340020F8E70120F2
:109F2000F6E70127019A09B212B230007F42FFF72B
:109F3000A5FF39000A2033689A1D2C78002CCBD05D
:109F40002300303B092B08D8FB43DB173B4043433E
:109F50001B19303B1F000135EFE7002FFBDB1770AB
:109F600001320F00F7E7C046A0760200F0B504000A
:109F700089B006A80E0002921D00FFF755FD236868
:109F800002995A88914235DA9B889D4232DA1F2E17
:109F900030D9079B01939E422CDC0523002273439A
:109FA0000393069B0493039B04999B18A03BCB5CF3
:109FB00000210593AE18029BCF18236858880190A2
:109FC00087420EDA9888B0420BDDDB1910270F416B
:109FD000019870431B1805980740781E87417F42FF
:109FE0009F7101310529E6D10132052ADBD100201C
:109FF00009B0F0BD0048FBE717FCFFFFF7B50468A8
:10A00000070063880E1E01931EDD994218DA0023B3
:10A01000063400933B68009A9B889A4212DA019BAF
:10A02000A1199D1B2A0020000DF026FA60193100AD
:10A030000AF010F93B685B88E418009B0133E8E7FD
:10A040000AF025F9002000E00048FEBD17FCFFFFE4
:10A0500010B50548054C20600AF0E5F9044A0549A9
:10A0600020000DF0B5F810BDA076020010250020EC
:10A07000002000204742020010B5054C01212000BD
:10A080000AF0C5F9034A044920000DF0A1F810BDFB
:10A090001425002000200020CB4302000388074A3B
:10A0A00010B50120934208D0834202D00020DB0784
:10A0B00003D41E20FFF710F9002010BDFFFF0000A1
:10A0C0000048704716FCFFFF10B53220FFF704F977
:10A0D000004810BD16FCFFFF10B5124C00230834D9
:10A0E0008280046041620224142201008371847220
:10A0F00003638386028136310A78C360A243F13458
:10A100002240036143618361C36103620A700200FC
:10A1100040321370021DD387013343878387C3877F
:10A1200010BDC046C0760200F0B5544F97B03B68F2
:10A1300006000593002B00D08BE006AC0B331C22ED
:10A140002121200001F076FA0EAD0B231D222221E1
:10A150000AA801F06FFA0B231B222321280001F02B
:10A1600069FA08200DF03BF80122059B11000490CC
:10A170000BF0E6FC3A2130000BF03CFA00281DD031
:10A18000A38812ADAB80A3795C20AB713C4B1293DA
:10A19000A3681493237B2B73637B6B73A37BAB73D9
:10A1A0000DF01DF804230193363300932A00049B1D
:10A1B0003100040002F05CF83C604AE032213000DB
:10A1C0000BF046FA00281CD0A38812ADAB80A3790F
:10A1D0005C20AB712A4B1293A3681493237B2B73DF
:10A1E000637B6B73A37BAB730CF0F9FF04230193C8
:10A1F0002E3300932A00049B3100040002F0D6F9AC
:10A20000DAE73C2130000BF0DEF900282CD0AB88D7
:10A2100012ACA380AB79A420A371194B1293AB6845
:10A2200014932B7B23736B7B6373AB7BA3730CF057
:10A23000D6FF052305000293013B019338330093B9
:10A240002200049B310001F031FF0E4B3D6044358C
:10A250001D600C4B094C1868002802D021680AF0D8
:10A2600045FA206817B0F0BD44200CF0B8FF042276
:10A2700004990400FFF730FF9EE7C0461825002030
:10A28000B07602001C250020F0B56149C56885B094
:10A290008D4254DA0300022236331B78134059D121
:10A2A00004698C4264DA020036321278520768D4AC
:10A2B000426901920200019E40328E426FDA010033
:10A2C00036310978090774D4002B7DD113780293B5
:10A2D000002B16D006000127011DCB8F3636013327
:10A2E0009BB2CB8703963678BC46374000D188E0D6
:10A2F0001D2B06D963469E43039B1E700023CB870C
:10A3000013700AF0D3F8434A0723904276D94249A2
:10A31000043B8D4272DBC8220133920095426DDC12
:10A32000023B8C426ADB013B944267DC01980433B8
:10A33000884263DB0133904260DC00235EE0C82288
:10A34000002352009542ABDD030036331A78002318
:10A350009207A5D4012306001F0036363278540830
:10A36000A7433C0002279C40BA432243327097E740
:10A37000C822520094429BDD020036321278520706
:10A3800096D406000122363633789F08BA439700E8
:10A39000042293431A003A433270012388E7C8210C
:10A3A000019E49008E428FDD010036310978090790
:10A3B0008AD40100012636310B78DF08BE43082716
:10A3C000F600BB4333430B701378032B00D97DE7B2
:10A3D0000133DBB21370012B03D10021031DD98798
:10A3E00074E7042B00D071E7020036321178033B8A
:10A3F0000B43137000230430C3870B33180005B0E0
:10A40000F0BD092B00D87CE7029BCF87013B77E7A3
:10A4100070FEFFFFFF700200E0FCFFFF70B5C36934
:10A42000C1681A68451D8AB00400EB7F114255D0FF
:10A43000002B58D1EB7F082B0DD90122A3791342B1
:10A4400009D11343A371A188130006A809F0D8FE0F
:10A45000FFF70CFC2062EB7F012B23D80123A279AC
:10A460001A421FD00025A188A571022202A809F076
:10A47000C7FEA31DDE7F012E14D1FFF7F7FB2B00D3
:10A48000226A801A994100900191019BA188AB42F8
:10A4900003D1174B009A9A4227D90123042206A818
:10A4A00009F0AEFE0322A3791340012B14D1FFF76C
:10A4B000DDFB0023226A801A9941994202D10D4B9B
:10A4C000984209D90223A279A1881343A3710522D6
:10A4D000012306A809F094FE0AB070BD0B2BA9D881
:10A4E0000133EB77A6E7013BFBE733000322D6E716
:10A4F000E7030000DB05000010B50400034B083340
:10A500000360FFF7E9FB200010BDC046F4760200AF
:10A51000F0B5070000250E00040085B002930AABD9
:10A520001B78083703930F4B019208330360858033
:10A5300085712900182238000CF0BAFF039A310007
:10A5400038000CF095FC019B029AA380A31DE671D4
:10A55000DA77631D25622000DD77FFF79FFB20007F
:10A5600005B0F0BDF47602000048704716FCFFFF0E
:10A5700010B53320FEF7B0FE004810BD16FCFFFFFB
:10A58000002310B50400838083710D4821640830D6
:10A5900020608020C000A061E0612062E3602000B4
:10A5A000236163616362A362E36223636363A36302
:10A5B000E363636411000AF071F8200010BDC04627
:10A5C0000C770200F0B5534F97B03B680600059337
:10A5D000002B00D08BE00B331C22212106A80AACF3
:10A5E00001F028F80EAD0B231D222221200001F0DE
:10A5F00021F80B231B222321280001F01BF808203F
:10A600000CF0EDFD0122059B110004900BF098FA6F
:10A610001D2130000BF005F800281DD0A38812ADD5
:10A62000AB80A3796020AB713B4B1293A36814936A
:10A63000237B2B73637B6B73A37BAB730CF0CFFD1E
:10A6400005230193183300932A00049B3100040072
:10A6500001F0E2FE3C604AE03C2130000BF00FF8D4
:10A6600000281CD0A38812ADAB80A3796020AB7109
:10A67000294B1293A3681493237B2B73637B6B7317
:10A68000A37BAB730CF0ABFD052301933733009331
:10A690002A00049B3100040002F02AF8DAE73C218A
:10A6A00030000AF090FF00282AD0AB8812ACA380BB
:10A6B000AB79A420A371184B1293AB6814932B7B36
:10A6C00023736B7B6373AB7BA3730CF088FD052353
:10A6D00005000293013B0193383300932200049B51
:10A6E000310001F0E3FC0D4B1D6044353D600B4B28
:10A6F000084A1B681068002B00D0436417B0F0BDF7
:10A7000048200CF06CFD052204990400FFF738FF87
:10A71000A0E7C0461C250020B076020018250020C6
:10A7200082B0F0B50400EDB06420739372920CF027
:10A730005DFC052210A8110009F0B2FD974911A88F
:10A74000FFF7C4FB002221AB6CA91A605A609A6023
:10A750000C339942F9D11922002113A80CF0A8FE5C
:10A76000A0680AF05AFB00260B90FF21A06800F0B9
:10A7700047FD8B4FA06800F05DFB07960996884B5C
:10A780009F4203D0874B9F4200DBFDE0A0680AF0A8
:10A7900046FBA56884491AA8FFF7ACFA78221AA9E3
:10A7A000280000F075FC1AA809F084FC00267C4FF4
:10A7B0000322099B606801331A40099209F00EFFD9
:10A7C0000500606809F011FF0022784B05929D4258
:10A7D00010DB013205922A00C8320BDBAA220421C9
:10A7E00092000591954205DC02220592C82D01DDFB
:10A7F0000132059200220692984210DB0123069353
:10A800000300C8330BDBAA2304329B000692984254
:10A8100005DC02230693C82801DD0133069310A846
:10A8200009F035FD002513ABEB5C012B08D1604925
:10A830006B00CA185278C95C10A8FF23FFF7D8FA3A
:10A840000135192DEFD16B4618229A5E6B4610A880
:10A850001421595E099BFFF7CBFA002F01DB0F2E65
:10A8600007D90023A068009374301A0010A909F0DA
:10A8700024FD01230893089B05995A004C4B9B1813
:10A880009A1E12788A4226D1013B1B78069A93427F
:10A8900021D1089A6CAB9B18663BFF3B0A931B784F
:10A8A000012B18D00C23079A216853431D00002266
:10A8B0000CA809F01DFF21AA2B0094460CAA6344A2
:10A8C00023CA23C301220A9B01361A70079BF6B2E2
:10A8D0000133DBB20793089B013308931A2BCAD1CB
:10A8E00064200CF083FB079B643F3FB2182B00D819
:10A8F00045E71A0021A91AA80AF008F96A461DAB13
:10A9000023CB23C21B6813601A991B9A1C9B2068D7
:10A9100009F0D6FEE568002D0CD0264912A8FFF7F5
:10A92000E9F91C231AAA12A928000AF017FE12A896
:10A9300009F0C0FBA0680AF072FA11A912A8A56874
:10A9400009F08EFC00221C4B009212A901932800F2
:10A95000130000F00DFB12A809F075FCFA2080002E
:10A960000CF044FBA0680AF05AFA0B99A06800F0BA
:10A9700047FC11A809F067FC10A809F064FC6DB051
:10A98000F0BC08BC02B01847002F02D00F2E00D038
:10A990000EE7A06800F04EFA0AE7C046EA8302001C
:10A9A0008C3C0000D18AFFFF2F84020058FDFFFF7E
:10A9B0004F84020044840200DC050000F0B587B03B
:10A9C00001930EAB1B88060003930D9B0D000093B3
:10A9D000019B02920C9F002B3CD0002F02D1009BC8
:10A9E000DB0737D528200CF0FAFB0400103009F003
:10A9F000FDFB029B1820258063800CF0F0FB050016
:10AA0000009B08220593019B002103600C300497F2
:10AA10000CF04EFD082204A9281D0CF02DFD0E4B54
:10AA200002226B6100230399E3602362636233684F
:10AA30000A43A560A2805B68210030009847002887
:10AA400006D0200009F0ECFA20000CF0BDFB034812
:10AA500007B0F0BD0248FBE73147020016FCFFFFDC
:10AA600017FCFFFF70B58CB08360109B01604260E3
:10AA7000C3600400184918000AF037FD051E14D001
:10AA800001001C22103105A80CF0F6FC6A4608AB48
:10AA900043CB43C21B68136020680599069A079B45
:10AAA00009F00EFE28000CF08FFB0C4B18680028F4
:10AAB0000ED00B4A05AB059200220692C0320292DC
:10AAC0006A4622CB22C2230003220521FFF776FF2C
:10AAD00020000CB070BDC046448402000C2500204C
:10AAE00021A70100F0B5040085B0637A9C46002BD5
:10AAF00004D120000AF028F805B0F0BDA37A266F33
:10AB000001931023019AF35600259B1801229A40C5
:10AB10002900F36803920293029BAB4231DDB368D4
:10AB2000019A6B439B1872695B00E77AD3181A7815
:10AB30005878E379012F14D15F1E3F1A10003A00B4
:10AB40005B004343606F8218D3189B79634500DD37
:10AB50006346627B1A4202D00123AB4019430135A0
:10AB6000DAE7022F05D15F1EBA1A277A013F381A99
:10AB7000E6E7032FE4D1277A013FBF1A020038002D
:10AB8000DEE71123C943F356606C994023691940ED
:10AB9000039B19430CF0F7FAA27B072AACD8637B1E
:10ABA0000C495B006373531CDBB290004158A373E4
:10ABB000022A03D808000CF00EFA96E7064B200094
:10ABC000236300236363054BE462236414300CF0B9
:10ABD00090F891E738770200E5AA0100334B0200B4
:10ABE00010B50400044B03600CF07BF8200005F066
:10ABF0003FFF200010BDC046887E020010B5040053
:10AC00000E4B08330360FFF767F82000743009F03B
:10AC10001AFB2000603009F016FB2000583009F0C4
:10AC200049FA2000503009F045FA2000044B143056
:10AC30006361FFF7D5FF200010BDC04658770200C2
:10AC4000BC7E0200F8B500250400324B8580083335
:10AC500003608571143016000F0005F0F3FE20002C
:10AC60002D4BE562636125645030FFF77DF82000CD
:10AC70005830FFF779F820006030FFF7A3F8200084
:10AC80000423F25E33682667590009B2743009F074
:10AC900007FB3368226FE371736801262372102368
:10ACA0006581A7802561D35691685918994204DDC2
:10ACB0003000984001330543F8E711230120D356B3
:10ACC000D1685918994206DD02009A40266901337D
:10ACD00032432261F6E714200CF081FA2269002148
:10ACE0002A430123060006F059FAFF23220063726B
:10ACF0000133A381002348326664A37320001370DC
:10AD0000A366FEF7CBFF0123A27920001343A371B2
:10AD1000F8BDC04658770200BC7E0200F0B5437A09
:10AD200085B00400002B04D1200009F00DFF05B010
:10AD3000F0BD0122837A11009C461023066F002586
:10AD4000F35603926344994002912900F3680193FA
:10AD5000019BAB422CDDB36872696B4363445B00BB
:10AD6000E77AD3181A785878E379012F10D15F1E4B
:10AD70003F1A10003A005B004343606F8218D318FB
:10AD80009B79002B02D0039BAB4019430135DFE7D1
:10AD9000022F05D15F1EBA1A277A013F381AEAE757
:10ADA000032FE8D1277A013FBF1A02003800E2E7FB
:10ADB0001123C943F356606C994023691940029BE3
:10ADC00019430CF0E0F9667AB31EDBB2FC2B14D801
:10ADD000FEF712FF0B4B0500236300230A48636351
:10ADE0000A4BFF21E4622364704306F0A5FD2900AD
:10ADF0004143200014300BF07CFF637A012B00D913
:10AE000095E791E7494B0200B6030000334B02007F
:10AE10001FB5012381881A00684609F0F1F9012362
:10AE200003491A00684609F0EBF905B000BDC046B9
:10AE3000FE0300001FB5030048331A780400002AFF
:10AE40000DD000221A70012381881A00684609F08B
:10AE5000D7F9012304491A00684609F0D1F9200006
:10AE6000743009F014FA1FBDFF03000010B548301C
:10AE70000378002B06D00378012B03D00121024870
:10AE800009F023F810BDC046FF03000010B50121F2
:10AE90000400062009F019F8064B984208D14834FE
:10AEA0002378002B04D02378012B01D020BFF7E7B3
:10AEB00010BDC04616FCFFFF70B50600141E19DB5E
:10AEC000050048352B78002B02D02B78012B13D1AD
:10AED000002330001A007430FFF748F8002C07D028
:10AEE00033004A331C80002407234C3634802B70F7
:10AEF000200070BD014CFBE7014CF9E717FCFFFF98
:10AF000012FCFFFFF8B517000A68050052880B0015
:10AF1000012A09D10021180009F05BF90022010083
:10AF20002800FFF7C9FFF8BD002F19DD06004836DD
:10AF30003278002A02D03278012A13D12A00002464
:10AF400028005C3219001480583009F01DF92B00DC
:10AF50004A331F8003234C352C8020003370E2E7F6
:10AF60000148E0E70148DEE717FCFFFF12FCFFFFA6
:10AF700073B5079C0500002C1CDB060048363078B2
:10AF8000002802D03078012816D106981BB2C0B232
:10AF90000090280012B2743009F08FF9002C07D00D
:10AFA0002B004A331C80002407234C352C8033703F
:10AFB000200076BD014CFBE7014CF9E717FCFFFFD1
:10AFC00012FCFFFFF7B505000E00171E26DDFFF788
:10AFD0004DFF2B0048331C78E4B2002C20D133689D
:10AFE0005B88012B09D12100300009F0F2F8220022
:10AFF00001002800FFF760FFFEBD310001A809F045
:10B00000BBF83A0001A92800FFF77CFF01A809F06E
:10B0100051F82800FFF73AFF2000EDE70148EBE781
:10B020000148E9E717FCFFFF11FCFFFFF0B587B00F
:10B030000D9C06000F0002920393002C20DBFFF70B
:10B0400015FF330048331D78EDB2002D1AD13900B9
:10B0500005A809F005F90C9B01940093029A039B43
:10B0600005A93000FFF784FF05A809F0ECF8002CD3
:10B0700003D03000FFF70AFF2C00200007B0F0BD1E
:10B08000014CFAE7014CF8E717FCFFFF11FCFFFF4A
:10B09000F8B50400171E1DDD060048363378002B76
:10B0A00002D03378012B17D12200E3795632013BCD
:10B0B000137023000025200054331D80503009F008
:10B0C00063F823004A331F80022328004C34258074
:10B0D0003370F8BD0148FCE70148FAE717FCFFFFB1
:10B0E00012FCFFFFF7B505000F00161E18DDFFF775
:10B0F000BDFE2B0048331C78E4B2002C12D139007D
:10B1000001A809F039F8320001A92800FFF7C0FFB3
:10B1100001A808F0CFFF2800FFF7B8FE2000FEBD11
:10B120000148FCE70148FAE717FCFFFF11FCFFFFAD
:10B13000F8B50400171E2DDD060048363278002AC7
:10B1400002D03278012A27D15D42069BFF331FD1FE
:10B150006B1D22001BB26432138023002000663373
:10B160001D70603009F084F8230000226C331A70DF
:10B17000954200D03D0023004A331D80079B0020EC
:10B180005A1E9341013F4C34053327803370F8BD7C
:10B19000069BDEE70148FAE70148F8E717FCFFFFE6
:10B1A00012FCFFFFF0B587B005000F00161E0393D9
:10B1B0001EDDFFF75BFE2B0048331C78E4B2002C49
:10B1C00018D1390005A809F04BF80D9B3200019306
:10B1D0000C9B05A900932800039BFFF7A9FF05A876
:10B1E00009F031F82800FFF751FE200007B0F0BD4C
:10B1F0000148FBE70148F9E717FCFFFF11FCFFFFDF
:10B20000FF2902D84172002070470148FCE7C04680
:10B2100017FCFFFF13B5040004A80078009020007D
:10B220000BF08DFD002801D1207516BD0048FCE70C
:10B230000EFCFFFF13B5040004A800780090200066
:10B240000BF065FD002801D1207516BD0048FCE714
:10B250000EFCFFFF7FB50D0011000F226A440400B1
:10B260001E1E117016D0089B002B13DD0123290030
:10B270000093FFF7DFFF002802D0074804B070BD3D
:10B280000090089B320029002000FFF7C3FF002830
:10B29000F4D0F2E70148F1E70EFCFFFF17FCFFFFD7
:10B2A000F7B507000D1E3FD0002302260469019365
:10B2B000002C35D0AA88A3885340334204D13242AF
:10B2C00004D1AB88334226D0646AF1E7A968A0684C
:10B2D0000AF01BFC0028F4D02B88002B02D0228817
:10B2E0009A42F1D16B88002B02D062889A42EBD14E
:10B2F000EB68E268934201D0002BE5D17B68002B1C
:10B3000001D020009847A288084B1343A380019BDB
:10B3100001330193D8E7A368AA689342D4D1DBE74D
:10B32000019B2000002B00DC0148FEBD0080FFFFD8
:10B3300017FCFFFFF0B5060085B00D1E5DD001279C
:10B340000469002C26D00221AA8800230A4202D0D8
:10B35000A3885B083B40226829688A4214D1A06810
:10B36000A968002B0ED00AF0D0FB00280CD0EB68A7
:10B37000E268934208D1A3881AB2002A06DB20486B
:10B3800005B0F0BD8842F2D0646ADAE75B045B0C7A
:10B39000A380F4E730692A88002807D135610123AA
:10B3A0001849684608F02CFF0020E9E70100030077
:10B3B0001C88944206D25C6A1900002C0DD0230030
:10B3C000F6E723001C88944207D15F886C88A74267
:10B3D00003D85C6A1900002CF3D1884209D10B888C
:10B3E0009A4204D305D148886B88984201D9696292
:10B3F000D4E74B6A6B624D62D1E70348C0E7C046B1
:10B4000016FCFFFFFD03000017FCFFFF064B10B505
:10B410001A00040008322C33026083600830FEF703
:10B42000ABF9200010BDC0467077020008B4024B93
:10B430009C46083808BC60470DB4010008B4024BB4
:10B440009C46083808BC6047914F02000C4A002314
:10B4500011002C32083110B5436083818373826000
:10B46000036143618361C383016004000830FEF718
:10B4700075F9044B1A68002A00D11C60200010BD29
:10B48000707702000C250020F7B50E000125046935
:10B490000192002C36D0238832889A4201D0002BAA
:10B4A00023D1638872889A4201D0002B1DD1FEF708
:10B4B000C9F80123002806D0C022A3881340C03B4E
:10B4C0005A425341DBB2019A934219D1A7883BB249
:10B4D000002B15DB10223100A0180BF0CDFF40230C
:10B4E0001F4204D0200009F05CFD646AD1E7FEF73A
:10B4F000A9F80028F6D021000348FEF755FAF4E732
:10B500000025F2E72800FEBDA34F020008B4024B5D
:10B510009C46083808BC60472B510200F0B587B044
:10B5200001930EAB1B88060003930D9B0D00009347
:10B53000019B02920C9F002B3CD0002F02D1009B5C
:10B54000DB0737D528200BF04AFE0400103008F046
:10B550004DFE029B1820258063800BF040FE050005
:10B56000009B08220593019B002103600C30049787
:10B570000BF09EFF082204A9281D0BF07DFF0E4B47
:10B5800002226B6100230399E360236263623368E4
:10B590000A43A560A2805B6821003000984700281C
:10B5A00006D0200008F03CFD20000BF00DFE034803
:10B5B00007B0F0BD0248FBE76551020016FCFFFF33
:10B5C00017FCFFFFF0B50400160000258380164A23
:10B5D000164B85710260218146810573186889B018
:10B5E0008C46A8421DD0124A05950492C0220292B0
:10B5F0006A4604AB82CB82C223002A006146FFF771
:10B600008DFFC022094B0A49186802926A460691CA
:10B6100006AB079582CB82C223002A003100FFF7D8
:10B620007DFF200009B0F0BDB47702000C2500209A
:10B630008F52020030B5002403730123034D84713F
:10B640000560818082734373846030BDB0760200F0
:10B6500070B583790400DB0702D580680BF0B4FD78
:10B66000A3799B0702D5A0680BF0AEFDA3795B0719
:10B6700007D5A0230021144ADB00D150A0680BF0AD
:10B68000A3FDA3791B0708D5A568002D05D02800C8
:10B690000AF0ACFA28000BF097FDA379DB0605D57C
:10B6A000A068002802D00368DB6898476023A2796D
:10B6B0001A4205D0A068002802D003685B6898474A
:10B6C0000023A360A37170BD00700040F7B502278E
:10B6D000037B04000D003B4226D0012926D8867941
:10B6E0003E40009614D1FFF7B3FF18200BF077FD12
:10B6F0000E230600E3561822009901930BF0D8FEA2
:10B70000019930000BF0C6FBA379A6603B43A371FF
:10B71000A3685A68002D04D00025DB681A60280051
:10B72000FEBD1B691A60FAE7014DF8E7014DF6E727
:10B7300016FCFFFF17FCFFFFF7B50126037B040093
:10B7400033422AD0612385791D4017D1FFF780FF4E
:10B7500018200BF044FD0E230700E3561822009337
:10B76000637B290001930BF0A3FE019A0099380036
:10B770000BF07EFBA379A7603343A3716023A2790A
:10B78000A0681A4202D00BF028FAFEBD4369406857
:10B790001B681840431E9841F7E70148F5E7C0468B
:10B7A00016FCFFFF10B50124837941731C4004D0BF
:10B7B00080680BF027FC002010BD6022134203D0EC
:10B7C00080680BF011FAF6E70048F5E716FCFFFF7A
:10B7D00070B5040000250C4B0E0008338580857180
:10B7E00003602100183009F003FE20002100203002
:10B7F00009F021FE054BA680E5802572E5602561F4
:10B80000656120001C6070BDC47702002025002007
:10B810008379DB0702D5C160002070470048FCE750
:10B8200016FCFFFF8379DB0701D5C068704701482C
:10B83000FCE7C04616FCFFFF70B545690400002D0B
:10B8400022D0037A032B21D8FFF7ECFFA8622C202B
:10B850000BF0C5FC2C22002105000BF029FE002274
:10B8600063695A622369934208D1636923610020A6
:10B87000237A65610133237270BD13005A6A002A6E
:10B88000FBD162695A62F2E70148F5E70148F3E744
:10B8900017FCFFFF13FCFFFF144B70B55A68144CE4
:10B8A000002A03D000225A600132A2601A69002ADD
:10B8B00017D0002119618023DB000E4DE358286862
:10B8C000012B0FD1A923DB00E1584942FFF7A0FF6C
:10B8D0002868FFF7B1FF2B685A69074BE250012334
:10B8E000A36070BDFFF794FFF9E7C046FC1000406D
:10B8F000001000402025002004050000030000691E
:10B90000002809D00221054AD167426A1A611A7AD1
:10B91000013A1A72024B19607047C04604E100E018
:10B9200000E100E010B5002903DB024B19600BF0C9
:10B9300056FA10BD2425002070B504001E0004AB8B
:10B940001D7805F0C7F820000E4B40302360FEF74D
:10B950000BFA230001364C33013522001E701D7393
:10B960000023E1214E32A3646365138053809381E9
:10B97000D381013B200063644902FFF7D3FF20001D
:10B9800070BDC04660760200F7B580277F053D692F
:10B990007C690822113C6C430600210068460BF0CC
:10B9A0006BFD104B009A9A4219D00093002301932B
:10B9B000796930001339694309F052FD019A009901
:10B9C000300009F065FD2100300009F049FD79697A
:10B9D000AB08133969432200300009F04BFD019890
:10B9E000FEBDC046FECA0000F0B50D00A9B00D9224
:10B9F00000213022060010A80B930BF059FD2800FF
:10BA00000BF096FD431C0C93102B00D9B5E00B9B5B
:10BA1000202B00D9B1E02900300009F066FD071E97
:10BA200050D129000C9A10A80BF026FD0D990B9A05
:10BA300014A80BF021FD80235B051A695F690C9245
:10BA4000113F7A4330005D690B92FFF79DFF302272
:10BA5000002104001CA80BF02BFD290000270C9BE3
:10BA600013395943300009F0FBFC0D9730257D4315
:10BA70000B9B0833ED18A74242DA290030221CA89C
:10BA80000BF0FAFC10A91CA80BF048FD002827D1E8
:10BA90003C49300022000E910F9409F0F9FC6A46EF
:10BAA000099513AB23CB23C223CB23C223CB23C2C1
:10BAB0003000129B1099119A09F0F8FC01230D93A4
:10BAC0000137D3E710300B9A0D990BF0C6FC040038
:10BAD00038000BF079FB002CA3D1200029B0F0BD79
:10BAE0006A4609951FAB23CB23C223CB23C223CBAA
:10BAF00023C230001C991D9A1E9B09F0D7FCDFE77A
:10BB0000E5433023ED1725405D430B9B08355D1958
:10BB10000D9B002B1DD10C9B3021981E05F082FE41
:10BB2000A0422CD017490134300022000E910F940E
:10BB300009F0AEFC6A46099513AB23CB23C223CB95
:10BB400023C223CB23C230001099119A129B09F013
:10BB5000ADFC0B99300009F083FC80235B0559692B
:10BB60000C230C9A133963434A430233110030000B
:10BB70000B9A09F07FFC0024AFE7034CADE7034CC0
:10BB8000ABE7C046FECA000017FCFFFF13FCFFFF37
:10BB90008023F0B55B051A6995B003925A69059147
:10BBA0000399113A51435D69039B133D04000291CF
:10BBB0005D43FFF7E9FE061E3BD00027302200213F
:10BBC000083508A801950BF073FC0199200009F0D5
:10BBD00047FC049730237B43029D0835ED18B7429C
:10BBE0001FDA2900302208A80BF046FC059908A8A6
:10BBF0000BF094FC00280AD11949721E200006910E
:10BC0000079209F045FC012304930137E2E70C2376
:10BC1000019A2900200009F02DFC019B303301938B
:10BC2000F3E7049B002B06D10D493200200009F0F8
:10BC30002FFC0C4812E00299200009F011FC80232F
:10BC40005B0559690C23039A13394A437343110066
:10BC500020000233029A09F00DFC002015B0F0BD5F
:10BC6000FECA00000CFCFFFF70B50400A280FA229F
:10BC7000002308000C49920008312160A371606123
:10BC8000E260A3606382094909F02FFC051E09D018
:10BC9000010020001031022212300BF0EDFB2800D1
:10BCA0000BF092FA200070BDDC7702008184020064
:10BCB00030B50225837987B004002B4204D1FDF70B
:10BCC0004DFDA3791D43A571200009F058FC002803
:10BCD0001CD06B46DD1C280009F048FC2B78002B9B
:10BCE00017D001A809F040FC0321019AD3170B409B
:10BCF0009B189B102382FDF7B9FFE368A1881818F1
:10BD00000123A0601A0002A808F07AFA002007B008
:10BD100030BD0122064B1A60064A51680029FCD04A
:10BD200000215160044A1268019201225A60DBE747
:10BD300000C00040FCC0004008C50040022802D1FD
:10BD40000122014B1A7070470728002070B5064C7D
:10BD500005002378002B04D1044802F0FFFA0123E8
:10BD60002370280070BDC046082800203DBD01009A
:10BD700070B50C0008F037F8002810D00023144DDF
:10BD8000A40A2B70200009F00EFC002803D00A2022
:10BD90000BF02CF9F6E72B78002BFCD070BD0221BC
:10BDA0000C4B0D4A99508021C90008005D58002DA8
:10BDB000FCD0A121C9005C5019580029FCD00021F9
:10BDC00099508021C9005A58002AFCD0E6E7C046A5
:10BDD0000728002000E0014004050000F8B50C0031
:10BDE00015001E0007F0FFFF002811D00023174F99
:10BDF0003B7032002900200009F0D3FB002803D05B
:10BE00000A200BF0F3F8F4E73B78002BFCD0F8BDE8
:10BE100001210F480F4B844619508021C9005A5800
:10BE2000002AFCD080270022FF00964207DD910007
:10BE300068586050D9590029FCD00132F5E700223A
:10BE400061465A50DA59002AFCD0E0E70728002062
:10BE50000405000000E0014008B4024B9C46443851
:10BE600008BC6047AB550200FA21F8B50389C90048
:10BE700004005943324809F05EFEFA21890005F0BA
:10BE8000D1FC304F2081A17A380009F054FE230004
:10BE90002600250022894C33A072A0361A808C35EA
:10BEA000317800232A22286808F0C6FF002801D034
:10BEB0002548F8BD31781F235B22286808F0BCFFB5
:10BEC0000028F5D1317820235C22286808F0B4FFDF
:10BED0000028EDD1317801232C22286808F0ACFF2E
:10BEE0000028E5D1317801232D22286808F0A4FF2D
:10BEF0000028DDD1317801232E22286808F09CFF2C
:10BF00000028D5D1A17A380009F010FE3178C3B2EB
:10BF10000E22286808F090FF0028C9D1FA21238951
:10BF200089005943064809F001FE01230343DBB2AF
:10BF300031782A22286808F07FFF0028B9D0B7E7B7
:10BF4000FC770200F47702000EFCFFFF08B4024BFE
:10BF50009C46443808BC604769BE0100074B10B5D9
:10BF60001A00040008323C3302604364443008F095
:10BF700063FB200008F093FA200010BD5C780200FB
:10BF800008B4024B9C46443808BC60475DBF0100C2
:10BF900008B4024B9C46443808BC6047B5550200C3
:10BFA000F0B5042583798BB004002B4204D1FDF752
:10BFB000D5FBA3791D43A57120009030FFF7BCFB92
:10BFC0000026B0420FD12300A033197820000C23A3
:10BFD00007AD00938C302B0001220068FFF73AF97F
:10BFE000061E03D02C4E30000BB0F0BD0A2304AA6D
:10BFF0009B182A785A706A781A700022985EAA787C
:10C000005A70EA781A700022995E03912A795A7060
:10C010006A791A7000229F5EAA795A70EA791A70BA
:10C0200000215A5E04922A7A5A706A7A1A700021A4
:10C030005A5E0592AA7A5A70EA7A1F251A7000226F
:10C040009B5EA27A03999C46514349425043CB17C9
:10C050002B407A435B185B11A361C3172B40181860
:10C06000D3171D406423AD18059A5B425343A36761
:10C0700064236146049A40115A434B43E2676D11B1
:10C08000221DE06125622000D36708F07AFA2000C3
:10C09000443008F0D8FAA6E70EFCFFFF08B4024BC4
:10C0A0009C46443808BC6047A1BF0100F7B51E009C
:10C0B000040008AB1B881500019309AB00911A8896
:10C0C00031000AAB1F88FEF707F820003A00310064
:10C0D0004430FEF755FA134B20001A003C336364DA
:10C0E000230008322260009A8C331A60AB889030AB
:10C0F0008380AB79019A83710B4B03210360AB689A
:10C1000083602B7B03736B7B4373AB7B8373230055
:10C11000A0331A80FFF746FB2000FFF7A5FE2000A2
:10C12000FEBDC0465C780200B0760200F8B5FA2683
:10C130000189B60004007143264809F0FCFC310077
:10C1400005F070FB244F2081A17A380009F0F3FC40
:10C150002500A0725835297800232A22606C08F047
:10C160006BFE002801D01D48F8BD297810232B2232
:10C17000606C08F061FE0028F5D1297801232D229A
:10C18000606C08F059FE0028EDD1297801232E2299
:10C19000606C08F051FE0028E5D1A17A380009F062
:10C1A000C5FC2978C3B20E22606C08F045FE002859
:10C1B000D9D121890748714309F0B8FC0123034311
:10C1C000DBB229782A22606C08F036FE0028CBD03A
:10C1D000C9E7C046C4780200BC7802000EFCFFFF2D
:10C1E00010B50400034B0833036008F058F9200031
:10C1F00010BDC046247902007FB504258379040070
:10C200002B4204D1FDF7AAFAA3791D43A5712000A2
:10C210004830FFF791FA0025A8420DD1230058338A
:10C220001978062302AE009301223300606CFFF7F9
:10C2300011F8051E03D00D4D280004B070BD022377
:10C2400000210420F356A27ADB0071563056534386
:10C25000C000C900514342435B42A3612368E161CE
:10C2600022629B6A20009847E6E7C0460EFCFFFF6B
:10C27000F8B50400150006AA168807AA0F00128850
:10C280001900FDF729FF0F4B676408332360230073
:10C29000AA8848339A80AA7920009A710A4AA2642F
:10C2A000AA6822652A7B1A736A7B5A73AA7B9A73DF
:10C2B0000023A371230058331E80FFF737FF2000AF
:10C2C000F8BDC04624790200B076020010B5040023
:10C2D000034B0833036008F0AFF9200010BDC046DF
:10C2E000B8790200F0B507005C3787B004003978F0
:10C2F00000231022806C08F09FFD0326002802D046
:10C300001F4807B0F0BD0F2502ABED1801233978A7
:10C3100008220093A06C2B00FEF79CFF184B98425C
:10C32000EED02B78334203D06420FDF7B1FAEAE770
:10C33000FA262189134DB6007143280009F0FBFB52
:10C34000310005F06FFA20813978A0231122A06C0A
:10C3500008F072FD0028D3D1A36C218903937143A7
:10C3600028003F7809F0E2FB01231843C3B21022F2
:10C370003900039808F060FD0028C2D0C0E7C0462D
:10C380000EFCFFFF5879020070B50825837986B04E
:10C3900004002B4204D1FDF7E1F9A3791D43A571F7
:10C3A00020004C30FFF7C8F9061E0DD023005C3387
:10C3B0001978062304AD009301222B00A06CFEF730
:10C3C00049FF061E03D0134E300006B070BD0E2389
:10C3D0002A786B445A706A7820001A700022995E9D
:10C3E00064224A43A263AA785A70EA781A7000223B
:10C3F000995E642252425143616329795970697987
:10C40000197000215B5E5A432368E2631B6A9847F8
:10C41000DAE7C0460EFCFFFFF8B50400150006AAD7
:10C42000168807AA0F0012881900FEF7A9F80D4B0D
:10C43000A764083323602300AA884C339A80AA7922
:10C4400020009A71084AE264AA6862652A7B1A731E
:10C450006A7B5A73AA7B1E829A73FFF743FF200000
:10C46000F8BDC046B8790200B0760200F7B5FA25EB
:10C470000189204FAD0004006943380009F05BFBDF
:10C48000290005F0CFF9A17A20811B4809F053FB60
:10C490002600636CA0720093218958363378694373
:10C4A0003800019309F042FB07230343DBB220224B
:10C4B0000199009808F0C0FC002801D00F48FEBD8B
:10C4C000317810232222606C08F0B6FC0028F5D1E8
:10C4D000A17A0948656C377809F028FB80235B4214
:10C4E0000343DBB223223900280008F0A5FC002812
:10C4F000E5D0E3E7EC790200E47902000EFCFFFFEF
:10C5000010B50400034B0833036007F0C8FF200098
:10C5100010BDC0465C7A0200F0B50425837985B071
:10C5200004002B4204D1FDF719F9A3791D43A5712D
:10C5300020004830FFF700F9061E0DD023005833C5
:10C540001978062302AD0093A8222B00606CFEF739
:10C5500081FE061E03D0144E300005B0F0BD1F2032
:10C560000023EA5ED31703409B180222A95E5B11E9
:10C57000CA170240521804216F5E5211F917014088
:10C58000C91949112B806A80A980A07A434342438C
:10C5900041435B42E36123685242A26121629B6A8C
:10C5A00020009847D8E7C0460EFCFFFFF8B504000E
:10C5B000150006AA168807AA0F0012881900FDF7B1
:10C5C0008BFD0F4B6764083323602300AA88483330
:10C5D0009A80AA7920009A710A4AA264AA68226500
:10C5E0002A7B1A736A7B5A73AA7B9A730023A371FE
:10C5F000230058331E80FFF739FF2000F8BDC046E6
:10C600005C7A0200B0760200F7B5FA2504000189D1
:10C61000134EAD006943300009F08DFA290005F092
:10C6200001F92700A36C208100935C373B7881B22D
:10C6300069433000019309F079FA6022C3B201998D
:10C64000009808F0F9FB002801D00648FEBD3978B3
:10C6500001236222A06C08F0EFFB0028F6D0F4E77B
:10C66000907A02000EFCFFFF10B50400034B083364
:10C67000036007F0E1FF200010BDC046B87A020059
:10C680007FB50825837904002B4204D1FDF766F8B5
:10C69000A3791D43A57120004C30FFF74DF8051E0E
:10C6A0000DD023005C331978062302AE0093E822F4
:10C6B0003300A06CFEF7CEFD051E03D00B4D280005
:10C6C00004B070BD0223F25E96235B425A4362635C
:10C6D0000021725E20005343A3630423F25E96237D
:10C6E0005343E36323681B6A9847E8E70EFCFFFFA8
:10C6F000F8B50400150006AA168807AA0F001288CC
:10C700001900FDF73DFF0D4BA7640833236023009C
:10C71000AA884C339A80AA7920009A71084AE26468
:10C72000AA6862652A7B1A736A7B5A73AA7B1E8287
:10C730009A73FFF769FF2000F8BDC046B87A02007F
:10C74000B076020010B50400054B083303601C30BE
:10C7500007F0B0FC2000183007F0ACFC200010BD42
:10C76000E47A0200FF23F0B52C4D8DB02B7000232E
:10C77000040069460088009303F0B2F9002802D152
:10C780006B469B782B70264E3368DB68002B07D1F5
:10C79000002320881A00190008F07CFF0DB0F0BDBE
:10C7A0002B78032BF4D81F4901A8FDF7A3FA3368AF
:10C7B00001A9DE6804A807F0DFFC04A9300008F036
:10C7C000C7FE0027060004A807F074FCBE421ED076
:10C7D00031002022103104A80AF04EFE30000AF089
:10C7E000F3FC297804ABC9005918082202A80AF002
:10C7F00043FE20880123082202A908F04BFF0137DD
:10C80000002804D12088084A0C2108F041FF01A823
:10C8100007F050FC002FBBD0C0E7C04680200020AE
:10C820003425002014850200FFFF0000F0B5837955
:10C8300091B004005B071BD5FDF718FA00232269AD
:10C84000801A9941994203D1F423FF3398420FD9BA
:10C85000A068002808D0364B1D8809F0E4F9036869
:10C8600015221B6A290098470422A3799343A371D8
:10C87000A3799B0759D52F4D2B68DB68002B50D02F
:10C880002D4B1B78032B4CD8294B2C491B8804A813
:10C890000193FDF72FFA2B6804A9DE6808A807F0BA
:10C8A0006BFC08A9300008F053FE070008A807F049
:10C8B00001FC02AB9E1D08233200338006A9073B12
:10C8C000019808F0E9FE002F08D03900202210312D
:10C8D00008A80AF0D1FD38000AF076FC164B328821
:10C8E0001B7806A9DE0008AB9E1930000AF0B5FDE2
:10C8F000002813D0082206A930000AF0BDFD2B68DD
:10C9000004A9DD6805A807F037FC202308AA05A9BB
:10C91000280008F023FE05A807F0CCFB04A807F0C8
:10C92000C9FB0222A3799343A37111B0F0BDC046A5
:10C93000B02700203425002080200020148502002C
:10C94000F7B5089E0500152922D8012007008F4061
:10C95000244C27421CD0E97FCC181F2C41DC6918DD
:10C960003418A14210D80021C8B2834204D9545CC3
:10C97000701884700131F7E732789A183270EA7FC4
:10C980009B18EB7700202CE00878C8540139E8E7C1
:10C990003478013CE4B2A34208D10023D9B28C42DE
:10C9A000F0D9D05CF11888700133F7E7EF7F0120F0
:10C9B000FF183F1B1F2F14DC0227A01C7F423618D4
:10C9C000381B0190E87F2F18BE4204D23078019FB7
:10C9D000F0550136F6E7041B023CEC77280008F01E
:10C9E000A5FEFEBDFC002000F0B5040085B001935B
:10C9F0000AAB1E880BAB1B78451C02930EAB1B7851
:10CA0000170003930B78102203704B8A0131438285
:10CA100028000AF031FD268300260122019B676170
:10CA20006383039BE6832377029B2000EB77A31CA1
:10CA3000DA770C9B0C25636223000D9A28331A7059
:10CA40005E709E702A0031002C300AF031FD20000B
:10CA5000064BE663A3632A00310040300AF028FD4C
:10CA60002000034B2665E36405B0F0BDAF5602001D
:10CA7000A156020070B50D0009F0D5F80400036856
:10CA8000002D09D15B699847FA2080006843074967
:10CA900004F0C8FEE08070BD9B6898478542F3D2E1
:10CAA000236820009B6898470500EDE771020000AD
:10CAB000F0B507001600A1B002C704006B4918A822
:10CAC0001D0008F07AFE331E03D030000AF030FD5E
:10CAD00083B2012204920022039202920232019256
:10CAE0000093320018A93800FFF77EFF2300604949
:10CAF000583318A8079308F060FE2B1E03D02800B7
:10CB00000AF016FD83B201220492002203920292DF
:10CB10000232019200932A0018A90798FFF764FFD8
:10CB200023005449AC3318A8089308F046FE269B0E
:10CB3000002B03D018000AF0FBFC83B20122049200
:10CB4000002203920292023201920093269A18A9BF
:10CB50000898FFF749FF631CFF33474918A809935A
:10CB600008F02BFE279B002B03D018000AF0E0FCF6
:10CB700083B2012204920022601C039202920232CC
:10CB800001920093279A18A9FF30FFF72DFF230089
:10CB90005533FF33394918A8099308F00EFE289B36
:10CBA000002B03D018000AF0C3FC83B201220492C8
:10CBB000002203920292023201920093289A18A94D
:10CBC0000998FFF711FF2300A933FF332C4918A858
:10CBD0000A9308F0F2FD299B002B03D018000AF0FD
:10CBE000A7FC83B201220492002218AD03920292A4
:10CBF000023201920093299A29000A98FFF7F4FE65
:10CC0000204B1B780B93002B2CD1079B129713936F
:10CC1000089B0DAF1493631CFF331593099B1A49AE
:10CC200016930A9B3800179308F0C7FD1D21492071
:10CC30003B7810222B707B8A12AE6B8206ABC91830
:10CC4000C0180AF019FC06232B750B9B2068AB83D8
:10CC5000AE6108F0ECFF036829001B6898470122C9
:10CC6000084B1A70200021B0F0BDC046292A0000F0
:10CC7000242A0000252A0000272A0000262A000076
:10CC8000282A0000092800200A18000070B5002595
:10CC900004000B4B8580083385710360C160183038
:10CCA000FDF762F820001C30FDF75EF80123621CDE
:10CCB000D377044AA560656120001460A37170BD3C
:10CCC000E47A020034250020FA2130B585B0050051
:10CCD000012302228900684607F092FA074C206877
:10CCE000002809D008F0A2FD2988054B2268198088
:10CCF000022391790B43937105B030BD3425002098
:10CD0000B027002010B50C0007290DD8806808F066
:10CD10008AFF064B195703685B6C9847431E98417E
:10CD2000034B4042184010BD0248FCE70C8502004E
:10CD300016FCFFFF17FCFFFFF0B5A44C0D00A54447
:10CD4000040007939AAB1B78A14909A804930692A3
:10CD5000FCF7D0FF200029001C3007F015FAC02096
:10CD6000800001F0F1FA08200AF039FA06000021EB
:10CD700000F0AEFE15ADA66000210C220EA80AF050
:10CD800097FB2B000EAA83CA83C3924B2900EB604A
:10CD9000002330002B6108F02FFFA06808F043FF4C
:10CDA00008220021059016A80AF082FB14200AF040
:10CDB00016FA29000200884B1593C8C9C8C2874BD0
:10CDC000059EC3600023A43603613368002B00D0A6
:10CDD000F5E03060A06808F02AFF08220021060074
:10CDE00016A80AF065FB14200AF0F9F97C4B15939C
:10CDF000030086CD86C37B4BC36000230361336B86
:10CE0000002B00D0DDE03063A06808F00CFF0822A2
:10CE10000021050016A80AF04BFB14200AF0DFF9E8
:10CE2000714B15AE1593030086CE86C36F4B9835B4
:10CE3000C360002303612B68002B00D0C3E028608F
:10CE4000012504AB1B7C04AA2B4308A928001374FA
:10CE500008F024FCA06808F0EEFE036864495B6AF1
:10CE60009847A06808F0E7FE036862499B69984705
:10CE7000A06808F0E0FE0023026800931668049999
:10CE80002A00B047049B002B0AD0200008F0D7FCF2
:10CE9000032805DDA06808F0CEFE0368DB6898472C
:10CEA0000EA808F03AFC2F2004ABC01808F035FC9F
:10CEB000362004ABC01808F030FC3D20042504AB3C
:10CEC000C01808F02AFC0EAB0A93A06804AB5D778B
:10CED00008F0B1FE03680AA91B699847A06808F02A
:10CEE000A2FE03680AA95B6D9847A06808F09BFE44
:10CEF00003680021DB6D9847A06808F094FE036882
:10CF000002219B6D984700212000FFF7FBFE1820AF
:10CF10000AF065F9A16800F055FA374B374A1B68EB
:10CF2000A1680393364B15A81B6800260293354B66
:10CF30000CAF1B680193069B1B685B190093324B77
:10CF400012681B68FFF7B4FD30200AF048F9079A11
:10CF5000A16800F0F7FAA06808F065FE03683900E0
:10CF60009B6A9847294BBE80A0680C9308F05BFE33
:10CF700003683900DB6A98472900A06808F029FC9B
:10CF8000099A09219378A068521908F035FCA06825
:10CF900008F049FE32210671A068FFF76BFD04AB73
:10CFA0001B7FB34204D0A06808F03DFE08F0FBFBF5
:10CFB00009A807F07FF895239B009D44F0BD03610D
:10CFC00007E703611FE7036139E7C046ACFDFFFFD8
:10CFD000F9850200BD560200C9CC0100CB56020003
:10CFE00065C70100D956020007570200E756020044
:10CFF00011D0010045D00100302500202C25002053
:10D0000008200020282500200C2000200800100007
:10D0100013B506226846FCF77DFE094B1C68002C00
:10D020000AD0694601A807F0A7F8200001A908F076
:10D0300027FC01A807F03EF8684607F03BF813BD4F
:10D0400034250020002373B501AE0C00310005002B
:10D05000019302F045FD002802D1B278064B1A7008
:10D06000064B1868002806D061426141044BC9B2E2
:10D070001D8008F00DFC73BD8020002034250020A9
:10D08000B027002030B5284CA9B06A220D000DA8A9
:10D0900021000AF0F1F90DA903A8FCF799FE03A9F4
:10D0A00006A807F0DDF801230193013BFF3B009345
:10D0B0000533FF33642206A92800FEF773F806A89B
:10D0C00007F0C1F8210019226A3106A80AF0D4F944
:10D0D00005220024110006AB04A807F0E8F804A913
:10D0E00005A807F0BDF8019400942300220005A9CB
:10D0F0002800FDF79BFF05A807F0A5F821002800F0
:10D10000FEF77EF805340520FCF7C2FBFF2CF5D1B5
:10D11000FA208000FCF7BCFB04A807F094F803A8F1
:10D1200007F091F829B030BD89840200F0B59C4B1E
:10D1300095B005921A68082304000391D16C06A8E3
:10D140000B43D3649749FCF7D5FD974907A8FCF733
:10D15000D1FD220000250DAE30001C3206A907F0DB
:10D1600022F807AA310008A807F01DF8300006F0E1
:10D17000A1FF631CDD77A06808F055FD03680BAFC5
:10D180005B699847300008F0C8FA2B2004ABC01840
:10D1900008F0C3FA322004ABC01808F0BEFA3920F8
:10D1A00004ABC01808F0B9FA8023DB00BB80A0688C
:10D1B0000B9608F038FD036839005B6D9847A0684E
:10D1C00008F031FD036829009B6D9847A06808F0BE
:10D1D0002AFD070006000A371F22290038000AF03E
:10D1E00067F9FD77300008F0D5FA0621A06808F04D
:10D1F000F0FA089A09219378A068043208F0FCFA42
:10D20000A06808F010FDC8210571A068FFF732FC86
:10D21000A06808F008FDFF272E000581A06808F02F
:10D2200002FD08F0C0FA0398FDF704FE2000FCF7A9
:10D2300095FA03992000FFF725FF0399200008F0D5
:10D240003AFB0495012563691D402DD0574909A873
:10D25000FCF73CFE09A90AA807F002F800220AA977
:10D260001300019200920398FDF7E0FE0AA806F071
:10D27000EAFF049B002B42D1043F282F41DD00250B
:10D28000FE2F00DC049D059807F0C2F9002806D0A7
:10D29000012362699A431300042213436361002649
:10D2A00009A806F0D0FF049504226369134233D025
:10D2B000FF210398C826FDF7A3FF0025B600A36948
:10D2C00002229B5EAB4222DD200029B2183006F01C
:10D2D00080FF0023010003981A007430FCF746FE1B
:10D2E0003000FCF7D5FA039807F099FDC820FCF749
:10D2F000CFFA02226369134209D10135DFE704370F
:10D30000BBE7039807F08BFD002FBCDDBAE7FA20DE
:10D310008000FCF7BDFA0026022365691D421CD07F
:10D3200006331D4024D0224909A8FCF7CFFD09A9E6
:10D330000AA806F095FF00220AA9019200921300A4
:10D340000398FDF773FE0AA806F07DFF1948FCF765
:10D350009FFA09A806F077FF174E6420FCF798FAA9
:10D36000164B01369E4200DC6CE706F04EFD69E785
:10D37000134909A8FCF7AAFD09A90AA806F070FF3D
:10D380002B002A000AA9019500950398FDF74EFE8F
:10D390000AA806F058FF09A806F055FFDDE7C046C9
:10D3A000B82400202085020030850200328502006A
:10D3B00077850200983A00008C0A00008B0A000072
:10D3C000B48502000022594BF0B508330600036013
:10D3D0000F001000A9B0B1600BAB99180132487072
:10D3E000102AFAD10F3A524C1A700E32105D991A67
:10D3F0000874013AFAD2997B5A7B09020A43310038
:10D400000C31039125211B7813AD2B7002ABC91889
:10D41000452302A81B186A82180010220AF02CF873
:10D42000039B64216B610123002402AA2B7752180D
:10D430001993093313701DAB1C706D2302AA9B183E
:10D440001C706E2321009B181EA80C22EC836C62BA
:10D450001C700AF02DF8374B0C22210023A8AB6377
:10D46000EC630AF025F8344B02AAEB6446239B18C0
:10D470000322DA7722002C650595347306AD2B194B
:10D4800001345A70102CFAD101232C482B700E3322
:10D49000195CEA1A1174013BFAD211212520AA7BEA
:10D4A0006B7B12020BAC13432A78638202ABC91860
:10D4B0002270C018102209F0DFFF0123237505AB8D
:10D4C000A36100233800A38308F0B1FB03682100A7
:10D4D0001B68984713ABDB8BB068B38208F0A7FBDF
:10D4E000002203680092B18A039ADC680123A047F6
:10D4F000B06808F09CFB0700142009F070FE0022C1
:10D50000012304000261069240C0083229000793FB
:10D5100009F0B2FF0A4BE360BB69002B03D1300076
:10D52000BC6129B0F0BD2361F9E7C046FC7A020076
:10D530000D860200AF560200A15602001D860200B1
:10D5400017590200F0B500260400724BDDB0083315
:10D5500003608160C2608680867132006E4947A890
:10D5600008F079FA230014330125042708931223C5
:10D57000009704950193089A330047A903960296F1
:10D580001DA8FFF731FA3200644947A808F063FA92
:10D590000C2322000097103215AF0495019347A980
:10D5A00033000396029632A8FFF71EFA32005C4958
:10D5B000380008F050FA21001C3109910423082199
:10D5C00004950191009339003300099A039602965D
:10D5D00047A8FFF709FA32005249380008F03BFA31
:10D5E000542009F0FCFD2100122204231831079178
:10D5F0000495019200930A003300390003960296C5
:10D600000690FFF7F1F9069A474B1000A262D46228
:10D610000AA9082230300A930B9609F02DFF434BDC
:10D62000069A099993632932157026610422E661EE
:10D63000079809F021FF04220799089809F01CFFB8
:10D640006622032304A95218D377BA225218D3773B
:10D65000872252005218D377069A35490232D3777F
:10D660001DAA0C9232AA0D9247AA0E92069AA6857E
:10D670000F9210A8320008F0EEF93021452004AADC
:10D6800052181378123104AA3B70521813881139BA
:10D690007B8204AB1022C918C01809F0EDFE0423E8
:10D6A0000CADA0683B75BD61BE8308F0C0FA03688D
:10D6B00039001B689847822204AB9B181B885432A0
:10D6C000238404AB9B181B885432A38404AB9B189F
:10D6D0001B88A068638408F0AAFA0700142009F0E8
:10D6E0007EFD0500134B0661082210C010A910939F
:10D6F000119609F0C1FE104BEB60BB69B34206D135
:10D70000BD612000FCF72AF820005DB0F0BD2B6160
:10D71000F6E7C046087B02004D8602002D86020017
:10D720003D8602005D860200295A020095590200DA
:10D730006D860200A5D70100BF590200F0B50400B4
:10D740000E00150085B01F000CAB1B881030019334
:10D7500006F04CFD26806580182009F040FD02AEE1
:10D76000050033000AAA03CA03C32F602800082754
:10D7700000213A000C3009F09BFE3A003100281DD0
:10D7800009F07AFE064B02226B612000002301990A
:10D79000A5600A43E360A2802362636205B0F0BD26
:10D7A000E9590200F0B50B898DB00593CB680500EF
:10D7B00004934B88828C9A420ED1049C049B059A58
:10D7C0009B181B1B032B39DD62882188012308A8C5
:10D7D00006F016FD0434F1E7428C9A422ED1049CE7
:10D7E000049B059A9B181B1B032B27DD23882820ED
:10D7F00006936388EF680793114B089300230993FE
:10D8000009F0EDFCC0236A460600029308AB03CB87
:10D8100003C22B000699079A3000FFF78FFF3B6881
:10D8200031005B6838009847002805D0300006F0CA
:10D83000F7FB300009F0C8FC0434D1E70DB0F0BDAF
:10D84000A75A020070B5040090B0806808F026F96D
:10D85000022101401AD1A38D002B17D00C4B6A4630
:10D8600004931023E568A1850591029304AB41CB95
:10D8700041C20A00230006A8FFF760FF2B6806A933
:10D880009B682800984706A806F0CAFB10B070BD38
:10D89000A75A0200002815D0006041608260C36072
:10D8A000046145618661C761444604624C46446236
:10D8B000544684625C46C462644604636E464663B2
:10D8C00074468463002A06D0C46B043C043A25687D
:10D8D0001560B442F9D18C6BA6464E6BB546002B51
:10D8E00006D0CC6B043C043B1D682560B442F9D1E2
:10D8F0000C6BA446CC6AA3468C6AA2464C6AA1462D
:10D900000C6AA046CF698E694D690C69CB688A683C
:10D91000086849687047006041608260C3600461C4
:10D9200045618661C761444604624C464462544680
:10D9300084625C46C462644604636E464663744611
:10D940008463C46B043C043925680D60B442F9D18A
:10D95000C7698669456904697047006041608260F3
:10D96000C360046145618661C761444604624C46F8
:10D970004462544684625C46C462644604636C46F6
:10D9800044637446846304697047846BA646446BA1
:10D99000A546046BA446C46AA346846AA246446AA8
:10D9A000A146046AA046C769866945690469C368D7
:10D9B000826800684168704710B5041E0CD009F0F9
:10D9C000B7FD431EE3189C4208D222781978013B28
:10D9D00021705A700134F6E7014810BD0020FCE7C1
:10D9E00017FCFFFFF0B585B002900C1E2AD0002373
:10D9F000C217161A56400193019B30005D1C631933
:10DA00000A215F1E039304F07DF8494230313970DA
:10DA100030000A2103F090FF47420600002F0FD18B
:10DA2000029B002B04DA2D23019D039A023513700B
:10DA3000002320006355FFF7BFFF380005B0F0BD9D
:10DA40000195D9E7004FF8E717FCFFFF0268084B84
:10DA5000406810B5C018C000101803009A4205D8DD
:10DA60001C688C4202D31800083BF7E710BDC04683
:10DA7000FFFFFF1F70B5002817D1114D2E68002E33
:10DA800011D1083009F0ABFB066046600D4E040072
:10DA90003368002B02D108F001FB306023682C6052
:10DAA0009B00F3586360286870BD0122064907484F
:10DAB0000B681340F8D1026043600A60F4E7C04687
:10DAC0003C25002048250020382500204025002046
:10DAD000002370B504000160436099420AD1064DED
