:020000021000EC
:1080000000400020B9130200F5130200F71302002C
:108010000000000000000000000000000000000060
:10802000000000000000000000000000F913020042
:108030000000000000000000FB130200FD1302001E
:10804000FF1302008DB8010065100200FF1302004B
:10805000FF13020000000000B9110200FF1302002C
:10806000FF130200CD0B020029110200FF130200D2
:10807000FF130200FF130200FF130200FF130200B0
:10808000FF130200FF130200FF130200FF130200A0
:10809000FF13020081EE010051FC0100FF130200FA
:1080A000FF130200FF1302000000000000000000A8
:1080B00000000000000000000000000000000000C0
:1080C00010B5064C2378002B07D1054B002B02D0AE
:1080D000044800E000BF0123237010BDB020002041
:1080E00000000000D8870200044B10B5002B03D01D
:1080F0000349044800E000BF10BDC0460000000076
:10810000B4200020D8870200164B002B00D1144B5E
:108110009D46402292029A1A924600218B460F46B3
:108120001348144A121A0FF0BEF90F4B002B00D05F
:1081300098470E4B002B00D09847002000210400E8
:108140000D000D48002802D00C4800E000BF0BF0E5
:10815000A1F9200029000EF012FE0BF085F9C046AF
:1081600000000800004000200000000000000000A7
:10817000A8200020D02800200000000000000000FF
:1081800010B50400034B036040300BF08EFF20005D
:1081900010BDC04658760200020070B501230025CC
:1081A0003C3213700564137203000400074E45331C
:1081B0001D7031000C300FF022F9200031004634E0
:1081C00024300FF01CF9257070BDC046B98502003F
:1081D0000200002310B504001432C260183203609C
:1081E00043608360036103754262836213700448D5
:1081F00000F02EFF2000FFF7CFFF200010BDC0468B
:108200000421002007B5084901A801F06DFD78227E
:1082100001A9064802F060FF01A80BF046FFFA2012
:10822000800001F02FFB07BD6C810200F4210020CB
:10823000F0B5036C85B004003C4D012B36D13C49B0
:1082400003A801F051FD782203A9280002F044FFA1
:1082500003A80BF02AFF666AA36AF718BE4212D081
:10826000317803A80BF04BFFC82203A95200280065
:1082700002F0A2FE03A80BF018FFFA20400001F064
:1082800001FB0136EAE728000CF0C4FDFA2080006B
:1082900001F0F8FA274903A801F026FD782203A986
:1082A000280002F019FF03A80BF0FFFE224903A8E3
:1082B00001F01AFD782203A9280002F00DFF03A89F
:1082C0000BF0F3FE666AA36AF3180193019B9E42CA
:1082D00022D0337802AAD71C3B70230045331B7889
:1082E000002B06D0236C012B03D1390020000BF0AA
:1082F0001AFC397803A80BF002FFC82203A9520028
:10830000280002F059FE03A80BF0CFFEFA2040002F
:1083100001F0B8FA0136D9E728000CF07BFDFA200D
:10832000800001F0AFFA05B0F0BDC046F421002096
:108330002F8102003A8102004581020073B50B785B
:108340000D002E2B2ED02D2B2FD0232B30D0402BB9
:1083500031D0FFF757FF0024297801A80BF0CFFE9A
:10836000C822164D520001A9280002F025FE01A8DE
:108370000BF09BFE124E0121300003F0A1F920000A
:1083800001F080FA0021300003F09AF9FA20400051
:1083900001F078FA28000CF03DFDFA20400001F0D1
:1083A00071FA73BDFA246400D6E7FA24A400D3E777
:1083B000FA24E400D0E7034CCEE7C046F4210020C5
:1083C000CC20002088130000F0B503698FB00500B1
:1083D0001600002B53D003000C33009339331F7861
:1083E00008AC002F4DD02D4902A80BF06BFB009973
:1083F00020000FF008F802AB2200310030000BF033
:108400002DFC070020000EF0FDFE2B6C002B1AD176
:108410002349200001F068FC78222100214802F065
:108420005BFE20000BF041FE029E039BF3180193BC
:10843000019BB34207D03378210028002370013616
:10844000FFF77CFFF4E702A80EF0DCFE3900200005
:108450000BF055FEC82221005200124802F0ACFD7C
:1084600020000BF022FE2800390024300EF094FF8B
:108470000A4900980EF0C3FF002344352B700FB05B
:10848000F0BD009920000EF0BEFF3B00220031003D
:1084900030000BF0E3FB07002000D5E7B9850200B0
:1084A0004F810200F4210020F0B50D0091B003903F
:1084B000FE4904A80BF006FBFD4F0AAC3900200072
:1084C0000BF000FB04AB41222900009428000BF0C4
:1084D00095FB060020000EF095FE04A80EF092FE1B
:1084E000F44904A80BF0EEFAF34920000BF0EAFA85
:1084F00004AB42222900009428000BF07FFB0643C6
:1085000020000EF07FFE04A80EF07CFE390004A8C7
:108510000BF0D8FAE94F200039000BF0D3FA4322D0
:10852000290004AB009428000BF068FBF6B2064368
:10853000F3B2200002930EF065FE04A80EF062FE76
:10854000DD4904A80BF0BEFADD4E200031000BF02F
:10855000B9FA4422290004AB009428000BF04EFB2A
:10856000029B1843C3B2200002930EF04BFE04A8F6
:108570000EF048FE390004A80BF0A4FAD14F2000F9
:1085800039000BF09FFA4522290004AB0094280023
:108590000BF034FB029B1843C3B2200002930EF091
:1085A00031FE04A80EF02EFE310004A80BF08AFA6A
:1085B000C54E200031000BF085FA4622290004AB9D
:1085C000009428000BF01AFB029B1843C3B2200052
:1085D00002930EF017FE04A80EF014FE390004A852
:1085E0000BF070FAB94F200039000BF06BFA4722FC
:1085F000290004AB009428000BF000FB029B1843F9
:10860000C3B2200002930EF0FDFD04A80EF0FAFDA7
:10861000310004A80BF056FAAD4E200031000BF0EB
:1086200051FA4822290004AB009428000BF0E6FA26
:10863000029B1843C3B2200002930EF0E3FD04A88E
:108640000EF0E0FD390004A80BF03CFAA14F200029
:1086500039000BF037FA4922290004AB00942800B6
:108660000BF0CCFA029B1843C3B2200002930EF029
:10867000C9FD04A80EF0C6FD310004A80BF022FAD3
:10868000954E200031000BF01DFA4A22290004AB60
:10869000009428000BF0B2FA029B1843C3B22000EA
:1086A00002930EF0AFFD04A80EF0ACFD390004A853
:1086B0000BF008FA894F200039000BF003FA4B2227
:1086C000290004AB009428000BF098FA029B184391
:1086D000C3B2200002930EF095FD04A80EF092FDA7
:1086E000310004A80BF0EEF97D4E200031000BF0B4
:1086F000E9F94C22290004AB009428000BF07EFA23
:10870000029B1843C3B2200002930EF07BFD04A825
:108710000EF078FD390004A80BF0D4F9714F200059
:1087200039000BF0CFF94D22290004AB009428004A
:108730000BF064FA029B1843C3B2200002930EF0C0
:1087400061FD04A80EF05EFD310004A80BF0BAF93B
:10875000654E200031000BF0B5F94E22290004AB24
:10876000009428000BF04AFA029B1843C3B2200081
:1087700002930EF047FD04A80EF044FD390004A852
:108780000BF0A0F9594F200039000BF09BF94F2254
:10879000290004AB009428000BF030FA029B184328
:1087A000C3B2200002930EF02DFD04A80EF02AFDA6
:1087B000310004A80BF086F94D4E200031000BF07B
:1087C00081F95022290004AB009428000BF016FA1E
:1087D000029B1843C3B2200002930EF013FD04A8BD
:1087E0000EF010FD390004A80BF06CF9414F200089
:1087F00039000BF067F95122290004AB00942800DE
:108800000BF0FCF9029B1843C3B2200002930EF058
:10881000F9FC04A80EF0F6FC310004A80BF052F9A4
:10882000354E200031000BF04DF95222290004ABE7
:10883000009428000BF0E2F9029B1843C3B2200019
:1088400002930EF0DFFC04A80EF0DCFC390004A853
:108850000BF038F9294F200039000BF033F953227F
:10886000290004AB009428000BF0C8F9029B1843C0
:10887000C3B2200002930EF0C5FC04A80EF0C2FCA7
:10888000310004A80BF01EF91D4E200031000BF042
:1088900019F95422290004AB009428000BF0AEF91A
:1088A000029B1843C3B220002CE0C046E6800200C1
:1088B000D08002001E810200258102002D8102006D
:1088C000D58002002B81020018810200268102005F
:1088D00000810200E5800200DA800200F6800200DA
:1088E0002C810200F5800200DF800200E48002009B
:1088F000D18002001F810200F7800200EA8002009E
:108900000C81020002930EF07DFC04A80EF07AFCAC
:10891000390004A80BF0D6F8CD4F200039000BF039
:10892000D1F85522290004AB009428000BF066F919
:10893000029B1843C3B2200002930EF063FC04A80C
:108940000EF060FC310004A80BF0BCF8C14E200012
:1089500031000BF0B7F85622290004AB0094280030
:108960000BF04CF9029B1843C3B2200002930EF0A7
:1089700049FC04A80EF046FC390004A80BF0A2F84C
:10898000B54F200039000BF09DF85722290004ABA9
:10899000009428000BF032F9029B1843C3B2200068
:1089A00002930EF02FFC04A80EF02CFC310004A85A
:1089B0000BF088F8A94E200031000BF083F8582204
:1089C000290004AB009428000BF018F9029B18430F
:1089D000C3B2200002930EF015FC04A80EF012FCA6
:1089E000390004A80BF06EF89D4F200039000BF001
:1089F00069F85922290004AB009428000BF0FEF816
:108A0000029B1843C3B2200002930EF0FBFB04A8A4
:108A10000EF0F8FB310004A80BF054F8914E200042
:108A200031000BF04FF85A22290004AB00942800C3
:108A30000BF0E4F8029B1843C3B2200002930EF03F
:108A4000E1FB04A80EF0DEFB390004A80BF03AF8B5
:108A5000854F200039000BF035F83022290004AB97
:108A6000009428000BF0CAF8029B1843C3B2200000
:108A700002930EF0C7FB04A80EF0C4FB310004A85B
:108A80000BF020F8794E200031000BF01BF831225A
:108A9000290004AB009428000BF0B0F8029B1843A7
:108AA000C3B2200002930EF0ADFB04A80EF0AAFBA7
:108AB000390004A80BF006F86D4F200039000BF0C8
:108AC00001F83222290004AB009428000BF096F83C
:108AD000029B1843C3B2200002930EF093FB04A83C
:108AE0000EF090FB310004A80AF0ECFF614E20006C
:108AF00031000AF0E7FF3322290004AB009428007C
:108B00000BF07CF8029B1843C3B2200002930EF0D6
:108B100079FB04A80EF076FB390004A80AF0D2FF16
:108B2000554F200039000AF0CDFF3422290004AB54
:108B3000009428000BF062F8029B1843C3B2200097
:108B400002930EF05FFB04A80EF05CFB310004A85A
:108B50000AF0B8FF494E200031000AF0B3FF352279
:108B6000290004AB009428000BF048F8029B18433E
:108B7000C3B2200002930EF045FB04A80EF042FBA6
:108B8000390004A80AF09EFF3D4920000AF09AFF30
:108B90003622290004AB009428000BF02FF8029B2A
:108BA0001843C3B2200002930EF02CFB04A80EF071
:108BB00029FB310004A80AF085FF324F200039005C
:108BC0000AF080FF3722290004AB009428000BF044
:108BD00015F8029B1843C6B220000EF013FB04A840
:108BE0000EF010FB264904A80AF06CFF264920006D
:108BF0000AF068FF04AB38222900009428000AF02C
:108C0000FDFF064320000EF0FDFA04A80EF0FAFA6C
:108C1000390004A80AF056FF1C4920000AF052FF50
:108C200004AB39222900009428000AF0E7FFF6B2CD
:108C300006432000F6B20EF0E5FA04A80EF0E2FAC0
:108C4000002E02D00398FFF7DDFA11B0F0BDC04648
:108C5000EF800200E9800200EE8002002481020021
:108C6000F3800200F9800200FF800200058102000B
:108C70000B81020011810200178102001D81020098
:108C80002381020029810200E68002001E81020089
:108C9000F0B5040085B024200EF09CFA060000F028
:108CA0000BF92300012245331A70012103A80BF0B0
:108CB00019FA4B4D782203A9280002F00DFA03A8F7
:108CC0000BF0F3F931002000FFF7EEFB236C454970
:108CD000002B00D0444903A801F006F8782203A92C
:108CE000280002F0F9F903A80BF0DFF923003C3368
:108CF0001B78002B68D000F0B3FF2700236C009096
:108D000001914637002B07D138480BF07CFC002836
:108D100002D001233B70F7E7354802F007FD002839
:108D200007D001233B70236C002BF5D10133236462
:108D3000F2E700F095FF3B78002B21D0009A019BD1
:108D4000801A9941002902D12A4B98421BD940210F
:108D5000320020000AF0F7FE402103A80BF0CFF903
:108D6000C82203A95200280002F026F903A80BF03C
:108D70009CF9FA20400000F085FD28000CF04AF82C
:108D800000233B70B2E7FA23DB00984206D9232187
:108D9000320020000AF0D7FE2321DEE7FA239B00F1
:108DA000984206D92D21320020000AF0CCFE2D2158
:108DB000D3E7FA235B009842DBD92E213200200052
:108DC0000AF0C1FE2E21C8E72000FFF731FAFA2091
:108DD000400000F057FD2000FFF7DEF961E7C046D4
:108DE000F42100205981020065810200DC2000206E
:108DF000CC2000208813000037B5124D280000F069
:108E00006FF8114C1149220028000EF0DCF9104DCA
:108E1000032302220821280002F006FC22000D494B
:108E200028000EF0D0F900230B4D009301331A00F7
:108E30002800112101F066FB2800220007490EF0EE
:108E4000C2F937BD0421002000200020618E0100FE
:108E5000CC200020B13A0200DC200020EDA401006B
:108E6000CA23144A9B0010B5C2501C330400C0181A
:108E70000BF01BF9D0239B00E0180BF016F9200033
:108E80009130FF3001F032FB20006930FF3001F0FB
:108E90002DFB2000F03001F0ABFE2000D03002F0BE
:108EA000AFFA2000643007F097FD201DFFF768F946
:108EB000200010BDE47A020010B504002300143332
:108EC000E360002323612375236063607E33237294
:108ED00002490C300EF093FA200010BDB985020053
:108EE0001423F0B5040093B0009319221821043024
:108EF00002F01CFD2200250026006432B435132147
:108F000010001092B83607F073FD28000CF0E2FA5A
:108F100000221E2130000BF082FF2000D03002F032
:108F20008FFA2200F03211920621464A119801F080
:108F300083FE20000027012369301A0000971121C9
:108F4000FF3001F0DFFA2000913000970123022268
:108F50001A21FF3001F0D6FA2000B9301A2301217E
:108F60000222FF3002F028FB300001F0D7F8E422A3
:108F70005200A050300001F01FFBE6235B00E050E0
:108F80000100E42220005200D130119BA25800952C
:108F9000FF3001F061FD2000E13029001C22FF308C
:108FA00002F05CFE192320000F93013B0E93013B5E
:108FB0000D93013B0C93013B0B93013B0A93013B47
:108FC0000993013B0893013B0793013B0693013B47
:108FD0000593013B0493013B0393013B0293013B47
:108FE0000193F930013B082200930721013BFF3038
:108FF0000BF036FFCA239B00E018290003F040FE67
:10900000D3239B00E0181D2102F0DCFBDD239B0035
:10901000E7501098277003210DF0E1FD2300220096
:10902000200009499C33A0321C6011605760074A38
:1090300080305A610221012208F070F9200013B03B
:10904000F0BDC04660760200B53C02009F3C0200C5
:109050000123F0B506788FB004001E4000D082E0F6
:109060000300D0331800039300F0EEFA00F0E6F9A5
:1090700028200EF0AFF8050010300BF0B2F86C4B62
:1090800018202B600EF0A6F807006A4B0460082237
:1090900031000C300C930D960EF005FA0CA9381D1A
:1090A00008220EF0E4F9644BAF607B611223EE609E
:1090B000AB802E626E622900039802F035F9002819
:1090C00005D028000AF0A7FF28000EF078F8012349
:1090D00022785A49134323702300B43318000593B0
:1090E0000CF0FEF95649049005980CF0F9F90025AA
:1090F0000690642000F0C6FB2F002E002300693389
:10910000FF33180007930BF07EFA00282DD1049B43
:10911000002B33D1069B002B30D1DD2549494A482D
:10912000AD0000F08FFC6359002B1CD100F09AF8C1
:1091300001000AA800F0D8FD0BA80AF02EFECA23F1
:109140009B00E018069B0BAA0AA90093039B03F05F
:10915000EDFD0BA80AF0A9FF0AA80AF0A6FFCC2390
:109160009B00E35863510FB0F0BD20009130FF30F9
:109170000BF049FA0028CAD0182EC8DC2000653050
:1091800039B22AB2FF23FF30013700F02BFEFFB2C5
:10919000322000F077FB0136052F02D10027013580
:1091A000EDB2049B192E06D0002BA7D023490598B9
:1091B00002F0E8FC01E0002BF8D104980DF0FFFF6D
:1091C00006980DF0FCFF1F491F4800F03BFCCA2326
:1091D0009B00E3180893DD239B00E3580993002BC1
:1091E0001ED100F03FF801000AA800F07DFD0BA899
:1091F0000AF0D3FD01230BAA0AA900930898039B48
:1092000003F094FD0BA80AF050FF0AA80AF04DFFE6
:10921000CC239B00E3580993DD23099A9B00E2507D
:109220002100079AF031089803F07AFF66E7C046FC
:10923000FD030000273D0200E73C0200A68102007A
:10924000B181020000200020001C0020BFF34F8FDE
:10925000024B034ADA60BFF34F8FFEE700ED00E0F8
:109260000400FA05F0B58DB005AF19221549380094
:109270000EF0FDF80022144B05245A71802252058D
:10928000566E012225000194029203930199300049
:1092900008F048FB0800029908F0BEFA019B039908
:1092A0006B430193029B361A6B430293631E2C1B84
:1092B0006C433C19225C1C1ECA54E7D108000DB057
:1092C000F0BDC046C1810200FE270020F0B597B076
:1092D00018220021060010A80EF0E5F8132110A8AE
:1092E0000DF0BCFD032110A80DF087FE4C4B1B6850
:1092F000002B00D10133DBB202934A4A0123002143
:109300000BA807F045FF484B9E4200D9002672B6D5
:10931000464B64211D68464B30000793052408F036
:1093200005FB60435030281808900A21300008F0EF
:10933000FDFA0A2108F0E0FB6143503169180991F8
:1093400030000A2108F0D8FB80236143002450310B
:1093500069189B010A910193029B002B5DD00025A7
:1093600000272E1F07AB9B190593032C03D18023E5
:1093700000249B01019307AB5B592E4A03936300C2
:10938000D31804930023190006205843049A161892
:109390007678B4466246039EB25C10269446049AE0
:1093A000105C62460641164202D0012098400143FB
:1093B0000133092BE8D1C9431F4B059A0901194014
:1093C0001268039B934225D1312F23DC00210BA887
:1093D0000DF0D4FEFA23159A1199DB0010680142B2
:1093E0001BD0013B002BF9D1019B01345B000193A1
:1093F000FA230137E4B25B009F42B6D10435102D49
:10940000AED1074B1B68002BA6D0029F013FFBB2D9
:109410000293A1E7019B1943D9E7FFF717FFC04665
:1094200080240020F0FF0000E7030000042000205B
:1094300010820200DA810200F01F0000F8B500235C
:10944000124C23600AF0CAFC002808D00421200036
:109450000AF0C0FC002801D00D4B2360F8BD0122AA
:10946000A12704250B4B0C491A602268FF004860B5
:109470004E68002EFCD0DE591202013D3243002D11
:10948000F5D1226001225A60E8E7C0467C24002022
:10949000ED5EBC0B00D00040FCD00040F0B585B0C4
:1094A0001F000AAB1B880600029115000393002FD2
:1094B0001BD028200DF08EFE6B4604001989039BFB
:1094C000AAB200933B000AF090FD336821005B686C
:1094D00030009847002806D020000AF09CFD2000AC
:1094E0000DF06DFE024805B0F0BD0248FBE7C04636
:1094F00016FCFFFF17FCFFFF0B4B70B51C68002C20
:1095000010D0656D00F0ACFBA36C002901D1834243
:1095100006D820000AF095FC044920000AF07FFCE0
:109520002C00ECE770BDC04688240020A824002051
:10953000F0B593B007932A4B04AC1E6804900591D4
:109540000692002E4AD0274B258867881C68002386
:109550000293002C2ED0636D23480393A36C9AB220
:10956000A36C1B0C99B2854214D12048824211D1C0
:10957000002B01D0B9420BD1029B002B08D1200057
:109580000AF05FFC1A4920000AF049FC012302930B
:10959000039CDEE7002A01D09542F9D1002B01D0CF
:1095A000B942F5D120000AF04CFC114920000AF024
:1095B00036FCEDE70F4BEB18012B0FD910233A00C7
:1095C000009329000C4B08A80AF00FFD336808A986
:1095D0009B683000984708A80AF01DFD13B0F0BD45
:1095E00084240020B4240020FE030000FF030000B8
:1095F000A824002002FCFFFF3195010010B572B6CF
:109600000B4B1C68002C08D020000AF01AFC002329
:10961000E364084B2000E36310BD62B65C200DF0EC
:10962000D9FD5C22002104000DF03DFFEFE7C046AC
:10963000AC24002000400020024B18780123184081
:109640007047C04604280020F7B50600FFF7F4FF76
:10965000051E33D11A4C2660FFF7D0FF194B1A496B
:1096600018600AF0DCFBFFF7C9FF184B1860184BB5
:109670004363184B8363206800280ED0C027164E22
:109680002A00330015490097FFF708FF00973300C1
:109690002A0013492068FFF701FF0C200DF09AFD06
:1096A0000023838083710F4B03600F4B836000F0B6
:1096B000EFFA01230D4A11780B431370F7BDC04632
:1096C00084240020B8240020A8240020B0240020F6
:1096D000FC3F0020093F020031950100FF0300001C
:1096E000FE03000080760200F994010004280020A7
:1096F000F7B506000D0017000193002802D10024E1
:109700002000FEBD0029FAD0FFF778FF041EF6D036
:10971000074B019A4363066045608760054B002A4A
:1097200000D0054BA363054920000AF078FBE7E76A
:10973000FC3F0020D33E0200F13E0200A82400209E
:10974000024B1868434258417047C046A824002085
:10975000002310B504499C006258002A01D001334F
:10976000F9E76050100010BD90240020002310B5D0
:10977000044A99008C58844201D00133F9E7002053
:10978000885010BD9024002010B50024084BA20082
:10979000D058002802D003685B6898470134062C33
:1097A000F4D1044B1B68002B00D120BF10BDC04674
:1097B00090240020A8240020F8B5FFF73DFF0028E2
:1097C0001CD02A4D2C68E36CDA0718D502273B43DE
:1097D000E364274B1E680423F26C30001343F364E8
:1097E000636BF3630AF053FB3000716C04F08DF887
:1097F0002868C36C3B4201D004F0C1F8F8BD1D4F8E
:109800001D4E3A683168002A1ED129602A689142AB
:1098100008D11B0706D52C60FFF7B6FF3B68002B6D
:10982000FAD02B6029688C42E8D03368994214D171
:10983000124B4B63124B8B6320000AF028FB296804
:10984000626C4B6C20000DE0206DB84203D1606D5E
:10985000002800D002002A60D8E79C42ECD1002208
:1098600010004B6C04F010F8C8E7C046B824002084
:109870008C240020A8240020B0240020FC3F0020DD
:10988000093F020070B50500FFF7D6FE002803D19E
:1098900028000DF0A6FB70BD0C4B1C68E36CDB07C9
:1098A00006D5FFF7ABFE0A4B1860002800D0040075
:1098B00000F0D6F92D18A56420000AF0C2FA054977
:1098C00020000AF0ACFAFFF777FFE4E7B8240020A5
:1098D0008C24002088240020F0B51E4B1E4F1C68ED
:1098E0003B6885B006000391002B30D0FFF7A4FE43
:1098F00000282CD0E36CDB070ED5FFF77FFE174B5B
:10990000051E186008D00AF09CFA154928000AF0D4
:1099100086FA2C00FFF750FF039B20001B04334303
:10992000A3640AF08EFA20000E490AF078FA0E4B72
:109930000024F318012B07D9C0230093039A0B4B83
:1099400031003868FFF7AAFD200005B0F0BD084CD3
:10995000FAE7C046B8240020842400208C2400208C
:10996000A8240020B424002002FCFFFF3195010050
:1099700016FCFFFF10B5FFF75FFE002809D0054C6D
:1099800020680AF05EFA044920680AF048FAFFF7F6
:1099900013FF10BDB8240020AC240020F7B5070049
:1099A0000D0000282ED0FFF747FE00282CD00724FA
:1099B000164E3068C36C1C4007D0154A2900380089
:1099C0000AF056FA00242000FEBD03F0C0FF022179
:1099D0003268D36C1940019103D003218B43D364C7
:1099E000F1E701242343D3642800B8473268D36CDD
:1099F0001900A143D164019C5B07E4D528000AF05B
:109A00006FFAE0E7034CDEE7034CDCE7B824002004
:109A1000E13E020017FCFFFF16FCFFFF020010B53D
:109A2000014B12CB12C210BDBC240020034B1A689C
:109A3000034B1A607E225A607047C0460420002003
:109A4000BC24002070B5114E3278022A1AD081420F
:109A50001AD90C1A072C17D90D00032305432B40E4
:109A600012D172B60A4DD2005051AA18516080220C
:109A7000A40812061443046032780132327062B6D0
:109A8000180070BD0348FCE70348FAE706280020E9
:109A9000C424002013FCFFFF17FCFFFF70B5134C1C
:109AA00006002378124D002B0CD1124912482B705E
:109AB000FFF7C8FF114B984202D11E20FFF706FCAA
:109AC0000123237000242B78A34209DD0C49E30015
:109AD000C91830000AF01EFA002805D10134F2E757
:109AE0001420FFF7F3FB002070BDC04605280020BE
:109AF0000628002000380020D028002017FCFFFF97
:109B0000C424002070B5002819D0104B10491C78CF
:109B100000239C4216DDDA005558854210D28A187F
:109B2000526882420CD9041F2368002B02DC1E20DD
:109B3000FFF7CCFB802322681B061343236070BD14
:109B40000133E6E71E20FFF7C1FBF8E706280020F7
:109B5000C424002070B5051E14DD0B4E0B4C336879
:109B6000002B02D020680DF0B7F8FA2120680024FD
:109B7000074B89008361C462694335600DF0B4F816
:109B8000200070BD0348FCE7D424002004250020F9
:109B90003D9C010017FCFFFFF8B5114F06003D6822
:109BA000002D0AD130200DF015FB040006F044FF13
:109BB0000C4BA5612360E5623C600B4D2B68002BCC
:109BC00009D110200DF006FB04000DF04EF8200026
:109BD0002C600DF024F83000FFF7BCFFF8BDC04644
:109BE00004250020807E020000250020014B18681B
:109BF0007047C046D424002070B50D4C2368002B5C
:109C000003D00C4B1B68002B02D10620FFF7C4FFCA
:109C100020680DF01BF802000749C3170D684E6855
:109C20005219734120680A604B600DF015F870BD41
:109C30000025002004250020A820002010B5FFF7F3
:109C4000DBFF0024054BA200D058002802D0036897
:109C50001B68984701340A2CF4D110BDD824002089
:109C600010B5FFF7C9FFFA22034B92001868596834
:109C7000002307F081FF10BDA820002010B5FFF7DA
:109C8000BBFF024B1868596810BDC046A8200020D1
:109C90000B4B10B51B680400002B03D0094B1B684D
:109CA000002B02D10620FFF777FF0023064A990018
:109CB0008858002801D00133F9E78C5010BDC04608
:109CC0000025002004250020D8240020002310B502
:109CD000044A99008C58844201D00133F9E70020EE
:109CE000885010BDD824002010B50400002902D0EF
:109CF0000B78002B03D1034B2360200010BD0AF02A
:109D0000DBF9FAE790760200F8B504000E001500C2
:109D100000290AD00B78002B07D0002A05D00800B4
:109D200097B20DF000FC874203D90B4B2360200053
:109D3000F8BD681DFFF7B2FE20600AF06CFB2368D7
:109D40002A005F8023683100181D0DF090FB236806
:109D50005D1900232B71EAE790760200014B036046
:109D60007047C0469076020010B50548054C20604B
:109D70000AF054FB044A054920000DF024FA10BDF6
:109D8000907602000825002000200020AB40020051
:109D9000084B73B51C680500002C0AD0010026682A
:109DA0000831082268460DF062FB0CCD31682000B6
:109DB000884773BD0C250020014B03607047C046E7
:109DC0009876020010B50400002903D1044B03600B
:109DD000200010BD016008000AF020FBF8E7C04633
:109DE0009876020030B500684488A1420CDA858874
:109DF000AA4209DA002907DB002A05DB5443401890
:109E000000198371002030BD0048FCE717FCFFFFFC
:109E1000F0B5070085B00E001D00002921DD002AE5
:109E20001FDD002B1DD00468638803938B4200DD87
:109E30000391A3880293934200DD0292002306342B
:109E40000193019B029A93420EDA29002000039AA3
:109E50000DF00DFB3B68AD195B88E418019B0133E5
:109E6000EEE7024805B0F0BD0020FBE717FCFFFF5E
:109E7000F8B504000D0016001F00002901DB002AC0
:109E800002DA0E4B2360F8BD100048430630FFF79E
:109E900005FE20600AF0BFFA23685D8023689E807B
:109EA000002F06D03B00320029002000FFF7B0FF52
:109EB000E9E720000AF0E6F9E5E7C04698760200F7
:109EC000F7B506000D1E03D1244B03603000FEBD24
:109ED00000200F000400010001903B78002B1AD0F5
:109EE0003022524294469C446246092A11D90A2BD8
:109EF0000AD1019B241801330193A14200DA210009
:109F0000002004000137E8E70028FBD001340020DE
:109F1000F8E70120F6E70127019A09B212B23000F2
:109F20007F42FFF7A5FF39000A2033689A1D2C787D
:109F3000002CCBD02300303B092B08D8FB43DB1788
:109F40003B4043431B19303B1F000135EFE7002F17
:109F5000FBDB177001320F00F7E7C046987602006E
:109F6000F0B5040089B006A80E0002921D00FFF7AC
:109F700055FD236802995A88914235DA9B889D42A3
:109F800032DA1F2E30D9079B01939E422CDC052329
:109F9000002273430393069B0493039B04999B182D
:109FA000A03BCB5C00210593AE18029BCF18236821
:109FB0005888019087420EDA9888B0420BDDDB1991
:109FC00010270F41019870431B1805980740781E11
:109FD00087417F429F7101310529E6D10132052A6F
:109FE000DBD1002009B0F0BD0048FBE717FCFFFF04
:109FF000F7B50468070063880E1E01931EDD9942C1
:10A0000018DA0023063400933B68009A9B889A4232
:10A0100012DA019BA1199D1B2A0020000DF027FADE
:10A02000601931000AF011F93B685B88E418009B65
:10A030000133E8E70AF026F9002000E00048FEBD01
:10A0400017FCFFFF10B50548054C20600AF0E6F943
:10A05000044A054920000DF0B6F810BD98760200BC
:10A0600010250020002000203D42020010B5054CC4
:10A07000012120000AF0C6F9034A044920000DF02E
:10A08000A2F810BD1425002000200020C1430200CA
:10A090000388074A10B50120934208D0834202D0BA
:10A0A0000020DB0703D41E20FFF710F9002010BDAD
:10A0B000FFFF00000048704716FCFFFF10B532207C
:10A0C000FFF704F9004810BD16FCFFFF10B5124C55
:10A0D00000230834828004604162022414220100BB
:10A0E0008371847203638386028136310A78C36088
:10A0F000A243F1342240036143618361C36103627F
:10A100000A70020040321370021DD3870133438767
:10A110008387C38710BDC046B8760200F0B5544FA0
:10A1200097B03B6806000593002B00D08BE006AC8F
:10A130000B331C222121200001F076FA0EAD0B23F7
:10A140001D2222210AA801F06FFA0B231B222321D2
:10A15000280001F069FA08200DF03CF80122059B67
:10A16000110004900BF0E7FC3A2130000BF03DFAAF
:10A1700000281DD0A38812ADAB80A3795C20AB7101
:10A180003C4B1293A3681493237B2B73637B6B73F9
:10A19000A37BAB730DF01EF80423019336330093B9
:10A1A0002A00049B3100040002F05CF83C604AE0A5
:10A1B000322130000BF047FA00281CD0A38812ADE2
:10A1C000AB80A3795C20AB712A4B1293A3681493E4
:10A1D000237B2B73637B6B73A37BAB730CF0FAFF56
:10A1E000042301932E3300932A00049B31000400C2
:10A1F00002F0D6F9DAE73C2130000BF0DFF9002855
:10A200002CD0AB8812ACA380AB79A420A371194BDE
:10A210001293AB6814932B7B23736B7B6373AB7BC1
:10A22000A3730CF0D7FF052305000293013B0193B4
:10A23000383300932200049B310001F031FF0E4BB4
:10A240003D6044351D600C4B094C1868002802D055
:10A2500021680AF046FA206817B0F0BD44200CF0DF
:10A26000B9FF042204990400FFF730FF9EE7C046BF
:10A2700018250020A87602001C250020F0B56149B1
:10A28000C56885B08D4254DA0300022236331B784C
:10A29000134059D104698C4264DA020036321278D4
:10A2A000520768D4426901920200019E40328E42F8
:10A2B0006FDA010036310978090774D4002B7DD19B
:10A2C00013780293002B16D006000127011DCB8FB7
:10A2D000363601339BB2CB8703963678BC4637407F
:10A2E00000D188E01D2B06D963469E43039B1E7058
:10A2F0000023CB8713700AF0D4F8434A0723904217
:10A3000076D94249043B8D4272DBC8220133920068
:10A3100095426DDC023B8C426ADB013B944267DC78
:10A3200001980433884263DB0133904260DC0023F0
:10A330005EE0C822002352009542ABDD03003633B5
:10A340001A7800239207A5D4012306001F00363691
:10A3500032785408A7433C0002279C40BA4322436A
:10A36000327097E7C822520094429BDD02003632D9
:10A370001278520796D406000122363633789F08A9
:10A38000BA439700042293431A003A4332700123E0
:10A3900088E7C821019E49008E428FDD01003631D9
:10A3A000097809078AD40100012636310B78DF08C5
:10A3B000BE430827F600BB4333430B701378032BCF
:10A3C00000D97DE70133DBB21370012B03D10021EB
:10A3D000031DD98774E7042B00D071E702003632E1
:10A3E0001178033B0B43137000230430C3870B33F6
:10A3F000180005B0F0BD092B00D87CE7029BCF8781
:10A40000013B77E770FEFFFFFF700200E0FCFFFFFB
:10A4100070B5C369C1681A68451D8AB00400EB7F36
:10A42000114255D0002B58D1EB7F082B0DD90122BA
:10A43000A379134209D11343A371A188130006A87D
:10A4400009F0D9FEFFF70CFC2062EB7F012B23D82B
:10A450000123A2791A421FD00025A188A5710222EA
:10A4600002A809F0C8FEA31DDE7F012E14D1FFF75C
:10A47000F7FB2B00226A801A994100900191019B01
:10A48000A188AB4203D1174B009A9A4227D90123E6
:10A49000042206A809F0AFFE0322A3791340012B82
:10A4A00014D1FFF7DDFB0023226A801A99419942FB
:10A4B00002D10D4B984209D90223A279A1881343F6
:10A4C000A3710522012306A809F095FE0AB070BD0C
:10A4D0000B2BA9D80133EB77A6E7013BFBE7330051
:10A4E0000322D6E7E7030000DB05000010B50400F7
:10A4F000034B08330360FFF7E9FB200010BDC046A3
:10A50000EC760200F0B5070000250E00040085B0CF
:10A5100002930AAB1B78083703930F4B0192083361
:10A520000360858085712900182238000CF0BBFF7C
:10A53000039A310038000CF096FC019B029AA3802C
:10A54000A31DE671DA77631D25622000DD77FFF732
:10A550009FFB200005B0F0BDEC760200004870477C
:10A5600016FCFFFF10B53320FEF7B0FE004810BD0B
:10A5700016FCFFFF002310B50400838083710D4893
:10A580002164083020608020C000A061E06120626A
:10A59000E3602000236163616362A362E36223637B
:10A5A0006363A363E363636411000AF072F820003D
:10A5B00010BDC04604770200F0B5534F97B03B681A
:10A5C00006000593002B00D08BE00B331C222121C9
:10A5D00006A80AAC01F028F80EAD0B231D2222219B
:10A5E000200001F021F80B231B222321280001F079
:10A5F0001BF808200CF0EEFD0122059B11000490D1
:10A600000BF099FA1D2130000BF006F800281DD040
:10A61000A38812ADAB80A3796020AB713B4B129342
:10A62000A3681493237B2B73637B6B73A37BAB7344
:10A630000CF0D0FD05230193183300932A00049BEE
:10A640003100040001F0E2FE3C604AE03C213000B1
:10A650000BF010F800281CD0A38812ADAB80A379B2
:10A660006020AB71294B1293A3681493237B2B7347
:10A67000637B6B73A37BAB730CF0ACFD0523019381
:10A68000373300932A00049B3100040002F02AF8BB
:10A69000DAE73C2130000AF091FF00282AD0AB888D
:10A6A00012ACA380AB79A420A371184B1293AB68B2
:10A6B00014932B7B23736B7B6373AB7BA3730CF0C3
:10A6C00089FD052305000293013B01933833009374
:10A6D0002200049B310001F0E3FC0D4B1D6044356A
:10A6E0003D600B4B084A1B681068002B00D0436488
:10A6F00017B0F0BD48200CF06DFD05220499040050
:10A70000FFF738FFA0E7C0461C250020A87602000E
:10A710001825002082B0F0B50400EDB064207393DA
:10A7200072920CF05EFC052210A8110009F0B3FD36
:10A73000974911A8FFF7C4FB002221AB6CA91A604E
:10A740005A609A600C339942F9D11922002113A85A
:10A750000CF0A9FEA0680AF05BFB00260B90FF211D
:10A76000A06800F047FD8B4FA06800F05DFB0796E6
:10A770000996884B9F4203D0874B9F4200DBFDE048
:10A78000A0680AF047FBA56884491AA8FFF7ACFA4D
:10A7900078221AA9280000F075FC1AA809F085FC97
:10A7A00000267C4F0322099B606801331A400992FE
:10A7B00009F00FFF0500606809F012FF0022784BD6
:10A7C00005929D4210DB013205922A00C8320BDB54
:10A7D000AA22042192000591954205DC02220592ED
:10A7E000C82D01DD0132059200220692984210DB4D
:10A7F000012306930300C8330BDBAA2304329B001A
:10A800000692984205DC02230693C82801DD013335
:10A81000069310A809F036FD002513ABEB5C012B65
:10A8200008D160496B00CA185278C95C10A8FF2390
:10A83000FFF7D8FA0135192DEFD16B4618229A5E31
:10A840006B4610A81421595E099BFFF7CBFA002F25
:10A8500001DB0F2E07D90023A068009374301A0083
:10A8600010A909F025FD01230893089B05995A00BA
:10A870004C4B9B189A1E12788A4226D1013B1B78BA
:10A88000069A934221D1089A6CAB9B18663BFF3B1A
:10A890000A931B78012B18D00C23079A2168534385
:10A8A0001D0000220CA809F01EFF21AA2B009446CF
:10A8B0000CAA634423CA23C301220A9B01361A70DF
:10A8C000079BF6B20133DBB20793089B0133089371
:10A8D0001A2BCAD164200CF084FB079B643F3FB263
:10A8E000182B00D845E71A0021A91AA80AF009F97F
:10A8F0006A461DAB23CB23C21B6813601A991B9AAF
:10A900001C9B206809F0D7FEE568002D0CD0264975
:10A9100012A8FFF7E9F91C231AAA12A928000AF0C5
:10A9200018FE12A809F0C1FBA0680AF073FA11A979
:10A9300012A8A56809F08FFC00221C4B009212A9F6
:10A9400001932800130000F00DFB12A809F076FC1B
:10A95000FA2080000CF045FBA0680AF05BFA0B9926
:10A96000A06800F047FC11A809F068FC10A809F0E5
:10A9700065FC6DB0F0BC08BC02B01847002F02D0D7
:10A980000F2E00D00EE7A06800F04EFA0AE7C0468E
:10A99000F08302008C3C0000D18AFFFF3584020066
:10A9A00058FDFFFF558402004A840200DC050000C8
:10A9B000F0B587B001930EAB1B88060003930D9B87
:10A9C0000D000093019B02920C9F002B3CD0002FA6
:10A9D00002D1009BDB0737D528200CF0FBFB0400DD
:10A9E000103009F0FEFB029B1820258063800CF0DC
:10A9F000F1FB0500009B08220593019B00210360E9
:10AA00000C3004970CF04FFD082204A9281D0CF00F
:10AA10002EFD0E4B02226B6100230399E36023623B
:10AA2000636233680A43A560A2805B68210030003E
:10AA30009847002806D0200009F0EDFA20000CF01D
:10AA4000BEFB034807B0F0BD0248FBE72747020002
:10AA500016FCFFFF17FCFFFF70B58CB08360109BE6
:10AA600001604260C3600400184918000AF038FD14
:10AA7000051E14D001001C22103105A80CF0F7FCB3
:10AA80006A4608AB43CB43C21B6813602068059934
:10AA9000069A079B09F00FFE28000CF090FB0C4B68
:10AAA000186800280ED00B4A05AB059200220692CA
:10AAB000C03202926A4622CB22C223000322052121
:10AAC000FFF776FF20000CB070BDC0464A8402003C
:10AAD0000C25002015A70100F0B5040085B0637AAD
:10AAE0009C46002B04D120000AF029F805B0F0BDE7
:10AAF000A37A266F01931023019AF35600259B1821
:10AB000001229A402900F36803920293029BAB4210
:10AB100031DDB368019A6B439B1872695B00E77A79
:10AB2000D3181A785878E379012F14D15F1E3F1A91
:10AB300010003A005B004343606F8218D3189B7982
:10AB4000634500DD6346627B1A4202D00123AB40BD
:10AB500019430135DAE7022F05D15F1EBA1A277AA9
:10AB6000013F381AE6E7032FE4D1277A013FBF1AE5
:10AB700002003800DEE71123C943F356606C9940A8
:10AB800023691940039B19430CF0F8FAA27B072AAA
:10AB9000ACD8637B0C495B006373531CDBB2900041
:10ABA0004158A373022A03D808000CF00FFA96E765
:10ABB000064B2000236300236363054BE462236498
:10ABC00014300CF091F891E730770200D9AA010017
:10ABD000294B020010B50400044B03600CF07CF814
:10ABE000200005F03FFF200010BDC046807E02001F
:10ABF00010B504000E4B08330360FFF767F8200020
:10AC0000743009F01BFB2000603009F017FB2000B6
:10AC1000583009F04AFA2000503009F046FA200076
:10AC2000044B14306361FFF7D5FF200010BDC04610
:10AC300050770200B47E0200F8B500250400324BC4
:10AC40008580083303608571143016000F0005F00D
:10AC5000F3FE20002D4BE562636125645030FFF761
:10AC60007DF820005830FFF779F820006030FFF7BA
:10AC7000A3F820000423F25E33682667590009B266
:10AC8000743009F008FB3368226FE37173680126A2
:10AC9000237210236581A7802561D35691685918C6
:10ACA000994204DD3000984001330543F8E7112351
:10ACB0000120D356D1685918994206DD02009A4006
:10ACC0002669013332432261F6E714200CF082FA40
:10ACD000226900212A430123060006F059FAFF23C6
:10ACE000220063720133A381002348326664A37398
:10ACF00020001370A366FEF7CBFF0123A27920008A
:10AD00001343A371F8BDC04650770200B47E020021
:10AD1000F0B5437A85B00400002B04D1200009F07F
:10AD20000EFF05B0F0BD0122837A11009C4610236E
:10AD3000066F0025F356039263449940029129005F
:10AD4000F3680193019BAB422CDDB36872696B43DE
:10AD500063445B00E77AD3181A785878E379012FB7
:10AD600010D15F1E3F1A10003A005B004343606F32
:10AD70008218D3189B79002B02D0039BAB40194358
:10AD80000135DFE7022F05D15F1EBA1A277A013F8E
:10AD9000381AEAE7032FE8D1277A013FBF1A0200E9
:10ADA0003800E2E71123C943F356606C99402369E8
:10ADB0001940029B19430CF0E1F9667AB31EDBB22D
:10ADC000FC2B14D8FEF712FF0B4B05002363002366
:10ADD0000A4863630A4BFF21E4622364704306F070
:10ADE000A5FD29004143200014300BF07DFF637A5C
:10ADF000012B00D995E791E73F4B0200B603000015
:10AE0000294B02001FB5012381881A00684609F00A
:10AE1000F2F9012303491A00684609F0ECF905B07C
:10AE200000BDC046FE0300001FB5030048331A787A
:10AE30000400002A0DD000221A70012381881A0014
:10AE4000684609F0D8F9012304491A00684609F058
:10AE5000D2F92000743009F015FA1FBDFF0300007D
:10AE600010B548300378002B06D00378012B03D0AF
:10AE70000121024809F024F810BDC046FF0300007C
:10AE800010B501210400062009F01AF8064B98427B
:10AE900008D148342378002B04D02378012B01D02B
:10AEA00020BFF7E710BDC04616FCFFFF70B50600D7
:10AEB000141E19DB050048352B78002B02D02B78A7
:10AEC000012B13D1002330001A007430FFF748F82B
:10AED000002C07D033004A331C80002407234C3653
:10AEE00034802B70200070BD014CFBE7014CF9E76A
:10AEF00017FCFFFF12FCFFFFF8B517000A680500FA
:10AF000052880B00012A09D10021180009F05CF9D0
:10AF1000002201002800FFF7C9FFF8BD002F19DD4E
:10AF2000060048363278002A02D03278012A13D13E
:10AF30002A00002428005C3219001480583009F0DF
:10AF40001EF92B004A331F8003234C352C80200030
:10AF50003370E2E70148E0E70148DEE717FCFFFF56
:10AF600012FCFFFF73B5079C0500002C1CDB0600DC
:10AF700048363078002802D03078012816D106985B
:10AF80001BB2C0B20090280012B2743009F090F9E0
:10AF9000002C07D02B004A331C80002407234C359B
:10AFA0002C803370200076BD014CFBE7014CF9E7A3
:10AFB00017FCFFFF12FCFFFFF7B505000E00171E80
:10AFC00026DDFFF74DFF2B0048331C78E4B2002C40
:10AFD00020D133685B88012B09D12100300009F0B2
:10AFE000F3F8220001002800FFF760FFFEBD3100EA
:10AFF00001A809F0BCF83A0001A92800FFF77CFF7E
:10B0000001A809F052F82800FFF73AFF2000EDE709
:10B010000148EBE70148E9E717FCFFFF11FCFFFFE0
:10B02000F0B587B00D9C06000F0002920393002C30
:10B0300020DBFFF715FF330048331D78EDB2002DFC
:10B040001AD1390005A809F006F90C9B0194009368
:10B05000029A039B05A93000FFF784FF05A809F0B9
:10B06000EDF8002C03D03000FFF70AFF2C00200081
:10B0700007B0F0BD014CFAE7014CF8E717FCFFFF01
:10B0800011FCFFFFF8B50400171E1DDD0600483651
:10B090003378002B02D03378012B17D12200E379CB
:10B0A0005632013B137023000025200054331D80CD
:10B0B000503009F064F823004A331F80022328002F
:10B0C0004C3425803370F8BD0148FCE70148FAE7AD
:10B0D00017FCFFFF12FCFFFFF7B505000F00161E5F
:10B0E00018DDFFF7BDFE2B0048331C78E4B2002CBE
:10B0F00012D1390001A809F03AF8320001A928005C
:10B10000FFF7C0FF01A808F0D0FF2800FFF7B8FE46
:10B110002000FEBD0148FCE70148FAE717FCFFFFED
:10B1200011FCFFFFF8B50400171E2DDD06004836A0
:10B130003278002A02D03278012A27D15D42069B5C
:10B14000FF331FD16B1D22001BB26432138023001A
:10B15000200066331D70603009F085F8230000225E
:10B160006C331A70954200D03D0023004A331D8095
:10B17000079B00205A1E9341013F4C340533278022
:10B180003370F8BD069BDEE70148FAE70148F8E7AF
:10B1900017FCFFFF12FCFFFFF0B587B005000F00A2
:10B1A000161E03931EDDFFF75BFE2B0048331C7851
:10B1B000E4B2002C18D1390005A809F04CF80D9B19
:10B1C000320001930C9B05A900932800039BFFF715
:10B1D000A9FF05A809F032F82800FFF751FE20006A
:10B1E00007B0F0BD0148FBE70148F9E717FCFFFF96
:10B1F00011FCFFFFFF2902D841720020704701486F
:10B20000FCE7C04617FCFFFF13B5040004A8007854
:10B21000009020000BF08EFD002801D1207516BD96
:10B220000048FCE70EFCFFFF13B5040004A80078FB
:10B23000009020000BF066FD002801D1207516BD9E
:10B240000048FCE70EFCFFFF7FB50D0011000F2248
:10B250006A4404001E1E117016D0089B002B13DDDB
:10B26000012329000093FFF7DFFF002802D00748E1
:10B2700004B070BD0090089B320029002000FFF749
:10B28000C3FF0028F4D0F2E70148F1E70EFCFFFF0E
:10B2900017FCFFFFF7B507000D1E3FD00023022665
:10B2A00004690193002C35D0AA88A3885340334207
:10B2B00004D1324204D1AB88334226D0646AF1E72C
:10B2C000A968A0680AF01CFC0028F4D02B88002B89
:10B2D00002D022889A42F1D16B88002B02D062887A
:10B2E0009A42EBD1EB68E268934201D0002BE5D1A2
:10B2F0007B68002B01D020009847A288084B13439D
:10B30000A380019B01330193D8E7A368AA68934205
:10B31000D4D1DBE7019B2000002B00DC0148FEBDFF
:10B320000080FFFF17FCFFFFF0B5060085B00D1E83
:10B330005DD001270469002C26D00221AA880023B1
:10B340000A4202D0A3885B083B40226829688A42EF
:10B3500014D1A068A968002B0ED00AF0D1FB0028F8
:10B360000CD0EB68E268934208D1A3881AB2002A95
:10B3700006DB204805B0F0BD8842F2D0646ADAE707
:10B380005B045B0CA380F4E730692A88002807D1AE
:10B39000356101231849684608F02DFF0020E9E7D0
:10B3A000010003001C88944206D25C6A1900002C3C
:10B3B0000DD02300F6E723001C88944207D15F8854
:10B3C0006C88A74203D85C6A1900002CF3D188422C
:10B3D00009D10B889A4204D305D148886B889842DA
:10B3E00001D96962D4E74B6A6B624D62D1E70348C9
:10B3F000C0E7C04616FCFFFFFD03000017FCFFFF7F
:10B40000064B10B51A00040008322C33026083602A
:10B410000830FEF7ABF9200010BDC0466877020087
:10B4200008B4024B9C46083808BC604701B40100D0
:10B4300008B4024B9C46083808BC6047874F02009E
:10B440000C4A002311002C32083110B5436083816F
:10B4500083738260036143618361C383016004007D
:10B460000830FEF775F9044B1A68002A00D11C60F9
:10B47000200010BD687702000C250020F7B50E00F3
:10B48000012504690192002C36D0238832889A4223
:10B4900001D0002B23D1638872889A4201D0002BFF
:10B4A0001DD1FEF7C9F80123002806D0C022A388C9
:10B4B0001340C03B5A425341DBB2019A934219D127
:10B4C000A7883BB2002B15DB10223100A0180BF02F
:10B4D000CEFF40231F4204D0200009F05DFD646AC6
:10B4E000D1E7FEF7A9F80028F6D021000348FEF7BF
:10B4F00055FAF4E70025F2E72800FEBD994F020057
:10B5000008B4024B9C46083808BC60472151020031
:10B51000F0B587B001930EAB1B88060003930D9B1B
:10B520000D000093019B02920C9F002B3CD0002F3A
:10B5300002D1009BDB0737D528200BF04BFE04001F
:10B54000103008F04EFE029B1820258063800BF01F
:10B5500041FE0500009B08220593019B002103602A
:10B560000C3004970BF09FFF082204A9281D0BF054
:10B570007EFF0E4B02226B6100230399E36023627E
:10B58000636233680A43A560A2805B6821003000D3
:10B590009847002806D0200008F03DFD20000BF061
:10B5A0000EFE034807B0F0BD0248FBE75B51020006
:10B5B00016FCFFFF17FCFFFFF0B504001600002586
:10B5C0008380164A164B857102602181468105737E
:10B5D000186889B08C46A8421DD0124A059504927D
:10B5E000C02202926A4604AB82CB82C223002A00A8
:10B5F0006146FFF78DFFC022094B0A491868029285
:10B600006A46069106AB079582CB82C223002A00C8
:10B610003100FFF77DFF200009B0F0BDAC770200DC
:10B620000C2500208552020030B50024037301234D
:10B63000034D84710560818082734373846030BDE3
:10B64000A876020070B583790400DB0702D5806814
:10B650000BF0B5FDA3799B0702D5A0680BF0AFFDF9
:10B66000A3795B0707D5A0230021144ADB00D15042
:10B67000A0680BF0A4FDA3791B0708D5A568002DD1
:10B6800005D028000AF0ADFA28000BF098FDA37948
:10B69000DB0605D5A068002802D00368DB68984760
:10B6A0006023A2791A4205D0A068002802D003685E
:10B6B0005B6898470023A360A37170BD00700040D1
:10B6C000F7B50227037B04000D003B4226D0012979
:10B6D00026D886793E40009614D1FFF7B3FF182094
:10B6E0000BF078FD0E230600E35618220099019313
:10B6F0000BF0D9FE019930000BF0C7FBA379A660CF
:10B700003B43A371A3685A68002D04D00025DB6871
:10B710001A602800FEBD1B691A60FAE7014DF8E7C0
:10B72000014DF6E716FCFFFF17FCFFFFF7B50126FA
:10B73000037B040033422AD0612385791D4017D151
:10B74000FFF780FF18200BF045FD0E230700E3569E
:10B7500018220093637B290001930BF0A4FE019A49
:10B76000009938000BF07FFBA379A7603343A371E6
:10B770006023A279A0681A4202D00BF029FAFEBD1C
:10B78000436940681B681840431E9841F7E7014829
:10B79000F5E7C04616FCFFFF10B50124837941731D
:10B7A0001C4004D080680BF028FC002010BD6022F3
:10B7B000134203D080680BF012FAF6E70048F5E771
:10B7C00016FCFFFF70B5040000250C4B0E0008337B
:10B7D0008580857103602100183009F004FE200087
:10B7E0002100203009F022FE054BA680E58025725D
:10B7F000E5602561656120001C6070BDBC770200BA
:10B80000202500208379DB0702D5C1600020704726
:10B810000048FCE716FCFFFF8379DB0701D5C06811
:10B8200070470148FCE7C04616FCFFFF70B545694C
:10B830000400002D22D0037A032B21D8FFF7ECFF60
:10B84000A8622C200BF0C6FC2C22002105000BF076
:10B850002AFE002263695A622369934208D1636910
:10B8600023610020237A65610133237270BD1300C8
:10B870005A6A002AFBD162695A62F2E70148F5E789
:10B880000148F3E717FCFFFF13FCFFFF144B70B5F3
:10B890005A68144C002A03D000225A600132A26078
:10B8A0001A69002A17D0002119618023DB000E4D90
:10B8B000E3582868012B0FD1A923DB00E158494246
:10B8C000FFF7A0FF2868FFF7B1FF2B685A69074B05
:10B8D000E2500123A36070BDFFF794FFF9E7C04673
:10B8E000FC1000400010004020250020040500004E
:10B8F00003000069002809D00221054AD167426A85
:10B900001A611A7A013A1A72024B19607047C046DE
:10B9100004E100E000E100E010B5002903DB024B88
:10B9200019600BF057FA10BD2425002070B50400F3
:10B930001E0004AB1D7805F0C7F820000E4B403008
:10B940002360FEF70BFA230001364C330135220049
:10B950001E701D730023E1214E32A36463651380C2
:10B9600053809381D381013B200063644902FFF738
:10B97000D3FF200070BDC04658760200F7B580277F
:10B980007F053D697C690822113C6C43060021005B
:10B9900068460BF06CFD104B009A9A4219D0009348
:10B9A00000230193796930001339694309F053FD8D
:10B9B000019A0099300009F066FD2100300009F07D
:10B9C0004AFD7969AB08133969432200300009F058
:10B9D0004CFD0198FEBDC046FECA0000F0B50D004A
:10B9E000A9B00D9200213022060010A80B930BF095
:10B9F0005AFD28000BF097FD431C0C93102B00D927
:10BA0000B5E00B9B202B00D9B1E02900300009F0F4
:10BA100067FD071E50D129000C9A10A80BF027FDD6
:10BA20000D990B9A14A80BF022FD80235B051A696F
:10BA30005F690C92113F7A4330005D690B92FFF70A
:10BA40009DFF3022002104001CA80BF02CFD2900D2
:10BA500000270C9B13395943300009F0FCFC0D976B
:10BA600030257D430B9B0833ED18A74242DA2900AD
:10BA700030221CA80BF0FBFC10A91CA80BF049FD00
:10BA8000002827D13C49300022000E910F9409F084
:10BA9000FAFC6A46099513AB23CB23C223CB23C2FE
:10BAA00023CB23C23000129B1099119A09F0F9FCA4
:10BAB00001230D930137D3E710300B9A0D990BF04A
:10BAC000C7FC040038000BF07AFB002CA3D1200047
:10BAD00029B0F0BD6A4609951FAB23CB23C223CB07
:10BAE00023C223CB23C230001C991D9A1E9B09F050
:10BAF000D8FCDFE7E5433023ED1725405D430B9B82
:10BB000008355D190D9B002B1DD10C9B3021981E13
:10BB100005F082FEA0422CD01749013430002200EB
:10BB20000E910F9409F0AFFC6A46099513AB23CB35
:10BB300023C223CB23C223CB23C230001099119AF6
:10BB4000129B09F0AEFC0B99300009F084FC8023B5
:10BB50005B0559690C230C9A133963434A4302333A
:10BB6000110030000B9A09F080FC0024AFE7034C71
:10BB7000ADE7034CABE7C046FECA000017FCFFFF71
:10BB800013FCFFFF8023F0B55B051A6995B00392A3
:10BB90005A6905910399113A51435D69039B133D1D
:10BBA000040002915D43FFF7E9FE061E3BD000272B
:10BBB00030220021083508A801950BF074FC01998A
:10BBC000200009F048FC049730237B43029D083590
:10BBD000ED18B7421FDA2900302208A80BF047FC05
:10BBE000059908A80BF095FC00280AD11949721E86
:10BBF00020000691079209F046FC012304930137C7
:10BC0000E2E70C23019A2900200009F02EFC019B99
:10BC100030330193F3E7049B002B06D10D4932002A
:10BC2000200009F030FC0C4812E00299200009F0D5
:10BC300012FC80235B0559690C23039A13394A438C
:10BC40007343110020000233029A09F00EFC002019
:10BC500015B0F0BDFECA00000CFCFFFF70B504007B
:10BC6000A280FA22002308000C49920008312160CA
:10BC7000A3716061E260A3606382094909F030FC4E
:10BC8000051E09D0010020001031022212300BF0F5
:10BC9000EEFB28000BF093FA200070BDD477020071
:10BCA0008784020030B50225837987B004002B42D7
:10BCB00004D1FDF74DFDA3791D43A571200009F0C6
:10BCC00059FC00281CD06B46DD1C280009F049FCFB
:10BCD0002B78002B17D001A809F041FC0321019A11
:10BCE000D3170B409B189B102382FDF7B9FFE36825
:10BCF000A18818180123A0601A0002A808F07BFA96
:10BD0000002007B030BD0122064B1A60064A516878
:10BD10000029FCD000215160044A126801920122DE
:10BD20005A60DBE700C00040FCC0004008C500408E
:10BD3000022802D10122014B1A7070470728002007
:10BD400070B5064C05002378002B04D1044802F09E
:10BD5000FFFA01232370280070BDC0460828002088
:10BD600031BD010070B50C0008F038F8002810D083
:10BD70000023144DA40A2B70200009F00FFC0028AA
:10BD800003D00A200BF02DF9F6E72B78002BFCD01E
:10BD900070BD02210C4B0D4A99508021C90008004A
:10BDA0005D58002DFCD0A121C9005C501958002914
:10BDB000FCD0002199508021C9005A58002AFCD09B
:10BDC000E6E7C0460728002000E001400405000027
:10BDD000F8B50C0015001E0008F000F8002811D07E
:10BDE0000023174F3B7032002900200009F0D4FBDC
:10BDF000002803D00A200BF0F4F8F4E73B78002B7E
:10BE0000FCD0F8BD01210F480F4B8446195080210A
:10BE1000C9005A58002AFCD080270022FF00964211
:10BE200007DD910068586050D9590029FCD00132D3
:10BE3000F5E7002261465A50DA59002AFCD0E0E7C3
:10BE4000072800200405000000E0014008B4024B70
:10BE50009C46443808BC6047A1550200FA21F8B559
:10BE60000389C90004005943324809F05FFEFA21F2
:10BE7000890005F0D1FC304F2081A17A380009F00B
:10BE800055FE23002600250022894C33A072A036DF
:10BE90001A808C35317800232A22286808F0C7FFE1
:10BEA000002801D02548F8BD31781F235B2228687F
:10BEB00008F0BDFF0028F5D1317820235C222868E6
:10BEC00008F0B5FF0028EDD1317801232C22286835
:10BED00008F0ADFF0028E5D1317801232D22286834
:10BEE00008F0A5FF0028DDD1317801232E22286833
:10BEF00008F09DFF0028D5D1A17A380009F011FE85
:10BF00003178C3B20E22286808F091FF0028C9D109
:10BF1000FA21238989005943064809F002FE0123CA
:10BF20000343DBB231782A22286808F080FF00281A
:10BF3000B9D0B7E7F4770200EC7702000EFCFFFF00
:10BF400008B4024B9C46443808BC60475DBE010003
:10BF5000074B10B51A00040008323C3302604364FA
:10BF6000443008F064FB200008F094FA200010BD73
:10BF70005478020008B4024B9C46443808BC604721
:10BF800051BF010008B4024B9C46443808BC6047CE
:10BF9000AB550200F0B5042583798BB004002B4229
:10BFA00004D1FDF7D5FBA3791D43A5712000903086
:10BFB000FFF7BCFB0026B0420FD12300A033197855
:10BFC00020000C2307AD00938C302B000122006869
:10BFD000FFF73AF9061E03D02C4E30000BB0F0BD2F
:10BFE0000A2304AA9B182A785A706A781A700022C9
:10BFF000985EAA785A70EA781A700022995E0391C6
:10C000002A795A706A791A7000229F5EAA795A704A
:10C01000EA791A7000215A5E04922A7A5A706A7A72
:10C020001A7000215A5E0592AA7A5A70EA7A1F2580
:10C030001A7000229B5EA27A03999C4651434942A2
:10C040005043CB172B407A435B185B11A361C31796
:10C050002B401818D3171D406423AD18059A5B4276
:10C060005343A36764236146049A40115A434B43E8
:10C07000E2676D11221DE06125622000D36708F0A0
:10C080007BFA2000443008F0D9FAA6E70EFCFFFF47
:10C0900008B4024B9C46443808BC604795BF010079
:10C0A000F7B51E00040008AB1B881500019309AB0F
:10C0B00000911A8831000AAB1F88FEF707F82000AC
:10C0C0003A0031004430FEF755FA134B20001A00B5
:10C0D0003C336364230008322260009A8C331A6078
:10C0E000AB8890308380AB79019A83710B4B03212D
:10C0F0000360AB6883602B7B03736B7B4373AB7B09
:10C1000083732300A0331A80FFF746FB2000FFF75C
:10C11000A5FE2000FEBDC04654780200A8760200AD
:10C12000F8B5FA260189B60004007143264809F0E3
:10C13000FDFC310005F070FB244F2081A17A38000E
:10C1400009F0F4FC2500A0725835297800232A2232
:10C15000606C08F06CFE002801D01D48F8BD2978FD
:10C1600010232B22606C08F062FE0028F5D129789C
:10C1700001232D22606C08F05AFE0028EDD12978A9
:10C1800001232E22606C08F052FE0028E5D1A17A2E
:10C19000380009F0C6FC2978C3B20E22606C08F0A2
:10C1A00046FE0028D9D121890748714309F0B9FC1E
:10C1B00001230343DBB229782A22606C08F037FEA2
:10C1C0000028CBD0C9E7C046BC780200B478020092
:10C1D0000EFCFFFF10B50400034B0833036008F0AA
:10C1E00059F9200010BDC0461C7902007FB5042516
:10C1F000837904002B4204D1FDF7AAFAA3791D43E9
:10C20000A57120004830FFF791FA0025A8420DD112
:10C21000230058331978062302AE0093012233001D
:10C22000606CFFF711F8051E03D00D4D280004B017
:10C2300070BD022300210420F356A27ADB00715660
:10C2400030565343C000C900514342435B42A3618F
:10C250002368E16122629B6A20009847E6E7C046B6
:10C260000EFCFFFFF8B50400150006AA168807AA01
:10C270000F0012881900FDF729FF0F4B6764083380
:10C2800023602300AA8848339A80AA7920009A71F3
:10C290000A4AA264AA6822652A7B1A736A7B5A73C7
:10C2A000AA7B9A730023A371230058331E80FFF7E3
:10C2B00037FF2000F8BDC0461C790200A8760200B6
:10C2C00010B50400034B0833036008F0B0F92000F8
:10C2D00010BDC046B0790200F0B507005C3787B0EA
:10C2E0000400397800231022806C08F0A0FD03269A
:10C2F000002802D01F4807B0F0BD0F2502ABED1893
:10C300000123397808220093A06C2B00FEF79CFFD4
:10C31000184B9842EED02B78334203D06420FDF7BF
:10C32000B1FAEAE7FA262189134DB60071432800D5
:10C3300009F0FCFB310005F06FFA20813978A02369
:10C340001122A06C08F073FD0028D3D1A36C2189C1
:10C350000393714328003F7809F0E3FB012318435E
:10C36000C3B210223900039808F061FD0028C2D042
:10C37000C0E7C0460EFCFFFF5079020070B50825EB
:10C38000837986B004002B4204D1FDF7E1F9A3794B
:10C390001D43A57120004C30FFF7C8F9061E0DD0D3
:10C3A00023005C331978062304AD009301222B008F
:10C3B000A06CFEF749FF061E03D0134E300006B0F6
:10C3C00070BD0E232A786B445A706A7820001A7068
:10C3D0000022995E64224A43A263AA785A70EA78DE
:10C3E0001A700022995E6422524251436163297996
:10C3F00059706979197000215B5E5A432368E263C2
:10C400001B6A9847DAE7C0460EFCFFFFF8B5040048
:10C41000150006AA168807AA0F0012881900FEF751
:10C42000A9F80D4BA764083323602300AA884C3376
:10C430009A80AA7920009A71084AE264AA68626523
:10C440002A7B1A736A7B5A73AA7B1E829A73FFF740
:10C4500043FF2000F8BDC046B0790200A876020074
:10C46000F7B5FA250189204FAD0004006943380073
:10C4700009F05CFB290005F0CFF9A17A20811B4867
:10C4800009F054FB2600636CA07200932189583692
:10C49000337869433800019309F043FB07230343D2
:10C4A000DBB220220199009808F0C1FC002801D0DD
:10C4B0000F48FEBD317810232222606C08F0B7FCD3
:10C4C0000028F5D1A17A0948656C377809F029FB75
:10C4D00080235B420343DBB223223900280008F0AB
:10C4E000A6FC0028E5D0E3E7E4790200DC7902004D
:10C4F0000EFCFFFF10B50400034B0833036007F088
:10C50000C9FF200010BDC046547A0200F0B50425D2
:10C51000837985B004002B4204D1FDF719F9A37982
:10C520001D43A57120004830FFF700F9061E0DD00D
:10C53000230058331978062302AD0093A8222B005C
:10C54000606CFEF781FE061E03D0144E300005B06D
:10C55000F0BD1F200023EA5ED31703409B18022280
:10C56000A95E5B11CA170240521804216F5E521176
:10C57000F9170140C91949112B806A80A980A07A56
:10C580004343424341435B42E36123685242A26119
:10C5900021629B6A20009847D8E7C0460EFCFFFF47
:10C5A000F8B50400150006AA168807AA0F0012881D
:10C5B0001900FDF78BFD0F4B6764083323602300E0
:10C5C000AA8848339A80AA7920009A710A4AA264FC
:10C5D000AA6822652A7B1A736A7B5A73AA7B9A73AC
:10C5E0000023A371230058331E80FFF739FF20007A
:10C5F000F8BDC046547A0200A8760200F7B5FA25C5
:10C6000004000189134EAD006943300009F08EFA31
:10C61000290005F001F92700A36C208100935C3705
:10C620003B7881B269433000019309F07AFA6022C5
:10C63000C3B20199009808F0FAFB002801D006481F
:10C64000FEBD397801236222A06C08F0F0FB0028BF
:10C65000F6D0F4E7887A02000EFCFFFF10B5040064
:10C66000034B0833036007F0E2FF200010BDC04613
:10C67000B07A02007FB50825837904002B4204D1EB
:10C68000FDF766F8A3791D43A57120004C30FFF734
:10C690004DF8051E0DD023005C331978062302AE39
:10C6A0000093E8223300A06CFEF7CEFD051E03D0F8
:10C6B0000B4D280004B070BD0223F25E96235B424E
:10C6C0005A4362630021725E20005343A363042334
:10C6D000F25E96235343E36323681B6A9847E8E7B7
:10C6E0000EFCFFFFF8B50400150006AA168807AA7D
:10C6F0000F0012881900FDF73DFF0D4BA7640833AA
:10C7000023602300AA884C339A80AA7920009A716A
:10C71000084AE264AA6862652A7B1A736A7B5A73C4
:10C72000AA7B1E829A73FFF769FF2000F8BDC046FE
:10C73000B07A0200A876020010B50400054B083359
:10C7400003601C3007F0B1FC2000183007F0ADFC8E
:10C75000200010BDDC7A0200FF23F0B52C4D8DB017
:10C760002B700023040069460088009303F0B2F99F
:10C77000002802D16B469B782B70264E3368DB680D
:10C78000002B07D1002320881A00190008F07DFF34
:10C790000DB0F0BD2B78032BF4D81F4901A8FDF78D
:10C7A000A3FA336801A9DE6804A807F0E0FC04A935
:10C7B000300008F0C8FE0027060004A807F075FC4A
:10C7C000BE421ED031002022103104A80AF04FFED4
:10C7D00030000AF0F4FC297804ABC900591808228B
:10C7E00002A80AF044FE20880123082202A908F0CA
:10C7F0004CFF0137002804D12088084A0C2108F09A
:10C8000042FF01A807F051FC002FBBD0C0E7C04693
:10C8100080200020342500201A850200FFFF000040
:10C82000F0B5837991B004005B071BD5FDF718FACA
:10C8300000232269801A9941994203D1F423FF33DE
:10C8400098420FD9A068002808D0364B1D8809F0FF
:10C85000E5F9036815221B6A290098470422A37989
:10C860009343A371A3799B0759D52F4D2B68DB68A0
:10C87000002B50D02D4B1B78032B4CD8294B2C4927
:10C880001B8804A80193FDF72FFA2B6804A9DE6822
:10C8900008A807F06CFC08A9300008F054FE070057
:10C8A00008A807F002FC02AB9E1D0823320033806B
:10C8B00006A9073B019808F0EAFE002F08D03900CE
:10C8C0002022103108A80AF0D2FD38000AF077FCC7
:10C8D000164B32881B7806A9DE0008AB9E19300083
:10C8E0000AF0B6FD002813D0082206A930000AF08D
:10C8F000BEFD2B6804A9DD6805A807F038FC2023DD
:10C9000008AA05A9280008F024FE05A807F0CDFB19
:10C9100004A807F0CAFB0222A3799343A37111B0C4
:10C92000F0BDC046B0270020342500208020002024
:10C930001A850200F7B5089E0500152922D80120A6
:10C9400007008F40244C27421CD0E97FCC181F2CB5
:10C9500041DC69183418A14210D80021C8B28342C2
:10C9600004D9545C701884700131F7E732789A1852
:10C970003270EA7F9B18EB7700202CE00878C854CF
:10C980000139E8E73478013CE4B2A34208D100233E
:10C99000D9B28C42F0D9D05CF11888700133F7E736
:10C9A000EF7F0120FF183F1B1F2F14DC0227A01C64
:10C9B0007F423618381B0190E87F2F18BE4204D200
:10C9C0003078019FF0550136F6E7041B023CEC7706
:10C9D000280008F0A6FEFEBDFC002000F0B5040013
:10C9E00085B001930AAB1E880BAB1B78451C0293E4
:10C9F0000EAB1B78170003930B78102203704B8A41
:10CA00000131438228000AF032FD268300260122EC
:10CA1000019B67616383039BE6832377029B20006E
:10CA2000EB77A31CDA770C9B0C25636223000D9A2D
:10CA300028331A705E709E702A0031002C300AF084
:10CA400032FD2000064BE663A3632A00310040302C
:10CA50000AF029FD2000034B2665E36405B0F0BD14
:10CA6000A55602009756020070B50D0009F0D6F8E1
:10CA700004000368002D09D15B699847FA20800003
:10CA80006843074904F0C8FEE08070BD9B68984782
:10CA90008542F3D2236820009B6898470500EDE7A4
:10CAA00071020000F0B507001600A1B002C7040033
:10CAB0006B4918A81D0008F07BFE331E03D0300020
:10CAC0000AF031FD83B20122049200220392029205
:10CAD000023201920093320018A93800FFF77EFF5E
:10CAE00023006049583318A8079308F061FE2B1EF5
:10CAF00003D028000AF017FD83B20122049200221D
:10CB0000039202920232019200932A0018A9079818
:10CB1000FFF764FF23005449AC3318A8089308F0CA
:10CB200047FE269B002B03D018000AF0FCFC83B2C2
:10CB30000122049200220392029202320192009397
:10CB4000269A18A90898FFF749FF631CFF33474945
:10CB500018A8099308F02CFE279B002B03D018007F
:10CB60000AF0E1FC83B2012204920022601C0392CD
:10CB70000292023201920093279A18A9FF30FFF720
:10CB80002DFF23005533FF33394918A8099308F0C6
:10CB90000FFE289B002B03D018000AF0C4FC83B2C0
:10CBA0000122049200220392029202320192009327
:10CBB000289A18A90998FFF711FF2300A933FF331A
:10CBC0002C4918A80A9308F0F3FD299B002B03D0E9
:10CBD00018000AF0A8FC83B201220492002218ADCA
:10CBE00003920292023201920093299A29000A9834
:10CBF000FFF7F4FE204B1B780B93002B2CD1079BE7
:10CC000012971393089B0DAF1493631CFF33159376
:10CC1000099B1A4916930A9B3800179308F0C8FD20
:10CC20001D2149203B7810222B707B8A12AE6B822B
:10CC300006ABC918C0180AF01AFC06232B750B9B0B
:10CC40002068AB83AE6108F0EDFF036829001B6824
:10CC500098470122084B1A70200021B0F0BDC04651
:10CC6000292A0000242A0000252A0000272A000083
:10CC7000262A0000282A0000092800200A1800009F
:10CC800070B5002504000B4B858008338571036067
:10CC9000C1601830FDF762F820001C30FDF75EF827
:10CCA0000123621CD377044AA560656120001460EB
:10CCB000A37170BDDC7A020034250020FA2130B562
:10CCC00085B00500012302228900684607F093FA27
:10CCD000074C2068002809D008F0A3FD2988054BDF
:10CCE00022681980022391790B43937105B030BDFE
:10CCF00034250020B027002010B50C0007290DD8DE
:10CD0000806808F08BFF064B195703685B6C9847E7
:10CD1000431E9841034B4042184010BD0248FCE7B7
:10CD20001285020016FCFFFF17FCFFFFF0B5A44CB4
:10CD30000D00A544040007939AAB1B78A14909A8EC
:10CD400004930692FCF7D0FF200029001C3007F066
:10CD500016FAC020800001F0F1FA08200AF03AFA31
:10CD60000600002100F0AEFE15ADA66000210C22E9
:10CD70000EA80AF098FB2B000EAA83CA83C3924B1D
:10CD80002900EB60002330002B6108F030FFA06821
:10CD900008F044FF08220021059016A80AF083FB42
:10CDA00014200AF017FA29000200884B1593C8C90D
:10CDB000C8C2874B059EC3600023A4360361336855
:10CDC000002B00D0F5E03060A06808F02BFF0822AF
:10CDD0000021060016A80AF066FB14200AF0FAF9F2
:10CDE0007C4B1593030086CD86C37B4BC360002329
:10CDF0000361336B002B00D0DDE03063A06808F0E6
:10CE00000DFF08220021050016A80AF04CFB142093
:10CE10000AF0E0F9714B15AE1593030086CE86C378
:10CE20006F4B9835C360002303612B68002B00D043
:10CE3000C3E02860012504AB1B7C04AA2B4308A98E
:10CE40002800137408F025FCA06808F0EFFE0368C2
:10CE500064495B6A9847A06808F0E8FE0368624985
:10CE60009B699847A06808F0E1FE002302680093E0
:10CE7000166804992A00B047049B002B0AD02000B2
:10CE800008F0D8FC032805DDA06808F0CFFE036891
:10CE9000DB6898470EA808F03BFC2F2004ABC018B5
:10CEA00008F036FC362004ABC01808F031FC3D20F9
:10CEB000042504ABC01808F02BFC0EAB0A93A06845
:10CEC00004AB5D7708F0B2FE03680AA91B699847B6
:10CED000A06808F0A3FE03680AA95B6D9847A068E4
:10CEE00008F09CFE03680021DB6D9847A06808F0FD
:10CEF00095FE036802219B6D984700212000FFF7F3
:10CF0000FBFE18200AF066F9A16800F055FA374BCD
:10CF1000374A1B68A1680393364B15A81B68002687
:10CF20000293354B0CAF1B680193069B1B685B1982
:10CF30000093324B12681B68FFF7B4FD30200AF0F3
:10CF400049F9079AA16800F0F7FAA06808F066FEB0
:10CF5000036839009B6A9847294BBE80A0680C93F0
:10CF600008F05CFE03683900DB6A98472900A06876
:10CF700008F02AFC099A09219378A068521908F050
:10CF800036FCA06808F04AFE32210671A068FFF75F
:10CF90006BFD04AB1B7FB34204D0A06808F03EFEDB
:10CFA00008F0FCFB09A807F080F895239B009D443E
:10CFB000F0BD036107E703611FE7036139E7C0467E
:10CFC000ACFDFFFFFF850200B3560200BDCC01009F
:10CFD000C156020059C70100CF560200FD5602009B
:10CFE000DD56020005D0010039D0010030250020B7
:10CFF0002C25002008200020282500200C200020BF
:10D000000800100013B506226846FCF77DFE094BA8
:10D010001C68002C0AD0694601A807F0A8F8200077
:10D0200001A908F028FC01A807F03FF8684607F0BE
:10D030003CF813BD34250020002373B501AE0C006D
:10D0400031000500019302F045FD002802D1B278BD
:10D05000064B1A70064B1868002806D061426141E1
:10D06000044BC9B21D8008F00EFC73BD8020002067
:10D0700034250020B027002030B5284CA9B06A2202
:10D080000D000DA821000AF0F2F90DA903A8FCF784
:10D0900099FE03A906A807F0DEF801230193013BDE
:10D0A000FF3B00930533FF33642206A92800FEF7F7
:10D0B00073F806A807F0C2F8210019226A3106A801
:10D0C0000AF0D5F905220024110006AB04A807F0E8
:10D0D000E9F804A905A807F0BEF80194009423001C
:10D0E000220005A92800FDF79BFF05A807F0A6F878
:10D0F00021002800FEF77EF805340520FCF7C2FB6E
:10D10000FF2CF5D1FA208000FCF7BCFB04A807F047
:10D1100095F803A807F092F829B030BD8F8402007B
:10D12000F0B59C4B95B005921A6808230400039152
:10D13000D16C06A80B43D3649749FCF7D5FD9749FA
:10D1400007A8FCF7D1FD220000250DAE30001C32EF
:10D1500006A907F023F807AA310008A807F01EF86F
:10D16000300006F0A2FF631CDD77A06808F056FDD2
:10D1700003680BAF5B699847300008F0C9FA2B20B1
:10D1800004ABC01808F0C4FA322004ABC01808F091
:10D19000BFFA392004ABC01808F0BAFA8023DB00CC
:10D1A000BB80A0680B9608F039FD036839005B6D01
:10D1B0009847A06808F032FD036829009B6D9847E6
:10D1C000A06808F02BFD070006000A371F2229007F
:10D1D00038000AF068F9FD77300008F0D6FA062129
:10D1E000A06808F0F1FA089A09219378A06804323F
:10D1F00008F0FDFAA06808F011FDC8210571A068CB
:10D20000FFF732FCA06808F009FDFF272E0005811A
:10D21000A06808F003FD08F0C1FA0398FDF704FECA
:10D220002000FCF795FA03992000FFF725FF0399EA
:10D23000200008F03BFB0495012563691D402DD0BB
:10D24000574909A8FCF73CFE09A90AA807F003F80A
:10D2500000220AA91300019200920398FDF7E0FE54
:10D260000AA806F0EBFF049B002B42D1043F282FB5
:10D2700041DD0025FE2F00DC049D059807F0C3F971
:10D28000002806D0012362699A4313000422134345
:10D290006361002609A806F0D1FF049504226369A2
:10D2A000134233D0FF210398C826FDF7A3FF0025C2
:10D2B000B600A36902229B5EAB4222DD200029B2A8
:10D2C000183006F081FF0023010003981A00743023
:10D2D000FCF746FE3000FCF7D5FA039807F09AFDFC
:10D2E000C820FCF7CFFA02226369134209D1013545
:10D2F000DFE70437BBE7039807F08CFD002FBCDDA8
:10D30000BAE7FA208000FCF7BDFA0026022365691F
:10D310001D421CD006331D4024D0224909A8FCF729
:10D32000CFFD09A90AA806F096FF00220AA90192DA
:10D33000009213000398FDF773FE0AA806F07EFF23
:10D340001948FCF79FFA09A806F078FF174E6420E9
:10D35000FCF798FA164B01369E4200DC6CE706F0AB
:10D360004FFD69E7134909A8FCF7AAFD09A90AA816
:10D3700006F071FF2B002A000AA901950095039879
:10D38000FDF74EFE0AA806F059FF09A806F056FF61
:10D39000DDE7C046B824002026850200368502005D
:10D3A000388502007D850200983A00008C0A000052
:10D3B0008B0A0000BA8502000022594BF0B50833F1
:10D3C000060003600F001000A9B0B1600BAB991804
:10D3D00001324870102AFAD10F3A524C1A700E32AC
:10D3E000105D991A0874013AFAD2997B5A7B0902A6
:10D3F0000A4331000C31039125211B7813AD2B70AA
:10D4000002ABC918452302A81B186A821800102213
:10D410000AF02DF8039B64216B610123002402AA0A
:10D420002B7752181993093313701DAB1C706D23A1
:10D4300002AA9B181C706E2321009B181EA80C22A8
:10D44000EC836C621C700AF02EF8374B0C22210022
:10D4500023A8AB63EC630AF026F8344B02AAEB6412
:10D4600046239B180322DA7722002C650595347336
:10D4700006AD2B1901345A70102CFAD101232C4817
:10D480002B700E33195CEA1A1174013BFAD2112188
:10D490002520AA7B6B7B12020BAC13432A78638294
:10D4A00002ABC9182270C018102209F0E0FF012356
:10D4B000237505ABA36100233800A38308F0B2FBFA
:10D4C000036821001B68984713ABDB8BB068B382FD
:10D4D00008F0A8FB002203680092B18A039ADC6876
:10D4E0000123A047B06808F09DFB0700142009F055
:10D4F00071FE0022012304000261069240C008323E
:10D500002900079309F0B3FF0A4BE360BB69002BC6
:10D5100003D13000BC6129B0F0BD2361F9E7C046FA
:10D52000F47A020013860200A55602009756020004
:10D53000238602000D590200F0B500260400724B4C
:10D54000DDB0083303608160C2608680867132007E
:10D550006E4947A808F07AFA2300143301250427FE
:10D5600008931223009704950193089A330047A962
:10D57000039602961DA8FFF731FA3200644947A8C6
:10D5800008F064FA0C2322000097103215AF0495BE
:10D59000019347A933000396029632A8FFF71EFABB
:10D5A00032005C49380008F051FA21001C31099121
:10D5B0000423082104950191009339003300099A4E
:10D5C0000396029647A8FFF709FA3200524938003D
:10D5D00008F03CFA542009F0FDFD2100122204233A
:10D5E000183107910495019200930A003300390025
:10D5F000039602960690FFF7F1F9069A474B100042
:10D60000A262D4620AA9082230300A930B9609F06C
:10D610002EFF434B069A09999363293215702661B0
:10D620000422E661079809F022FF0422079908986E
:10D6300009F01DFF6622032304A95218D377BA22EA
:10D640005218D377872252005218D377069A354959
:10D650000232D3771DAA0C9232AA0D9247AA0E92DB
:10D66000069AA6850F9210A8320008F0EFF9302133
:10D67000452004AA52181378123104AA3B7052189C
:10D68000138811397B8204AB1022C918C01809F025
:10D69000EEFE04230CADA0683B75BD61BE8308F0AF
:10D6A000C1FA036839001B689847822204AB9B18B3
:10D6B0001B885432238404AB9B181B885432A384E8
:10D6C00004AB9B181B88A068638408F0ABFA0700C2
:10D6D000142009F07FFD0500134B0661082210C0DD
:10D6E00010A91093119609F0C2FE104BEB60BB69B4
:10D6F000B34206D1BD612000FCF72AF820005DB0DE
:10D70000F0BD2B61F6E7C046007B020053860200A5
:10D710003386020043860200638602001F5A02001D
:10D720008B5902007386020099D70100B559020097
:10D73000F0B504000E00150085B01F000CAB1B886F
:10D740001030019306F04DFD26806580182009F009
:10D7500041FD02AE050033000AAA03CA03C32F60CD
:10D760002800082700213A000C3009F09CFE3A00FE
:10D770003100281D09F07BFE064B02226B61200060
:10D7800000230199A5600A43E360A28023626362DB
:10D7900005B0F0BDDF590200F0B50B898DB00593DF
:10D7A000CB68050004934B88828C9A420ED1049C6E
:10D7B000049B059A9B181B1B032B39DD628821886B
:10D7C000012308A806F017FD0434F1E7428C9A42C1
:10D7D0002ED1049C049B059A9B181B1B032B27DD51
:10D7E0002388282006936388EF680793114B0893DA
:10D7F0000023099309F0EEFCC0236A460600029359
:10D8000008AB03CB03C22B000699079A3000FFF741
:10D810008FFF3B6831005B6838009847002805D0CF
:10D82000300006F0F8FB300009F0C9FC0434D1E701
:10D830000DB0F0BD9D5A020070B5040090B0806834
:10D8400008F027F9022101401AD1A38D002B17D02F
:10D850000C4B6A4604931023E568A1850591029359
:10D8600004AB41CB41C20A00230006A8FFF760FFCA
:10D870002B6806A99B682800984706A806F0CBFBF2
:10D8800010B070BD9D5A0200002815D000604160A4
:10D890008260C360046145618661C7614446046279
:10D8A0004C464462544684625C46C46264460463E7
:10D8B0006E46466374468463002A06D0C46B043CFB
:10D8C000043A25681560B442F9D18C6BA6464E6BBC
:10D8D000B546002B06D0CC6B043C043B1D6825608C
:10D8E000B442F9D10C6BA446CC6AA3468C6AA2461A
:10D8F0004C6AA1460C6AA046CF698E694D690C69D5
:10D90000CB688A6808684968704700604160826037
:10D91000C360046145618661C761444604624C4648
:10D920004462544684625C46C462644604636E4644
:10D93000466374468463C46B043C043925680D60F7
:10D94000B442F9D1C76986694569046970470060C6
:10D9500041608260C360046145618661C76144467D
:10D9600004624C464462544684625C46C462644627
:10D9700004636C4644637446846304697047846B33
:10D98000A646446BA546046BA446C46AA346846AB3
:10D99000A246446AA146046AA046C76986694569E9
:10D9A0000469C368826800684168704710B5041E46
:10D9B0000CD009F0B8FD431EE3189C4208D222782F
:10D9C0001978013B21705A700134F6E7014810BD07
:10D9D0000020FCE717FCFFFFF0B585B002900C1E9D
:10D9E0002AD00023C217161A56400193019B30001B
:10D9F0005D1C63190A215F1E039304F07DF8494200
:10DA00003031397030000A2103F090FF47420600A0
:10DA1000002F0FD1029B002B04DA2D23019D039AC6
:10DA200002351370002320006355FFF7BFFF380055
:10DA300005B0F0BD0195D9E7004FF8E717FCFFFFEF
:10DA40000268084B406810B5C018C00010180300E9
:10DA50009A4205D81C688C4202D31800083BF7E7AD
:10DA600010BDC046FFFFFF1F70B5002817D1114D34
:10DA70002E68002E11D1083009F0ACFB066046601C
:10DA80000D4E04003368002B02D108F002FB306019
:10DA900023682C609B00F3586360286870BD0122E6
:10DAA000064907480B681340F8D1026043600A60DA
:10DAB000F4E7C0463C2500204825002038250020FA
:10DAC00040250020002370B50400016043609942A6
:10DAD0000AD1064D2B68002B02D108F0DAFA286033
