:020000021000EC
:1080000000400020F11502002D1602002F1602007C
:108010000000000000000000000000000000000060
:108020000000000000000000000000003116020007
:1080300000000000000000003316020035160200A8
:1080400037160200C5BA01009D1202003716020061
:108050003716020000000000F1130200371602007C
:1080600037160200050E02006113020037160200E7
:1080700037160200371602003716020037160200C4
:1080800037160200371602003716020037160200B4
:1080900037160200B9F0010089FE01003716020010
:1080A0003716020037160200000000000000000032
:1080B00000000000000000000000000000000000C0
:1080C00010B5064C2378002B07D1054B002B02D0AE
:1080D000044800E000BF0123237010BDB020002041
:1080E000000000000C8A0200044B10B5002B03D0E6
:1080F0000349044800E000BF10BDC0460000000076
:10810000B42000200C8A0200164B002B00D1144B27
:108110009D46402292029A1A924600218B460F46B3
:108120001348144A121A0FF09FFA0F4B002B00D07D
:1081300098470E4B002B00D09847002000210400E8
:108140000D000D48002802D00C4800E000BF0BF0E5
:10815000BDFA200029000EF0D6FE0BF0A1FAC046B1
:1081600000000800004000200000000000000000A7
:10817000A8200020D02800200000000000000000FF
:1081800010B50400034B036040300CF052F820009F
:1081900010BDC0461878020003000200083310B575
:1081A00003600023040020328261421C436003729A
:1081B000C361D377024801F067F8200010BDC046C4
:1081C00004210020F8B50300002501220700040067
:1081D000074E30331A703100456318371D720FF0A7
:1081E000DBF93934310038000FF0D6F92570F8BDCD
:1081F000EC87020007B501A80CF07DF8782201A9F0
:10820000054803F05BF801A80CF013F8FA20800091
:1082100001F054FC07BDC046F4210020F0B5436BCB
:1082200085B00400364D3749012B2BD1364903A8C0
:1082300001F076FE782203A9280003F069F803A86C
:108240000BF0F7FFA669E369F718BE4212D0317848
:1082500003A80CF018F8C82203A95200280002F065
:10826000C7FF03A80BF0E5FFFA20400001F026FC51
:108270000136EAE728000CF091FEFA20800001F0B8
:108280001DFC224903A801F04BFE782203A9280017
:1082900003F03EF803A80BF0CCFFA669E369F318DE
:1082A0000193019BB34222D0337802AAD71C3B70C2
:1082B000230038331B78002B06D0636B012B03D1CE
:1082C000390020000BF048FD397803A80BF0DBFFE4
:1082D000C82203A95200280002F08AFF03A80BF06D
:1082E000A8FFFA20400001F0E9FB0136D9E7280099
:1082F0000CF054FEFA20800001F0E0FB05B0F0BD68
:10830000F42100201E830200088302001383020070
:1083100073B50B7804000D002E2B37D02D2B38D0E1
:10832000232B39D0402B3AD01E4901A801F0F8FD8B
:10833000200001A9FFF75EFF01A80BF07AFF0024DF
:10834000297801A80BF09FFFC822174D520001A900
:10835000280002F04DFF01A80BF06BFF134E012126
:10836000300003F0C9FA200001F0A8FB0021300022
:1083700003F0C2FAFA20400001F0A0FB28000CF044
:108380000DFEFA20400001F099FB73BDFA24640051
:10839000D6E7FA24A400D3E7FA24E400D0E7044C9B
:1083A000CEE7C0468C830200F4210020CC200020C0
:1083B00088130000F0B543688FB005001600002B4D
:1083C0004ED0030038331F7808AC002F4AD02C4918
:1083D00002A80BF096FC290020000FF0F5F802AB84
:1083E0002200310030000BF0FDFC070020000EF0F1
:1083F000D6FF6B6B002B1AD12249200001F090FDB3
:1084000078222100204802F083FF20000BF011FFAA
:10841000029E039BF3180193019BB34207D033786C
:108420002100280023700136FFF772FFF4E702A84D
:108430000EF0B5FF390020000BF025FFC822210007
:108440005200114802F0D4FE20000BF0F2FE28008A
:10845000390018300FF06DF8094928000FF09CF82A
:108460000FB0F0BD010020000FF0AEF83B0022007D
:10847000310030000BF0B6FC07002000D8E7C04602
:10848000EC8702003F830200F4210020F0B589B0A0
:108490006B460700DE1D0092317038373B780400D0
:1084A000002B05D1436B002B02D13100FFF730FFC9
:1084B00035782B002D3B012B11D8210002A80FF09D
:1084C00083F82A00012102A80FF050F802A9200029
:1084D0000FF00AF802A80EF062FF09B0F0BD232DDC
:1084E0000FD1009A29002000FFF764FF636B002B77
:1084F000F3D13B78002BF0D031002000FFF708FFCC
:10850000EBE7402D12D1009A29002000FFF752FF1F
:10851000636B002B06D13B78002B03D03100200089
:10852000FFF7F6FE002330342370D6E7054902A892
:1085300001F0F6FC200002A9FFF75CFE02A80BF098
:1085400078FECAE728830200F0B50D0091B00390D1
:10855000FE4904A80BF0D5FBFD4F0AAC3900200002
:108560000BF0CFFB04AB41222900009428000BF054
:1085700009FC060020000EF012FF04A80EF00FFF09
:10858000F44904A80BF0BDFBF34920000BF0B9FB44
:1085900004AB42222900009428000BF0F3FB0643B1
:1085A00020000EF0FCFE04A80EF0F9FE390004A82D
:1085B0000BF0A7FBE94F200039000BF0A2FB432290
:1085C000290004AB009428000BF0DCFBF6B2064354
:1085D000F3B2200002930EF0E2FE04A80EF0DFFEDC
:1085E000DD4904A80BF08DFBDD4E200031000BF0BF
:1085F00088FB4422290004AB009428000BF0C2FB46
:10860000029B1843C3B2200002930EF0C8FE04A8D8
:108610000EF0C5FE390004A80BF073FBD14F20000B
:1086200039000BF06EFB4522290004AB00942800B2
:108630000BF0A8FB029B1843C3B2200002930EF07C
:10864000AEFE04A80EF0ABFE310004A80BF059FBFF
:10865000C54E200031000BF054FB4622290004AB2C
:10866000009428000BF08EFB029B1843C3B220003D
:1086700002930EF094FE04A80EF091FE390004A8B7
:108680000BF03FFBB94F200039000BF03AFB4722BB
:10869000290004AB009428000BF074FB029B1843E4
:1086A000C3B2200002930EF07AFE04A80EF077FE0B
:1086B000310004A80BF025FBAD4E200031000BF07B
:1086C00020FB4822290004AB009428000BF05AFB41
:1086D000029B1843C3B2200002930EF060FE04A870
:1086E0000EF05DFE390004A80BF00BFBA14F20003B
:1086F00039000BF006FB4922290004AB0094280046
:108700000BF040FB029B1843C3B2200002930EF013
:1087100046FE04A80EF043FE310004A80BF0F1FA67
:10872000954E200031000BF0ECFA4A22290004ABF0
:10873000009428000BF026FB029B1843C3B22000D4
:1087400002930EF02CFE04A80EF029FE390004A8B6
:108750000BF0D7FA894F200039000BF0D2FA4B22E8
:10876000290004AB009428000BF00CFB029B18437B
:10877000C3B2200002930EF012FE04A80EF00FFE0A
:10878000310004A80BF0BDFA7D4E200031000BF043
:10879000B8FA4C22290004AB009428000BF0F2FA3E
:1087A000029B1843C3B2200002930EF0F8FD04A808
:1087B0000EF0F5FD390004A80BF0A3FA714F20006C
:1087C00039000BF09EFA4D22290004AB00942800DA
:1087D0000BF0D8FA029B1843C3B2200002930EF0AC
:1087E000DEFD04A80EF0DBFD310004A80BF089FAD1
:1087F000654E200031000BF084FA4E22290004ABB4
:10880000009428000BF0BEFA029B1843C3B220006C
:1088100002930EF0C4FD04A80EF0C1FD390004A8B7
:108820000BF06FFA594F200039000BF06AFA4F2213
:10883000290004AB009428000BF0A4FA029B184313
:10884000C3B2200002930EF0AAFD04A80EF0A7FD0B
:10885000310004A80BF055FA4D4E200031000BF00A
:1088600050FA5022290004AB009428000BF08AFA39
:10887000029B1843C3B2200002930EF090FD04A89F
:108880000EF08DFD390004A80BF03BFA414F20009B
:1088900039000BF036FA5122290004AB009428006D
:1088A0000BF070FA029B1843C3B2200002930EF043
:1088B00076FD04A80EF073FD310004A80BF021FA38
:1088C000354E200031000BF01CFA5222290004AB77
:1088D000009428000BF056FA029B1843C3B2200004
:1088E00002930EF05CFD04A80EF059FD390004A8B7
:1088F0000BF007FA294F200039000BF002FA53223F
:10890000290004AB009428000BF03CFA029B1843AA
:10891000C3B2200002930EF042FD04A80EF03FFD0A
:10892000310004A80BF0EDF91D4E200031000BF0D2
:10893000E8F95422290004AB009428000BF022FA35
:10894000029B1843C3B220002CE0C046A68202005E
:1089500090820200DE820200E5820200ED820200C7
:1089600095820200EB820200D8820200E6820200B9
:10897000C0820200A58202009A820200B682020032
:10898000EC820200B58202009F820200A4820200F3
:1089900091820200DF820200B7820200AA820200F6
:1089A000CC82020002930EF0FAFC04A80EF0F7FC51
:1089B000390004A80BF0A5F9D14F200039000BF0C5
:1089C000A0F95522290004AB009428000BF0DAF935
:1089D000029B1843C3B2200002930EF0E0FC04A8EF
:1089E0000EF0DDFC310004A80BF08BF9C54E200021
:1089F00031000BF086F95622290004AB00942800C0
:108A00000BF0C0F9029B1843C3B2200002930EF092
:108A1000C6FC04A80EF0C3FC390004A80BF071F9E1
:108A2000B94F200039000BF06CF95722290004AB34
:108A3000009428000BF0A6F9029B1843C3B2200053
:108A400002930EF0ACFC04A80EF0A9FC310004A8BF
:108A50000BF057F9AD4E200031000BF052F95822BF
:108A6000290004AB009428000BF08CF9029B1843FA
:108A7000C3B2200002930EF092FC04A80EF08FFC0B
:108A8000390004A80BF03DF9A14F200039000BF08C
:108A900038F95922290004AB009428000BF072F930
:108AA000029B1843C3B2200002930EF078FC04A886
:108AB0000EF075FC310004A80BF023F9954E200050
:108AC00031000BF01EF95A22290004AB0094280053
:108AD0000BF058F9029B1843C3B2200002930EF02A
:108AE0005EFC04A80EF05BFC390004A80BF009F949
:108AF000894F200039000BF004F93022290004AB23
:108B0000009428000BF03EF9029B1843C3B22000EA
:108B100002930EF044FC04A80EF041FC310004A8BE
:108B20000BF0EFF87D4E200031000BF0EAF8312217
:108B3000290004AB009428000BF024F9029B184391
:108B4000C3B2200002930EF02AFC04A80EF027FC0A
:108B5000390004A80BF0D5F8714F200039000BF054
:108B6000D0F83222290004AB009428000BF00AF957
:108B7000029B1843C3B2200002930EF010FC04A81D
:108B80000EF00DFC310004A80BF0BBF8654E200080
:108B900031000BF0B6F83322290004AB0094280012
:108BA0000BF0F0F8029B1843C3B2200002930EF0C2
:108BB000F6FB04A80EF0F3FB390004A80BF0A1F8B3
:108BC000594F200039000BF09CF83422290004ABE7
:108BD000009428000BF0D6F8029B1843C3B2200083
:108BE00002930EF0DCFB04A80EF0D9FB310004A8C0
:108BF0000BF087F84D4E200031000BF082F8352243
:108C0000290004AB009428000BF0BCF8029B184329
:108C1000C3B2200002930EF0C2FB04A80EF0BFFB0B
:108C2000390004A80BF06DF8414920000BF069F8F9
:108C30003622290004AB009428000BF0A3F8029B15
:108C40001843C3B2200002930EF0A9FB04A80EF053
:108C5000A6FB310004A80BF054F8364F2000390071
:108C60000BF04FF83722290004AB009428000BF0DA
:108C700089F8029B1843C6B220000EF090FB04A8AE
:108C80000EF08DFB2A4904A80BF03BF82A4920007E
:108C90000BF037F804AB38222900009428000BF0C1
:108CA00071F8064320000EF07AFB04A80EF077FB63
:108CB000390004A80BF025F8204920000BF021F81A
:108CC00004AB39222900009428000BF05BF8F6B2BF
:108CD00006432000F6B20EF062FB04A80EF05FFB24
:108CE000002E0AD01649200001F01AF9039821003D
:108CF000FFF780FA20000BF09CFA11B0F0BDC046DF
:108D0000AF820200A9820200AE820200E482020069
:108D1000B3820200B9820200BF820200C582020053
:108D2000CB820200D1820200D7820200DD820200E3
:108D3000E3820200E9820200A6820200DE820200D3
:108D4000EF820200F0B504008DB024200EF006FB87
:108D50000127019000F0CCF9A84906A801F0E0F83D
:108D6000A74D782206A9280002F0D2FA06A80BF037
:108D700060FAA44906A80AF0C4FF7E2204ABDA70A8
:108D800023003933009301F087F8636B029003915D
:108D9000002B07D19C480BF0FAFC002802D0009B66
:108DA0001F70F7E7994802F0DDFD002806D0009B10
:108DB0001F70636B002BF5D16763F3E701F06CF86C
:108DC000009B1B78002B2CD0029A039B801A9941A0
:108DD000002902D18E4B98426CD904ABDE1C402393
:108DE000884906A833700EF0D7FB317805A80BF040
:108DF0004AFAC82205A95200280002F0F9F905A88C
:108E00000BF017FA636B002B04D104ABD91C2000C4
:108E1000FFF77EFAFA20400000F050FE28000CF028
:108E2000BDF80023009A7B49137006A80EF0B8FB2A
:108E300000285BD1230038331F70230038331B78A0
:108E40007549002B00D1754905A801F069F8782211
:108E500005A9280002F05CFA05A80BF0EAF90199CF
:108E60002000FFF771FB636B6D49002B00D16D494A
:108E700005A801F055F8782205A9280002F048FA63
:108E8000FA2605A80BF0D5F97600230030331B78BD
:108E9000002B00D1A3E000F0FFFF636B0290039171
:108EA000002B45D158480BF072FC002840D0009BA5
:108EB0001F70F7E7FA23DB00984207D9232104ABA0
:108EC000DE1C06A8D9700EF034FB8EE7FA239B0057
:108ED000984203D904ABDE1C2D21F2E7FA235B0094
:108EE000984297D904ABDE1C2E21EAE74E4906A82A
:108EF0000EF056FB002803D12300383318709CE78E
:108F000004ABDE1CDB78232B00D03CE7474905A8E7
:108F100001F006F805A92000FFF76CF905A80BF091
:108F200088F9384906A80EF037FB7E23337027E70F
:108F3000364802F017FD002806D0009B1F70636BB7
:108F4000002BF5D16763F3E700F0A6FF2300393368
:108F50001B78002B20D0029A039B801A994100298C
:108F600002D12B4B98421BD94021019A2000FFF7D8
:108F70008DFA402105A80BF086F9C82205A95200F8
:108F8000280002F035F905A80BF053F9300000F085
:108F900095FD28000CF002F80023009A137074E786
:108FA000FA23DB00984206D92321019A2000FFF71B
:108FB0006DFA2321DEE7FA239B00984206D92D2182
:108FC000019A2000FFF762FA2D21D3E7B042DDD9E4
:108FD0002E21019A2000FFF759FA2E21CAE720001E
:108FE000FFF71CF9FA20400000F068FD2000FFF7B1
:108FF000E9F806A80EF0D3F9AEE6C04649830200B0
:10900000F4210020EC870200DC200020CC2000208E
:109010008813000052830200628302006D83020005
:109020008583020079830200568302005A8302007E
:1090300037B5124D280000F06FF8114C114922008D
:1090400028000EF084F9104D032302220821280085
:1090500002F006FC22000D4928000EF078F90023EA
:109060000B4D009301331A002800112101F066FB1B
:109070002800220007490EF06AF937BD04210020BC
:109080000020002099900100CC200020EF3C02003D
:10909000DC20002025A70100CA23144A9B0010B53C
:1090A000C2501C330400C0180BF0C3F8D0239B003F
:1090B000E0180BF0BEF820009130FF3001F032FBD9
:1090C00020006930FF3001F02DFB2000F03001F06E
:1090D000ABFE2000D03002F0AFFA2000643007F081
:1090E00097FD201DFFF74CF8200010BDA47C020066
:1090F00010B5040023001433E360002323612375BB
:10910000236063607E33237202490C300EF044FA10
:10911000200010BDEC8702001423F0B5040093B0CA
:10912000009319221821043002F01CFD22002500B2
:1091300026006432B435132110001092B83607F0BF
:1091400073FD28000CF08AFA00221E2130000BF07B
:109150002AFF2000D03002F08FFA2200F032119264
:109160000621464A119801F083FE200000270123C2
:1091700069301A0000971121FF3001F0DFFA20005A
:1091800091300097012302221A21FF3001F0D6FA14
:109190002000B9301A2301210222FF3002F028FBFF
:1091A000300001F0D7F8E4225200A050300001F066
:1091B0001FFBE6235B00E0500100E4222000520088
:1091C000D130119BA2580095FF3001F061FD2000C5
:1091D000E13029001C22FF3002F05CFE1923200040
:1091E0000F93013B0E93013B0D93013B0C93013B0D
:1091F0000B93013B0A93013B0993013B0893013B0D
:109200000793013B0693013B0593013B0493013B0C
:109210000393013B0293013B0193F930013B082288
:1092200000930721013BFF300BF0DEFECA239B00B9
:10923000E018290003F040FED3239B00E0181D2115
:1092400002F0DCFBDD239B00E75010982770032120
:109250000DF089FD23002200200009499C33A03233
:109260001C6011605760074A80305A610221012258
:1092700008F070F9200013B0F0BDC046207802005D
:109280003D3E0200273E02000123F0B506788FB074
:1092900004001E4000D082E00300D0331800039386
:1092A00000F0EEFA00F0E6F928200EF057F805007D
:1092B00010300BF05AF86C4B18202B600EF04EF863
:1092C00007006A4B0460082231000C300C930D96A5
:1092D0000EF0CAF90CA9381D08220EF0A9F9644B4A
:1092E000AF607B611223EE60AB802E626E6229005C
:1092F000039802F035F9002805D028000AF04FFF46
:1093000028000EF020F8012322785A4913432370D5
:109310002300B433180005930CF0A6F956490490C5
:1093200005980CF0A1F900250690642000F0C6FB1A
:109330002F002E0023006933FF33180007930BF032
:1093400026FA00282DD1049B002B33D1069B002B3D
:1093500030D1DD2549494A48AD0000F08FFC635902
:10936000002B1CD100F09AF801000AA800F0D8FDEB
:109370000BA80AF0D6FDCA239B00E018069B0BAA97
:109380000AA90093039B03F0EDFD0BA80AF051FF1F
:109390000AA80AF04EFFCC239B00E35863510FB09C
:1093A000F0BD20009130FF300BF0F1F90028CAD059
:1093B000182EC8DC2000653039B22AB2FF23FF30F6
:1093C000013700F02BFEFFB2322000F077FB0136B0
:1093D000052F02D100270135EDB2049B192E06D0CE
:1093E000002BA7D02349059802F0E8FC01E0002BF0
:1093F000F8D104980DF0A7FF06980DF0A4FF1F49BF
:109400001F4800F03BFCCA239B00E3180893DD23B0
:109410009B00E3580993002B1ED100F03FF8010098
:109420000AA800F07DFD0BA80AF07BFD01230BAA22
:109430000AA900930898039B03F094FD0BA80AF077
:10944000F8FE0AA80AF0F5FECC239B00E358099326
:10945000DD23099A9B00E2502100079AF031089819
:1094600003F07AFF66E7C046FD030000AF3E02004E
:109470006F3E0200D9830200E48302000020002036
:10948000001C0020BFF34F8F024B034ADA60BFF38A
:109490004F8FFEE700ED00E00400FA05F0B58DB057
:1094A00005AF1922154938000EF0C2F80022144BFE
:1094B00005245A7180225205566E0122250001941E
:1094C000029203930199300008F048FB08000299CA
:1094D00008F0BEFA019B03996B430193029B361A75
:1094E0006B430293631E2C1B6C433C19225C1C1EB5
:1094F000CA54E7D108000DB0F0BDC046F4830200A5
:10950000FE270020F0B597B018220021060010A811
:109510000EF0AAF8132110A80DF064FD032110A885
:109520000DF02FFE4C4B1B68002B00D10133DBB23A
:1095300002934A4A012300210BA807F045FF484B3C
:109540009E4200D9002672B6464B64211D68464BE8
:1095500030000793052408F005FB604350302818BD
:1095600008900A21300008F0FDFA0A2108F0E0FB1B
:10957000614350316918099130000A2108F0D8FB85
:10958000802361430024503169189B010A910193A3
:10959000029B002B5DD0002500272E1F07AB9B19D7
:1095A0000593032C03D1802300249B01019307AB77
:1095B0005B592E4A03936300D318049300231900C8
:1095C00006205843049A16187678B4466246039EDD
:1095D000B25C10269446049A105C6246064116421C
:1095E00002D00120984001430133092BE8D1C9433F
:1095F0001F4B059A090119401268039B934225D11C
:10960000312F23DC00210BA80DF07CFEFA23159AE4
:109610001199DB00106801421BD0013B002BF9D1EE
:10962000019B01345B000193FA230137E4B25B0034
:109630009F42B6D10435102DAED1074B1B68002BCD
:10964000A6D0029F013FFBB20293A1E7019B194301
:10965000D9E7FFF717FFC04680240020F0FF000085
:10966000E703000004200020438402000D84020070
:10967000F01F0000F8B50023124C23600AF072FCC2
:10968000002808D0042120000AF068FC002801D03E
:109690000D4B2360F8BD0122A12704250B4B0C497B
:1096A0001A602268FF0048604E68002EFCD0DE5928
:1096B0001202013D3243002DF5D1226001225A6091
:1096C000E8E7C0467C240020ED5EBC0B00D00040E3
:1096D000FCD00040F0B585B01F000AAB1B88060027
:1096E000029115000393002F1BD028200DF036FEA9
:1096F0006B4604001989039BAAB200933B000AF051
:1097000038FD336821005B6830009847002806D098
:1097100020000AF044FD20000DF015FE024805B0BF
:10972000F0BD0248FBE7C04616FCFFFF17FCFFFF39
:109730000B4B70B51C68002C10D0656D00F0ACFBB5
:10974000A36C002901D1834206D820000AF03DFC19
:10975000044920000AF027FC2C00ECE770BDC0464D
:1097600088240020A8240020F0B593B007932A4B4A
:1097700004AC1E68049005910692002E4AD0274B37
:10978000258867881C6800230293002C2ED0636D07
:1097900023480393A36C9AB2A36C1B0C99B2854225
:1097A00014D12048824211D1002B01D0B9420BD1F3
:1097B000029B002B08D120000AF007FC1A49200068
:1097C0000AF0F1FB01230293039CDEE7002A01D09B
:1097D0009542F9D1002B01D0B942F5D120000AF011
:1097E000F4FB114920000AF0DEFBEDE70F4BEB180C
:1097F000012B0FD910233A00009329000C4B08A825
:109800000AF0B7FC336808A99B683000984708A89D
:109810000AF0C5FC13B0F0BD84240020B42400205D
:10982000FE030000FF030000A824002002FCFFFF4D
:109830006997010010B572B60B4B1C68002C08D05C
:1098400020000AF0C2FB0023E364084B2000E3631E
:1098500010BD62B65C200DF081FD5C220021040089
:109860000DF002FFEFE7C046AC24002000400020CE
:10987000024B1878012318407047C0460428002086
:10988000F7B50600FFF7F4FF051E33D11A4C26602A
:10989000FFF7D0FF194B1A4918600AF084FBFFF755
:1098A000C9FF184B1860184B4363184B836320683B
:1098B00000280ED0C027164E2A0033001549009705
:1098C000FFF708FF009733002A0013492068FFF7CD
:1098D00001FF0C200DF042FD0023838083710F4BAC
:1098E00003600F4B836000F0EFFA01230D4A1178FB
:1098F0000B431370F7BDC04684240020B824002019
:10990000A8240020B0240020FC3F00209140020049
:1099100069970100FF030000FE0300004078020089
:109920003197010004280020F7B506000D0017004C
:109930000193002802D100242000FEBD0029FAD0A6
:10994000FFF778FF041EF6D0074B019A43630660C9
:1099500045608760054B002A00D0054BA36305498D
:1099600020000AF020FBE7E7FC3F00205B400200FC
:1099700079400200A8240020024B18684342584155
:109980007047C046A8240020002310B504499C005D
:109990006258002A01D00133F9E76050100010BD71
:1099A00090240020002310B5044A99008C5884426A
:1099B00001D00133F9E70020885010BD9024002029
:1099C00010B50024084BA200D058002802D003682C
:1099D0005B6898470134062CF4D1044B1B68002BBC
:1099E00000D120BF10BDC04690240020A824002034
:1099F000F8B5FFF73DFF00281CD02A4D2C68E36C1A
:109A0000DA0718D502273B43E364274B1E6804237B
:109A1000F26C30001343F364636BF3630AF0FBFAF8
:109A20003000716C04F08DF82868C36C3B4201D0A3
:109A300004F0C1F8F8BD1D4F1D4E3A683168002A88
:109A40001ED129602A68914208D11B0706D52C60D7
:109A5000FFF7B6FF3B68002BFAD02B6029688C42D9
:109A6000E8D03368994214D1124B4B63124B8B638D
:109A700020000AF0D0FA2968626C4B6C20000DE0DF
:109A8000206DB84203D1606D002800D002002A602A
:109A9000D8E79C42ECD1002210004B6C04F010F887
:109AA000C8E7C046B82400208C240020A824002049
:109AB000B0240020FC3F00209140020070B505005A
:109AC000FFF7D6FE002803D128000DF04EFB70BD35
:109AD0000C4B1C68E36CDB0706D5FFF7ABFE0A4BAB
:109AE0001860002800D0040000F0D6F92D18A564F5
:109AF00020000AF06AFA054920000AF054FAFFF73C
:109B000077FFE4E7B82400208C240020882400207C
:109B1000F0B51E4B1E4F1C683B6885B006000391D4
:109B2000002B30D0FFF7A4FE00282CD0E36CDB071D
:109B30000ED5FFF77FFE174B051E186008D00AF000
:109B400044FA154928000AF02EFA2C00FFF750FFBE
:109B5000039B20001B043343A3640AF036FA200061
:109B60000E490AF020FA0E4B0024F318012B07D9F6
:109B7000C0230093039A0B4B31003868FFF7AAFD0E
:109B8000200005B0F0BD084CFAE7C046B82400201C
:109B9000842400208C240020A8240020B424002049
:109BA00002FCFFFF6997010016FCFFFF10B5FFF7ED
:109BB0005FFE002809D0054C20680AF006FA044927
:109BC00020680AF0F0F9FFF713FF10BDB824002059
:109BD000AC240020F7B507000D0000282ED0FFF7B9
:109BE00047FE00282CD00724164E3068C36C1C405A
:109BF00007D0154A290038000AF0FEF90024200099
:109C0000FEBD03F0C0FF02213268D36C1940019100
:109C100003D003218B43D364F1E701242343D364AE
:109C20002800B8473268D36C1900A143D164019C65
:109C30005B07E4D528000AF017FAE0E7034CDEE7FB
:109C4000034CDCE7B82400206940020017FCFFFF4A
:109C500016FCFFFF020010B5014B12CB12C210BD63
:109C6000BC240020034B1A68034B1A607E225A6002
:109C70007047C04604200020BC24002070B5114E5F
:109C80003278022A1AD081421AD90C1A072C17D915
:109C90000D00032305432B4012D172B60A4DD200AA
:109CA0005051AA1851608022A4081206144304607F
:109CB00032780132327062B6180070BD0348FCE79A
:109CC0000348FAE706280020C424002013FCFFFF05
:109CD00017FCFFFF70B5134C06002378124D002BC4
:109CE0000CD1124912482B70FFF7C8FF114B984254
:109CF00002D11E20FFF706FC0123237000242B78DD
:109D0000A34209DD0C49E300C91830000AF0C6F986
:109D1000002805D10134F2E71420FFF7F3FB0020FF
:109D200070BDC0460528002006280020003800200D
:109D3000D028002017FCFFFFC424002070B50028A5
:109D400019D0104B10491C7800239C4216DDDA0014
:109D50005558854210D28A18526882420CD9041F85
:109D60002368002B02DC1E20FFF7CCFB8023226837
:109D70001B061343236070BD0133E6E71E20FFF787
:109D8000C1FBF8E706280020C424002070B5051E9A
:109D900014DD0B4E0B4C3368002B02D020680DF005
:109DA0005FF8FA2120680024074B89008361C462B0
:109DB000694335600DF05CF8200070BD0348FCE796
:109DC000D424002004250020759E010017FCFFFF0D
:109DD000F8B5114F06003D68002D0AD130200DF076
:109DE000BDFA040006F044FF0C4BA5612360E56258
:109DF0003C600B4D2B68002B09D110200DF0AEFA02
:109E000004000CF0F6FF20002C600CF0CCFF3000BA
:109E1000FFF7BCFFF8BDC0460425002040800200CB
:109E200000250020014B18687047C046D42400204C
:109E300070B50D4C2368002B03D00C4B1B68002B16
:109E400002D10620FFF7C4FF20680CF0C3FF020018
:109E50000749C3170D684E685219734120680A609C
:109E60004B600CF0BDFF70BD0025002004250020D4
:109E7000A820002010B5FFF7DBFF0024054BA2004F
:109E8000D058002802D003681B68984701340A2C78
:109E9000F4D110BDD824002010B5FFF7C9FFFA2275
:109EA000034B920018685968002307F081FF10BD2A
:109EB000A820002010B5FFF7BBFF024B18685968B7
:109EC00010BDC046A82000200B4B10B51B68040035
:109ED000002B03D0094B1B68002B02D10620FFF793
:109EE00077FF0023064A99008858002801D00133E3
:109EF000F9E78C5010BDC046002500200425002045
:109F0000D8240020002310B5044A99008C588442BC
:109F100001D00133F9E70020885010BDD82400207B
:109F200010B50400002902D00B78002B03D1034B9D
:109F30002360200010BD0AF083F9FAE75078020090
:109F4000F8B504000E00150000290AD00B78002B8C
:109F500007D0002A05D0080097B20DF0C5FB874254
:109F600003D90B4B23602000F8BD681DFFF7B2FE3C
:109F700020600AF014FB23682A005F802368310008
:109F8000181D0DF055FB23685D1900232B71EAE7BE
:109F900050780200014B03607047C04650780200C1
:109FA00010B50548054C20600AF0FCFA044A054942
:109FB00020000DF0CCF910BD5078020008250020DB
:109FC0000020002033420200084B73B51C680500D6
:109FD000002C0AD0010026680831082268460DF0DE
:109FE00027FB0CCD31682000884773BD0C2500206D
:109FF000014B03607047C0465878020010B504005A
:10A00000002903D1044B0360200010BD016008004B
:10A010000AF0C8FAF8E7C0465878020030B5006880
:10A020004488A1420CDA8588AA4209DA002907DBB4
:10A03000002A05DB5443401800198371002030BD0D
:10A040000048FCE717FCFFFFF0B5070085B00E00E5
:10A050001D00002921DD002A1FDD002B1DD0046812
:10A06000638803938B4200DD0391A388029393429C
:10A0700000DD0292002306340193019B029A934271
:10A080000EDA29002000039A0DF0D2FA3B68AD19D0
:10A090005B88E418019B0133EEE7024805B0F0BD90
:10A0A0000020FBE717FCFFFFF8B504000D001600C9
:10A0B0001F00002901DB002A02DA0E4B2360F8BDE5
:10A0C000100048430630FFF705FE20600AF067FAEB
:10A0D00023685D8023689E80002F06D03B003200FD
:10A0E00029002000FFF7B0FFE9E720000AF08EF911
:10A0F000E5E7C04658780200F7B506000D1E03D10B
:10A10000244B03603000FEBD00200F00040001005E
:10A1100001903B78002B1AD03022524294469C4446
:10A120006246092A11D90A2B0AD1019B241801334E
:10A130000193A14200DA2100002004000137E8E782
:10A140000028FBD001340020F8E70120F6E70127C2
:10A15000019A09B212B230007F42FFF7A5FF390021
:10A160000A2033689A1D2C78002CCBD02300303B7A
:10A17000092B08D8FB43DB173B4043431B19303BFB
:10A180001F000135EFE7002FFBDB177001320F00D6
:10A19000F7E7C04658780200F0B5040089B006A879
:10A1A0000E0002921D00FFF755FD236802995A88A0
:10A1B000914235DA9B889D4232DA1F2E30D9079BB7
:10A1C00001939E422CDC0523002273430393069BDC
:10A1D0000493039B04999B18A03BCB5C002105933F
:10A1E000AE18029BCF1823685888019087420EDA78
:10A1F0009888B0420BDDDB1910270F41019870439E
:10A200001B1805980740781E87417F429F710131D6
:10A210000529E6D10132052ADBD1002009B0F0BDC5
:10A220000048FBE717FCFFFFF7B5046807006388E9
:10A230000E1E01931EDD994218DA002306340093A6
:10A240003B68009A9B889A4212DA019BA1199D1BD8
:10A250002A0020000DF0ECF9601931000AF0B9F87D
:10A260003B685B88E418009B0133E8E70AF0CEF80E
:10A27000002000E00048FEBD17FCFFFF10B50548B8
:10A28000054C20600AF08EF9044A054920000DF0C3
:10A290005EF810BD58780200102500200020002034
:10A2A000C543020010B5054C012120000AF06EF9EB
:10A2B000034A044920000DF04AF810BD142500207F
:10A2C00000200020494502000388074A10B50120FC
:10A2D000934208D0834202D00020DB0703D41E2023
:10A2E000FFF710F9002010BDFFFF00000048704785
:10A2F00016FCFFFF10B53220FFF704F9004810BD2F
:10A3000016FCFFFF10B5124C002308348280046055
:10A3100041620224142201008371847203638386E4
:10A32000028136310A78C360A243F13422400361CE
:10A3300043618361C36103620A700200403213709B
:10A34000021DD387013343878387C38710BDC0466F
:10A3500078780200F0B5544F97B03B68060005933B
:10A36000002B00D08BE006AC0B331C2221212000F7
:10A3700001F076FA0EAD0B231D2222210AA801F06E
:10A380006FFA0B231B222321280001F069FA082011
:10A390000CF0E4FF0122059B110004900BF08FFCF0
:10A3A0003A2130000BF0E5F900281DD0A38812AD4A
:10A3B000AB80A3795C20AB713C4B1293A3681493E0
:10A3C000237B2B73637B6B73A37BAB730CF0C6FF98
:10A3D00004230193363300932A00049B31000400C8
:10A3E00002F05CF83C604AE0322130000BF0EFF9FB
:10A3F00000281CD0A38812ADAB80A3795C20AB7180
:10A400002A4B1293A3681493237B2B73637B6B7388
:10A41000A37BAB730CF0A2FF042301932E330093B4
:10A420002A00049B3100040002F0D6F9DAE73C214F
:10A4300030000BF087F900282CD0AB8812ACA38039
:10A44000AB79A420A371194B1293AB6814932B7BA7
:10A4500023736B7B6373AB7BA3730CF07FFF0523CC
:10A4600005000293013B0193383300932200049BC3
:10A47000310001F031FF0E4B3D6044351D600C4B47
:10A48000094C1868002802D021680AF0EEF920680B
:10A4900017B0F0BD44200CF061FF042204990400C1
:10A4A000FFF730FF9EE7C0461825002068780200BD
:10A4B0001C250020F0B56149C56885B08D4254DA8D
:10A4C0000300022236331B78134059D104698C42B1
:10A4D00064DA020036321278520768D44269019277
:10A4E0000200019E40328E426FDA01003631097857
:10A4F000090774D4002B7DD113780293002B16D05A
:10A5000006000127011DCB8F363601339BB2CB8766
:10A5100003963678BC46374000D188E01D2B06D91B
:10A5200063469E43039B1E700023CB8713700AF083
:10A530007CF8434A0723904276D94249043B8D4236
:10A5400072DBC8220133920095426DDC023B8C42E3
:10A550006ADB013B944267DC01980433884263DB89
:10A560000133904260DC00235EE0C82200235200E9
:10A570009542ABDD030036331A7800239207A5D449
:10A58000012306001F00363632785408A7433C00EA
:10A5900002279C40BA432243327097E7C8225200F8
:10A5A00094429BDD020036321278520796D40600A0
:10A5B0000122363633789F08BA439700042293432A
:10A5C0001A003A433270012388E7C821019E4900EE
:10A5D0008E428FDD01003631097809078AD40100E7
:10A5E000012636310B78DF08BE430827F600BB434F
:10A5F00033430B701378032B00D97DE70133DBB2B3
:10A600001370012B03D10021031DD98774E7042B9C
:10A6100000D071E7020036321178033B0B43137010
:10A6200000230430C3870B33180005B0F0BD092B9D
:10A6300000D87CE7029BCF87013B77E770FEFFFFE6
:10A64000FF700200E0FCFFFF70B5C369C1681A68C3
:10A65000451D8AB00400EB7F114255D0002B58D124
:10A66000EB7F082B0DD90122A379134209D11343A3
:10A67000A371A188130006A809F081FEFFF70CFC66
:10A680002062EB7F012B23D80123A2791A421FD02D
:10A690000025A188A571022202A809F070FEA31D61
:10A6A000DE7F012E14D1FFF7F7FB2B00226A801A00
:10A6B000994100900191019BA188AB4203D1174BB6
:10A6C000009A9A4227D90123042206A809F057FECE
:10A6D0000322A3791340012B14D1FFF7DDFB0023E4
:10A6E000226A801A9941994202D10D4B984209D9A8
:10A6F0000223A279A1881343A3710522012306A88E
:10A7000009F03DFE0AB070BD0B2BA9D80133EB77E1
:10A71000A6E7013BFBE733000322D6E7E70300008F
:10A72000DB05000010B50400034B08330360FFF79E
:10A73000E9FB200010BDC046AC780200F0B5070070
:10A7400000250E00040085B002930AAB1B78083781
:10A7500003930F4B019208330360858085712900B4
:10A76000182238000CF080FF039A310038000CF0FA
:10A770003EFC019B029AA380A31DE671DA77631D5C
:10A7800025622000DD77FFF79FFB200005B0F0BDBC
:10A79000AC7802000048704716FCFFFF10B533206C
:10A7A000FEF7B0FE004810BD16FCFFFF002310B5F9
:10A7B0000400838083710D4821640830206080206C
:10A7C000C000A061E0612062E3602000236163615A
:10A7D0006362A362E36223636363A363E36363640B
:10A7E00011000AF01AF8200010BDC046C47802001B
:10A7F000F0B5534F97B03B6806000593002B00D08F
:10A800008BE00B331C22212106A80AAC01F028F8AA
:10A810000EAD0B231D222221200001F021F80B2375
:10A820001B222321280001F01BF808200CF096FDC4
:10A830000122059B110004900BF041FA1D2130000C
:10A840000AF0AEFF00281DD0A38812ADAB80A3791B
:10A850006020AB713B4B1293A3681493237B2B7343
:10A86000637B6B73A37BAB730CF078FD05230193C3
:10A87000183300932A00049B3100040001F0E2FE2B
:10A880003C604AE03C2130000AF0B8FF00281CD0B0
:10A89000A38812ADAB80A3796020AB71294B1293D2
:10A8A000A3681493237B2B73637B6B73A37BAB73C2
:10A8B0000CF054FD05230193373300932A00049BC9
:10A8C0003100040002F02AF8DAE73C2130000AF0F7
:10A8D00039FF00282AD0AB8812ACA380AB79A42022
:10A8E000A371184B1293AB6814932B7B23736B7B70
:10A8F0006373AB7BA3730CF031FD0523050002935A
:10A90000013B0193383300932200049B310001F096
:10A91000E3FC0D4B1D6044353D600B4B084A1B6842
:10A920001068002B00D0436417B0F0BD48200CF035
:10A9300015FD052204990400FFF738FFA0E7C04683
:10A940001C250020687802001825002082B0F0B590
:10A950000400EDB06420739372920CF006FC0522A3
:10A9600010A8110009F05BFD974911A8FFF7C4FB7F
:10A97000002221AB6CA91A605A609A600C3399428C
:10A98000F9D11922002113A80CF06EFEA0680AF07C
:10A9900003FB00260B90FF21A06800F047FD8B4FC2
:10A9A000A06800F05DFB07960996884B9F4203D094
:10A9B000874B9F4200DBFDE0A0680AF0EFFAA56834
:10A9C00084491AA8FFF7ACFA78221AA9280000F0E7
:10A9D00075FC1AA809F02DFC00267C4F0322099B68
:10A9E000606801331A40099209F0B7FE05006068FB
:10A9F00009F0BAFE0022784B05929D4210DB01322D
:10AA000005922A00C8320BDBAA220421920005918C
:10AA1000954205DC02220592C82D01DD0132059226
:10AA200000220692984210DB012306930300C833EC
:10AA30000BDBAA2304329B000692984205DC02231A
:10AA40000693C82801DD0133069310A809F0DEFC47
:10AA5000002513ABEB5C012B08D160496B00CA18D1
:10AA60005278C95C10A8FF23FFF7D8FA0135192DD9
:10AA7000EFD16B4618229A5E6B4610A81421595EDE
:10AA8000099BFFF7CBFA002F01DB0F2E07D900231C
:10AA9000A068009374301A0010A909F0CDFC0123BE
:10AAA0000893089B05995A004C4B9B189A1E1278E4
:10AAB0008A4226D1013B1B78069A934221D1089AFB
:10AAC0006CAB9B18663BFF3B0A931B78012B18D09D
:10AAD0000C23079A216853431D0000220CA809F09B
:10AAE000C6FE21AA2B0094460CAA634423CA23C3A2
:10AAF00001220A9B01361A70079BF6B20133DBB2C2
:10AB00000793089B013308931A2BCAD164200CF0D9
:10AB10002CFB079B643F3FB2182B00D845E71A0077
:10AB200021A91AA80AF0B1F86A461DAB23CB23C2AB
:10AB30001B6813601A991B9A1C9B206809F07FFE02
:10AB4000E568002D0CD0264912A8FFF7E9F91C236F
:10AB50001AAA12A928000AF0C0FD12A809F069FB80
:10AB6000A0680AF01BFA11A912A8A56809F037FC21
:10AB700000221C4B009212A901932800130000F040
:10AB80000DFB12A809F01EFCFA2080000CF0EDFA73
:10AB9000A0680AF003FA0B99A06800F047FC11A81E
:10ABA00009F010FC10A809F00DFC6DB0F0BC08BC59
:10ABB00002B01847002F02D00F2E00D00EE7A06879
:10ABC00000F04EFA0AE7C046238602008C3C0000E3
:10ABD000D18AFFFF6886020058FDFFFF88860200C9
:10ABE0007D860200DC050000F0B587B001930EAB56
:10ABF0001B88060003930D9B0D000093019B02929E
:10AC00000C9F002B3CD0002F02D1009BDB0737D5D7
:10AC100028200CF0A3FB0400103009F0A6FB029BD7
:10AC20001820258063800CF099FB0500009B08220A
:10AC30000593019B002103600C3004970CF014FD78
:10AC4000082204A9281D0CF0F3FC0E4B02226B61B4
:10AC500000230399E3602362636233680A43A560BB
:10AC6000A2805B68210030009847002806D02000B1
:10AC700009F095FA20000CF066FB034807B0F0BD20
:10AC80000248FBE7AF48020016FCFFFF17FCFFFF7E
:10AC900070B58CB08360109B01604260C36004009B
:10ACA000184918000AF0E0FC051E14D001001C220F
:10ACB000103105A80CF0BCFC6A4608AB43CB43C27C
:10ACC0001B68136020680599069A079B09F0B7FD79
:10ACD00028000CF038FB0C4B186800280ED00B4AEB
:10ACE00005AB059200220692C03202926A4622CB40
:10ACF00022C2230003220521FFF776FF20000CB0BB
:10AD000070BDC0467D8602000C2500204DA90100C3
:10AD1000F0B5040085B0637A9C46002B04D1200076
:10AD200009F0D1FF05B0F0BDA37A266F019310237F
:10AD3000019AF35600259B1801229A402900F368D6
:10AD400003920293029BAB4231DDB368019A6B43DD
:10AD50009B1872695B00E77AD3181A785878E37900
:10AD6000012F14D15F1E3F1A10003A005B004343CD
:10AD7000606F8218D3189B79634500DD6346627B60
:10AD80001A4202D00123AB4019430135DAE7022F02
:10AD900005D15F1EBA1A277A013F381AE6E7032F5A
:10ADA000E4D1277A013FBF1A02003800DEE7112301
:10ADB000C943F356606C994023691940039B1943BA
:10ADC0000CF0A0FAA27B072AACD8637B0C495B008D
:10ADD0006373531CDBB290004158A373022A03D85B
:10ADE00008000CF0B7F996E7064B20002363002318
:10ADF0006363054BE462236414300CF039F891E787
:10AE0000F078020011AD0100B14C020010B5040051
:10AE1000044B03600CF024F8200005F03FFF2000F5
:10AE200010BDC0464080020010B504000E4B083330
:10AE30000360FFF767F82000743009F0C3FA2000C0
:10AE4000603009F0BFFA2000583009F0F2F9200014
:10AE5000503009F0EEF92000044B14306361FFF725
:10AE6000D5FF200010BDC04610790200748002009A
:10AE7000F8B500250400324B8580083303608571E6
:10AE8000143016000F0005F0F3FE20002D4BE56294
:10AE9000636125645030FFF77DF820005830FFF7DC
:10AEA00079F820006030FFF7A3F820000423F25E59
:10AEB00033682667590009B2743009F0B0FA336874
:10AEC000226FE37173680126237210236581A780C6
:10AED0002561D35691685918994204DD3000984095
:10AEE00001330543F8E711230120D356D1685918DF
:10AEF000994206DD02009A402669013332432261FD
:10AF0000F6E714200CF02AFA226900212A430123D3
:10AF1000060006F059FAFF23220063720133A38171
:10AF2000002348326664A37320001370A366FEF703
:10AF3000CBFF0123A27920001343A371F8BDC046C3
:10AF40001079020074800200F0B5437A85B00400E5
:10AF5000002B04D1200009F0B6FE05B0F0BD01229F
:10AF6000837A11009C461023066F0025F356039246
:10AF70006344994002912900F3680193019BAB421D
:10AF80002CDDB36872696B4363445B00E77AD318C6
:10AF90001A785878E379012F10D15F1E3F1A1000FC
:10AFA0003A005B004343606F8218D3189B79002BF3
:10AFB00002D0039BAB4019430135DFE7022F05D1D7
:10AFC0005F1EBA1A277A013F381AEAE7032FE8D141
:10AFD000277A013FBF1A02003800E2E71123C94374
:10AFE000F356606C994023691940029B19430CF099
:10AFF00089F9667AB31EDBB2FC2B14D8FEF712FF78
:10B000000B4B0500236300230A4863630A4BFF21AF
:10B01000E4622364704306F0A5FD2900414320004B
:10B0200014300BF025FF637A012B00D995E791E7E7
:10B03000C74C0200B6030000B14C02001FB501234B
:10B0400081881A00684609F09AF9012303491A0019
:10B05000684609F094F905B000BDC046FE03000043
:10B060001FB5030048331A780400002A0DD00022CF
:10B070001A70012381881A00684609F080F90123BB
:10B0800004491A00684609F07AF92000743009F082
:10B09000BDF91FBDFF03000010B548300378002B39
:10B0A00006D00378012B03D00121024808F0CCFF21
:10B0B00010BDC046FF03000010B5012104000620AA
:10B0C00008F0C2FF064B984208D148342378002B81
:10B0D00004D02378012B01D020BFF7E710BDC04674
:10B0E00016FCFFFF70B50600141E19DB050048357D
:10B0F0002B78002B02D02B78012B13D100233000AA
:10B100001A007430FFF748F8002C07D033004A3398
:10B110001C80002407234C3634802B70200070BD27
:10B12000014CFBE7014CF9E717FCFFFF12FCFFFFA6
:10B13000F8B517000A68050052880B00012A09D1EA
:10B140000021180009F004F9002201002800FFF78F
:10B15000C9FFF8BD002F19DD060048363278002AF5
:10B1600002D03278012A13D12A00002428005C3250
:10B1700019001480583009F0C6F82B004A331F809C
:10B1800003234C352C8020003370E2E70148E0E7D0
:10B190000148DEE717FCFFFF12FCFFFF73B5079CB9
:10B1A0000500002C1CDB060048363078002802D051
:10B1B0003078012816D106981BB2C0B20090280042
:10B1C00012B2743009F038F9002C07D02B004A3342
:10B1D0001C80002407234C352C803370200076BD62
:10B1E000014CFBE7014CF9E717FCFFFF12FCFFFFE6
:10B1F000F7B505000E00171E26DDFFF74DFF2B00EB
:10B2000048331C78E4B2002C20D133685B88012BD2
:10B2100009D12100300009F09BF82200010028002C
:10B22000FFF760FFFEBD310001A809F064F83A00A5
:10B2300001A92800FFF77CFF01A808F0FAFF280009
:10B24000FFF73AFF2000EDE70148EBE70148E9E7A7
:10B2500017FCFFFF11FCFFFFF0B587B00D9C060047
:10B260000F0002920393002C20DBFFF715FF330041
:10B2700048331D78EDB2002D1AD1390005A809F028
:10B28000AEF80C9B01940093029A039B05A9300031
:10B29000FFF784FF05A809F095F8002C03D03000D3
:10B2A000FFF70AFF2C00200007B0F0BD014CFAE7C1
:10B2B000014CF8E717FCFFFF11FCFFFFF8B5040095
:10B2C000171E1DDD060048363378002B02D0337878
:10B2D000012B17D12200E3795632013B1370230072
:10B2E0000025200054331D80503009F00CF8230055
:10B2F0004A331F80022328004C3425803370F8BD68
:10B300000148FCE70148FAE717FCFFFF12FCFFFFCA
:10B31000F7B505000F00161E18DDFFF7BDFE2B0068
:10B3200048331C78E4B2002C12D1390001A808F08F
:10B33000E2FF320001A92800FFF7C0FF01A808F0D2
:10B3400078FF2800FFF7B8FE2000FEBD0148FCE7AB
:10B350000148FAE717FCFFFF11FCFFFFF8B50400F6
:10B36000171E2DDD060048363278002A02D03278CA
:10B37000012A27D15D42069BFF331FD16B1D22009E
:10B380001BB2643213802300200066331D706030CE
:10B3900009F02DF8230000226C331A70954200D07A
:10B3A0003D0023004A331D80079B00205A1E934115
:10B3B000013F4C34053327803370F8BD069BDEE730
:10B3C0000148FAE70148F8E717FCFFFF12FCFFFF0E
:10B3D000F0B587B005000F00161E03931EDDFFF7C2
:10B3E0005BFE2B0048331C78E4B2002C18D13900E6
:10B3F00005A808F0F4FF0D9B320001930C9B05A9F2
:10B4000000932800039BFFF7A9FF05A808F0DAFFC7
:10B410002800FFF751FE200007B0F0BD0148FBE710
:10B420000148F9E717FCFFFF11FCFFFFFF2902D8D5
:10B430004172002070470148FCE7C04617FCFFFF3F
:10B4400013B5040004A80078009020000BF036FD2E
:10B45000002801D1207516BD0048FCE70EFCFFFF57
:10B4600013B5040004A80078009020000BF00EFD36
:10B47000002801D1207516BD0048FCE70EFCFFFF37
:10B480007FB50D0011000F226A4404001E1E1170CA
:10B4900016D0089B002B13DD012329000093FFF732
:10B4A000DFFF002802D0074804B070BD0090089B61
:10B4B000320029002000FFF7C3FF0028F4D0F2E794
:10B4C0000148F1E70EFCFFFF17FCFFFFF7B507008F
:10B4D0000D1E3FD00023022604690193002C35D0B5
:10B4E000AA88A3885340334204D1324204D1AB88A6
:10B4F000334226D0646AF1E7A968A0680AF0C4FB69
:10B500000028F4D02B88002B02D022889A42F1D157
:10B510006B88002B02D062889A42EBD1EB68E2681C
:10B52000934201D0002BE5D17B68002B01D0200095
:10B530009847A288084B1343A380019B01330193D2
:10B54000D8E7A368AA689342D4D1DBE7019B200027
:10B55000002B00DC0148FEBD0080FFFF17FCFFFF51
:10B56000F0B5060085B00D1E5DD001270469002CE2
:10B5700026D00221AA8800230A4202D0A3885B08B1
:10B580003B40226829688A4214D1A068A968002B30
:10B590000ED00AF079FB00280CD0EB68E2689342E9
:10B5A00008D1A3881AB2002A06DB204805B0F0BDF6
:10B5B0008842F2D0646ADAE75B045B0CA380F4E7AC
:10B5C00030692A88002807D1356101231849684667
:10B5D00008F0D5FE0020E9E7010003001C88944232
:10B5E00006D25C6A1900002C0DD02300F6E7230078
:10B5F0001C88944207D15F886C88A74203D85C6A94
:10B600001900002CF3D1884209D10B889A4204D347
:10B6100005D148886B88984201D96962D4E74B6AA2
:10B620006B624D62D1E70348C0E7C04616FCFFFFDE
:10B63000FD03000017FCFFFF064B10B51A000400C5
:10B6400008322C33026083600830FEF7ABF920002B
:10B6500010BDC0462879020008B4024B9C46083849
:10B6600008BC604739B6010008B4024B9C46083854
:10B6700008BC60470F5102000C4A002311002C3215
:10B68000083110B543608381837382600361436135
:10B690008361C383016004000830FEF775F9044B31
:10B6A0001A68002A00D11C60200010BD2879020011
:10B6B0000C250020F7B50E00012504690192002C2D
:10B6C00036D0238832889A4201D0002B23D1638858
:10B6D00072889A4201D0002B1DD1FEF7C9F80123D0
:10B6E000002806D0C022A3881340C03B5A425341D1
:10B6F000DBB2019A934219D1A7883BB2002B15DB2C
:10B7000010223100A0180BF093FF40231F4204D0F9
:10B71000200009F005FD646AD1E7FEF7A9F80028CA
:10B72000F6D021000348FEF755FAF4E70025F2E7CA
:10B730002800FEBD2151020008B4024B9C46083887
:10B7400008BC6047A9520200F0B587B001930EAB68
:10B750001B88060003930D9B0D000093019B029232
:10B760000C9F002B3CD0002F02D1009BDB0737D56C
:10B7700028200BF0F3FD0400103008F0F6FD029BCA
:10B780001820258063800BF0E9FD0500009B08224E
:10B790000593019B002103600C3004970BF064FFBC
:10B7A000082204A9281D0BF043FF0E4B02226B61F7
:10B7B00000230399E3602362636233680A43A56050
:10B7C000A2805B68210030009847002806D0200046
:10B7D00008F0E5FC20000BF0B6FD034807B0F0BD13
:10B7E0000248FBE7E352020016FCFFFF17FCFFFFD5
:10B7F000F0B50400160000258380164A164B8571AB
:10B800000260218146810573186889B08C46A84280
:10B810001DD0124A05950492C02202926A4604ABDA
:10B8200082CB82C223002A006146FFF78DFFC0222F
:10B83000094B0A49186802926A46069106AB0795B9
:10B8400082CB82C223002A003100FFF77DFF200057
:10B8500009B0F0BD6C7902000C2500200D540200E7
:10B8600030B5002403730123034D8471056081808A
:10B8700082734373846030BD6878020070B5837949
:10B880000400DB0702D580680BF05DFDA3799B0700
:10B8900002D5A0680BF057FDA3795B0707D5A0235D
:10B8A0000021144ADB00D150A0680BF04CFDA379B5
:10B8B0001B0708D5A568002D05D028000AF055FA09
:10B8C00028000BF040FDA379DB0605D5A068002811
:10B8D00002D00368DB6898476023A2791A4205D03A
:10B8E000A068002802D003685B6898470023A36023
:10B8F000A37170BD00700040F7B50227037B040000
:10B900000D003B4226D0012926D886793E4000967C
:10B9100014D1FFF7B3FF18200BF020FD0E23060013
:10B92000E3561822009901930BF09EFE0199300016
:10B930000BF06FFBA379A6603B43A371A3685A6821
:10B94000002D04D00025DB681A602800FEBD1B69AD
:10B950001A60FAE7014DF8E7014DF6E716FCFFFF24
:10B9600017FCFFFFF7B50126037B040033422AD002
:10B97000612385791D4017D1FFF780FF18200BF058
:10B98000EDFC0E230700E35618220093637B290089
:10B9900001930BF069FE019A009938000BF027FB28
:10B9A000A379A7603343A3716023A279A0681A42E8
:10B9B00002D00BF0D1F9FEBD436940681B68184006
:10B9C000431E9841F7E70148F5E7C04616FCFFFF24
:10B9D00010B50124837941731C4004D080680BF0BA
:10B9E000D0FB002010BD6022134203D080680BF012
:10B9F000BAF9F6E70048F5E716FCFFFF70B504005A
:10BA000000250C4B0E0008338580857103602100F2
:10BA1000183009F0ACFD20002100203009F0CAFDEB
:10BA2000054BA680E5802572E560256165612000F3
:10BA30001C6070BD7C790200202500208379DB0723
:10BA400002D5C160002070470048FCE716FCFFFFEC
:10BA50008379DB0701D5C06870470148FCE7C04621
:10BA600016FCFFFF70B545690400002D22D0037A53
:10BA7000032B21D8FFF7ECFFA8622C200BF06EFC03
:10BA80002C22002105000BF0EFFD002263695A62B1
:10BA90002369934208D1636923610020237A656199
:10BAA0000133237270BD13005A6A002AFBD1626908
:10BAB0005A62F2E70148F5E70148F3E717FCFFFF98
:10BAC00013FCFFFF144B70B55A68144C002A03D0C6
:10BAD00000225A600132A2601A69002A17D00021A0
:10BAE00019618023DB000E4DE3582868012B0FD12C
:10BAF000A923DB00E1584942FFF7A0FF2868FFF7C0
:10BB0000B1FF2B685A69074BE2500123A36070BD57
:10BB1000FFF794FFF9E7C046FC100040001000401A
:10BB2000202500200405000003000069002809D03A
:10BB30000221054AD167426A1A611A7A013A1A72D9
:10BB4000024B19607047C04604E100E000E100E0EC
:10BB500010B5002903DB024B19600BF0FFF910BD93
:10BB60002425002070B504001E0004AB1D7805F0EC
:10BB7000C7F820000E4B40302360FEF70BFA23007D
:10BB800001364C33013522001E701D730023E12164
:10BB90004E32A3646365138053809381D381013B4C
:10BBA000200063644902FFF7D3FF200070BDC04648
:10BBB00018780200F7B580277F053D697C69082267
:10BBC000113C6C430600210068460BF031FD104B20
:10BBD000009A9A4219D000930023019379693000AA
:10BBE0001339694309F0FBFC019A0099300009F010
:10BBF0000EFD2100300009F0F2FC7969AB08133921
:10BC000069432200300009F0F4FC0198FEBDC046F3
:10BC1000FECA0000F0B50D00A9B00D92002130223F
:10BC2000060010A80B930BF01FFD28000BF05CFD25
:10BC3000431C0C93102B00D9B5E00B9B202B00D993
:10BC4000B1E02900300009F00FFD071E50D1290096
:10BC50000C9A10A80BF0ECFC0D990B9A14A80BF0A1
:10BC6000E7FC80235B051A695F690C92113F7A43F8
:10BC700030005D690B92FFF79DFF30220021040028
:10BC80001CA80BF0F1FC290000270C9B1339594329
:10BC9000300009F0A4FC0D9730257D430B9B083341
:10BCA000ED18A74242DA290030221CA80BF0C0FC94
:10BCB00010A91CA80BF00EFD002827D13C4930002C
:10BCC00022000E910F9409F0A2FC6A46099513AB6D
:10BCD00023CB23C223CB23C223CB23C23000129B0E
:10BCE0001099119A09F0A1FC01230D930137D3E7B4
:10BCF00010300B9A0D990BF08CFC040038000BF0FF
:10BD000022FB002CA3D1200029B0F0BD6A46099582
:10BD10001FAB23CB23C223CB23C223CB23C23000B0
:10BD20001C991D9A1E9B09F080FCDFE7E543302338
:10BD3000ED1725405D430B9B08355D190D9B002BCE
:10BD40001DD10C9B3021981E05F082FEA0422CD004
:10BD500017490134300022000E910F9409F057FC6E
:10BD60006A46099513AB23CB23C223CB23C223CB33
:10BD700023C230001099119A129B09F056FC0B99BE
:10BD8000300009F02CFC80235B0559690C230C9AC8
:10BD9000133963434A430233110030000B9A09F010
:10BDA00028FC0024AFE7034CADE7034CABE7C046EB
:10BDB000FECA000017FCFFFF13FCFFFF8023F0B555
:10BDC0005B051A6995B003925A6905910399113A76
:10BDD00051435D69039B133D040002915D43FFF7EE
:10BDE000E9FE061E3BD0002730220021083508A8B6
:10BDF00001950BF039FC0199200009F0F0FB049744
:10BE000030237B43029D0835ED18B7421FDA290025
:10BE1000302208A80BF00CFC059908A80BF05AFC7E
:10BE200000280AD11949721E20000691079209F0D4
:10BE3000EEFB012304930137E2E70C23019A29006A
:10BE4000200009F0D6FB019B30330193F3E7049BFC
:10BE5000002B06D10D493200200009F0D8FB0C4818
:10BE600012E00299200009F0BAFB80235B055969B2
:10BE70000C23039A13394A43734311002000023301
:10BE8000029A09F0B6FB002015B0F0BDFECA000012
:10BE90000CFCFFFF70B50400A280FA22002308000A
:10BEA0000C49920008312160A3716061E260A360D7
:10BEB0006382094909F0D8FB051E09D00100200062
:10BEC0001031022212300BF0B3FB28000BF03BFACA
:10BED000200070BD94790200BA86020030B50225B8
:10BEE000837987B004002B4204D1FDF74DFDA3797F
:10BEF0001D43A571200009F001FC00281CD06B46F1
:10BF0000DD1C280009F0F1FB2B78002B17D001A8CD
:10BF100009F0E9FB0321019AD3170B409B189B10F2
:10BF20002382FDF7B9FFE368A18818180123A060F8
:10BF30001A0002A808F023FA002007B030BD012241
:10BF4000064B1A60064A51680029FCD00021516056
:10BF5000044A1268019201225A60DBE700C00040E7
:10BF6000FCC0004008C50040022802D10122014B5C
:10BF70001A7070470728002070B5064C050023781A
:10BF8000002B04D1044802F0FFFA0123237028009B
:10BF900070BDC0460828002069BF010070B50C00C4
:10BFA00007F0E0FF002810D00023144DA40A2B70E6
:10BFB000200009F0B7FB002803D00A200BF0D5F8C9
:10BFC000F6E72B78002BFCD070BD02210C4B0D4AFC
:10BFD00099508021C90008005D58002DFCD0A12196
:10BFE000C9005C5019580029FCD0002199508021CB
:10BFF000C9005A58002AFCD0E6E7C04607280020AE
:10C0000000E0014004050000F8B50C0015001E001A
:10C0100007F0A8FF002811D00023174F3B70320013
:10C020002900200009F07CFB002803D00A200BF037
:10C030009CF8F4E73B78002BFCD0F8BD01210F48B9
:10C040000F4B844619508021C9005A58002AFCD051
:10C0500080270022FF00964207DD9100685860505B
:10C06000D9590029FCD00132F5E7002261465A5027
:10C07000DA59002AFCD0E0E7072800200405000078
:10C0800000E0014008B4024B9C46443808BC6047BD
:10C0900029570200FA21F8B50389C9000400594361
:10C0A000324809F007FEFA21890005F0D1FC304F33
:10C0B0002081A17A380009F0FDFD2300260025002B
:10C0C00022894C33A072A0361A808C353178002337
:10C0D0002A22286808F06FFF002801D02548F8BD03
:10C0E00031781F235B22286808F065FF0028F5D10E
:10C0F000317820235C22286808F05DFF0028EDD10C
:10C10000317801232C22286808F055FF0028E5D15A
:10C11000317801232D22286808F04DFF0028DDD159
:10C12000317801232E22286808F045FF0028D5D158
:10C13000A17A380009F0B9FD3178C3B20E2228681F
:10C1400008F039FF0028C9D1FA2123898900594311
:10C15000064809F0AAFD01230343DBB231782A2205
:10C16000286808F028FF0028B9D0B7E7B4790200A2
:10C17000AC7902000EFCFFFF08B4024B9C46443829
:10C1800008BC604795C00100074B10B51A000400B9
:10C1900008323C3302604364443008F00CFB20005A
:10C1A00008F03CFA200010BD147A020008B4024BDB
:10C1B0009C46443808BC604789C1010008B4024B62
:10C1C0009C46443808BC604733570200F0B504254C
:10C1D00083798BB004002B4204D1FDF7D5FBA37902
:10C1E0001D43A57120009030FFF7BCFB0026B04234
:10C1F0000FD12300A033197820000C2307AD009342
:10C200008C302B0001220068FFF73AF9061E03D09C
:10C210002C4E30000BB0F0BD0A2304AA9B182A78DC
:10C220005A706A781A700022985EAA785A70EA7872
:10C230001A700022995E03912A795A706A791A70ED
:10C2400000229F5EAA795A70EA791A7000215A5E1C
:10C2500004922A7A5A706A7A1A7000215A5E0592FC
:10C26000AA7A5A70EA7A1F251A7000229B5EA27A77
:10C2700003999C46514349425043CB172B407A4384
:10C280005B185B11A361C3172B401818D3171D400F
:10C290006423AD18059A5B425343A3676423614648
:10C2A000049A40115A434B43E2676D11221DE0612D
:10C2B00025622000D36708F023FA2000443008F0FC
:10C2C00081FAA6E70EFCFFFF08B4024B9C464438F7
:10C2D00008BC6047CDC10100F7B51E00040008ABE3
:10C2E0001B881500019309AB00911A8831000AAB35
:10C2F0001F88FEF707F820003A0031004430FEF7AF
:10C3000055FA134B20001A003C33636423000832B3
:10C310002260009A8C331A60AB8890308380AB79AE
:10C32000019A83710B4B03210360AB6883602B7B05
:10C3300003736B7B4373AB7B83732300A0331A803F
:10C34000FFF746FB2000FFF7A5FE2000FEBDC0461C
:10C35000147A020068780200F8B5FA260189B6005E
:10C3600004007143264809F0A5FC310005F070FB7C
:10C37000244F2081A17A380009F09CFC2500A0728E
:10C380005835297800232A22606C08F014FE002812
:10C3900001D01D48F8BD297810232B22606C08F0CD
:10C3A0000AFE0028F5D1297801232D22606C08F0BF
:10C3B00002FE0028EDD1297801232E22606C08F0BE
:10C3C000FAFD0028E5D1A17A380009F06EFC297841
:10C3D000C3B20E22606C08F0EEFD0028D9D121898D
:10C3E0000748714309F061FC01230343DBB229785C
:10C3F0002A22606C08F0DFFD0028CBD0C9E7C046D8
:10C400007C7A0200747A02000EFCFFFF10B5040073
:10C41000034B0833036008F001F9200010BDC0464B
:10C42000DC7A02007FB50425837904002B4204D115
:10C43000FDF7AAFAA3791D43A57120004830FFF744
:10C4400091FA0025A8420DD123005833197806230C
:10C4500002AE009301223300606CFFF711F8051E55
:10C4600003D00D4D280004B070BD0223002104202C
:10C47000F356A27ADB00715630565343C000C90010
:10C48000514342435B42A3612368E16122629B6A9C
:10C4900020009847E6E7C0460EFCFFFFF8B5040011
:10C4A000150006AA168807AA0F0012881900FDF7C2
:10C4B00029FF0F4B6764083323602300AA884833A1
:10C4C0009A80AA7920009A710A4AA264AA68226511
:10C4D0002A7B1A736A7B5A73AA7B9A730023A3710F
:10C4E000230058331E80FFF737FF2000F8BDC046F9
:10C4F000DC7A02006878020010B50400034B0833B0
:10C50000036008F058F9200010BDC046707B02009F
:10C51000F0B507005C3787B004003978002310229B
:10C52000806C08F048FD0326002802D01F4807B0A1
:10C53000F0BD0F2502ABED180123397808220093D6
:10C54000A06C2B00FEF79CFF184B9842EED02B7886
:10C55000334203D06420FDF7B1FAEAE7FA262189D5
:10C56000134DB6007143280009F0A4FB310005F01B
:10C570006FFA20813978A0231122A06C08F01BFDEE
:10C580000028D3D1A36C21890393714328003F78FD
:10C5900009F08BFB01231843C3B210223900039822
:10C5A00008F009FD0028C2D0C0E7C0460EFCFFFF1E
:10C5B000107B020070B50825837986B004002B42F9
:10C5C00004D1FDF7E1F9A3791D43A57120004C309A
:10C5D000FFF7C8F9061E0DD023005C331978062337
:10C5E00004AD009301222B00A06CFEF749FF061E4C
:10C5F00003D0134E300006B070BD0E232A786B4472
:10C600005A706A7820001A700022995E64224A43A8
:10C61000A263AA785A70EA781A700022995E64229E
:10C620005242514361632979597069791970002127
:10C630005B5E5A432368E2631B6A9847DAE7C046A9
:10C640000EFCFFFFF8B50400150006AA168807AA1D
:10C650000F0012881900FEF7A9F80D4BA7640833E4
:10C6600023602300AA884C339A80AA7920009A710B
:10C67000084AE264AA6862652A7B1A736A7B5A7365
:10C68000AA7B1E829A73FFF743FF2000F8BDC046C5
:10C69000707B020068780200F7B5FA250189204F07
:10C6A000AD0004006943380009F004FB290005F0DF
:10C6B000CFF9A17A20811B4809F0FCFA2600636CAF
:10C6C000A07200932189583633786943380001936A
:10C6D00009F0EBFA07230343DBB22022019900980B
:10C6E00008F069FC002801D00F48FEBD3178102306
:10C6F0002222606C08F05FFC0028F5D1A17A09487D
:10C70000656C377809F0D1FA80235B420343DBB2D2
:10C7100023223900280008F04EFC0028E5D0E3E78A
:10C72000A47B02009C7B02000EFCFFFF10B50400FE
:10C73000034B0833036007F071FF200010BDC046B3
:10C74000147C0200F0B50425837985B004002B42E7
:10C7500004D1FDF719F9A3791D43A57120004830D4
:10C76000FFF700F9061E0DD0230058331978062371
:10C7700002AD0093A8222B00606CFEF781FE061E1E
:10C7800003D0144E300005B0F0BD1F200023EA5E38
:10C79000D31703409B180222A95E5B11CA170240FF
:10C7A000521804216F5E5211F9170140C91949113D
:10C7B0002B806A80A980A07A4343424341435B4275
:10C7C000E36123685242A26121629B6A200098477C
:10C7D000D8E7C0460EFCFFFFF8B50400150006AA16
:10C7E000168807AA0F0012881900FDF78BFD0F4B62
:10C7F0006764083323602300AA8848339A80AA79A3
:10C8000020009A710A4AA264AA6822652A7B1A73D8
:10C810006A7B5A73AA7B9A730023A371230058334F
:10C820001E80FFF739FF2000F8BDC046147C0200CF
:10C8300068780200F7B5FA2504000189134EAD00AF
:10C840006943300009F036FA290005F001F92700A4
:10C85000A36C208100935C373B7881B26943300040
:10C86000019309F022FA6022C3B20199009808F0FE
:10C87000A2FB002801D00648FEBD397801236222C0
:10C88000A06C08F098FB0028F6D0F4E7487C020082
:10C890000EFCFFFF10B50400034B0833036007F0E4
:10C8A0008AFF200010BDC046707C02007FB50825BD
:10C8B000837904002B4204D1FDF766F8A3791D4368
:10C8C000A57120004C30FFF74DF8051E0DD0230058
:10C8D0005C331978062302AE0093E8223300A06C83
:10C8E000FEF7CEFD051E03D00B4D280004B070BD31
:10C8F0000223F25E96235B425A4362630021725E1A
:10C9000020005343A3630423F25E96235343E3635F
:10C9100023681B6A9847E8E70EFCFFFFF8B50400A0
:10C92000150006AA168807AA0F0012881900FDF73D
:10C930003DFF0D4BA764083323602300AA884C33C6
:10C940009A80AA7920009A71084AE264AA6862650E
:10C950002A7B1A736A7B5A73AA7B1E829A73FFF72B
:10C9600069FF2000F8BDC046707C020068780200B4
:10C9700010B50400054B083303601C3007F059FC68
:10C980002000183007F055FC200010BD9C7C0200F0
:10C99000FF23F0B52C4D8DB02B70002304006946A9
:10C9A0000088009303F0B2F9002802D16B469B780F
:10C9B0002B70264E3368DB68002B07D100232088BC
:10C9C0001A00190008F025FF0DB0F0BD2B78032BDD
:10C9D000F4D81F4901A8FDF7A3FA336801A9DE685E
:10C9E00004A807F088FC04A9300008F070FE0027B6
:10C9F000060004A807F01DFCBE421ED03100202214
:10CA0000103104A80AF014FE30000AF09CFC2978CA
:10CA100004ABC9005918082202A80AF009FE2088B0
:10CA20000123082202A908F0F4FE0137002804D1EE
:10CA30002088084A0C2108F0EAFE01A807F0F9FB5B
:10CA4000002FBBD0C0E7C046802000203425002046
:10CA50004D870200FFFF0000F0B5837991B004001C
:10CA60005B071BD5FDF718FA00232269801A99414C
:10CA7000994203D1F423FF3398420FD9A0680028CC
:10CA800008D0364B1D8809F08DF9036815221B6A02
:10CA9000290098470422A3799343A371A3799B07A4
:10CAA00059D52F4D2B68DB68002B50D02D4B1B78B0
:10CAB000032B4CD8294B2C491B8804A80193FDF764
:10CAC0002FFA2B6804A9DE6808A807F014FC08A94F
:10CAD000300008F0FCFD070008A807F0AAFB02AB35
:10CAE0009E1D08233200338006A9073B019808F0F9
:10CAF00092FE002F08D039002022103108A80AF039
:10CB000097FD38000AF01FFC164B32881B7806A9E7
:10CB1000DE0008AB9E1930000AF07BFD002813D020
:10CB2000082206A930000AF083FD2B6804A9DD68FD
:10CB300005A807F0E0FB202308AA05A9280008F0B3
:10CB4000CCFD05A807F075FB04A807F072FB0222D4
:10CB5000A3799343A37111B0F0BDC046B027002064
:10CB600034250020802000204D870200F7B5089E64
:10CB70000500152922D8012007008F40244C2742A8
:10CB80001CD0E97FCC181F2C41DC69183418A14255
:10CB900010D80021C8B2834204D9545C7018847044
:10CBA0000131F7E732789A183270EA7F9B18EB77F9
:10CBB00000202CE00878C8540139E8E73478013CBB
:10CBC000E4B2A34208D10023D9B28C42F0D9D05CA0
:10CBD000F11888700133F7E7EF7F0120FF183F1B42
:10CBE0001F2F14DC0227A01C7F423618381B01902F
:10CBF000E87F2F18BE4204D23078019FF0550136ED
:10CC0000F6E7041B023CEC77280008F04EFEFEBD60
:10CC1000FC002000F0B5040085B001930AAB1E882B
:10CC20000BAB1B78451C02930EAB1B7817000393CC
:10CC30000B78102203704B8A0131438228000AF0DE
:10CC4000F7FC268300260122019B67616383039B17
:10CC5000E6832377029B2000EB77A31CDA770C9BFB
:10CC60000C25636223000D9A28331A705E709E7043
:10CC70002A0031002C300AF0F7FC2000064BE66356
:10CC8000A3632A00310040300AF0EEFC2000034B81
:10CC90002665E36405B0F0BD2D5802001F58020060
:10CCA00070B50D0009F07EF804000368002D09D16D
:10CCB0005B699847FA2080006843074904F0C8FE82
:10CCC000E08070BD9B6898478542F3D223682000BE
:10CCD0009B6898470500EDE771020000F0B507007A
:10CCE0001600A1B002C704006B4918A81D0008F087
:10CCF00023FE331E03D030000AF0F6FC83B201227B
:10CD000004920022039202920232019200933200B6
:10CD100018A93800FFF77EFF23006049583318A890
:10CD2000079308F009FE2B1E03D028000AF0DCFC54
:10CD300083B20122049200220392029202320192F3
:10CD400000932A0018A90798FFF764FF23005449AD
:10CD5000AC3318A8089308F0EFFD269B002B03D0F6
:10CD600018000AF0C1FC83B201220492002203924F
:10CD70000292023201920093269A18A90898FFF7AE
:10CD800049FF631CFF33474918A8099308F0D4FDF5
:10CD9000279B002B03D018000AF0A6FC83B20122C7
:10CDA00004920022601C03920292023201920093CC
:10CDB000279A18A9FF30FFF72DFF23005533FF33C3
:10CDC000394918A8099308F0B7FD289B002B03D018
:10CDD00018000AF089FC83B2012204920022039217
:10CDE0000292023201920093289A18A90998FFF73B
:10CDF00011FF2300A933FF332C4918A80A9308F028
:10CE00009BFD299B002B03D018000AF06DFC83B218
:10CE100001220492002218AD039202920232019282
:10CE20000093299A29000A98FFF7F4FE204B1B78FB
:10CE30000B93002B2CD1079B12971393089B0DAFDC
:10CE40001493631CFF331593099B1A4916930A9B8D
:10CE50003800179308F070FD1D2149203B781022FF
:10CE60002B707B8A12AE6B8206ABC918C0180AF011
:10CE7000DFFB06232B750B9B2068AB83AE6108F0AC
:10CE800095FF036829001B6898470122084B1A7018
:10CE9000200021B0F0BDC046292A0000242A00004D
:10CEA000252A0000272A0000262A0000282A000040
:10CEB000092800200A18000070B5002504000B4B5B
:10CEC0008580083385710360C1601830FDF762F812
:10CED00020001C30FDF75EF80123621CD377044A62
:10CEE000A560656120001460A37170BD9C7C020088
:10CEF00034250020FA2130B585B005000123022237
:10CF00008900684607F03BFA074C2068002809D0E2
:10CF100008F04BFD2988054B22681980022391797E
:10CF20000B43937105B030BD34250020B02700209D
:10CF300010B50C0007290DD8806808F033FF064BA8
:10CF4000195703685B6C9847431E9841034B404256
:10CF5000184010BD0248FCE74587020016FCFFFFA1
:10CF600017FCFFFFF0B5A44C0D00A5440400079387
:10CF70009AAB1B78A14909A804930692FCF7D0FF4D
:10CF8000200029001C3007F0BEF9C020800001F00D
:10CF9000F1FA08200AF0E2F90600002100F0AEFEE6
:10CFA00015ADA66000210C220EA80AF05DFB2B0037
:10CFB0000EAA83CA83C3924B2900EB600023300082
:10CFC0002B6108F0D8FEA06808F0ECFE08220021D2
:10CFD000059016A80AF048FB14200AF0BFF92900B2
:10CFE0000200884B1593C8C9C8C2874B059EC36011
:10CFF0000023A43603613368002B00D0F5E03060D5
:10D00000A06808F0D3FE08220021060016A80AF046
:10D010002BFB14200AF0A2F97C4B1593030086CD5C
:10D0200086C37B4BC36000230361336B002B00D0AE
:10D03000DDE03063A06808F0B5FE0822002105009D
:10D0400016A80AF011FB14200AF088F9714B15AEEE
:10D050001593030086CE86C36F4B9835C3600023BB
:10D0600003612B68002B00D0C3E02860012504ABCE
:10D070001B7C04AA2B4308A92800137408F0CDFBDD
:10D08000A06808F097FE036864495B6A9847A06847
:10D0900008F090FE036862499B699847A06808F011
:10D0A00089FE002302680093166804992A00B0479D
:10D0B000049B002B0AD0200008F080FC032805DD2B
:10D0C000A06808F077FE0368DB6898470EA808F0B0
:10D0D000E3FB2F2004ABC01808F0DEFB362004ABC6
:10D0E000C01808F0D9FB3D20042504ABC01808F097
:10D0F000D3FB0EAB0A93A06804AB5D7708F05AFE31
:10D1000003680AA91B699847A06808F04BFE0368EA
:10D110000AA95B6D9847A06808F044FE03680021E7
:10D12000DB6D9847A06808F03DFE036802219B6D07
:10D13000984700212000FFF7FBFE18200AF00EF9A7
:10D14000A16800F055FA374B374A1B68A168039372
:10D15000364B15A81B6800260293354B0CAF1B6895
:10D160000193069B1B685B190093324B12681B6886
:10D17000FFF7B4FD30200AF0F1F8079AA16800F03B
:10D18000F7FAA06808F00EFE036839009B6A98471A
:10D19000294BBE80A0680C9308F004FE0368390098
:10D1A000DB6A98472900A06808F0D2FB099A092198
:10D1B0009378A068521908F0DEFBA06808F0F2FD31
:10D1C00032210671A068FFF76BFD04AB1B7FB342F1
:10D1D00004D0A06808F0E6FD08F0A4FB09A807F059
:10D1E00028F895239B009D44F0BD036107E7036188
:10D1F0001FE7036139E7C046ACFDFFFF328802003C
:10D200003B580200F5CE01004958020091C90100C7
:10D210005758020085580200655802003DD20100AF
:10D2200071D20100302500202C250020082000208C
:10D23000282500200C2000200800100013B506222D
:10D240006846FCF77DFE094B1C68002C0AD0694635
:10D2500001A807F050F8200001A908F0D0FB01A8B0
:10D2600006F0E7FF684606F0E4FF13BD3425002012
:10D27000002373B501AE0C0031000500019302F0EC
:10D2800045FD002802D1B278064B1A70064B18688B
:10D29000002806D061426141044BC9B21D8008F0EC
:10D2A000B6FB73BD8020002034250020B02700206D
:10D2B00030B5284CA9B06A220D000DA821000AF053
:10D2C000B7F90DA903A8FCF799FE03A906A807F072
:10D2D00086F801230193013BFF3B00930533FF33A5
:10D2E000642206A92800FEF773F806A807F06AF87A
:10D2F000210019226A3106A80AF09AF905220024B1
:10D30000110006AB04A807F091F804A905A807F0DE
:10D3100066F8019400942300220005A92800FDF777
:10D320009BFF05A807F04EF821002800FEF77EF8C5
:10D3300005340520FCF7C2FBFF2CF5D1FA20800054
:10D34000FCF7BCFB04A807F03DF803A807F03AF887
:10D3500029B030BDC2860200F0B59C4B95B0059255
:10D360001A68082304000391D16C06A80B43D36408
:10D370009749FCF7D5FD974907A8FCF7D1FD220096
:10D3800000250DAE30001C3206A906F0CBFF07AA1F
:10D39000310008A806F0C6FF300006F04AFF631C03
:10D3A000DD77A06808F0FEFC03680BAF5B69984767
:10D3B000300008F071FA2B2004ABC01808F06CFAAA
:10D3C000322004ABC01808F067FA392004ABC0184B
:10D3D00008F062FA8023DB00BB80A0680B9608F09F
:10D3E000E1FC036839005B6D9847A06808F0DAFC3F
:10D3F000036829009B6D9847A06808F0D3FC0700DC
:10D4000006000A371F22290038000AF02DF9FD779F
:10D41000300008F07EFA0621A06808F099FA089A10
:10D4200009219378A068043208F0A5FAA06808F0F2
:10D43000B9FCC8210571A068FFF732FCA06808F0AC
:10D44000B1FCFF272E000581A06808F0ABFC08F0B6
:10D4500069FA0398FDF704FE2000FCF795FA03999A
:10D460002000FFF725FF0399200008F0E3FA049558
:10D47000012563691D402DD0574909A8FCF73CFEE2
:10D4800009A90AA806F0ABFF00220AA9130001921D
:10D4900000920398FDF7E0FE0AA806F093FF049BB4
:10D4A000002B42D1043F282F41DD0025FE2F00DC58
:10D4B000049D059807F06BF9002806D001236269E6
:10D4C0009A431300042213436361002609A806F05F
:10D4D00079FF049504226369134233D0FF21039836
:10D4E000C826FDF7A3FF0025B600A36902229B5EB4
:10D4F000AB4222DD200029B2183006F029FF0023BC
:10D50000010003981A007430FCF746FE3000FCF767
:10D51000D5FA039807F042FDC820FCF7CFFA0222A3
:10D520006369134209D10135DFE70437BBE703988C
:10D5300007F034FD002FBCDDBAE7FA208000FCF7CD
:10D54000BDFA0026022365691D421CD006331D402A
:10D5500024D0224909A8FCF7CFFD09A90AA806F0A2
:10D560003EFF00220AA90192009213000398FDF7E2
:10D5700073FE0AA806F026FF1948FCF79FFA09A8CF
:10D5800006F020FF174E6420FCF798FA164B013680
:10D590009E4200DC6CE706F0F7FC69E7134909A836
:10D5A000FCF7AAFD09A90AA806F019FF2B002A001A
:10D5B0000AA9019500950398FDF74EFE0AA806F00A
:10D5C00001FF09A806F0FEFEDDE7C046B8240020F2
:10D5D00059870200698702006B870200B08702004A
:10D5E000983A00008C0A00008B0A0000ED870200C8
:10D5F0000022594BF0B50833060003600F001000FD
:10D60000A9B0B1600BAB991801324870102AFAD159
:10D610000F3A524C1A700E32105D991A0874013A82
:10D62000FAD2997B5A7B09020A4331000C310391EB
:10D6300025211B7813AD2B7002ABC918452302A816
:10D640001B186A821800102209F0F2FF039B642164
:10D650006B610123002402AA2B7752181993093316
:10D6600013701DAB1C706D2302AA9B181C706E23D7
:10D6700021009B181EA80C22EC836C621C7009F020
:10D68000F3FF374B0C22210023A8AB63EC6309F0B6
:10D69000EBFF344B02AAEB6446239B180322DA7794
:10D6A00022002C650595347306AD2B1901345A7090
:10D6B000102CFAD101232C482B700E33195CEA1A76
:10D6C0001174013BFAD211212520AA7B6B7B120237
:10D6D0000BAC13432A78638202ABC9182270C018BE
:10D6E000102209F0A5FF0123237505ABA3610023D8
:10D6F0003800A38308F05AFB036821001B68984791
:10D7000013ABDB8BB068B38208F050FB00220368D8
:10D710000092B18A039ADC680123A047B06808F040
:10D7200045FB0700142009F019FE00220123040024
:10D730000261069240C008322900079309F078FF81
:10D740000A4BE360BB69002B03D13000BC6129B0F8
:10D75000F0BD2361F9E7C046B47C020046880200B0
:10D760002D5802001F58020056880200955A0200E8
:10D77000F0B500260400724BDDB008330360816011
:10D78000C2608680867132006E4947A808F022FA8E
:10D7900023001433012504270893122300970495CE
:10D7A0000193089A330047A9039602961DA8FFF734
:10D7B00031FA3200644947A808F00CFA0C23220021
:10D7C0000097103215AF0495019347A933000396D3
:10D7D000029632A8FFF71EFA32005C49380008F0C2
:10D7E000F9F921001C3109910423082104950191C4
:10D7F000009339003300099A0396029647A8FFF771
:10D8000009FA32005249380008F0E4F9542009F0CE
:10D81000A5FD2100122204231831079104950192DD
:10D8200000930A0033003900039602960690FFF732
:10D83000F1F9069A474B1000A262D4620AA90822A5
:10D8400030300A930B9609F0F3FE434B069A099980
:10D8500093632932157026610422E661079809F066
:10D86000E7FE04220799089809F0E2FE66220323E6
:10D8700004A95218D377BA225218D37787225200BC
:10D880005218D377069A35490232D3771DAA0C92E3
:10D8900032AA0D9247AA0E92069AA6850F9210A858
:10D8A000320008F097F93021452004AA5218137865
:10D8B000123104AA3B705218138811397B8204ABD1
:10D8C0001022C918C01809F0B3FE04230CADA068DB
:10D8D0003B75BD61BE8308F069FA036839001B68B7
:10D8E0009847822204AB9B181B885432238404ABD4
:10D8F0009B181B885432A38404AB9B181B88A06818
:10D90000638408F053FA0700142009F027FD05008E
:10D91000134B0661082210C010A91093119609F04C
:10D9200087FE104BEB60BB69B34206D1BD6120009E
:10D93000FCF72AF820005DB0F0BD2B61F6E7C04689
:10D94000C07C020086880200668802007688020099
:10D9500096880200A75B0200135B0200A688020003
:10D96000D1D901003D5B0200F0B504000E001500A6
:10D9700085B01F000CAB1B881030019306F0F5FC3E
:10D9800026806580182009F0E9FC02AE050033000E
:10D990000AAA03CA03C32F602800082700213A00FF
:10D9A0000C3009F061FE3A003100281D09F040FEFC
:10D9B000064B02226B61200000230199A5600A43F7
:10D9C000E360A2802362636205B0F0BD675B020082
:10D9D000F0B50B898DB00593CB68050004934B8897
:10D9E000828C9A420ED1049C049B059A9B181B1BA7
:10D9F000032B39DD62882188012308A806F0BFFCCB
:10DA00000434F1E7428C9A422ED1049C049B059A7F
:10DA10009B181B1B032B27DD238828200693638874
:10DA2000EF680793114B08930023099309F096FCC4
:10DA3000C0236A460600029308AB03CB03C22B0047
:10DA40000699079A3000FFF78FFF3B6831005B684B
:10DA500038009847002805D0300006F0A0FB3000C1
:10DA600009F071FC0434D1E70DB0F0BD255C020073
:10DA700070B5040090B0806808F0CFF80221014032
:10DA80001AD1A38D002B17D00C4B6A460493102398
:10DA9000E568A1850591029304AB41CB41C20A0020
:10DAA000230006A8FFF760FF2B6806A99B682800E3
:10DAB000984706A806F073FB10B070BD255C020005
:10DAC000002815D0006041608260C3600461456138
:10DAD0008661C761444604624C464462544684628F
