:020000021000EC
:1080000000400020011602003D1602003F1602004B
:108010000000000000000000000000000000000060
:1080200000000000000000000000000041160200F7
:108030000000000000000000431602004516020088
:1080400047160200D5BA0100AD1202004716020021
:10805000471602000000000001140200471602004B
:1080600047160200150E02007113020047160200A7
:108070004716020047160200471602004716020084
:108080004716020047160200471602004716020074
:1080900047160200C9F0010099FE010047160200D0
:1080A0004716020047160200000000000000000012
:1080B00000000000000000000000000000000000C0
:1080C00010B5064C2378002B07D1054B002B02D0AE
:1080D000044800E000BF0123237010BDB020002041
:1080E00000000000248A0200044B10B5002B03D0CE
:1080F0000349044800E000BF10BDC0460000000076
:10810000B4200020248A0200164B002B00D1144B0F
:108110009D46402292029A1A924600218B460F46B3
:108120001348144A121A0FF0ADFA0F4B002B00D06F
:1081300098470E4B002B00D09847002000210400E8
:108140000D000D48002802D00C4800E000BF0BF0E5
:10815000C5FA200029000EF0E4FE0BF0A9FAC04693
:1081600000000800004000200000000000000000A7
:10817000A8200020D02800200000000000000000FF
:1081800010B50400034B036040300CF060F8200091
:1081900010BDC046347802000200002310B5040070
:1081A0001432C26018320360436083600361037558
:1081B000426283621370024801F06EF8200010BD25
:1081C00004210020020070B5012300253C32137009
:1081D0000564137203000400074E45331D7031001F
:1081E0000C300FF0E7F920003100463424300FF056
:1081F000E1F9257070BDC0460288020007B501A8EC
:108200000CF087F8782201A9054803F089F801A845
:108210000CF01DF8FA20800001F058FC07BDC046A4
:10822000F4210020F0B5036C85B004003C4D012B17
:1082300036D13C4903A801F07BFE782203A928002F
:1082400003F06EF803A80CF002F8666AA36AF71848
:10825000BE4212D0317803A80CF023F8C82203A93B
:108260005200280002F0CCFF03A80BF0F0FFFA2028
:10827000400001F02BFC0136EAE728000CF09CFEE0
:10828000FA20800001F022FC274903A801F050FEEB
:10829000782203A9280003F043F803A80BF0D7FFC6
:1082A000224903A801F044FE782203A9280003F024
:1082B00037F803A80BF0CBFF666AA36AF3180193A3
:1082C000019B9E4222D0337802AAD71C3B70230028
:1082D00045331B78002B06D0236C012B03D13900CA
:1082E00020000BF047FD397803A80BF0DAFFC82215
:1082F00003A95200280002F083FF03A80BF0A7FF98
:10830000FA20400001F0E2FB0136D9E728000CF02A
:1083100053FEFA20800001F0D9FB05B0F0BDC04645
:10832000F4210020248302002F8302003A830200FC
:1083300073B50B7804000D002E2B37D02D2B38D0C1
:10834000232B39D0402B3AD01E4901A801F0F0FD73
:10835000200001A9FFF752FF01A80BF078FF0024CD
:10836000297801A80BF09DFFC822174D520001A9E2
:10837000280002F045FF01A80BF069FF134E012110
:10838000300003F0C1FA200001F0A0FB0021300012
:1083900003F0BAFAFA20400001F098FB28000CF034
:1083A0000BFEFA20400001F091FB73BDFA2464003B
:1083B000D6E7FA24A400D3E7FA24E400D0E7044C7B
:1083C000CEE7C046A2830200F4210020CC2000208A
:1083D00088130000F0B503698FB005001600002B6C
:1083E00053D003000C33009339331F7808AC002FAF
:1083F0004DD02D4902A80BF08CFC009920000FF005
:10840000F1F802AB2200310030000BF0F9FC07005C
:1084100020000EF0D2FF2B6C002B1AD12349200034
:1084200001F086FD78222100214802F079FF20002A
:108430000BF00DFF029E039BF3180193019BB342C7
:1084400007D033782100280023700136FFF770FF32
:10845000F4E702A80EF0B1FF390020000BF021FF75
:10846000C82221005200124802F0CAFE20000BF080
:10847000EEFE2800390024300FF069F80A49009810
:108480000FF098F8002344352B700FB0F0BD009921
:1084900020000FF0A7F83B002200310030000BF065
:1084A000AFFC07002000D5E7028802005B830200D2
:1084B000F4210020F0B589B06B460700DE1D009264
:1084C000317045373B780400002B05D1036C002B3D
:1084D00002D13100FFF72CFF35782B002D3B012B0B
:1084E00012D80C34210002A80FF07CF82A000121D8
:1084F00002A80FF049F802A920000FF003F802A823
:108500000EF05BFF09B0F0BD232D0FD1009A2900BA
:108510002000FFF75FFF236C002BF3D13B78002B8B
:10852000F0D031002000FFF703FFEBE7402D12D120
:10853000009A29002000FFF74DFF236C002B06D185
:108540003B78002B03D031002000FFF7F1FE002321
:108550003C342370D6E7064902A801F0E9FC20006C
:1085600002A9FFF74BFE02A80BF071FECAE7C04656
:1085700044830200F0B50D0091B00390FE4904A8B9
:108580000BF0C7FBFD4F0AAC390020000BF0C1FB1C
:1085900004AB41222900009428000BF001FC0600E6
:1085A00020000EF00AFF04A80EF007FFF44904A80B
:1085B0000BF0AFFBF34920000BF0ABFB04AB422206
:1085C0002900009428000BF0EBFB064320000EF07E
:1085D000F4FE04A80EF0F1FE390004A80BF099FB9C
:1085E000E94F200039000BF094FB4322290004AB33
:1085F000009428000BF0D4FBF6B20643F3B220003F
:1086000002930EF0DAFE04A80EF0D7FEDD4904A8AE
:108610000BF07FFBDD4E200031000BF07AFB442293
:10862000290004AB009428000BF0BAFB029B18430E
:10863000C3B2200002930EF0C0FE04A80EF0BDFEEF
:10864000390004A80BF065FBD14F200039000BF076
:1086500060FB4522290004AB009428000BF0A0FB2E
:10866000029B1843C3B2200002930EF0A6FE04A89A
:108670000EF0A3FE310004A80BF04BFBC54E20000A
:1086800031000BF046FB4622290004AB0094280081
:108690000BF086FB029B1843C3B2200002930EF03E
:1086A0008CFE04A80EF089FE390004A80BF031FB03
:1086B000B94F200039000BF02CFB4722290004ABF6
:1086C000009428000BF06CFB029B1843C3B22000FF
:1086D00002930EF072FE04A80EF06FFE310004A8A3
:1086E0000BF017FBAD4E200031000BF012FB4822BF
:1086F000290004AB009428000BF052FB029B1843A6
:10870000C3B2200002930EF058FE04A80EF055FEEE
:10871000390004A80BF0FDFAA14F200039000BF03E
:10872000F8FA4922290004AB009428000BF038FB2A
:10873000029B1843C3B2200002930EF03EFE04A831
:108740000EF03BFE310004A80BF0E3FA954E20003A
:1087500031000BF0DEFA4A22290004AB0094280015
:108760000BF01EFB029B1843C3B2200002930EF0D5
:1087700024FE04A80EF021FE390004A80BF0C9FA6B
:10878000894F200039000BF0C4FA4B22290004ABBA
:10879000009428000BF004FB029B1843C3B2200096
:1087A00002930EF00AFE04A80EF007FE310004A8A2
:1087B0000BF0AFFA7D4E200031000BF0AAFA4C22EC
:1087C000290004AB009428000BF0EAFA029B18433E
:1087D000C3B2200002930EF0F0FD04A80EF0EDFDF0
:1087E000390004A80BF095FA714F200039000BF006
:1087F00090FA4D22290004AB009428000BF0D0FA27
:10880000029B1843C3B2200002930EF0D6FD04A8C9
:108810000EF0D3FD310004A80BF07BFA654E20006A
:1088200031000BF076FA4E22290004AB00942800A8
:108830000BF0B6FA029B1843C3B2200002930EF06D
:10884000BCFD04A80EF0B9FD390004A80BF061FAD4
:10885000594F200039000BF05CFA4F22290004AB7D
:10886000009428000BF09CFA029B1843C3B220002E
:1088700002930EF0A2FD04A80EF09FFD310004A8A3
:108880000BF047FA4D4E200031000BF042FA502217
:10889000290004AB009428000BF082FA029B1843D5
:1088A000C3B2200002930EF088FD04A80EF085FDEF
:1088B000390004A80BF02DFA414F200039000BF0CD
:1088C00028FA5122290004AB009428000BF068FA22
:1088D000029B1843C3B2200002930EF06EFD04A861
:1088E0000EF06BFD310004A80BF013FA354E20009A
:1088F00031000BF00EFA5222290004AB009428003C
:108900000BF04EFA029B1843C3B2200002930EF004
:1089100054FD04A80EF051FD390004A80BF0F9F93C
:10892000294F200039000BF0F4F95322290004AB41
:10893000009428000BF034FA029B1843C3B22000C5
:1089400002930EF03AFD04A80EF037FD310004A8A2
:108950000BF0DFF91D4E200031000BF0DAF9542244
:10896000290004AB009428000BF01AFA029B18436C
:10897000C3B220002CE0C046C2820200AC820200DA
:10898000FA8202000183020009830200B182020020
:1089900007830200F482020002830200DC820200EC
:1089A000C1820200B6820200D28202000883020065
:1089B000D1820200BB820200C0820200AD820200AE
:1089C000FB820200D3820200C6820200E88202001B
:1089D00002930EF0F2FC04A80EF0EFFC390004A89C
:1089E0000BF097F9D14F200039000BF092F9552286
:1089F000290004AB009428000BF0D2F9029B184325
:108A0000C3B2200002930EF0D8FC04A80EF0D5FCEF
:108A1000310004A80BF07DF9C54E200031000BF0A9
:108A200078F95622290004AB009428000BF0B8F91D
:108A3000029B1843C3B2200002930EF0BEFC04A8B0
:108A40000EF0BBFC390004A80BF063F9B94F20000D
:108A500039000BF05EF95722290004AB009428007E
:108A60000BF09EF9029B1843C3B2200002930EF054
:108A7000A4FC04A80EF0A1FC310004A80BF049F9F5
:108A8000AD4E200031000BF044F95822290004AB10
:108A9000009428000BF084F9029B1843C3B2200015
:108AA00002930EF08AFC04A80EF087FC390004A89B
:108AB0000BF02FF9A14F200039000BF02AF95922B1
:108AC000290004AB009428000BF06AF9029B1843BC
:108AD000C3B2200002930EF070FC04A80EF06DFCEF
:108AE000310004A80BF015F9954E200031000BF071
:108AF00010F95A22290004AB009428000BF050F919
:108B0000029B1843C3B2200002930EF056FC04A847
:108B10000EF053FC390004A80BF0FBF8894F20003D
:108B200039000BF0F6F83022290004AB009428003D
:108B30000BF036F9029B1843C3B2200002930EF0EB
:108B40003CFC04A80EF039FC310004A80BF0E1F85D
:108B50007D4E200031000BF0DCF83122290004ABFF
:108B6000009428000BF01CF9029B1843C3B22000AC
:108B700002930EF022FC04A80EF01FFC390004A89A
:108B80000BF0C7F8714F200039000BF0C2F8322209
:108B9000290004AB009428000BF002F9029B184353
:108BA000C3B2200002930EF008FC04A80EF005FCEE
:108BB000310004A80BF0ADF8654E200031000BF039
:108BC000A8F83322290004AB009428000BF0E8F841
:108BD000029B1843C3B2200002930EF0EEFB04A8E0
:108BE0000EF0EBFB390004A80BF093F8594F20006E
:108BF00039000BF08EF83422290004AB00942800D1
:108C00000BF0CEF8029B1843C3B2200002930EF083
:108C1000D4FB04A80EF0D1FB310004A80BF079F8C6
:108C20004D4E200031000BF074F83522290004ABC2
:108C3000009428000BF0B4F8029B1843C3B2200044
:108C400002930EF0BAFB04A80EF0B7FB390004A89B
:108C50000BF05FF8414920000BF05BF83622290049
:108C600004AB009428000BF09BF8029B1843C3B29E
:108C7000200002930EF0A1FB04A80EF09EFB310031
:108C800004A80BF046F8364F200039000BF041F8ED
:108C90003722290004AB009428000BF081F8029BD6
:108CA0001843C6B220000EF088FB04A80EF085FB26
:108CB0002A4904A80BF02DF82A4920000BF029F8C6
:108CC00004AB38222900009428000BF069F8064311
:108CD00020000EF072FB04A80EF06FFB390004A810
:108CE0000BF017F8204920000BF013F804AB3922E1
:108CF0002900009428000BF053F8F6B20643200038
:108D0000F6B20EF05AFB04A80EF057FB002E0AD064
:108D10001649200001F00CF903982100FFF76EFAC4
:108D200020000BF094FA11B0F0BDC046CB820200D7
:108D3000C5820200CA82020000830200CF820200C4
:108D4000D5820200DB820200E1820200E78202009B
:108D5000ED820200F3820200F9820200FF8202002B
:108D600005830200C2820200FA8202000B83020025
:108D7000F0B504008DB024200EF0FEFA009000F053
:108D8000BFF904ABDF1CA04906A801F0D1F89F4D44
:108D9000782206A9280002F0C3FA06A80BF057FAB9
:108DA0009B4906A80AF0B5FF7E2301263B703B785D
:108DB000232B1BD0974906A80EF000FC00280FD0EB
:108DC00001F072F8236C02900391002B1ED192489F
:108DD0000BF0EBFC002819D0230046331E70F6E799
:108DE0008E4906A80EF0EAFB0028E9D18C4906A8B6
:108DF00026000EF0E3FB453600285ED0894906A820
:108E00000EF0DCFB00285AD1307058E0864802F0A2
:108E1000B1FD230046330193002805D01E70236C5A
:108E2000002BF3D12664F1E701F03EF8019B1B789B
:108E3000002B29D0029A039B801A9941002902D164
:108E40007A4B984225D94023714906A83B700EF011
:108E5000B1FB397805A80BF024FAC82205A9520005
:108E6000280002F0CDF905A80BF0F1F9236C002BD6
:108E700003D139002000FFF75BFAFA20400000F030
:108E800025FE28000CF098F82300002246331A70C3
:108E90008DE7FA232321DB00984209D8FA232D21FC
:108EA0009B00984204D8FA235B009842E5D92E2112
:108EB00006A839700EF04BFBCBE7012333703378F3
:108EC0005B49002B00D15B4905A801F031F87822FD
:108ED00005A9280002F024FA05A80BF0B8F90099BA
:108EE0002000FFF747FB236C5349002B00D1534967
:108EF00005A801F01DF8782205A9280002F010FA53
:108F000005A80BF0A4F9012623003C331B78002BA5
:108F10006BD000F0C9FF236C02900391002B08D1A5
:108F20003D480BF042FC002803D0230046331E705E
:108F3000F6E73D4802F01EFD23004633019300286A
:108F400005D01E70236C002BF3D12664F1E700F0EE
:108F5000ABFF019B1B78002B21D0029A039B801A48
:108F60009941002902D1314B98421DD94021009AE4
:108F70002000FFF79FFA402105A80BF092F9C822C4
:108F800005A95200280002F03BF905A80BF05FF993
:108F9000FA20400000F09AFD28000CF00DF82300A4
:108FA000002246331A70AFE7FA23DB00984206D955
:108FB0002321009A2000FFF77DFA2321DCE7FA2322
:108FC0009B00984206D92D21009A2000FFF772FAE3
:108FD0002D21D1E7FA235B009842D9D92E21009A9E
:108FE0002000FFF767FA2E21C6E72000FFF71AF9E5
:108FF000FA20400000F06AFD2000FFF7E3F806A821
:109000000EF0DBF9BFE6C04665830200F4210020C4
:1090100002880200CA820200DC20002008830200CD
:109020006E83020074830200CC20002088130000AD
:1090300078830200838302009B8302008F830200F7
:1090400037B5124D280000F06FF8114C114922007D
:1090500028000EF08AF9104D03230222082128006F
:1090600002F006FC22000D4928000EF07EF90023D4
:109070000B4D009301331A002800112101F066FB0B
:109080002800220007490EF070F937BD04210020A6
:1090900000200020A9900100CC200020FF3C02000D
:1090A000DC20002035A70100CA23144A9B0010B51C
:1090B000C2501C330400C0180BF0C9F8D0239B0029
:1090C000E0180BF0C4F820009130FF3001F032FBC3
:1090D00020006930FF3001F02DFB2000F03001F05E
:1090E000ABFE2000D03002F0AFFA2000643007F071
:1090F00097FD201DFFF744F8200010BDC07C020042
:1091000010B5040023001433E360002323612375AA
:10911000236063607E33237202490C300EF04AFAFA
:10912000200010BD028802001423F0B5040093B0A3
:10913000009319221821043002F01CFD22002500A2
:1091400026006432B435132110001092B83607F0AF
:1091500073FD28000CF090FA00221E2130000BF065
:1091600030FF2000D03002F08FFA2200F03211924E
:109170000621464A119801F083FE200000270123B2
:1091800069301A0000971121FF3001F0DFFA20004A
:1091900091300097012302221A21FF3001F0D6FA04
:1091A0002000B9301A2301210222FF3002F028FBEF
:1091B000300001F0D7F8E4225200A050300001F056
:1091C0001FFBE6235B00E0500100E4222000520078
:1091D000D130119BA2580095FF3001F061FD2000B5
:1091E000E13029001C22FF3002F05CFE1923200030
:1091F0000F93013B0E93013B0D93013B0C93013BFD
:109200000B93013B0A93013B0993013B0893013BFC
:109210000793013B0693013B0593013B0493013BFC
:109220000393013B0293013B0193F930013B082278
:1092300000930721013BFF300BF0E4FECA239B00A3
:10924000E018290003F040FED3239B00E0181D2105
:1092500002F0DCFBDD239B00E75010982770032110
:109260000DF08FFD23002200200009499C33A0321D
:109270001C6011605760074A80305A610221012248
:1092800008F070F9200013B0F0BDC0463C78020031
:10929000593E0200433E02000123F0B506788FB02C
:1092A00004001E4000D082E00300D0331800039376
:1092B00000F0EEFA00F0E6F928200EF05DF8050067
:1092C00010300BF060F86C4B18202B600EF054F847
:1092D00007006A4B0460082231000C300C930D9695
:1092E0000EF0D0F90CA9381D08220EF0AFF9644B2E
:1092F000AF607B611223EE60AB802E626E6229004C
:10930000039802F035F9002805D028000AF055FF2F
:1093100028000EF026F8012322785A4913432370BF
:109320002300B433180005930CF0ACF956490490AF
:1093300005980CF0A7F900250690642000F0C6FB04
:109340002F002E0023006933FF33180007930BF022
:109350002CFA00282DD1049B002B33D1069B002B27
:1093600030D1DD2549494A48AD0000F08FFC6359F2
:10937000002B1CD100F09AF801000AA800F0D8FDDB
:109380000BA80AF0DCFDCA239B00E018069B0BAA81
:109390000AA90093039B03F0EDFD0BA80AF057FF09
:1093A0000AA80AF054FFCC239B00E35863510FB086
:1093B000F0BD20009130FF300BF0F7F90028CAD043
:1093C000182EC8DC2000653039B22AB2FF23FF30E6
:1093D000013700F02BFEFFB2322000F077FB0136A0
:1093E000052F02D100270135EDB2049B192E06D0BE
:1093F000002BA7D02349059802F0E8FC01E0002BE0
:10940000F8D104980DF0ADFF06980DF0AAFF1F49A2
:109410001F4800F03BFCCA239B00E3180893DD23A0
:109420009B00E3580993002B1ED100F03FF8010088
:109430000AA800F07DFD0BA80AF081FD01230BAA0C
:109440000AA900930898039B03F094FD0BA80AF067
:10945000FEFE0AA80AF0FBFECC239B00E35809930A
:10946000DD23099A9B00E2502100079AF031089809
:1094700003F07AFF66E7C046FD030000CB3E020022
:109480008B3E0200EF830200FA83020000200020DE
:10949000001C0020BFF34F8F024B034ADA60BFF37A
:1094A0004F8FFEE700ED00E00400FA05F0B58DB047
:1094B00005AF1922154938000EF0C8F80022144BE8
:1094C00005245A7180225205566E0122250001940E
:1094D000029203930199300008F048FB08000299BA
:1094E00008F0BEFA019B03996B430193029B361A65
:1094F0006B430293631E2C1B6C433C19225C1C1EA5
:10950000CA54E7D108000DB0F0BDC0460A8402007D
:10951000FE270020F0B597B018220021060010A801
:109520000EF0B0F8132110A80DF06AFD032110A869
:109530000DF035FE4C4B1B68002B00D10133DBB224
:1095400002934A4A012300210BA807F045FF484B2C
:109550009E4200D9002672B6464B64211D68464BD8
:1095600030000793052408F005FB604350302818AD
:1095700008900A21300008F0FDFA0A2108F0E0FB0B
:10958000614350316918099130000A2108F0D8FB75
:10959000802361430024503169189B010A91019393
:1095A000029B002B5DD0002500272E1F07AB9B19C7
:1095B0000593032C03D1802300249B01019307AB67
:1095C0005B592E4A03936300D318049300231900B8
:1095D00006205843049A16187678B4466246039ECD
:1095E000B25C10269446049A105C6246064116420C
:1095F00002D00120984001430133092BE8D1C9432F
:109600001F4B059A090119401268039B934225D10B
:10961000312F23DC00210BA80DF082FEFA23159ACE
:109620001199DB00106801421BD0013B002BF9D1DE
:10963000019B01345B000193FA230137E4B25B0024
:109640009F42B6D10435102DAED1074B1B68002BBD
:10965000A6D0029F013FFBB20293A1E7019B1943F1
:10966000D9E7FFF717FFC04680240020F0FF000075
:10967000E703000004200020598402002384020034
:10968000F01F0000F8B50023124C23600AF078FCAC
:10969000002808D0042120000AF06EFC002801D028
:1096A0000D4B2360F8BD0122A12704250B4B0C496B
:1096B0001A602268FF0048604E68002EFCD0DE5918
:1096C0001202013D3243002DF5D1226001225A6081
:1096D000E8E7C0467C240020ED5EBC0B00D00040D3
:1096E000FCD00040F0B585B01F000AAB1B88060017
:1096F000029115000393002F1BD028200DF03CFE93
:109700006B4604001989039BAAB200933B000AF040
:109710003EFD336821005B6830009847002806D082
:1097200020000AF04AFD20000DF01BFE024805B0A3
:10973000F0BD0248FBE7C04616FCFFFF17FCFFFF29
:109740000B4B70B51C68002C10D0656D00F0ACFBA5
:10975000A36C002901D1834206D820000AF043FC03
:10976000044920000AF02DFC2C00ECE770BDC04637
:1097700088240020A8240020F0B593B007932A4B3A
:1097800004AC1E68049005910692002E4AD0274B27
:10979000258867881C6800230293002C2ED0636DF7
:1097A00023480393A36C9AB2A36C1B0C99B2854215
:1097B00014D12048824211D1002B01D0B9420BD1E3
:1097C000029B002B08D120000AF00DFC1A49200052
:1097D0000AF0F7FB01230293039CDEE7002A01D085
:1097E0009542F9D1002B01D0B942F5D120000AF001
:1097F000FAFB114920000AF0E4FBEDE70F4BEB18F0
:10980000012B0FD910233A00009329000C4B08A814
:109810000AF0BDFC336808A99B683000984708A887
:109820000AF0CBFC13B0F0BD84240020B424002047
:10983000FE030000FF030000A824002002FCFFFF3D
:109840007997010010B572B60B4B1C68002C08D03C
:1098500020000AF0C8FB0023E364084B2000E36308
:1098600010BD62B65C200DF087FD5C220021040073
:109870000DF008FFEFE7C046AC24002000400020B8
:10988000024B1878012318407047C0460428002076
:10989000F7B50600FFF7F4FF051E33D11A4C26601A
:1098A000FFF7D0FF194B1A4918600AF08AFBFFF73F
:1098B000C9FF184B1860184B4363184B836320682B
:1098C00000280ED0C027164E2A00330015490097F5
:1098D000FFF708FF009733002A0013492068FFF7BD
:1098E00001FF0C200DF048FD0023838083710F4B96
:1098F00003600F4B836000F0EFFA01230D4A1178EB
:109900000B431370F7BDC04684240020B824002008
:10991000A8240020B0240020FC3F0020AD4002001D
:1099200079970100FF030000FE0300005C7802004D
:109930004197010004280020F7B506000D0017002C
:109940000193002802D100242000FEBD0029FAD096
:10995000FFF778FF041EF6D0074B019A43630660B9
:1099600045608760054B002A00D0054BA36305497D
:1099700020000AF026FBE7E7FC3F002077400200CA
:1099800095400200A8240020024B18684342584129
:109990007047C046A8240020002310B504499C004D
:1099A0006258002A01D00133F9E76050100010BD61
:1099B00090240020002310B5044A99008C5884425A
:1099C00001D00133F9E70020885010BD9024002019
:1099D00010B50024084BA200D058002802D003681C
:1099E0005B6898470134062CF4D1044B1B68002BAC
:1099F00000D120BF10BDC04690240020A824002024
:109A0000F8B5FFF73DFF00281CD02A4D2C68E36C09
:109A1000DA0718D502273B43E364274B1E6804236B
:109A2000F26C30001343F364636BF3630AF001FBE1
:109A30003000716C04F08DF82868C36C3B4201D093
:109A400004F0C1F8F8BD1D4F1D4E3A683168002A78
:109A50001ED129602A68914208D11B0706D52C60C7
:109A6000FFF7B6FF3B68002BFAD02B6029688C42C9
:109A7000E8D03368994214D1124B4B63124B8B637D
:109A800020000AF0D6FA2968626C4B6C20000DE0C9
:109A9000206DB84203D1606D002800D002002A601A
:109AA000D8E79C42ECD1002210004B6C04F010F877
:109AB000C8E7C046B82400208C240020A824002039
:109AC000B0240020FC3F0020AD40020070B505002E
:109AD000FFF7D6FE002803D128000DF054FB70BD1F
:109AE0000C4B1C68E36CDB0706D5FFF7ABFE0A4B9B
:109AF0001860002800D0040000F0D6F92D18A564E5
:109B000020000AF070FA054920000AF05AFAFFF71F
:109B100077FFE4E7B82400208C240020882400206C
:109B2000F0B51E4B1E4F1C683B6885B006000391C4
:109B3000002B30D0FFF7A4FE00282CD0E36CDB070D
:109B40000ED5FFF77FFE174B051E186008D00AF0F0
:109B50004AFA154928000AF034FA2C00FFF750FFA2
:109B6000039B20001B043343A3640AF03CFA20004B
:109B70000E490AF026FA0E4B0024F318012B07D9E0
:109B8000C0230093039A0B4B31003868FFF7AAFDFE
:109B9000200005B0F0BD084CFAE7C046B82400200C
:109BA000842400208C240020A8240020B424002039
:109BB00002FCFFFF7997010016FCFFFF10B5FFF7CD
:109BC0005FFE002809D0054C20680AF00CFA044911
:109BD00020680AF0F6F9FFF713FF10BDB824002043
:109BE000AC240020F7B507000D0000282ED0FFF7A9
:109BF00047FE00282CD00724164E3068C36C1C404A
:109C000007D0154A290038000AF004FA0024200081
:109C1000FEBD03F0C0FF02213268D36C19400191F0
:109C200003D003218B43D364F1E701242343D3649E
:109C30002800B8473268D36C1900A143D164019C55
:109C40005B07E4D528000AF01DFAE0E7034CDEE7E5
:109C5000034CDCE7B82400208540020017FCFFFF1E
:109C600016FCFFFF020010B5014B12CB12C210BD53
:109C7000BC240020034B1A68034B1A607E225A60F2
:109C80007047C04604200020BC24002070B5114E4F
:109C90003278022A1AD081421AD90C1A072C17D905
:109CA0000D00032305432B4012D172B60A4DD2009A
:109CB0005051AA1851608022A4081206144304606F
:109CC00032780132327062B6180070BD0348FCE78A
:109CD0000348FAE706280020C424002013FCFFFFF5
:109CE00017FCFFFF70B5134C06002378124D002BB4
:109CF0000CD1124912482B70FFF7C8FF114B984244
:109D000002D11E20FFF706FC0123237000242B78CC
:109D1000A34209DD0C49E300C91830000AF0CCF970
:109D2000002805D10134F2E71420FFF7F3FB0020EF
:109D300070BDC046052800200628002000380020FD
:109D4000D028002017FCFFFFC424002070B5002895
:109D500019D0104B10491C7800239C4216DDDA0004
:109D60005558854210D28A18526882420CD9041F75
:109D70002368002B02DC1E20FFF7CCFB8023226827
:109D80001B061343236070BD0133E6E71E20FFF777
:109D9000C1FBF8E706280020C424002070B5051E8A
:109DA00014DD0B4E0B4C3368002B02D020680DF0F5
:109DB00065F8FA2120680024074B89008361C4629A
:109DC000694335600DF062F8200070BD0348FCE780
:109DD000D424002004250020859E010017FCFFFFED
:109DE000F8B5114F06003D68002D0AD130200DF066
:109DF000C3FA040006F044FF0C4BA5612360E56242
:109E00003C600B4D2B68002B09D110200DF0B4FAEB
:109E100004000CF0FCFF20002C600CF0D2FF30009E
:109E2000FFF7BCFFF8BDC046042500205C8002009F
:109E300000250020014B18687047C046D42400203C
:109E400070B50D4C2368002B03D00C4B1B68002B06
:109E500002D10620FFF7C4FF20680CF0C9FF020002
:109E60000749C3170D684E685219734120680A608C
:109E70004B600CF0C3FF70BD0025002004250020BE
:109E8000A820002010B5FFF7DBFF0024054BA2003F
:109E9000D058002802D003681B68984701340A2C68
:109EA000F4D110BDD824002010B5FFF7C9FFFA2265
:109EB000034B920018685968002307F081FF10BD1A
:109EC000A820002010B5FFF7BBFF024B18685968A7
:109ED00010BDC046A82000200B4B10B51B68040025
:109EE000002B03D0094B1B68002B02D10620FFF783
:109EF00077FF0023064A99008858002801D00133D3
:109F0000F9E78C5010BDC046002500200425002034
:109F1000D8240020002310B5044A99008C588442AC
:109F200001D00133F9E70020885010BDD82400206B
:109F300010B50400002902D00B78002B03D1034B8D
:109F40002360200010BD0AF089F9FAE76C7802005E
:109F5000F8B504000E00150000290AD00B78002B7C
:109F600007D0002A05D0080097B20DF0CBFB87423E
:109F700003D90B4B23602000F8BD681DFFF7B2FE2C
:109F800020600AF01AFB23682A005F8023683100F2
:109F9000181D0DF05BFB23685D1900232B71EAE7A8
:109FA0006C780200014B03607047C0466C78020079
:109FB00010B50548054C20600AF002FB044A05492B
:109FC00020000DF0D2F910BD6C78020008250020A9
:109FD000002000204F420200084B73B51C680500AA
:109FE000002C0AD0010026680831082268460DF0CE
:109FF0002DFB0CCD31682000884773BD0C25002057
:10A00000014B03607047C0467478020010B504002D
:10A01000002903D1044B0360200010BD016008003B
:10A020000AF0CEFAF8E7C0467478020030B500684E
:10A030004488A1420CDA8588AA4209DA002907DBA4
:10A04000002A05DB5443401800198371002030BDFD
:10A050000048FCE717FCFFFFF0B5070085B00E00D5
:10A060001D00002921DD002A1FDD002B1DD0046802
:10A07000638803938B4200DD0391A388029393428C
:10A0800000DD0292002306340193019B029A934261
:10A090000EDA29002000039A0DF0D8FA3B68AD19BA
:10A0A0005B88E418019B0133EEE7024805B0F0BD80
:10A0B0000020FBE717FCFFFFF8B504000D001600B9
:10A0C0001F00002901DB002A02DA0E4B2360F8BDD5
:10A0D000100048430630FFF705FE20600AF06DFAD5
:10A0E00023685D8023689E80002F06D03B003200ED
:10A0F00029002000FFF7B0FFE9E720000AF094F9FB
:10A10000E5E7C04674780200F7B506000D1E03D1DE
:10A11000244B03603000FEBD00200F00040001004E
:10A1200001903B78002B1AD03022524294469C4436
:10A130006246092A11D90A2B0AD1019B241801333E
:10A140000193A14200DA2100002004000137E8E772
:10A150000028FBD001340020F8E70120F6E70127B2
:10A16000019A09B212B230007F42FFF7A5FF390011
:10A170000A2033689A1D2C78002CCBD02300303B6A
:10A18000092B08D8FB43DB173B4043431B19303BEB
:10A190001F000135EFE7002FFBDB177001320F00C6
:10A1A000F7E7C04674780200F0B5040089B006A84D
:10A1B0000E0002921D00FFF755FD236802995A8890
:10A1C000914235DA9B889D4232DA1F2E30D9079BA7
:10A1D00001939E422CDC0523002273430393069BCC
:10A1E0000493039B04999B18A03BCB5C002105932F
:10A1F000AE18029BCF1823685888019087420EDA68
:10A200009888B0420BDDDB1910270F41019870438D
:10A210001B1805980740781E87417F429F710131C6
:10A220000529E6D10132052ADBD1002009B0F0BDB5
:10A230000048FBE717FCFFFFF7B5046807006388D9
:10A240000E1E01931EDD994218DA00230634009396
:10A250003B68009A9B889A4212DA019BA1199D1BC8
:10A260002A0020000DF0F2F9601931000AF0BFF861
:10A270003B685B88E418009B0133E8E70AF0D4F8F8
:10A28000002000E00048FEBD17FCFFFF10B50548A8
:10A29000054C20600AF094F9044A054920000DF0AD
:10A2A00064F810BD74780200102500200020002002
:10A2B000E143020010B5054C012120000AF074F9B9
:10A2C000034A044920000DF050F810BD1425002069
:10A2D00000200020654502000388074A10B50120D0
:10A2E000934208D0834202D00020DB0703D41E2013
:10A2F000FFF710F9002010BDFFFF00000048704775
:10A3000016FCFFFF10B53220FFF704F9004810BD1E
:10A3100016FCFFFF10B5124C002308348280046045
:10A3200041620224142201008371847203638386D4
:10A33000028136310A78C360A243F13422400361BE
:10A3400043618361C36103620A700200403213708B
:10A35000021DD387013343878387C38710BDC0465F
:10A3600094780200F0B5544F97B03B68060005930F
:10A37000002B00D08BE006AC0B331C2221212000E7
:10A3800001F076FA0EAD0B231D2222210AA801F05E
:10A390006FFA0B231B222321280001F069FA082001
:10A3A0000CF0EAFF0122059B110004900BF095FCD4
:10A3B0003A2130000BF0EBF900281DD0A38812AD34
:10A3C000AB80A3795C20AB713C4B1293A3681493D0
:10A3D000237B2B73637B6B73A37BAB730CF0CCFF82
:10A3E00004230193363300932A00049B31000400B8
:10A3F00002F05CF83C604AE0322130000BF0F5F9E5
:10A4000000281CD0A38812ADAB80A3795C20AB716F
:10A410002A4B1293A3681493237B2B73637B6B7378
:10A42000A37BAB730CF0A8FF042301932E3300939E
:10A430002A00049B3100040002F0D6F9DAE73C213F
:10A4400030000BF08DF900282CD0AB8812ACA38023
:10A45000AB79A420A371194B1293AB6814932B7B97
:10A4600023736B7B6373AB7BA3730CF085FF0523B6
:10A4700005000293013B0193383300932200049BB3
:10A48000310001F031FF0E4B3D6044351D600C4B37
:10A49000094C1868002802D021680AF0F4F92068F5
:10A4A00017B0F0BD44200CF067FF042204990400AB
:10A4B000FFF730FF9EE7C046182500208478020091
:10A4C0001C250020F0B56149C56885B08D4254DA7D
:10A4D0000300022236331B78134059D104698C42A1
:10A4E00064DA020036321278520768D44269019267
:10A4F0000200019E40328E426FDA01003631097847
:10A50000090774D4002B7DD113780293002B16D049
:10A5100006000127011DCB8F363601339BB2CB8756
:10A5200003963678BC46374000D188E01D2B06D90B
:10A5300063469E43039B1E700023CB8713700AF073
:10A5400082F8434A0723904276D94249043B8D4220
:10A5500072DBC8220133920095426DDC023B8C42D3
:10A560006ADB013B944267DC01980433884263DB79
:10A570000133904260DC00235EE0C82200235200D9
:10A580009542ABDD030036331A7800239207A5D439
:10A59000012306001F00363632785408A7433C00DA
:10A5A00002279C40BA432243327097E7C8225200E8
:10A5B00094429BDD020036321278520796D4060090
:10A5C0000122363633789F08BA439700042293431A
:10A5D0001A003A433270012388E7C821019E4900DE
:10A5E0008E428FDD01003631097809078AD40100D7
:10A5F000012636310B78DF08BE430827F600BB433F
:10A6000033430B701378032B00D97DE70133DBB2A2
:10A610001370012B03D10021031DD98774E7042B8C
:10A6200000D071E7020036321178033B0B43137000
:10A6300000230430C3870B33180005B0F0BD092B8D
:10A6400000D87CE7029BCF87013B77E770FEFFFFD6
:10A65000FF700200E0FCFFFF70B5C369C1681A68B3
:10A66000451D8AB00400EB7F114255D0002B58D114
:10A67000EB7F082B0DD90122A379134209D1134393
:10A68000A371A188130006A809F087FEFFF70CFC50
:10A690002062EB7F012B23D80123A2791A421FD01D
:10A6A0000025A188A571022202A809F076FEA31D4B
:10A6B000DE7F012E14D1FFF7F7FB2B00226A801AF0
:10A6C000994100900191019BA188AB4203D1174BA6
:10A6D000009A9A4227D90123042206A809F05DFEB8
:10A6E0000322A3791340012B14D1FFF7DDFB0023D4
:10A6F000226A801A9941994202D10D4B984209D998
:10A700000223A279A1881343A3710522012306A87D
:10A7100009F043FE0AB070BD0B2BA9D80133EB77CB
:10A72000A6E7013BFBE733000322D6E7E70300007F
:10A73000DB05000010B50400034B08330360FFF78E
:10A74000E9FB200010BDC046C8780200F0B5070044
:10A7500000250E00040085B002930AAB1B78083771
:10A7600003930F4B019208330360858085712900A4
:10A77000182238000CF086FF039A310038000CF0E4
:10A7800044FC019B029AA380A31DE671DA77631D46
:10A7900025622000DD77FFF79FFB200005B0F0BDAC
:10A7A000C87802000048704716FCFFFF10B5332040
:10A7B000FEF7B0FE004810BD16FCFFFF002310B5E9
:10A7C0000400838083710D4821640830206080205C
:10A7D000C000A061E0612062E3602000236163614A
:10A7E0006362A362E36223636363A363E3636364FB
:10A7F00011000AF020F8200010BDC046E0780200E9
:10A80000F0B5534F97B03B6806000593002B00D07E
:10A810008BE00B331C22212106A80AAC01F028F89A
:10A820000EAD0B231D222221200001F021F80B2365
:10A830001B222321280001F01BF808200CF09CFDAE
:10A840000122059B110004900BF047FA1D213000F6
:10A850000AF0B4FF00281DD0A38812ADAB80A37905
:10A860006020AB713B4B1293A3681493237B2B7333
:10A87000637B6B73A37BAB730CF07EFD05230193AD
:10A88000183300932A00049B3100040001F0E2FE1B
:10A890003C604AE03C2130000AF0BEFF00281CD09A
:10A8A000A38812ADAB80A3796020AB71294B1293C2
:10A8B000A3681493237B2B73637B6B73A37BAB73B2
:10A8C0000CF05AFD05230193373300932A00049BB3
:10A8D0003100040002F02AF8DAE73C2130000AF0E7
:10A8E0003FFF00282AD0AB8812ACA380AB79A4200C
:10A8F000A371184B1293AB6814932B7B23736B7B60
:10A900006373AB7BA3730CF037FD05230500029343
:10A91000013B0193383300932200049B310001F086
:10A92000E3FC0D4B1D6044353D600B4B084A1B6832
:10A930001068002B00D0436417B0F0BD48200CF025
:10A940001BFD052204990400FFF738FFA0E7C0466D
:10A950001C250020847802001825002082B0F0B564
:10A960000400EDB06420739372920CF00CFC05228D
:10A9700010A8110009F061FD974911A8FFF7C4FB69
:10A98000002221AB6CA91A605A609A600C3399427C
:10A99000F9D11922002113A80CF074FEA0680AF066
:10A9A00009FB00260B90FF21A06800F047FD8B4FAC
:10A9B000A06800F05DFB07960996884B9F4203D084
:10A9C000874B9F4200DBFDE0A0680AF0F5FAA5681E
:10A9D00084491AA8FFF7ACFA78221AA9280000F0D7
:10A9E00075FC1AA809F033FC00267C4F0322099B52
:10A9F000606801331A40099209F0BDFE05006068E5
:10AA000009F0C0FE0022784B05929D4210DB013216
:10AA100005922A00C8320BDBAA220421920005917C
:10AA2000954205DC02220592C82D01DD0132059216
:10AA300000220692984210DB012306930300C833DC
:10AA40000BDBAA2304329B000692984205DC02230A
:10AA50000693C82801DD0133069310A809F0E4FC31
:10AA6000002513ABEB5C012B08D160496B00CA18C1
:10AA70005278C95C10A8FF23FFF7D8FA0135192DC9
:10AA8000EFD16B4618229A5E6B4610A81421595ECE
:10AA9000099BFFF7CBFA002F01DB0F2E07D900230C
:10AAA000A068009374301A0010A909F0D3FC0123A8
:10AAB0000893089B05995A004C4B9B189A1E1278D4
:10AAC0008A4226D1013B1B78069A934221D1089AEB
:10AAD0006CAB9B18663BFF3B0A931B78012B18D08D
:10AAE0000C23079A216853431D0000220CA809F08B
:10AAF000CCFE21AA2B0094460CAA634423CA23C38C
:10AB000001220A9B01361A70079BF6B20133DBB2B1
:10AB10000793089B013308931A2BCAD164200CF0C9
:10AB200032FB079B643F3FB2182B00D845E71A0061
:10AB300021A91AA80AF0B7F86A461DAB23CB23C295
:10AB40001B6813601A991B9A1C9B206809F085FEEC
:10AB5000E568002D0CD0264912A8FFF7E9F91C235F
:10AB60001AAA12A928000AF0C6FD12A809F06FFB64
:10AB7000A0680AF021FA11A912A8A56809F03DFC05
:10AB800000221C4B009212A901932800130000F030
:10AB90000DFB12A809F024FCFA2080000CF0F3FA57
:10ABA000A0680AF009FA0B99A06800F047FC11A808
:10ABB00009F016FC10A809F013FC6DB0F0BC08BC3D
:10ABC00002B01847002F02D00F2E00D00EE7A06869
:10ABD00000F04EFA0AE7C046398602008C3C0000BD
:10ABE000D18AFFFF7E86020058FDFFFF9E8602008D
:10ABF00093860200DC050000F0B587B001930EAB30
:10AC00001B88060003930D9B0D000093019B02928D
:10AC10000C9F002B3CD0002F02D1009BDB0737D5C7
:10AC200028200CF0A9FB0400103009F0ACFB029BBB
:10AC30001820258063800CF09FFB0500009B0822F4
:10AC40000593019B002103600C3004970CF01AFD62
:10AC5000082204A9281D0CF0F9FC0E4B02226B619E
:10AC600000230399E3602362636233680A43A560AB
:10AC7000A2805B68210030009847002806D02000A1
:10AC800009F09BFA20000CF06CFB034807B0F0BD04
:10AC90000248FBE7CB48020016FCFFFF17FCFFFF52
:10ACA00070B58CB08360109B01604260C36004008B
:10ACB000184918000AF0E6FC051E14D001001C22F9
:10ACC000103105A80CF0C2FC6A4608AB43CB43C266
:10ACD0001B68136020680599069A079B09F0BDFD63
:10ACE00028000CF03EFB0C4B186800280ED00B4AD5
:10ACF00005AB059200220692C03202926A4622CB30
:10AD000022C2230003220521FFF776FF20000CB0AA
:10AD100070BDC046938602000C2500205DA901008D
:10AD2000F0B5040085B0637A9C46002B04D1200066
:10AD300009F0D7FF05B0F0BDA37A266F0193102369
:10AD4000019AF35600259B1801229A402900F368C6
:10AD500003920293029BAB4231DDB368019A6B43CD
:10AD60009B1872695B00E77AD3181A785878E379F0
:10AD7000012F14D15F1E3F1A10003A005B004343BD
:10AD8000606F8218D3189B79634500DD6346627B50
:10AD90001A4202D00123AB4019430135DAE7022FF2
:10ADA00005D15F1EBA1A277A013F381AE6E7032F4A
:10ADB000E4D1277A013FBF1A02003800DEE71123F1
:10ADC000C943F356606C994023691940039B1943AA
:10ADD0000CF0A6FAA27B072AACD8637B0C495B0077
:10ADE0006373531CDBB290004158A373022A03D84B
:10ADF00008000CF0BDF996E7064B20002363002302
:10AE00006363054BE462236414300CF03FF891E770
:10AE10000C79020021AD0100CD4C020010B50400F8
:10AE2000044B03600CF02AF8200005F03FFF2000DF
:10AE300010BDC0465C80020010B504000E4B083304
:10AE40000360FFF767F82000743009F0C9FA2000AA
:10AE5000603009F0C5FA2000583009F0F8F92000F8
:10AE6000503009F0F4F92000044B14306361FFF70F
:10AE7000D5FF200010BDC0462C7902009080020052
:10AE8000F8B500250400324B8580083303608571D6
:10AE9000143016000F0005F0F3FE20002D4BE56284
:10AEA000636125645030FFF77DF820005830FFF7CC
:10AEB00079F820006030FFF7A3F820000423F25E49
:10AEC00033682667590009B2743009F0B6FA33685E
:10AED000226FE37173680126237210236581A780B6
:10AEE0002561D35691685918994204DD3000984085
:10AEF00001330543F8E711230120D356D1685918CF
:10AF0000994206DD02009A402669013332432261EC
:10AF1000F6E714200CF030FA226900212A430123BD
:10AF2000060006F059FAFF23220063720133A38161
:10AF3000002348326664A37320001370A366FEF7F3
:10AF4000CBFF0123A27920001343A371F8BDC046B3
:10AF50002C79020090800200F0B5437A85B004009D
:10AF6000002B04D1200009F0BCFE05B0F0BD012289
:10AF7000837A11009C461023066F0025F356039236
:10AF80006344994002912900F3680193019BAB420D
:10AF90002CDDB36872696B4363445B00E77AD318B6
:10AFA0001A785878E379012F10D15F1E3F1A1000EC
:10AFB0003A005B004343606F8218D3189B79002BE3
:10AFC00002D0039BAB4019430135DFE7022F05D1C7
:10AFD0005F1EBA1A277A013F381AEAE7032FE8D131
:10AFE000277A013FBF1A02003800E2E71123C94364
:10AFF000F356606C994023691940029B19430CF089
:10B000008FF9667AB31EDBB2FC2B14D8FEF712FF61
:10B010000B4B0500236300230A4863630A4BFF219F
:10B02000E4622364704306F0A5FD2900414320003B
:10B0300014300BF02BFF637A012B00D995E791E7D1
:10B04000E34C0200B6030000CD4C02001FB5012303
:10B0500081881A00684609F0A0F9012303491A0003
:10B06000684609F09AF905B000BDC046FE0300002D
:10B070001FB5030048331A780400002A0DD00022BF
:10B080001A70012381881A00684609F086F90123A5
:10B0900004491A00684609F080F92000743009F06C
:10B0A000C3F91FBDFF03000010B548300378002B23
:10B0B00006D00378012B03D00121024808F0D2FF0B
:10B0C00010BDC046FF03000010B50121040006209A
:10B0D00008F0C8FF064B984208D148342378002B6B
:10B0E00004D02378012B01D020BFF7E710BDC04664
:10B0F00016FCFFFF70B50600141E19DB050048356D
:10B100002B78002B02D02B78012B13D10023300099
:10B110001A007430FFF748F8002C07D033004A3388
:10B120001C80002407234C3634802B70200070BD17
:10B13000014CFBE7014CF9E717FCFFFF12FCFFFF96
:10B14000F8B517000A68050052880B00012A09D1DA
:10B150000021180009F00AF9002201002800FFF779
:10B16000C9FFF8BD002F19DD060048363278002AE5
:10B1700002D03278012A13D12A00002428005C3240
:10B1800019001480583009F0CCF82B004A331F8086
:10B1900003234C352C8020003370E2E70148E0E7C0
:10B1A0000148DEE717FCFFFF12FCFFFF73B5079CA9
:10B1B0000500002C1CDB060048363078002802D041
:10B1C0003078012816D106981BB2C0B20090280032
:10B1D00012B2743009F03EF9002C07D02B004A332C
:10B1E0001C80002407234C352C803370200076BD52
:10B1F000014CFBE7014CF9E717FCFFFF12FCFFFFD6
:10B20000F7B505000E00171E26DDFFF74DFF2B00DA
:10B2100048331C78E4B2002C20D133685B88012BC2
:10B2200009D12100300009F0A1F822000100280016
:10B23000FFF760FFFEBD310001A809F06AF83A008F
:10B2400001A92800FFF77CFF01A809F000F82800F9
:10B25000FFF73AFF2000EDE70148EBE70148E9E797
:10B2600017FCFFFF11FCFFFFF0B587B00D9C060037
:10B270000F0002920393002C20DBFFF715FF330031
:10B2800048331D78EDB2002D1AD1390005A809F018
:10B29000B4F80C9B01940093029A039B05A930001B
:10B2A000FFF784FF05A809F09BF8002C03D03000BD
:10B2B000FFF70AFF2C00200007B0F0BD014CFAE7B1
:10B2C000014CF8E717FCFFFF11FCFFFFF8B5040085
:10B2D000171E1DDD060048363378002B02D0337868
:10B2E000012B17D12200E3795632013B1370230062
:10B2F0000025200054331D80503009F012F823003F
:10B300004A331F80022328004C3425803370F8BD57
:10B310000148FCE70148FAE717FCFFFF12FCFFFFBA
:10B32000F7B505000F00161E18DDFFF7BDFE2B0058
:10B3300048331C78E4B2002C12D1390001A808F07F
:10B34000E8FF320001A92800FFF7C0FF01A808F0BC
:10B350007EFF2800FFF7B8FE2000FEBD0148FCE795
:10B360000148FAE717FCFFFF11FCFFFFF8B50400E6
:10B37000171E2DDD060048363278002A02D03278BA
:10B38000012A27D15D42069BFF331FD16B1D22008E
:10B390001BB2643213802300200066331D706030BE
:10B3A00009F033F8230000226C331A70954200D064
:10B3B0003D0023004A331D80079B00205A1E934105
:10B3C000013F4C34053327803370F8BD069BDEE720
:10B3D0000148FAE70148F8E717FCFFFF12FCFFFFFE
:10B3E000F0B587B005000F00161E03931EDDFFF7B2
:10B3F0005BFE2B0048331C78E4B2002C18D13900D6
:10B4000005A808F0FAFF0D9B320001930C9B05A9DB
:10B4100000932800039BFFF7A9FF05A808F0E0FFB1
:10B420002800FFF751FE200007B0F0BD0148FBE700
:10B430000148F9E717FCFFFF11FCFFFFFF2902D8C5
:10B440004172002070470148FCE7C04617FCFFFF2F
:10B4500013B5040004A80078009020000BF03CFD18
:10B46000002801D1207516BD0048FCE70EFCFFFF47
:10B4700013B5040004A80078009020000BF014FD20
:10B48000002801D1207516BD0048FCE70EFCFFFF27
:10B490007FB50D0011000F226A4404001E1E1170BA
:10B4A00016D0089B002B13DD012329000093FFF722
:10B4B000DFFF002802D0074804B070BD0090089B51
:10B4C000320029002000FFF7C3FF0028F4D0F2E784
:10B4D0000148F1E70EFCFFFF17FCFFFFF7B507007F
:10B4E0000D1E3FD00023022604690193002C35D0A5
:10B4F000AA88A3885340334204D1324204D1AB8896
:10B50000334226D0646AF1E7A968A0680AF0CAFB52
:10B510000028F4D02B88002B02D022889A42F1D147
:10B520006B88002B02D062889A42EBD1EB68E2680C
:10B53000934201D0002BE5D17B68002B01D0200085
:10B540009847A288084B1343A380019B01330193C2
:10B55000D8E7A368AA689342D4D1DBE7019B200017
:10B56000002B00DC0148FEBD0080FFFF17FCFFFF41
:10B57000F0B5060085B00D1E5DD001270469002CD2
:10B5800026D00221AA8800230A4202D0A3885B08A1
:10B590003B40226829688A4214D1A068A968002B20
:10B5A0000ED00AF07FFB00280CD0EB68E2689342D3
:10B5B00008D1A3881AB2002A06DB204805B0F0BDE6
:10B5C0008842F2D0646ADAE75B045B0CA380F4E79C
:10B5D00030692A88002807D1356101231849684657
:10B5E00008F0DBFE0020E9E7010003001C8894421C
:10B5F00006D25C6A1900002C0DD02300F6E7230068
:10B600001C88944207D15F886C88A74203D85C6A83
:10B610001900002CF3D1884209D10B889A4204D337
:10B6200005D148886B88984201D96962D4E74B6A92
:10B630006B624D62D1E70348C0E7C04616FCFFFFCE
:10B64000FD03000017FCFFFF064B10B51A000400B5
:10B6500008322C33026083600830FEF7ABF920001B
:10B6600010BDC0464479020008B4024B9C4608381D
:10B6700008BC604749B6010008B4024B9C46083834
:10B6800008BC60472B5102000C4A002311002C32E9
:10B69000083110B543608381837382600361436125
:10B6A0008361C383016004000830FEF775F9044B21
:10B6B0001A68002A00D11C60200010BD44790200E5
:10B6C0000C250020F7B50E00012504690192002C1D
:10B6D00036D0238832889A4201D0002B23D1638848
:10B6E00072889A4201D0002B1DD1FEF7C9F80123C0
:10B6F000002806D0C022A3881340C03B5A425341C1
:10B70000DBB2019A934219D1A7883BB2002B15DB1B
:10B7100010223100A0180BF099FF40231F4204D0E3
:10B72000200009F00BFD646AD1E7FEF7A9F80028B4
:10B73000F6D021000348FEF755FAF4E70025F2E7BA
:10B740002800FEBD3D51020008B4024B9C4608385B
:10B7500008BC6047C5520200F0B587B001930EAB3C
:10B760001B88060003930D9B0D000093019B029222
:10B770000C9F002B3CD0002F02D1009BDB0737D55C
:10B7800028200BF0F9FD0400103008F0FCFD029BAE
:10B790001820258063800BF0EFFD0500009B082238
:10B7A0000593019B002103600C3004970BF06AFFA6
:10B7B000082204A9281D0BF049FF0E4B02226B61E1
:10B7C00000230399E3602362636233680A43A56040
:10B7D000A2805B68210030009847002806D0200036
:10B7E00008F0EBFC20000BF0BCFD034807B0F0BDF7
:10B7F0000248FBE7FF52020016FCFFFF17FCFFFFA9
:10B80000F0B50400160000258380164A164B85719A
:10B810000260218146810573186889B08C46A84270
:10B820001DD0124A05950492C02202926A4604ABCA
:10B8300082CB82C223002A006146FFF78DFFC0221F
:10B84000094B0A49186802926A46069106AB0795A9
:10B8500082CB82C223002A003100FFF77DFF200047
:10B8600009B0F0BD887902000C250020295402009F
:10B8700030B5002403730123034D8471056081807A
:10B8800082734373846030BD8478020070B583791D
:10B890000400DB0702D580680BF063FDA3799B07EA
:10B8A00002D5A0680BF05DFDA3795B0707D5A02347
:10B8B0000021144ADB00D150A0680BF052FDA3799F
:10B8C0001B0708D5A568002D05D028000AF05BFAF3
:10B8D00028000BF046FDA379DB0605D5A0680028FB
:10B8E00002D00368DB6898476023A2791A4205D02A
:10B8F000A068002802D003685B6898470023A36013
:10B90000A37170BD00700040F7B50227037B0400EF
:10B910000D003B4226D0012926D886793E4000966C
:10B9200014D1FFF7B3FF18200BF026FD0E230600FD
:10B93000E3561822009901930BF0A4FE0199300000
:10B940000BF075FBA379A6603B43A371A3685A680B
:10B95000002D04D00025DB681A602800FEBD1B699D
:10B960001A60FAE7014DF8E7014DF6E716FCFFFF14
:10B9700017FCFFFFF7B50126037B040033422AD0F2
:10B98000612385791D4017D1FFF780FF18200BF048
:10B99000F3FC0E230700E35618220093637B290073
:10B9A00001930BF06FFE019A009938000BF02DFB0C
:10B9B000A379A7603343A3716023A279A0681A42D8
:10B9C00002D00BF0D7F9FEBD436940681B681840F0
:10B9D000431E9841F7E70148F5E7C04616FCFFFF14
:10B9E00010B50124837941731C4004D080680BF0AA
:10B9F000D6FB002010BD6022134203D080680BF0FC
:10BA0000C0F9F6E70048F5E716FCFFFF70B5040043
:10BA100000250C4B0E0008338580857103602100E2
:10BA2000183009F0B2FD20002100203009F0D0FDCF
:10BA3000054BA680E5802572E560256165612000E3
:10BA40001C6070BD98790200202500208379DB07F7
:10BA500002D5C160002070470048FCE716FCFFFFDC
:10BA60008379DB0701D5C06870470148FCE7C04611
:10BA700016FCFFFF70B545690400002D22D0037A43
:10BA8000032B21D8FFF7ECFFA8622C200BF074FCED
:10BA90002C22002105000BF0F5FD002263695A629B
:10BAA0002369934208D1636923610020237A656189
:10BAB0000133237270BD13005A6A002AFBD16269F8
:10BAC0005A62F2E70148F5E70148F3E717FCFFFF88
:10BAD00013FCFFFF144B70B55A68144C002A03D0B6
:10BAE00000225A600132A2601A69002A17D0002190
:10BAF00019618023DB000E4DE3582868012B0FD11C
:10BB0000A923DB00E1584942FFF7A0FF2868FFF7AF
:10BB1000B1FF2B685A69074BE2500123A36070BD47
:10BB2000FFF794FFF9E7C046FC100040001000400A
:10BB3000202500200405000003000069002809D02A
:10BB40000221054AD167426A1A611A7A013A1A72C9
:10BB5000024B19607047C04604E100E000E100E0DC
:10BB600010B5002903DB024B19600BF005FA10BD7C
:10BB70002425002070B504001E0004AB1D7805F0DC
:10BB8000C7F820000E4B40302360FEF70BFA23006D
:10BB900001364C33013522001E701D730023E12154
:10BBA0004E32A3646365138053809381D381013B3C
:10BBB000200063644902FFF7D3FF200070BDC04638
:10BBC00034780200F7B580277F053D697C6908223B
:10BBD000113C6C430600210068460BF037FD104B0A
:10BBE000009A9A4219D0009300230193796930009A
:10BBF0001339694309F001FD019A0099300009F0F9
:10BC000014FD2100300009F0F8FC7969AB08133904
:10BC100069432200300009F0FAFC0198FEBDC046DD
:10BC2000FECA0000F0B50D00A9B00D92002130222F
:10BC3000060010A80B930BF025FD28000BF062FD09
:10BC4000431C0C93102B00D9B5E00B9B202B00D983
:10BC5000B1E02900300009F015FD071E50D1290080
:10BC60000C9A10A80BF0F2FC0D990B9A14A80BF08B
:10BC7000EDFC80235B051A695F690C92113F7A43E2
:10BC800030005D690B92FFF79DFF30220021040018
:10BC90001CA80BF0F7FC290000270C9B1339594313
:10BCA000300009F0AAFC0D9730257D430B9B08332B
:10BCB000ED18A74242DA290030221CA80BF0C6FC7E
:10BCC00010A91CA80BF014FD002827D13C49300016
:10BCD00022000E910F9409F0A8FC6A46099513AB57
:10BCE00023CB23C223CB23C223CB23C23000129BFE
:10BCF0001099119A09F0A7FC01230D930137D3E79E
:10BD000010300B9A0D990BF092FC040038000BF0E8
:10BD100028FB002CA3D1200029B0F0BD6A4609956C
:10BD20001FAB23CB23C223CB23C223CB23C23000A0
:10BD30001C991D9A1E9B09F086FCDFE7E543302322
:10BD4000ED1725405D430B9B08355D190D9B002BBE
:10BD50001DD10C9B3021981E05F082FEA0422CD0F4
:10BD600017490134300022000E910F9409F05DFC58
:10BD70006A46099513AB23CB23C223CB23C223CB23
:10BD800023C230001099119A129B09F05CFC0B99A8
:10BD9000300009F032FC80235B0559690C230C9AB2
:10BDA000133963434A430233110030000B9A09F000
:10BDB0002EFC0024AFE7034CADE7034CABE7C046D5
:10BDC000FECA000017FCFFFF13FCFFFF8023F0B545
:10BDD0005B051A6995B003925A6905910399113A66
:10BDE00051435D69039B133D040002915D43FFF7DE
:10BDF000E9FE061E3BD0002730220021083508A8A6
:10BE000001950BF03FFC0199200009F0F6FB049727
:10BE100030237B43029D0835ED18B7421FDA290015
:10BE2000302208A80BF012FC059908A80BF060FC62
:10BE300000280AD11949721E20000691079209F0C4
:10BE4000F4FB012304930137E2E70C23019A290054
:10BE5000200009F0DCFB019B30330193F3E7049BE6
:10BE6000002B06D10D493200200009F0DEFB0C4802
:10BE700012E00299200009F0C0FB80235B0559699C
:10BE80000C23039A13394A437343110020000233F1
:10BE9000029A09F0BCFB002015B0F0BDFECA0000FC
:10BEA0000CFCFFFF70B50400A280FA2200230800FA
:10BEB0000C49920008312160A3716061E260A360C7
:10BEC0006382094909F0DEFB051E09D0010020004C
:10BED0001031022212300BF0B9FB28000BF041FAAE
:10BEE000200070BDB0790200D086020030B5022576
:10BEF000837987B004002B4204D1FDF74DFDA3796F
:10BF00001D43A571200009F007FC00281CD06B46DA
:10BF1000DD1C280009F0F7FB2B78002B17D001A8B7
:10BF200009F0EFFB0321019AD3170B409B189B10DC
:10BF30002382FDF7B9FFE368A18818180123A060E8
:10BF40001A0002A808F029FA002007B030BD01222B
:10BF5000064B1A60064A51680029FCD00021516046
:10BF6000044A1268019201225A60DBE700C00040D7
:10BF7000FCC0004008C50040022802D10122014B4C
:10BF80001A7070470728002070B5064C050023780A
:10BF9000002B04D1044802F0FFFA0123237028008B
:10BFA00070BDC0460828002079BF010070B50C00A4
:10BFB00007F0E6FF002810D00023144DA40A2B70D0
:10BFC000200009F0BDFB002803D00A200BF0DBF8AD
:10BFD000F6E72B78002BFCD070BD02210C4B0D4AEC
:10BFE00099508021C90008005D58002DFCD0A12186
:10BFF000C9005C5019580029FCD0002199508021BB
:10C00000C9005A58002AFCD0E6E7C046072800209D
:10C0100000E0014004050000F8B50C0015001E000A
:10C0200007F0AEFF002811D00023174F3B703200FD
:10C030002900200009F082FB002803D00A200BF021
:10C04000A2F8F4E73B78002BFCD0F8BD01210F48A3
:10C050000F4B844619508021C9005A58002AFCD041
:10C0600080270022FF00964207DD9100685860504B
:10C07000D9590029FCD00132F5E7002261465A5017
:10C08000DA59002AFCD0E0E7072800200405000068
:10C0900000E0014008B4024B9C46443808BC6047AD
:10C0A00045570200FA21F8B50389C9000400594335
:10C0B000324809F00DFEFA21890005F0D1FC304F1D
:10C0C0002081A17A380009F003FE23002600250014
:10C0D00022894C33A072A0361A808C353178002327
:10C0E0002A22286808F075FF002801D02548F8BDED
:10C0F00031781F235B22286808F06BFF0028F5D1F8
:10C10000317820235C22286808F063FF0028EDD1F5
:10C11000317801232C22286808F05BFF0028E5D144
:10C12000317801232D22286808F053FF0028DDD143
:10C13000317801232E22286808F04BFF0028D5D142
:10C14000A17A380009F0BFFD3178C3B20E22286809
:10C1500008F03FFF0028C9D1FA21238989005943FB
:10C16000064809F0B0FD01230343DBB231782A22EF
:10C17000286808F02EFF0028B9D0B7E7D079020070
:10C18000C87902000EFCFFFF08B4024B9C464438FD
:10C1900008BC6047A5C00100074B10B51A00040099
:10C1A00008323C3302604364443008F012FB200044
:10C1B00008F042FA200010BD307A020008B4024BA9
:10C1C0009C46443808BC604799C1010008B4024B42
:10C1D0009C46443808BC60474F570200F0B5042520
:10C1E00083798BB004002B4204D1FDF7D5FBA379F2
:10C1F0001D43A57120009030FFF7BCFB0026B04224
:10C200000FD12300A033197820000C2307AD009331
:10C210008C302B0001220068FFF73AF9061E03D08C
:10C220002C4E30000BB0F0BD0A2304AA9B182A78CC
:10C230005A706A781A700022985EAA785A70EA7862
:10C240001A700022995E03912A795A706A791A70DD
:10C2500000229F5EAA795A70EA791A7000215A5E0C
:10C2600004922A7A5A706A7A1A7000215A5E0592EC
:10C27000AA7A5A70EA7A1F251A7000229B5EA27A67
:10C2800003999C46514349425043CB172B407A4374
:10C290005B185B11A361C3172B401818D3171D40FF
:10C2A0006423AD18059A5B425343A3676423614638
:10C2B000049A40115A434B43E2676D11221DE0611D
:10C2C00025622000D36708F029FA2000443008F0E6
:10C2D00087FAA6E70EFCFFFF08B4024B9C464438E1
:10C2E00008BC6047DDC10100F7B51E00040008ABC3
:10C2F0001B881500019309AB00911A8831000AAB25
:10C300001F88FEF707F820003A0031004430FEF79E
:10C3100055FA134B20001A003C33636423000832A3
:10C320002260009A8C331A60AB8890308380AB799E
:10C33000019A83710B4B03210360AB6883602B7BF5
:10C3400003736B7B4373AB7B83732300A0331A802F
:10C35000FFF746FB2000FFF7A5FE2000FEBDC0460C
:10C36000307A020084780200F8B5FA260189B60016
:10C3700004007143264809F0ABFC310005F070FB66
:10C38000244F2081A17A380009F0A2FC2500A07278
:10C390005835297800232A22606C08F01AFE0028FC
:10C3A00001D01D48F8BD297810232B22606C08F0BD
:10C3B00010FE0028F5D1297801232D22606C08F0A9
:10C3C00008FE0028EDD1297801232E22606C08F0A8
:10C3D00000FE0028E5D1A17A380009F074FC297824
:10C3E000C3B20E22606C08F0F4FD0028D9D1218977
:10C3F0000748714309F067FC01230343DBB2297846
:10C400002A22606C08F0E5FD0028CBD0C9E7C046C1
:10C41000987A0200907A02000EFCFFFF10B504002B
:10C42000034B0833036008F007F9200010BDC04635
:10C43000F87A02007FB50425837904002B4204D1E9
:10C44000FDF7AAFAA3791D43A57120004830FFF734
:10C4500091FA0025A8420DD12300583319780623FC
:10C4600002AE009301223300606CFFF711F8051E45
:10C4700003D00D4D280004B070BD0223002104201C
:10C48000F356A27ADB00715630565343C000C90000
:10C49000514342435B42A3612368E16122629B6A8C
:10C4A00020009847E6E7C0460EFCFFFFF8B5040001
:10C4B000150006AA168807AA0F0012881900FDF7B2
:10C4C00029FF0F4B6764083323602300AA88483391
:10C4D0009A80AA7920009A710A4AA264AA68226501
:10C4E0002A7B1A736A7B5A73AA7B9A730023A371FF
:10C4F000230058331E80FFF737FF2000F8BDC046E9
:10C50000F87A02008478020010B50400034B083367
:10C51000036008F05EF9200010BDC0468C7B02006D
:10C52000F0B507005C3787B004003978002310228B
:10C53000806C08F04EFD0326002802D01F4807B08B
:10C54000F0BD0F2502ABED180123397808220093C6
:10C55000A06C2B00FEF79CFF184B9842EED02B7876
:10C56000334203D06420FDF7B1FAEAE7FA262189C5
:10C57000134DB6007143280009F0AAFB310005F005
:10C580006FFA20813978A0231122A06C08F021FDD8
:10C590000028D3D1A36C21890393714328003F78ED
:10C5A00009F091FB01231843C3B21022390003980C
:10C5B00008F00FFD0028C2D0C0E7C0460EFCFFFF08
:10C5C0002C7B020070B50825837986B004002B42CD
:10C5D00004D1FDF7E1F9A3791D43A57120004C308A
:10C5E000FFF7C8F9061E0DD023005C331978062327
:10C5F00004AD009301222B00A06CFEF749FF061E3C
:10C6000003D0134E300006B070BD0E232A786B4461
:10C610005A706A7820001A700022995E64224A4398
:10C62000A263AA785A70EA781A700022995E64228E
:10C630005242514361632979597069791970002117
:10C640005B5E5A432368E2631B6A9847DAE7C04699
:10C650000EFCFFFFF8B50400150006AA168807AA0D
:10C660000F0012881900FEF7A9F80D4BA7640833D4
:10C6700023602300AA884C339A80AA7920009A71FB
:10C68000084AE264AA6862652A7B1A736A7B5A7355
:10C69000AA7B1E829A73FFF743FF2000F8BDC046B5
:10C6A0008C7B020084780200F7B5FA250189204FBF
:10C6B000AD0004006943380009F00AFB290005F0C9
:10C6C000CFF9A17A20811B4809F002FB2600636C98
:10C6D000A07200932189583633786943380001935A
:10C6E00009F0F1FA07230343DBB2202201990098F5
:10C6F00008F06FFC002801D00F48FEBD31781023F0
:10C700002222606C08F065FC0028F5D1A17A094866
:10C71000656C377809F0D7FA80235B420343DBB2BC
:10C7200023223900280008F054FC0028E5D0E3E774
:10C73000C07B0200B87B02000EFCFFFF10B50400B6
:10C74000034B0833036007F077FF200010BDC0469D
:10C75000307C0200F0B50425837985B004002B42BB
:10C7600004D1FDF719F9A3791D43A57120004830C4
:10C77000FFF700F9061E0DD0230058331978062361
:10C7800002AD0093A8222B00606CFEF781FE061E0E
:10C7900003D0144E300005B0F0BD1F200023EA5E28
:10C7A000D31703409B180222A95E5B11CA170240EF
:10C7B000521804216F5E5211F9170140C91949112D
:10C7C0002B806A80A980A07A4343424341435B4265
:10C7D000E36123685242A26121629B6A200098476C
:10C7E000D8E7C0460EFCFFFFF8B50400150006AA06
:10C7F000168807AA0F0012881900FDF78BFD0F4B52
:10C800006764083323602300AA8848339A80AA7992
:10C8100020009A710A4AA264AA6822652A7B1A73C8
:10C820006A7B5A73AA7B9A730023A371230058333F
:10C830001E80FFF739FF2000F8BDC046307C0200A3
:10C8400084780200F7B5FA2504000189134EAD0083
:10C850006943300009F03CFA290005F001F927008E
:10C86000A36C208100935C373B7881B26943300030
:10C87000019309F028FA6022C3B20199009808F0E8
:10C88000A8FB002801D00648FEBD397801236222AA
:10C89000A06C08F09EFB0028F6D0F4E7647C020050
:10C8A0000EFCFFFF10B50400034B0833036007F0D4
:10C8B00090FF200010BDC0468C7C02007FB508258B
:10C8C000837904002B4204D1FDF766F8A3791D4358
:10C8D000A57120004C30FFF74DF8051E0DD0230048
:10C8E0005C331978062302AE0093E8223300A06C73
:10C8F000FEF7CEFD051E03D00B4D280004B070BD21
:10C900000223F25E96235B425A4362630021725E09
:10C9100020005343A3630423F25E96235343E3634F
:10C9200023681B6A9847E8E70EFCFFFFF8B5040090
:10C93000150006AA168807AA0F0012881900FDF72D
:10C940003DFF0D4BA764083323602300AA884C33B6
:10C950009A80AA7920009A71084AE264AA686265FE
:10C960002A7B1A736A7B5A73AA7B1E829A73FFF71B
:10C9700069FF2000F8BDC0468C7C0200847802006C
:10C9800010B50400054B083303601C3007F05FFC52
:10C990002000183007F05BFC200010BDB87C0200BE
:10C9A000FF23F0B52C4D8DB02B7000230400694699
:10C9B0000088009303F0B2F9002802D16B469B78FF
:10C9C0002B70264E3368DB68002B07D100232088AC
:10C9D0001A00190008F02BFF0DB0F0BD2B78032BC7
:10C9E000F4D81F4901A8FDF7A3FA336801A9DE684E
:10C9F00004A807F08EFC04A9300008F076FE00279A
:10CA0000060004A807F023FCBE421ED031002022FD
:10CA1000103104A80AF01AFE30000AF0A2FC2978AE
:10CA200004ABC9005918082202A80AF00FFE20889A
:10CA30000123082202A908F0FAFE0137002804D1D8
:10CA40002088084A0C2108F0F0FE01A807F0FFFB3F
:10CA5000002FBBD0C0E7C046802000203425002036
:10CA600063870200FFFF0000F0B5837991B00400F6
:10CA70005B071BD5FDF718FA00232269801A99413C
:10CA8000994203D1F423FF3398420FD9A0680028BC
:10CA900008D0364B1D8809F093F9036815221B6AEC
:10CAA000290098470422A3799343A371A3799B0794
:10CAB00059D52F4D2B68DB68002B50D02D4B1B78A0
:10CAC000032B4CD8294B2C491B8804A80193FDF754
:10CAD0002FFA2B6804A9DE6808A807F01AFC08A939
:10CAE000300008F002FE070008A807F0B0FB02AB18
:10CAF0009E1D08233200338006A9073B019808F0E9
:10CB000098FE002F08D039002022103108A80AF022
:10CB10009DFD38000AF025FC164B32881B7806A9CB
:10CB2000DE0008AB9E1930000AF081FD002813D00A
:10CB3000082206A930000AF089FD2B6804A9DD68E7
:10CB400005A807F0E6FB202308AA05A9280008F09D
:10CB5000D2FD05A807F07BFB04A807F078FB0222B2
:10CB6000A3799343A37111B0F0BDC046B027002054
:10CB7000342500208020002063870200F7B5089E3E
:10CB80000500152922D8012007008F40244C274298
:10CB90001CD0E97FCC181F2C41DC69183418A14245
:10CBA00010D80021C8B2834204D9545C7018847034
:10CBB0000131F7E732789A183270EA7F9B18EB77E9
:10CBC00000202CE00878C8540139E8E73478013CAB
:10CBD000E4B2A34208D10023D9B28C42F0D9D05C90
:10CBE000F11888700133F7E7EF7F0120FF183F1B32
:10CBF0001F2F14DC0227A01C7F423618381B01901F
:10CC0000E87F2F18BE4204D23078019FF0550136DC
:10CC1000F6E7041B023CEC77280008F054FEFEBD4A
:10CC2000FC002000F0B5040085B001930AAB1E881B
:10CC30000BAB1B78451C02930EAB1B7817000393BC
:10CC40000B78102203704B8A0131438228000AF0CE
:10CC5000FDFC268300260122019B67616383039B01
:10CC6000E6832377029B2000EB77A31CDA770C9BEB
:10CC70000C25636223000D9A28331A705E709E7033
:10CC80002A0031002C300AF0FDFC2000064BE66340
:10CC9000A3632A00310040300AF0F4FC2000034B6B
:10CCA0002665E36405B0F0BD495802003B58020018
:10CCB00070B50D0009F084F804000368002D09D157
:10CCC0005B699847FA2080006843074904F0C8FE72
:10CCD000E08070BD9B6898478542F3D223682000AE
:10CCE0009B6898470500EDE771020000F0B507006A
:10CCF0001600A1B002C704006B4918A81D0008F077
:10CD000029FE331E03D030000AF0FCFC83B201225E
:10CD100004920022039202920232019200933200A6
:10CD200018A93800FFF77EFF23006049583318A880
:10CD3000079308F00FFE2B1E03D028000AF0E2FC38
:10CD400083B20122049200220392029202320192E3
:10CD500000932A0018A90798FFF764FF230054499D
:10CD6000AC3318A8089308F0F5FD269B002B03D0E0
:10CD700018000AF0C7FC83B2012204920022039239
:10CD80000292023201920093269A18A90898FFF79E
:10CD900049FF631CFF33474918A8099308F0DAFDDF
:10CDA000279B002B03D018000AF0ACFC83B20122B1
:10CDB00004920022601C03920292023201920093BC
:10CDC000279A18A9FF30FFF72DFF23005533FF33B3
:10CDD000394918A8099308F0BDFD289B002B03D002
:10CDE00018000AF08FFC83B2012204920022039201
:10CDF0000292023201920093289A18A90998FFF72B
:10CE000011FF2300A933FF332C4918A80A9308F017
:10CE1000A1FD299B002B03D018000AF073FC83B2FC
:10CE200001220492002218AD039202920232019272
:10CE30000093299A29000A98FFF7F4FE204B1B78EB
:10CE40000B93002B2CD1079B12971393089B0DAFCC
:10CE50001493631CFF331593099B1A4916930A9B7D
:10CE60003800179308F076FD1D2149203B781022E9
:10CE70002B707B8A12AE6B8206ABC918C0180AF001
:10CE8000E5FB06232B750B9B2068AB83AE6108F096
:10CE90009BFF036829001B6898470122084B1A7002
:10CEA000200021B0F0BDC046292A0000242A00003D
:10CEB000252A0000272A0000262A0000282A000030
:10CEC000092800200A18000070B5002504000B4B4B
:10CED0008580083385710360C1601830FDF762F802
:10CEE00020001C30FDF75EF80123621CD377044A52
:10CEF000A560656120001460A37170BDB87C02005C
:10CF000034250020FA2130B585B005000123022226
:10CF10008900684607F041FA074C2068002809D0CC
:10CF200008F051FD2988054B226819800223917968
:10CF30000B43937105B030BD34250020B02700208D
:10CF400010B50C0007290DD8806808F039FF064B92
:10CF5000195703685B6C9847431E9841034B404246
:10CF6000184010BD0248FCE75B87020016FCFFFF7B
:10CF700017FCFFFFF0B5A44C0D00A5440400079377
:10CF80009AAB1B78A14909A804930692FCF7D0FF3D
:10CF9000200029001C3007F0C4F9C020800001F0F7
:10CFA000F1FA08200AF0E8F90600002100F0AEFED0
:10CFB00015ADA66000210C220EA80AF063FB2B0021
:10CFC0000EAA83CA83C3924B2900EB600023300072
:10CFD0002B6108F0DEFEA06808F0F2FE08220021B6
:10CFE000059016A80AF04EFB14200AF0C5F9290096
:10CFF0000200884B1593C8C9C8C2874B059EC36001
:10D000000023A43603613368002B00D0F5E03060C4
:10D01000A06808F0D9FE08220021060016A80AF030
:10D0200031FB14200AF0A8F97C4B1593030086CD40
:10D0300086C37B4BC36000230361336B002B00D09E
:10D04000DDE03063A06808F0BBFE08220021050087
:10D0500016A80AF017FB14200AF08EF9714B15AED2
:10D060001593030086CE86C36F4B9835C3600023AB
:10D0700003612B68002B00D0C3E02860012504ABBE
:10D080001B7C04AA2B4308A92800137408F0D3FBC7
:10D09000A06808F09DFE036864495B6A9847A06831
:10D0A00008F096FE036862499B699847A06808F0FB
:10D0B0008FFE002302680093166804992A00B04787
:10D0C000049B002B0AD0200008F086FC032805DD15
:10D0D000A06808F07DFE0368DB6898470EA808F09A
:10D0E000E9FB2F2004ABC01808F0E4FB362004ABAA
:10D0F000C01808F0DFFB3D20042504ABC01808F081
:10D10000D9FB0EAB0A93A06804AB5D7708F060FE14
:10D1100003680AA91B699847A06808F051FE0368D4
:10D120000AA95B6D9847A06808F04AFE03680021D1
:10D13000DB6D9847A06808F043FE036802219B6DF1
:10D14000984700212000FFF7FBFE18200AF014F991
:10D15000A16800F055FA374B374A1B68A168039362
:10D16000364B15A81B6800260293354B0CAF1B6885
:10D170000193069B1B685B190093324B12681B6876
:10D18000FFF7B4FD30200AF0F7F8079AA16800F025
:10D19000F7FAA06808F014FE036839009B6A984704
:10D1A000294BBE80A0680C9308F00AFE0368390082
:10D1B000DB6A98472900A06808F0D8FB099A092182
:10D1C0009378A068521908F0E4FBA06808F0F8FD15
:10D1D00032210671A068FFF76BFD04AB1B7FB342E1
:10D1E00004D0A06808F0ECFD08F0AAFB09A807F03D
:10D1F0002EF895239B009D44F0BD036107E7036172
:10D200001FE7036139E7C046ACFDFFFF4888020015
:10D210005758020005CF010065580200A1C901005E
:10D2200073580200A1580200815802004DD201003B
:10D2300081D20100302500202C250020082000206C
:10D24000282500200C2000200800100013B506221D
:10D250006846FCF77DFE094B1C68002C0AD0694625
:10D2600001A807F056F8200001A908F0D6FB01A894
:10D2700006F0EDFF684606F0EAFF13BD34250020F6
:10D28000002373B501AE0C0031000500019302F0DC
:10D2900045FD002802D1B278064B1A70064B18687B
:10D2A000002806D061426141044BC9B21D8008F0DC
:10D2B000BCFB73BD8020002034250020B027002057
:10D2C00030B5284CA9B06A220D000DA821000AF043
:10D2D000BDF90DA903A8FCF799FE03A906A807F05C
:10D2E0008CF801230193013BFF3B00930533FF338F
:10D2F000642206A92800FEF773F806A807F070F864
:10D30000210019226A3106A80AF0A0F9052200249A
:10D31000110006AB04A807F097F804A905A807F0C8
:10D320006CF8019400942300220005A92800FDF761
:10D330009BFF05A807F054F821002800FEF77EF8AF
:10D3400005340520FCF7C2FBFF2CF5D1FA20800044
:10D35000FCF7BCFB04A807F043F803A807F040F86B
:10D3600029B030BDD8860200F0B59C4B95B005922F
:10D370001A68082304000391D16C06A80B43D364F8
:10D380009749FCF7D5FD974907A8FCF7D1FD220086
:10D3900000250DAE30001C3206A906F0D1FF07AA09
:10D3A000310008A806F0CCFF300006F050FF631CE7
:10D3B000DD77A06808F004FD03680BAF5B69984750
:10D3C000300008F077FA2B2004ABC01808F072FA8E
:10D3D000322004ABC01808F06DFA392004ABC01835
:10D3E00008F068FA8023DB00BB80A0680B9608F089
:10D3F000E7FC036839005B6D9847A06808F0E0FC23
:10D40000036829009B6D9847A06808F0D9FC0700C5
:10D4100006000A371F22290038000AF033F9FD7789
:10D42000300008F084FA0621A06808F09FFA089AF4
:10D4300009219378A068043208F0ABFAA06808F0DC
:10D44000BFFCC8210571A068FFF732FCA06808F096
:10D45000B7FCFF272E000581A06808F0B1FC08F09A
:10D460006FFA0398FDF704FE2000FCF795FA039984
:10D470002000FFF725FF0399200008F0E9FA049542
:10D48000012563691D402DD0574909A8FCF73CFED2
:10D4900009A90AA806F0B1FF00220AA91300019207
:10D4A00000920398FDF7E0FE0AA806F099FF049B9E
:10D4B000002B42D1043F282F41DD0025FE2F00DC48
:10D4C000049D059807F071F9002806D001236269D0
:10D4D0009A431300042213436361002609A806F04F
:10D4E0007FFF049504226369134233D0FF21039820
:10D4F000C826FDF7A3FF0025B600A36902229B5EA4
:10D50000AB4222DD200029B2183006F02FFF0023A5
:10D51000010003981A007430FCF746FE3000FCF757
:10D52000D5FA039807F048FDC820FCF7CFFA02228D
:10D530006369134209D10135DFE70437BBE703987C
:10D5400007F03AFD002FBCDDBAE7FA208000FCF7B7
:10D55000BDFA0026022365691D421CD006331D401A
:10D5600024D0224909A8FCF7CFFD09A90AA806F092
:10D5700044FF00220AA90192009213000398FDF7CC
:10D5800073FE0AA806F02CFF1948FCF79FFA09A8B9
:10D5900006F026FF174E6420FCF798FA164B01366A
:10D5A0009E4200DC6CE706F0FDFC69E7134909A820
:10D5B000FCF7AAFD09A90AA806F01FFF2B002A0004
:10D5C0000AA9019500950398FDF74EFE0AA806F0FA
:10D5D00007FF09A806F004FFDDE7C046B8240020D5
:10D5E0006F8702007F87020081870200C6870200E2
:10D5F000983A00008C0A00008B0A000003880200A1
:10D600000022594BF0B50833060003600F001000EC
:10D61000A9B0B1600BAB991801324870102AFAD149
:10D620000F3A524C1A700E32105D991A0874013A72
:10D63000FAD2997B5A7B09020A4331000C310391DB
:10D6400025211B7813AD2B7002ABC918452302A806
:10D650001B186A821800102209F0F8FF039B64214E
:10D660006B610123002402AA2B7752181993093306
:10D6700013701DAB1C706D2302AA9B181C706E23C7
:10D6800021009B181EA80C22EC836C621C7009F010
:10D69000F9FF374B0C22210023A8AB63EC6309F0A0
:10D6A000F1FF344B02AAEB6446239B180322DA777E
:10D6B00022002C650595347306AD2B1901345A7080
:10D6C000102CFAD101232C482B700E33195CEA1A66
:10D6D0001174013BFAD211212520AA7B6B7B120227
:10D6E0000BAC13432A78638202ABC9182270C018AE
:10D6F000102209F0ABFF0123237505ABA3610023C2
:10D700003800A38308F060FB036821001B6898477A
:10D7100013ABDB8BB068B38208F056FB00220368C2
:10D720000092B18A039ADC680123A047B06808F030
:10D730004BFB0700142009F01FFE00220123040008
:10D740000261069240C008322900079309F07EFF6B
:10D750000A4BE360BB69002B03D13000BC6129B0E8
:10D76000F0BD2361F9E7C046D07C02005C8802006E
:10D77000495802003B5802006C880200B15A02006E
:10D78000F0B500260400724BDDB008330360816001
:10D79000C2608680867132006E4947A808F028FA78
:10D7A00023001433012504270893122300970495BE
:10D7B0000193089A330047A9039602961DA8FFF724
:10D7C00031FA3200644947A808F012FA0C2322000B
:10D7D0000097103215AF0495019347A933000396C3
:10D7E000029632A8FFF71EFA32005C49380008F0B2
:10D7F000FFF921001C3109910423082104950191AE
:10D80000009339003300099A0396029647A8FFF760
:10D8100009FA32005249380008F0EAF9542009F0B8
:10D82000ABFD2100122204231831079104950192C7
:10D8300000930A0033003900039602960690FFF722
:10D84000F1F9069A474B1000A262D4620AA9082295
:10D8500030300A930B9609F0F9FE434B069A09996A
:10D8600093632932157026610422E661079809F056
:10D87000EDFE04220799089809F0E8FE66220323CA
:10D8800004A95218D377BA225218D37787225200AC
:10D890005218D377069A35490232D3771DAA0C92D3
:10D8A00032AA0D9247AA0E92069AA6850F9210A848
:10D8B000320008F09DF93021452004AA521813784F
:10D8C000123104AA3B705218138811397B8204ABC1
:10D8D0001022C918C01809F0B9FE04230CADA068C5
:10D8E0003B75BD61BE8308F06FFA036839001B68A1
:10D8F0009847822204AB9B181B885432238404ABC4
:10D900009B181B885432A38404AB9B181B88A06807
:10D91000638408F059FA0700142009F02DFD050072
:10D92000134B0661082210C010A91093119609F03C
:10D930008DFE104BEB60BB69B34206D1BD61200088
:10D94000FCF72AF820005DB0F0BD2B61F6E7C04679
:10D95000DC7C02009C8802007C8802008C8802002B
:10D96000AC880200C35B02002F5B0200BC8802008F
:10D97000E1D90100595B0200F0B504000E0015006A
:10D9800085B01F000CAB1B881030019306F0FBFC28
:10D9900026806580182009F0EFFC02AE05003300F8
:10D9A0000AAA03CA03C32F602800082700213A00EF
:10D9B0000C3009F067FE3A003100281D09F046FEE0
:10D9C000064B02226B61200000230199A5600A43E7
:10D9D000E360A2802362636205B0F0BD835B020056
:10D9E000F0B50B898DB00593CB68050004934B8887
:10D9F000828C9A420ED1049C049B059A9B181B1B97
:10DA0000032B39DD62882188012308A806F0C5FCB4
:10DA10000434F1E7428C9A422ED1049C049B059A6F
:10DA20009B181B1B032B27DD238828200693638864
:10DA3000EF680793114B08930023099309F09CFCAE
:10DA4000C0236A460600029308AB03CB03C22B0037
:10DA50000699079A3000FFF78FFF3B6831005B683B
:10DA600038009847002805D0300006F0A6FB3000AB
:10DA700009F077FC0434D1E70DB0F0BD415C020041
:10DA800070B5040090B0806808F0D5F8022101401C
:10DA90001AD1A38D002B17D00C4B6A460493102388
:10DAA000E568A1850591029304AB41CB41C20A0010
:10DAB000230006A8FFF760FF2B6806A99B682800D3
:10DAC000984706A806F079FB10B070BD415C0200D3
:10DAD000002815D0006041608260C3600461456128
