:020000021000EC
:1080000000400020B1100200ED100200EF1002004D
:108010000000000000000000000000000000000060
:10802000000000000000000000000000F11002004D
:108030000000000000000000F3100200F510020034
:10804000F710020085B501005D0D0200F710020077
:10805000F710020000000000B10E0200F71002004D
:10806000F7100200C5080200210E0200F7100200FE
:10807000F7100200F7100200F7100200F7100200DC
:10808000F7100200F7100200F7100200F7100200CC
:10809000F710020079EB010049F90100F710020026
:1080A000F7100200F71002000000000000000000BE
:1080B00000000000000000000000000000000000C0
:1080C00010B5064C2378002B07D1054B002B02D0AE
:1080D000044800E000BF0123237010BDB820002039
:1080E0000000000044850200044B10B5002B03D0B3
:1080F0000349044800E000BF10BDC0460000000076
:10810000BC20002044850200164B002B00D1144BEC
:108110009D46402292029A1A924600218B460F46B3
:108120001348144A121A0FF061F80F4B002B00D0BD
:1081300098470E4B002B00D09847002000210400E8
:108140000D000D48002802D00C4800E000BF0AF0E6
:108150004BFF200029000EF066FC0AF02FFFC046FE
:1081600000000800004000200000000000000000A7
:10817000B0200020E02800200000000000000000E7
:10818000F0B5130004000025A14212D0002B0DD041
:108190005D609D601D6026681E6025605E68676882
:1081A0005F6066609E68A7689F60A6600C340C33B1
:1081B000EAE70B1A0C2004499B08594389008908F7
:1081C00048431018F0BDC046ABAAAA2AF8B560CA49
:1081D000AE19B54223D02C782E2C19D02D2C1AD0C4
:1081E0005C2C1AD0403C631E9C410D4B64421C40E9
:1081F0000C4BE4180C4F0121380003F0DDF820008F
:1082000001F0BCF90021380003F0D6F80135E0E7B1
:10821000FF246400EEE7054CECE7054CEAE7F8BD07
:1082200078ECFFFF92130000D4200020F20300003E
:10823000E4070000F7B543680091016816005A1A78
:10824000224B9210534305000124002B00D01C0048
:10825000009A1C19521A01921D4AA3422ED8944228
:108260002CD8002C2BD12700019BFB18002B09D008
:10827000326871681A6000225960B16832607260B9
:108280009960B2603A0000992868FFF779FF020010
:1082900069680C320098FFF773FF69680600286868
:1082A0000BF0DDF92868002801D00EF0DCFD0C236E
:1082B0005C432F603F196E60AF60F7BD14000C2067
:1082C00060430EF0DBFD0700CEE7C046ABAAAAAACA
:1082D00055555515F0B58BB005000E0004A834496E
:1082E0000BF083F90024326873689B1A9C4205D214
:1082F000115D04A80EF004FF0134F4E72B1D1C00EF
:10830000AE680093002E0BD0300004A910300BF0A3
:10831000A1F9002802D13400B668F3E7F668F1E766
:10832000009BA34206D0210004A810310BF092F963
:1083300000282CD02C200EF0A1FD06002700040000
:10834000103604A930000EF007FF23000022283366
:108350001A70290033003A0002A80BF0D0F9029BF2
:10836000039F0193002F1AD00120002B07D1009BFF
:10837000BB4204D03900300010310BF06BF9009B88
:108380003A0021000EF0EDFD6B6901336B6128347A
:10839000247804A80EF059FE20000BB0F0BD300088
:1083A0000EF053FE20000EF05EFD019CEFE7C0468C
:1083B000917E0200F7B50E0015490400002501F07A
:1083C0000FFB0C27B169F369124A5B1A9B105343E8
:1083D0009D421AD23B006B433000C918FFF77AFF69
:1083E000010068460BF0DFFC6A46210001A80BF093
:1083F00029FD01A920000BF016FD01A80BF0A9FC36
:1084000068460BF0A6FC0135DCE72000FEBDC04647
:10841000917E0200ABAAAAAA0B00F0B597B0F03388
:1084200007910400C84910A8039301F0D9FA7822F3
:1084300010A9039802F0A2FC10A80BF08AFC09A86E
:108440000BF04BFA631DDB7F002B00D16AE1A51D09
:10845000EB7F002B1ED00023E169226A1093119359
:108460001293914229D099420BD00B604B608B60E4
:10847000109A0A60119A10934A60129A11938A60B6
:1084800012930C31E1611098002801D00EF0EBFC42
:108490000023EB7701F060FA23000833DB7F05004F
:1084A0000E00002B0FD1A9480BF001FF00280AD0C5
:1084B0002300012228331A70F5E7200010AA183093
:1084C000FFF7B8FEDFE7A248270002F0ABFF28372E
:1084D000002809D0012223003A700833DA7F002AED
:1084E000F1D10132DA77EEE701F036FA3B78002B72
:1084F000A8D0401BB1410F1E02D1964B984233D9F0
:10850000954910A801F06CFAC82210A952000398EE
:1085100002F0CEFB10A80BF01CFC4027FA20400014
:1085200001F02CF83B002D3B012B00D99FE0A26904
:10853000E3699D1A894BAD106B430C25013B5D43EC
:1085400055196B68AA68049393424CD0002B00D055
:108550001F706B6801336B602300002228331A7090
:1085600003980CF0ABFA6DE7FA23DB0098420ED9C2
:108570007B4910A801F034FAC82210A952000398D0
:1085800002F096FB10A80BF0E4FB5C27C6E7FA2389
:108590009B00984210D9734910A80BF0B0FC3B0027
:1085A0003A000197009710A9039802F0B5FB10A8B4
:1085B0000BF098FC2D27B1E7FA235B00984210D905
:1085C000694910A80BF09BFC3B003A00019700970B
:1085D00010A9039802F0A0FB10A80BF083FC2E2733
:1085E0009CE720279AE7049B2A689E1A731C02D1F5
:1085F0005E480EF018FD002E0BD0730005939E42CE
:1086000009D901235B42059305980EF037FC0690CB
:1086100005E001230593059B0693002BF4D1069BEF
:108620009E19002E00D037702968049B5E1A03D073
:10863000320006980EF0C7FD069B01369E19049A7B
:108640006B689F1A04D03A00049930000EF0BBFD0D
:108650002868F619002801D00EF005FC069A069B42
:1086600094462B60059B6E606344AB6074E75C2F9F
:108670004FD101220C21A31DDA77A269E369374D9E
:108680009B1A9B106B43013B594320005118FFF785
:1086900021FE010009A80BF038F92200030009A906
:1086A0000AA80BF01CF923000833DB7F002B0BD149
:1086B0000AA910A80EF050FD200010AA0799FFF794
:1086C00085FD10A80EF0C1FCA169E36920005B1ACA
:1086D0009B105D430C23013D5D434919FFF7FAFDF3
:1086E000010009A80BF020F9010010A80BF05BFBBA
:1086F000C82210A95200039802F0DAFA10A80BF071
:1087000028FBFA20400000F039FF0AA80EF09DFC7B
:1087100022E7402F03D10022631DDA771CE7E31D17
:108720000122FAE7210010A8FFF744FE782210A9E1
:10873000039802F04DFB10A80BF00BFB09A80BF0FF
:10874000CDF817B0F0BDC046927E0200E4200020B4
:10875000D420002088130000957E0200ABAAAAAAAC
:10876000977E02000C21002010210020997E02003B
:10877000021D70B50023C26002610122411D037118
:10878000836043618361C3610362CA77811DCA77D5
:10879000984CC11DCA770200A5446C460832D377B5
:1087A000203213700500944920000AF01EFF412377
:1087B000924907A823760AF018FF42220DAB1A70DF
:1087C0008F490EA80AF011FF432214AB1A708D498D
:1087D00015A80AF00AFF44221BAB1A708A491CA88C
:1087E0000AF003FF452222AB1A70884923A80AF039
:1087F000FCFE462229AB1A7085492AA80AF0F5FE2C
:10880000472230AB1A70834931A80AF0EEFE4822A5
:1088100037AB1A70804938A80AF0E7FE49223EAB10
:108820001A707E493FA80AF0E0FEFF234A226B44FB
:108830005A757B4946A80AF0D8FE98234B225B0064
:1088400078494DA8E2540AF0D0FEA6234C225B00E2
:10885000754954A8E2540AF0C8FEB4234D225B00C7
:1088600072495BA8E2540AF0C0FEC2234E225B00AC
:108870006F4962A8E2540AF0B8FED0234F225B0091
:108880006C4969A8E2540AF0B0FEDE2350225B0076
:10889000694970A8E2540AF0A8FEEC2351225B005B
:1088A000664977A8E2540AF0A0FEFA2352225B0040
:1088B00063497EA8E2540AF098FE842353229B0069
:1088C000604985A8E2540AF090FE8B2354229B0055
:1088D0005D498CA8E2540AF088FE922355229B0041
:1088E0005A4993A8E2540AF080FE992356229B002D
:1088F00057499AA8E2540AF078FEA02357229B0019
:108900005449A1A8E2540AF070FEA72358229B0004
:108910005149A8A8E2540AF068FEAE2359229B00F0
:108920004E49AFA8E2540AF060FEB5235A229B00DC
:108930004B49B6A8E2540AF058FEBC2330229B00F3
:108940004849BDA8E2540AF050FEC32331229B00DF
:108950004549C4A8E2540AF048FECA2332229B00CB
:108960004249CBA8E2540AF040FED12333229B00B7
:108970003F49D2A8E2540AF038FED82334229B00A3
:108980003C49D9A8E2540AF030FEDF2335229B008F
:108990003949E0A8E2540AF028FEE62336229B007B
:1089A0003649E7A8E2540AF020FEED2337229B0067
:1089B0003349EEA8E2540AF018FEF42338229B0053
:1089C0003049F5A8E2540AF010FEFB2339229B003F
:1089D000E2542100FCAA28000AF02AFFFCAE1C3E4B
:1089E00030000EF032FBA642F9D12800FC239B0098
:1089F0009D4470BD10FCFFFFC97E0200017F020094
:108A0000B37E0200087F0200107F0200B87E0200E1
:108A10000E7F0200FB7E0200097F0200E37E02005F
:108A2000C87E0200BD7E0200D97E02000F7F0200D8
:108A3000D87E0200C27E0200C77E0200B47E020021
:108A4000027F0200DA7E0200CD7E0200EF7E02008D
:108A5000D27E0200CC7E0200D17E0200077F02009F
:108A6000D67E0200DC7E0200E27E0200E87E02008A
:108A7000EE7E0200F47E0200FA7E0200007F020019
:108A8000067F02000C7F020073B5184D03230222FB
:108A90000821280002F044FC154C16492200280049
:108AA0000EF0E5F90023144D009301331A00112153
:108AB000280001F0A3FB2200104928000EF0D7F98E
:108AC0000F4D1049280001F077F80F4E22003100B9
:108AD00028000EF0CCF90D4D0D49280001F06CF87E
:108AE0003100280022000EF0C2F973BDD42000200E
:108AF00000200020E9350200E4200020E5A101006B
:108B000010210020147E0200E53E02000C2100200E
:108B1000597E020010B50400034B036040300BF097
:108B200018F9200010BDC0469C73020010B50A4C15
:108B30008CB0200000F008F901A8FFF719FE210011
:108B400001A8FFF769FC00F091FD01A80AF094FD6F
:108B500000200CB010BDC0461421002010B5054CFB
:108B6000200000F039F8044A044920000EF07FF993
:108B700010BDC0461421002000200020818B010080
:108B8000CA23144A9B0010B5C2501C330400C018FD
:108B90000BF0DFF8D0239B00E0180BF0DAF8200090
:108BA0009130FF3001F01EFB20006930FF3001F0F2
:108BB00019FB2000F03001F097FE2000D03002F0C9
:108BC0009BFA2000643007F083FD201DFFF7A2FF11
:108BD000200010BD287802001423F0B5040093B0E3
:108BE000009319221821043002F01CFD22002500F8
:108BF00026006432B435132110001092B83607F005
:108C000073FD28000CF0BAFA00221E2130000BF090
:108C10005AFF2000D03002F08FFA2200F032119279
:108C20000621464A119801F083FE20000027012307
:108C300069301A0000971121FF3001F0DFFA20009F
:108C400091300097012302221A21FF3001F0D6FA59
:108C50002000B9301A2301210222FF3002F028FB44
:108C6000300001F0D7F8E4225200A050300001F0AB
:108C70001FFBE6235B00E0500100E42220005200CD
:108C8000D130119BA2580095FF3001F061FD20000A
:108C9000E13029001C22FF3002F05CFE1923200085
:108CA0000F93013B0E93013B0D93013B0C93013B52
:108CB0000B93013B0A93013B0993013B0893013B52
:108CC0000793013B0693013B0593013B0493013B52
:108CD0000393013B0293013B0193F930013B0822CE
:108CE00000930721013BFF300BF00EFFCA239B00CE
:108CF000E018290003F040FED3239B00E0181D215B
:108D000002F0DCFBDD239B00E75010982770032165
:108D10000DF0B9FD23002200200009499C33A03248
:108D20001C6011605760074A80305A61022101229D
:108D300008F070F9200013B0F0BDC046A473020023
:108D40005D390200473902000123F0B506788FB083
:108D500004001E4000D082E00300D03318000393CB
:108D600000F0EEFA00F0E6F928200EF087F8050092
:108D700010300BF08AF86C4B18202B600EF07EF848
:108D800007006A4B0460082231000C300C930D96EA
:108D90000EF02CFA0CA9381D08220EF00BFA644BC9
:108DA000AF607B611223EE60AB802E626E622900A1
:108DB000039802F035F9002805D028000AF07FFF5B
:108DC00028000EF050F8012322785A4913432370EB
:108DD0002300B433180005930CF0D6F956490490DB
:108DE00005980CF0D1F900250690642000F0C6FB30
:108DF0002F002E0023006933FF33180007930BF078
:108E000056FA00282DD1049B002B33D1069B002B52
:108E100030D1DD2549494A48AD0000F08FFC635947
:108E2000002B1CD100F09AF801000AA800F0D8FD30
:108E30000BA80AF006FECA239B00E018069B0BAAAB
:108E40000AA90093039B03F0EDFD0BA80AF081FF34
:108E50000AA80AF07EFFCC239B00E35863510FB0B1
:108E6000F0BD20009130FF300BF021FA0028CAD06D
:108E7000182EC8DC2000653039B22AB2FF23FF303B
:108E8000013700F02BFEFFB2322000F077FB0136F5
:108E9000052F02D100270135EDB2049B192E06D013
:108EA000002BA7D02349059802F0E8FC01E0002B35
:108EB000F8D104980DF0D7FF06980DF0D4FF1F49A4
:108EC0001F4800F03BFCCA239B00E3180893DD23F6
:108ED0009B00E3580993002B1ED100F03FF80100DE
:108EE0000AA800F07DFD0BA80AF0ABFD01230BAA38
:108EF0000AA900930898039B03F094FD0BA80AF0BD
:108F000028FF0AA80AF025FFCC239B00E358099309
:108F1000DD23099A9B00E2502100079AF03108985E
:108F200003F07AFF66E7C046FD030000CF39020078
:108F30008F390200487F0200537F0200002000208A
:108F4000001C0020BFF34F8F024B034ADA60BFF3CF
:108F50004F8FFEE700ED00E00400FA05F0B58DB09C
:108F600005AF1922154938000EF024F90022144BE0
:108F700005245A7180225205566E01222500019463
:108F8000029203930199300008F076FA08000299E2
:108F900008F0ECF9019B03996B430193029B361A8D
:108FA0006B430293631E2C1B6C433C19225C1C1EFA
:108FB000CA54E7D108000DB0F0BDC046637F02007F
:108FC0000E280020F0B597B018220021060010A846
:108FD0000EF00CF9132110A80DF094FD032110A838
:108FE0000DF05FFE4C4B1B68002B00D10133DBB250
:108FF00002934A4A012300210BA807F045FF484B82
:109000009E4200D9002672B6464B64211D68464B2D
:1090100030000793052408F033FA604350302818D5
:1090200008900A21300008F02BFA0A2108F00EFB04
:10903000614350316918099130000A2108F006FB9C
:10904000802361430024503169189B010A910193E8
:10905000029B002B5DD0002500272E1F07AB9B191C
:109060000593032C03D1802300249B01019307ABBC
:109070005B592E4A03936300D3180493002319000D
:1090800006205843049A16187678B4466246039E22
:10909000B25C10269446049A105C62460641164261
:1090A00002D00120984001430133092BE8D1C94384
:1090B0001F4B059A090119401268039B934225D161
:1090C000312F23DC00210BA80DF0ACFEFA23159AFA
:1090D0001199DB00106801421BD0013B002BF9D134
:1090E000019B01345B000193FA230137E4B25B007A
:1090F0009F42B6D10435102DAED1074B1B68002B13
:10910000A6D0029F013FFBB20293A1E7019B194346
:10911000D9E7FFF717FFC04690240020F0FF0000BA
:10912000E703000004200020B27F02007C7F0200E1
:10913000F01F0000F8B50023124C23600AF0A2FCD7
:10914000002808D0042120000AF098FC002801D053
:109150000D4B2360F8BD0122A12704250B4B0C49C0
:109160001A602268FF0048604E68002EFCD0DE596D
:109170001202013D3243002DF5D1226001225A60D6
:10918000E8E7C0468C240020ED5EBC0B00D0004018
:10919000FCD00040F0B585B01F000AAB1B8806006C
:1091A000029115000393002F1BD028200DF066FEBE
:1091B0006B4604001989039BAAB200933B000AF096
:1091C00068FD336821005B6830009847002806D0AE
:1091D00020000AF074FD20000DF045FE024805B0A5
:1091E000F0BD0248FBE7C04616FCFFFF17FCFFFF7F
:1091F0000B4B70B51C68002C10D0656D00F0ACFBFB
:10920000A36C002901D1834206D820000AF06DFC2E
:10921000044920000AF057FC2C00ECE770BDC04662
:1092200098240020B8240020F0B593B007932A4B6F
:1092300004AC1E68049005910692002E4AD0274B7C
:10924000258867881C6800230293002C2ED0636D4C
:1092500023480393A36C9AB2A36C1B0C99B285426A
:1092600014D12048824211D1002B01D0B9420BD138
:10927000029B002B08D120000AF037FC1A4920007D
:109280000AF021FC01230293039CDEE7002A01D0AF
:109290009542F9D1002B01D0B942F5D120000AF056
:1092A00024FC114920000AF00EFCEDE70F4BEB18EF
:1092B000012B0FD910233A00009329000C4B08A86A
:1092C0000AF0E7FC336808A99B683000984708A8B3
:1092D0000AF0F5FC13B0F0BD94240020C424002053
:1092E000FE030000FF030000B824002002FCFFFF83
:1092F0002992010010B572B60B4B1C68002C08D0E7
:1093000020000AF0F2FB0023E364084B2000E36333
:1093100010BD62B65C200DF0B1FD5C22002104009E
:109320000DF064FFEFE7C046BC24002000400020A1
:10933000024B1878012318407047C04614280020BB
:10934000F7B50600FFF7F4FF051E33D11A4C26606F
:10935000FFF7D0FF194B1A4918600AF0B4FBFFF76A
:10936000C9FF184B1860184B4363184B8363206880
:1093700000280ED0C027164E2A003300154900974A
:10938000FFF708FF009733002A0013492068FFF712
:1093900001FF0C200DF072FD0023838083710F4BC1
:1093A00003600F4B836000F0EFFA01230D4A117840
:1093B0000B431370F7BDC04694240020C82400203E
:1093C000B8240020C0240020FC3F0020B13B020054
:1093D00029920100FF030000FE030000C473020095
:1093E000F191010014280020F7B506000D001700C8
:1093F0000193002802D100242000FEBD0029FAD0EC
:10940000FFF778FF041EF6D0074B019A436306600E
:1094100045608760054B002A00D0054BA3630549D2
:1094200020000AF050FBE7E7FC3F00207B3B0200F6
:10943000993B0200B8240020024B1868434258416F
:109440007047C046B8240020002310B504499C0092
:109450006258002A01D00133F9E76050100010BDB6
:10946000A0240020002310B5044A99008C5884429F
:1094700001D00133F9E70020885010BDA02400205E
:1094800010B50024084BA200D058002802D0036871
:109490005B6898470134062CF4D1044B1B68002B01
:1094A00000D120BF10BDC046A0240020B824002059
:1094B000F8B5FFF73DFF00281CD02A4D2C68E36C5F
:1094C000DA0718D502273B43E364274B1E680423C1
:1094D000F26C30001343F364636BF3630AF02BFB0D
:1094E0003000716C04F08DF82868C36C3B4201D0E9
:1094F00004F0C1F8F8BD1D4F1D4E3A683168002ACE
:109500001ED129602A68914208D11B0706D52C601C
:10951000FFF7B6FF3B68002BFAD02B6029688C421E
:10952000E8D03368994214D1124B4B63124B8B63D2
:1095300020000AF000FB2968626C4B6C20000DE0F3
:10954000206DB84203D1606D002800D002002A606F
:10955000D8E79C42ECD1002210004B6C04F010F8CC
:10956000C8E7C046C82400209C240020B82400205E
:10957000C0240020FC3F0020B13B020070B5050074
:10958000FFF7D6FE002803D128000DF07EFB70BD4A
:109590000C4B1C68E36CDB0706D5FFF7ABFE0A4BF0
:1095A0001860002800D0040000F0D6F92D18A5643A
:1095B00020000AF09AFA054920000AF084FAFFF721
:1095C00077FFE4E7C82400209C2400209824002092
:1095D000F0B51E4B1E4F1C683B6885B0060003911A
:1095E000002B30D0FFF7A4FE00282CD0E36CDB0763
:1095F0000ED5FFF77FFE174B051E186008D00AF046
:1096000074FA154928000AF05EFA2C00FFF750FFA3
:10961000039B20001B043343A3640AF066FA200076
:109620000E490AF050FA0E4B0024F318012B07D90B
:10963000C0230093039A0B4B31003868FFF7AAFD53
:10964000200005B0F0BD084CFAE7C046C824002051
:10965000942400209C240020B8240020C42400204E
:1096600002FCFFFF2992010016FCFFFF10B5FFF777
:109670005FFE002809D0054C20680AF036FA04493C
:1096800020680AF020FAFFF713FF10BDC82400205D
:10969000BC240020F7B507000D0000282ED0FFF7EE
:1096A00047FE00282CD00724164E3068C36C1C409F
:1096B00007D0154A290038000AF02EFA00242000AD
:1096C000FEBD03F0C0FF02213268D36C1940019146
:1096D00003D003218B43D364F1E701242343D364F4
:1096E0002800B8473268D36C1900A143D164019CAB
:1096F0005B07E4D528000AF047FAE0E7034CDEE711
:10970000034CDCE7C8240020893B020017FCFFFF64
:1097100016FCFFFF020010B5014B12CB12C210BDA8
:10972000CC240020034B1A68034B1A607E225A6037
:109730007047C04604200020CC24002070B5114E94
:109740003278022A1AD081421AD90C1A072C17D95A
:109750000D00032305432B4012D172B60A4DD200EF
:109760005051AA1851608022A408120614430460C4
:1097700032780132327062B6180070BD0348FCE7DF
:109780000348FAE716280020D424002013FCFFFF2A
:1097900017FCFFFF70B5134C06002378124D002B09
:1097A0000CD1124912482B70FFF7C8FF114B984299
:1097B00002D11E20FFF706FC0123237000242B7822
:1097C000A34209DD0C49E300C91830000AF0F6F99C
:1097D000002805D10134F2E71420FFF7F3FB002045
:1097E00070BDC04615280020162800200038002033
:1097F000E028002017FCFFFFD424002070B50028CB
:1098000019D0104B10491C7800239C4216DDDA0059
:109810005558854210D28A18526882420CD9041FCA
:109820002368002B02DC1E20FFF7CCFB802322687C
:109830001B061343236070BD0133E6E71E20FFF7CC
:10984000C1FBF8E716280020D424002070B5051EBF
:1098500014DD0B4E0B4C3368002B02D020680DF04A
:109860008FF8FA2120680024074B89008361C462C5
:10987000694335600DF08CF8200070BD0348FCE7AB
:10988000E4240020142500203599010017FCFFFF77
:10989000F8B5114F06003D68002D0AD130200DF0BB
:1098A000EDFA040006F044FF0C4BA5612360E5626D
:1098B0003C600B4D2B68002B09D110200DF0DEFA17
:1098C00004000DF026F820002C600CF0FCFF3000A6
:1098D000FFF7BCFFF8BDC04614250020C47B020082
:1098E00010250020014B18687047C046E424002072
:1098F00070B50D4C2368002B03D00C4B1B68002B5C
:1099000002D10620FFF7C4FF20680CF0F3FF02002D
:109910000749C3170D684E685219734120680A60E1
:109920004B600CF0EDFF70BD1025002014250020C9
:10993000B020002010B5FFF7DBFF0024054BA2008C
:10994000D058002802D003681B68984701340A2CBD
:10995000F4D110BDE824002010B5FFF7C9FFFA22AA
:10996000034B920018685968002307F0AFFE10BD42
:10997000B020002010B5FFF7BBFF024B18685968F4
:1099800010BDC046B02000200B4B10B51B68040072
:10999000002B03D0094B1B68002B02D10620FFF7D8
:1099A00077FF0023064A99008858002801D0013328
:1099B000F9E78C5010BDC04610250020142500206A
:1099C000E8240020002310B5044A99008C588442F2
:1099D00001D00133F9E70020885010BDE8240020B1
:1099E00010B50400002902D00B78002B03D1034BE3
:1099F0002360200010BD0AF0B3F9FAE7D473020027
:109A0000F8B504000E00150000290AD00B78002BD1
:109A100007D0002A05D0080097B20DF027FC874236
:109A200003D90B4B23602000F8BD681DFFF7B2FE81
:109A300020600AF044FB23682A005F80236831001D
:109A4000181D0DF0B7FB23685D1900232B71EAE7A1
:109A5000D4730200014B03607047C046D473020008
:109A600010B50548054C20600AF02CFB044A054956
:109A700020000DF0FCF910BDD47302001825002061
:109A800000200020533D0200084B73B51C68050000
:109A9000002C0AD0010026680831082268460DF023
:109AA00089FB0CCD31682000884773BD1C25002040
:109AB000014B03607047C046DC73020010B5040020
:109AC000002903D1044B0360200010BD0160080091
:109AD0000AF0F8FAF8E7C046DC73020030B5006817
:109AE0004488A1420CDA8588AA4209DA002907DBFA
:109AF000002A05DB5443401800198371002030BD53
:109B00000048FCE717FCFFFFF0B5070085B00E002A
:109B10001D00002921DD002A1FDD002B1DD0046857
:109B2000638803938B4200DD0391A38802939342E1
:109B300000DD0292002306340193019B029A9342B6
:109B40000EDA29002000039A0DF034FB3B68AD19B2
:109B50005B88E418019B0133EEE7024805B0F0BDD5
:109B60000020FBE717FCFFFFF8B504000D0016000E
:109B70001F00002901DB002A02DA0E4B2360F8BD2A
:109B8000100048430630FFF705FE20600AF097FA00
:109B900023685D8023689E80002F06D03B00320042
:109BA00029002000FFF7B0FFE9E720000AF0BEF926
:109BB000E5E7C046DC730200F7B506000D1E03D1D1
:109BC000244B03603000FEBD00200F0004000100A4
:109BD00001903B78002B1AD03022524294469C448C
:109BE0006246092A11D90A2B0AD1019B2418013394
:109BF0000193A14200DA2100002004000137E8E7C8
:109C00000028FBD001340020F8E70120F6E7012707
:109C1000019A09B212B230007F42FFF7A5FF390066
:109C20000A2033689A1D2C78002CCBD02300303BBF
:109C3000092B08D8FB43DB173B4043431B19303B40
:109C40001F000135EFE7002FFBDB177001320F001B
:109C5000F7E7C046DC730200F0B5040089B006A83F
:109C60000E0002921D00FFF755FD236802995A88E5
:109C7000914235DA9B889D4232DA1F2E30D9079BFC
:109C800001939E422CDC0523002273430393069B21
:109C90000493039B04999B18A03BCB5C0021059384
:109CA000AE18029BCF1823685888019087420EDABD
:109CB0009888B0420BDDDB1910270F4101987043E3
:109CC0001B1805980740781E87417F429F7101311C
:109CD0000529E6D10132052ADBD1002009B0F0BD0B
:109CE0000048FBE717FCFFFFF7B50468070063882F
:109CF0000E1E01931EDD994218DA002306340093EC
:109D00003B68009A9B889A4212DA019BA1199D1B1D
:109D10002A0020000DF04EFA601931000AF0E9F82F
:109D20003B685B88E418009B0133E8E70AF0FEF823
:109D3000002000E00048FEBD17FCFFFF10B50548FD
:109D4000054C20600AF0BEF9044A054920000DF0D8
:109D50008EF810BDDC7302002025002000200020BA
:109D6000E53E020010B5054C012120000AF09EF9E5
:109D7000034A044920000DF07AF810BD2425002084
:109D800000200020694002000388074A10B5012026
:109D9000934208D0834202D00020DB0703D41E2068
:109DA000FFF710F9002010BDFFFF000000487047CA
:109DB00016FCFFFF10B53220FFF704F9004810BD74
:109DC00016FCFFFF10B5124C00230834828004609B
:109DD000416202241422010083718472036383862A
:109DE000028136310A78C360A243F1342240036114
:109DF00043618361C36103620A70020040321370E1
:109E0000021DD387013343878387C38710BDC046B4
:109E1000FC730200F0B5544F97B03B680600059301
:109E2000002B00D08BE006AC0B331C22212120003C
:109E300001F076FA0EAD0B231D2222210AA801F0B3
:109E40006FFA0B231B222321280001F069FA082056
:109E50000DF014F80122059B110004900BF0BFFCDB
:109E60003A2130000BF015FA00281DD0A38812AD5E
:109E7000AB80A3795C20AB713C4B1293A368149325
:109E8000237B2B73637B6B73A37BAB730CF0F6FFAD
:109E900004230193363300932A00049B310004000D
:109EA00002F05CF83C604AE0322130000BF01FFA0F
:109EB00000281CD0A38812ADAB80A3795C20AB71C5
:109EC0002A4B1293A3681493237B2B73637B6B73CE
:109ED000A37BAB730CF0D2FF042301932E330093CA
:109EE0002A00049B3100040002F0D6F9DAE73C2195
:109EF00030000BF0B7F900282CD0AB8812ACA3804F
:109F0000AB79A420A371194B1293AB6814932B7BEC
:109F100023736B7B6373AB7BA3730CF0AFFF0523E1
:109F200005000293013B0193383300932200049B08
:109F3000310001F031FF0E4B3D6044351D600C4B8C
:109F4000094C1868002802D021680AF01EFA20681F
:109F500017B0F0BD44200CF091FF042204990400D6
:109F6000FFF730FF9EE7C04628250020EC73020073
:109F70002C250020F0B56149C56885B08D4254DAC2
:109F80000300022236331B78134059D104698C42F6
:109F900064DA020036321278520768D442690192BC
:109FA0000200019E40328E426FDA0100363109789C
:109FB000090774D4002B7DD113780293002B16D09F
:109FC00006000127011DCB8F363601339BB2CB87AC
:109FD00003963678BC46374000D188E01D2B06D961
:109FE00063469E43039B1E700023CB8713700AF0C9
:109FF000ACF8434A0723904276D94249043B8D424C
:10A0000072DBC8220133920095426DDC023B8C4228
:10A010006ADB013B944267DC01980433884263DBCE
:10A020000133904260DC00235EE0C822002352002E
:10A030009542ABDD030036331A7800239207A5D48E
:10A04000012306001F00363632785408A7433C002F
:10A0500002279C40BA432243327097E7C82252003D
:10A0600094429BDD020036321278520796D40600E5
:10A070000122363633789F08BA439700042293436F
:10A080001A003A433270012388E7C821019E490033
:10A090008E428FDD01003631097809078AD401002C
:10A0A000012636310B78DF08BE430827F600BB4394
:10A0B00033430B701378032B00D97DE70133DBB2F8
:10A0C0001370012B03D10021031DD98774E7042BE2
:10A0D00000D071E7020036321178033B0B43137056
:10A0E00000230430C3870B33180005B0F0BD092BE3
:10A0F00000D87CE7029BCF87013B77E770FEFFFF2C
:10A10000FF700200E0FCFFFF70B5C369C1681A6808
:10A11000451D8AB00400EB7F114255D0002B58D169
:10A12000EB7F082B0DD90122A379134209D11343E8
:10A13000A371A188130006A809F0B1FEFFF70CFC7B
:10A140002062EB7F012B23D80123A2791A421FD072
:10A150000025A188A571022202A809F0A0FEA31D76
:10A16000DE7F012E14D1FFF7F7FB2B00226A801A45
:10A17000994100900191019BA188AB4203D1174BFB
:10A18000009A9A4227D90123042206A809F087FEE3
:10A190000322A3791340012B14D1FFF7DDFB002329
:10A1A000226A801A9941994202D10D4B984209D9ED
:10A1B0000223A279A1881343A3710522012306A8D3
:10A1C00009F06DFE0AB070BD0B2BA9D80133EB77F7
:10A1D000A6E7013BFBE733000322D6E7E7030000D5
:10A1E000DB05000010B50400034B08330360FFF7E4
:10A1F000E9FB200010BDC04630740200F0B5070036
:10A2000000250E00040085B002930AAB1B780837C6
:10A2100003930F4B019208330360858085712900F9
:10A22000182238000CF0E2FF039A310038000CF0DD
:10A230006EFC019B029AA380A31DE671DA77631D71
:10A2400025622000DD77FFF79FFB200005B0F0BD01
:10A25000307402000048704716FCFFFF10B5332031
:10A26000FEF7B0FE004810BD16FCFFFF002310B53E
:10A270000400838083710D482164083020608020B1
:10A28000C000A061E0612062E3602000236163619F
:10A290006362A362E36223636363A363E363636450
:10A2A00011000AF04AF8200010BDC04648740200B0
:10A2B000F0B5534F97B03B6806000593002B00D0D4
:10A2C0008BE00B331C22212106A80AAC01F028F8F0
:10A2D0000EAD0B231D222221200001F021F80B23BB
:10A2E0001B222321280001F01BF808200CF0C6FDDA
:10A2F0000122059B110004900BF071FA1D21300022
:10A300000AF0DEFF00281DD0A38812ADAB80A37930
:10A310006020AB713B4B1293A3681493237B2B7388
:10A32000637B6B73A37BAB730CF0A8FD05230193D8
:10A33000183300932A00049B3100040001F0E2FE70
:10A340003C604AE03C2130000AF0E8FF00281CD0C5
:10A35000A38812ADAB80A3796020AB71294B129317
:10A36000A3681493237B2B73637B6B73A37BAB7307
:10A370000CF084FD05230193373300932A00049BDE
:10A380003100040002F02AF8DAE73C2130000AF03C
:10A3900069FF00282AD0AB8812ACA380AB79A42037
:10A3A000A371184B1293AB6814932B7B23736B7BB5
:10A3B0006373AB7BA3730CF061FD0523050002936F
:10A3C000013B0193383300932200049B310001F0DC
:10A3D000E3FC0D4B1D6044353D600B4B084A1B6888
:10A3E0001068002B00D0436417B0F0BD48200CF07B
:10A3F00045FD052204990400FFF738FFA0E7C04699
:10A400002C250020EC7302002825002082B0F0B536
:10A410000400EDB06420739372920CF036FC0522B8
:10A4200010A8110009F08BFD974911A8FFF7C4FB94
:10A43000002221AB6CA91A605A609A600C339942D1
:10A44000F9D11922002113A80CF0D0FEA0680AF05F
:10A4500033FB00260B90FF21A06800F047FD8B4FD7
:10A46000A06800F05DFB07960996884B9F4203D0D9
:10A47000874B9F4200DBFDE0A0680AF01FFBA56848
:10A4800084491AA8FFF7ACFA78221AA9280000F02C
:10A4900075FC1AA809F05DFC00267C4F0322099B7D
:10A4A000606801331A40099209F0E7FE0500606810
:10A4B00009F0EAFE0022784B05929D4210DB013242
:10A4C00005922A00C8320BDBAA22042192000591D2
:10A4D000954205DC02220592C82D01DD013205926C
:10A4E00000220692984210DB012306930300C83332
:10A4F0000BDBAA2304329B000692984205DC022360
:10A500000693C82801DD0133069310A809F00EFD5B
:10A51000002513ABEB5C012B08D160496B00CA1816
:10A520005278C95C10A8FF23FFF7D8FA0135192D1E
:10A53000EFD16B4618229A5E6B4610A81421595E23
:10A54000099BFFF7CBFA002F01DB0F2E07D9002361
:10A55000A068009374301A0010A909F0FDFC0123D3
:10A560000893089B05995A004C4B9B189A1E127829
:10A570008A4226D1013B1B78069A934221D1089A40
:10A580006CAB9B18663BFF3B0A931B78012B18D0E2
:10A590000C23079A216853431D0000220CA809F0E0
:10A5A000F6FE21AA2B0094460CAA634423CA23C3B7
:10A5B00001220A9B01361A70079BF6B20133DBB207
:10A5C0000793089B013308931A2BCAD164200CF01F
:10A5D0005CFB079B643F3FB2182B00D845E71A008D
:10A5E00021A91AA80AF0E1F86A461DAB23CB23C2C1
:10A5F0001B6813601A991B9A1C9B206809F0AFFE18
:10A60000E568002D0CD0264912A8FFF7E9F91C23B4
:10A610001AAA12A928000AF0F0FD12A809F099FB65
:10A62000A0680AF04BFA11A912A8A56809F067FC06
:10A6300000221C4B009212A901932800130000F085
:10A640000DFB12A809F04EFCFA2080000CF01DFB57
:10A65000A0680AF033FA0B99A06800F047FC11A833
:10A6600009F040FC10A809F03DFC6DB0F0BC08BC3E
:10A6700002B01847002F02D00F2E00D00EE7A068BE
:10A6800000F04EFA0AE7C046928102008C3C0000BE
:10A69000D18AFFFFD781020058FDFFFFF78102003A
:10A6A000EC810200DC050000F0B587B001930EAB31
:10A6B0001B88060003930D9B0D000093019B0292E3
:10A6C0000C9F002B3CD0002F02D1009BDB0737D51D
:10A6D00028200CF0D3FB0400103009F0D6FB029BBD
:10A6E0001820258063800CF0C9FB0500009B082220
:10A6F0000593019B002103600C3004970CF076FD5C
:10A70000082204A9281D0CF055FD0E4B02226B6196
:10A7100000230399E3602362636233680A43A56000
:10A72000A2805B68210030009847002806D02000F6
:10A7300009F0C5FA20000CF096FB034807B0F0BD05
:10A740000248FBE7CF43020016FCFFFF17FCFFFFA8
:10A7500070B58CB08360109B01604260C3600400E0
:10A76000184918000AF010FD051E14D001001C2223
:10A77000103105A80CF01EFD6A4608AB43CB43C25E
:10A780001B68136020680599069A079B09F0E7FD8E
:10A7900028000CF068FB0C4B186800280ED00B4A00
:10A7A00005AB059200220692C03202926A4622CB85
:10A7B00022C2230003220521FFF776FF20000CB000
:10A7C00070BDC046EC8102001C2500200DA40100D4
:10A7D000F0B5040085B0637A9C46002B04D12000BC
:10A7E0000AF001F805B0F0BDA37A266F019310239B
:10A7F000019AF35600259B1801229A402900F3681C
:10A8000003920293029BAB4231DDB368019A6B4322
:10A810009B1872695B00E77AD3181A785878E37945
:10A82000012F14D15F1E3F1A10003A005B00434312
:10A83000606F8218D3189B79634500DD6346627BA5
:10A840001A4202D00123AB4019430135DAE7022F47
:10A8500005D15F1EBA1A277A013F381AE6E7032F9F
:10A86000E4D1277A013FBF1A02003800DEE7112346
:10A87000C943F356606C994023691940039B1943FF
:10A880000CF0D0FAA27B072AACD8637B0C495B00A2
:10A890006373531CDBB290004158A373022A03D8A0
:10A8A00008000CF0E7F996E7064B2000236300232D
:10A8B0006363054BE462236414300CF069F891E79C
:10A8C00074740200D1A70100D147020010B5040042
:10A8D000044B03600CF054F8200005F03FFF20000B
:10A8E00010BDC046C47B020010B504000E4B0833F7
:10A8F0000360FFF767F82000743009F0F3FA2000D6
:10A90000603009F0EFFA2000583009F022FA2000F8
:10A91000503009F01EFA2000044B14306361FFF739
:10A92000D5FF200010BDC04694740200F87B0200E1
:10A93000F8B500250400324B85800833036085712B
:10A94000143016000F0005F0F3FE20002D4BE562D9
:10A95000636125645030FFF77DF820005830FFF721
:10A9600079F820006030FFF7A3F820000423F25E9E
:10A9700033682667590009B2743009F0E0FA336889
:10A98000226FE37173680126237210236581A7800B
:10A990002561D35691685918994204DD30009840DA
:10A9A00001330543F8E711230120D356D168591824
:10A9B000994206DD02009A40266901333243226142
:10A9C000F6E714200CF05AFA226900212A430123E9
:10A9D000060006F059FAFF23220063720133A381B7
:10A9E000002348326664A37320001370A366FEF749
:10A9F000CBFF0123A27920001343A371F8BDC04609
:10AA000094740200F87B0200F0B5437A85B004002C
:10AA1000002B04D1200009F0E6FE05B0F0BD0122B4
:10AA2000837A11009C461023066F0025F35603928B
:10AA30006344994002912900F3680193019BAB4262
:10AA40002CDDB36872696B4363445B00E77AD3180B
:10AA50001A785878E379012F10D15F1E3F1A100041
:10AA60003A005B004343606F8218D3189B79002B38
:10AA700002D0039BAB4019430135DFE7022F05D11C
:10AA80005F1EBA1A277A013F381AEAE7032FE8D186
:10AA9000277A013FBF1A02003800E2E71123C943B9
:10AAA000F356606C994023691940029B19430CF0DE
:10AAB000B9F9667AB31EDBB2FC2B14D8FEF712FF8D
:10AAC0000B4B0500236300230A4863630A4BFF21F5
:10AAD000E4622364704306F0D3FC29004143200064
:10AAE00014300BF055FF637A012B00D995E791E7FD
:10AAF000E7470200B6030000D14702001FB501235B
:10AB000081881A00684609F0CAF9012303491A002E
:10AB1000684609F0C4F905B000BDC046FE03000058
:10AB20001FB5030048331A780400002A0DD0002214
:10AB30001A70012381881A00684609F0B0F90123D0
:10AB400004491A00684609F0AAF92000743009F097
:10AB5000EDF91FBDFF03000010B548300378002B4E
:10AB600006D00378012B03D00121024808F0FCFF36
:10AB700010BDC046FF03000010B5012104000620EF
:10AB800008F0F2FF064B984208D148342378002B96
:10AB900004D02378012B01D020BFF7E710BDC046B9
:10ABA00016FCFFFF70B50600141E19DB05004835C2
:10ABB0002B78002B02D02B78012B13D100233000EF
:10ABC0001A007430FFF748F8002C07D033004A33DE
:10ABD0001C80002407234C3634802B70200070BD6D
:10ABE000014CFBE7014CF9E717FCFFFF12FCFFFFEC
:10ABF000F8B517000A68050052880B00012A09D130
:10AC00000021180009F034F9002201002800FFF7A4
:10AC1000C9FFF8BD002F19DD060048363278002A3A
:10AC200002D03278012A13D12A00002428005C3295
:10AC300019001480583009F0F6F82B004A331F80B1
:10AC400003234C352C8020003370E2E70148E0E715
:10AC50000148DEE717FCFFFF12FCFFFF73B5079CFE
:10AC60000500002C1CDB060048363078002802D096
:10AC70003078012816D106981BB2C0B20090280087
:10AC800012B2743009F068F9002C07D02B004A3357
:10AC90001C80002407234C352C803370200076BDA7
:10ACA000014CFBE7014CF9E717FCFFFF12FCFFFF2B
:10ACB000F7B505000E00171E26DDFFF74DFF2B0030
:10ACC00048331C78E4B2002C20D133685B88012B18
:10ACD00009D12100300009F0CBF822000100280042
:10ACE000FFF760FFFEBD310001A809F094F83A00BB
:10ACF00001A92800FFF77CFF01A809F02AF8280025
:10AD0000FFF73AFF2000EDE70148EBE70148E9E7EC
:10AD100017FCFFFF11FCFFFFF0B587B00D9C06008C
:10AD20000F0002920393002C20DBFFF715FF330086
:10AD300048331D78EDB2002D1AD1390005A809F06D
:10AD4000DEF80C9B01940093029A039B05A9300046
:10AD5000FFF784FF05A809F0C5F8002C03D03000E8
:10AD6000FFF70AFF2C00200007B0F0BD014CFAE706
:10AD7000014CF8E717FCFFFF11FCFFFFF8B50400DA
:10AD8000171E1DDD060048363378002B02D03378BD
:10AD9000012B17D12200E3795632013B13702300B7
:10ADA0000025200054331D80503009F03CF823006A
:10ADB0004A331F80022328004C3425803370F8BDAD
:10ADC0000148FCE70148FAE717FCFFFF12FCFFFF10
:10ADD000F7B505000F00161E18DDFFF7BDFE2B00AE
:10ADE00048331C78E4B2002C12D1390001A809F0D4
:10ADF00012F8320001A92800FFF7C0FF01A808F0EF
:10AE0000A8FF2800FFF7B8FE2000FEBD0148FCE7C0
:10AE10000148FAE717FCFFFF11FCFFFFF8B504003B
:10AE2000171E2DDD060048363278002A02D032780F
:10AE3000012A27D15D42069BFF331FD16B1D2200E3
:10AE40001BB2643213802300200066331D70603013
:10AE500009F05DF8230000226C331A70954200D08F
:10AE60003D0023004A331D80079B00205A1E93415A
:10AE7000013F4C34053327803370F8BD069BDEE775
:10AE80000148FAE70148F8E717FCFFFF12FCFFFF53
:10AE9000F0B587B005000F00161E03931EDDFFF707
:10AEA0005BFE2B0048331C78E4B2002C18D139002B
:10AEB00005A809F024F80D9B320001930C9B05A90D
:10AEC00000932800039BFFF7A9FF05A809F00AF8E3
:10AED0002800FFF751FE200007B0F0BD0148FBE756
:10AEE0000148F9E717FCFFFF11FCFFFFFF2902D81B
:10AEF0004172002070470148FCE7C04617FCFFFF85
:10AF000013B5040004A80078009020000BF066FD43
:10AF1000002801D1207516BD0048FCE70EFCFFFF9C
:10AF200013B5040004A80078009020000BF03EFD4B
:10AF3000002801D1207516BD0048FCE70EFCFFFF7C
:10AF40007FB50D0011000F226A4404001E1E11700F
:10AF500016D0089B002B13DD012329000093FFF777
:10AF6000DFFF002802D0074804B070BD0090089BA6
:10AF7000320029002000FFF7C3FF0028F4D0F2E7D9
:10AF80000148F1E70EFCFFFF17FCFFFFF7B50700D4
:10AF90000D1E3FD00023022604690193002C35D0FA
:10AFA000AA88A3885340334204D1324204D1AB88EB
:10AFB000334226D0646AF1E7A968A0680AF0F4FB7E
:10AFC0000028F4D02B88002B02D022889A42F1D19D
:10AFD0006B88002B02D062889A42EBD1EB68E26862
:10AFE000934201D0002BE5D17B68002B01D02000DB
:10AFF0009847A288084B1343A380019B0133019318
:10B00000D8E7A368AA689342D4D1DBE7019B20006C
:10B01000002B00DC0148FEBD0080FFFF17FCFFFF96
:10B02000F0B5060085B00D1E5DD001270469002C27
:10B0300026D00221AA8800230A4202D0A3885B08F6
:10B040003B40226829688A4214D1A068A968002B75
:10B050000ED00AF0A9FB00280CD0EB68E2689342FE
:10B0600008D1A3881AB2002A06DB204805B0F0BD3B
:10B070008842F2D0646ADAE75B045B0CA380F4E7F1
:10B0800030692A88002807D13561012318496846AC
:10B0900008F005FF0020E9E7010003001C88944246
:10B0A00006D25C6A1900002C0DD02300F6E72300BD
:10B0B0001C88944207D15F886C88A74203D85C6AD9
:10B0C0001900002CF3D1884209D10B889A4204D38D
:10B0D00005D148886B88984201D96962D4E74B6AE8
:10B0E0006B624D62D1E70348C0E7C04616FCFFFF24
:10B0F000FD03000017FCFFFF064B10B51A0004000B
:10B1000008322C33026083600830FEF7ABF9200070
:10B1100010BDC046AC74020008B4024B9C4608380F
:10B1200008BC6047F9B0010008B4024B9C460838DF
:10B1300008BC60472F4C02000C4A002311002C323F
:10B14000083110B54360838183738260036143617A
:10B150008361C383016004000830FEF775F9044B76
:10B160001A68002A00D11C60200010BDAC740200D7
:10B170001C250020F7B50E00012504690192002C62
:10B1800036D0238832889A4201D0002B23D163889D
:10B1900072889A4201D0002B1DD1FEF7C9F8012315
:10B1A000002806D0C022A3881340C03B5A42534116
:10B1B000DBB2019A934219D1A7883BB2002B15DB71
:10B1C00010223100A0180BF0F5FF40231F4204D0DD
:10B1D000200009F035FD646AD1E7FEF7A9F80028E0
:10B1E000F6D021000348FEF755FAF4E70025F2E710
:10B1F0002800FEBD414C020008B4024B9C460838B2
:10B2000008BC6047C94D0200F0B587B001930EAB92
:10B210001B88060003930D9B0D000093019B029277
:10B220000C9F002B3CD0002F02D1009BDB0737D5B1
:10B2300028200BF023FE0400103008F026FE029BAD
:10B240001820258063800BF019FE0500009B082262
:10B250000593019B002103600C3004970BF0C6FF9F
:10B26000082204A9281D0BF0A5FF0E4B02226B61DA
:10B2700000230399E3602362636233680A43A56095
:10B28000A2805B68210030009847002806D020008B
:10B2900008F015FD20000BF0E6FD034807B0F0BDF7
:10B2A0000248FBE7034E020016FCFFFF17FCFFFFFE
:10B2B000F0B50400160000258380164A164B8571F0
:10B2C0000260218146810573186889B08C46A842C6
:10B2D0001DD0124A05950492C02202926A4604AB20
:10B2E00082CB82C223002A006146FFF78DFFC02275
:10B2F000094B0A49186802926A46069106AB0795FF
:10B3000082CB82C223002A003100FFF77DFF20009C
:10B3100009B0F0BDF07402001C2500202D4F020082
:10B3200030B5002403730123034D847105608180CF
:10B3300082734373846030BDEC73020070B583790F
:10B340000400DB0702D580680BF08DFDA3799B0715
:10B3500002D5A0680BF087FDA3795B0707D5A02372
:10B360000021144ADB00D150A0680BF07CFDA379CA
:10B370001B0708D5A568002D05D028000AF085FA1E
:10B3800028000BF070FDA379DB0605D5A068002826
:10B3900002D00368DB6898476023A2791A4205D07F
:10B3A000A068002802D003685B6898470023A36068
:10B3B000A37170BD00700040F7B50227037B040045
:10B3C0000D003B4226D0012926D886793E400096C2
:10B3D00014D1FFF7B3FF18200BF050FD0E23060029
:10B3E000E3561822009901930BF000FF01993000F9
:10B3F0000BF09FFBA379A6603B43A371A3685A6837
:10B40000002D04D00025DB681A602800FEBD1B69F2
:10B410001A60FAE7014DF8E7014DF6E716FCFFFF69
:10B4200017FCFFFFF7B50126037B040033422AD047
:10B43000612385791D4017D1FFF780FF18200BF09D
:10B440001DFD0E230700E35618220093637B29009D
:10B4500001930BF0CBFE019A009938000BF057FBDB
:10B46000A379A7603343A3716023A279A0681A422D
:10B4700002D00BF001FAFEBD436940681B6818401A
:10B48000431E9841F7E70148F5E7C04616FCFFFF69
:10B4900010B50124837941731C4004D080680BF0FF
:10B4A00000FC002010BD6022134203D080680BF026
:10B4B000EAF9F6E70048F5E716FCFFFF70B504006F
:10B4C00000250C4B0E000833858085710360210038
:10B4D000183009F0DCFD20002100203009F0FAFDD1
:10B4E000054BA680E5802572E56025616561200039
:10B4F0001C6070BD00750200302500208379DB07D9
:10B5000002D5C160002070470048FCE716FCFFFF31
:10B510008379DB0701D5C06870470148FCE7C04666
:10B5200016FCFFFF70B545690400002D22D0037A98
:10B53000032B21D8FFF7ECFFA8622C200BF09EFC18
:10B540002C22002105000BF051FE002263695A6293
:10B550002369934208D1636923610020237A6561DE
:10B560000133237270BD13005A6A002AFBD162694D
:10B570005A62F2E70148F5E70148F3E717FCFFFFDD
:10B5800013FCFFFF144B70B55A68144C002A03D00B
:10B5900000225A600132A2601A69002A17D00021E5
:10B5A00019618023DB000E4DE3582868012B0FD171
:10B5B000A923DB00E1584942FFF7A0FF2868FFF705
:10B5C000B1FF2B685A69074BE2500123A36070BD9D
:10B5D000FFF794FFF9E7C046FC1000400010004060
:10B5E000302500200405000003000069002809D070
:10B5F0000221054AD167426A1A611A7A013A1A721F
:10B60000024B19607047C04604E100E000E100E031
:10B6100010B5002903DB024B19600BF02FFA10BDA7
:10B620003425002070B504001E0004AB1D7805F021
:10B63000C7F820000E4B40302360FEF70BFA2300C2
:10B6400001364C33013522001E701D730023E121A9
:10B650004E32A3646365138053809381D381013B91
:10B66000200063644902FFF7D3FF200070BDC0468D
:10B670009C730200F7B580277F053D697C6908222D
:10B68000113C6C430600210068460BF093FD104B03
:10B69000009A9A4219D000930023019379693000EF
:10B6A0001339694309F02BFD019A0099300009F024
:10B6B0003EFD2100300009F022FD7969AB08133905
:10B6C00069432200300009F024FD0198FEBDC04608
:10B6D000FECA0000F0B50D00A9B00D920021302285
:10B6E000060010A80B930BF081FD28000BF0BEFDA7
:10B6F000431C0C93102B00D9B5E00B9B202B00D9D9
:10B70000B1E02900300009F03FFD071E50D12900AB
:10B710000C9A10A80BF04EFD0D990B9A14A80BF083
:10B7200049FD80235B051A695F690C92113F7A43DA
:10B7300030005D690B92FFF79DFF3022002104006D
:10B740001CA80BF053FD290000270C9B133959430B
:10B75000300009F0D4FC0D9730257D430B9B083356
:10B76000ED18A74242DA290030221CA80BF022FD76
:10B7700010A91CA80BF070FD002827D13C4930000F
:10B7800022000E910F9409F0D2FC6A46099513AB82
:10B7900023CB23C223CB23C223CB23C23000129B53
:10B7A0001099119A09F0D1FC01230D930137D3E7C9
:10B7B00010300B9A0D990BF0EEFC040038000BF0E2
:10B7C00052FB002CA3D1200029B0F0BD6A46099598
:10B7D0001FAB23CB23C223CB23C223CB23C23000F6
:10B7E0001C991D9A1E9B09F0B0FCDFE7E54330234E
:10B7F000ED1725405D430B9B08355D190D9B002B14
:10B800001DD10C9B3021981E05F0B0FDA0422CD01C
:10B8100017490134300022000E910F9409F087FC83
:10B820006A46099513AB23CB23C223CB23C223CB78
:10B8300023C230001099119A129B09F086FC0B99D3
:10B84000300009F05CFC80235B0559690C230C9ADD
:10B85000133963434A430233110030000B9A09F055
:10B8600058FC0024AFE7034CADE7034CABE7C04600
:10B87000FECA000017FCFFFF13FCFFFF8023F0B59A
:10B880005B051A6995B003925A6905910399113ABB
:10B8900051435D69039B133D040002915D43FFF733
:10B8A000E9FE061E3BD0002730220021083508A8FB
:10B8B00001950BF09BFC0199200009F020FC0497F6
:10B8C00030237B43029D0835ED18B7421FDA29006B
:10B8D000302208A80BF06EFC059908A80BF0BCFC00
:10B8E00000280AD11949721E20000691079209F01A
:10B8F0001EFC012304930137E2E70C23019A29007F
:10B90000200009F006FC019B30330193F3E7049B10
:10B91000002B06D10D493200200009F008FC0C482C
:10B9200012E00299200009F0EAFB80235B055969C7
:10B930000C23039A13394A43734311002000023346
:10B94000029A09F0E6FB002015B0F0BDFECA000027
:10B950000CFCFFFF70B50400A280FA22002308004F
:10B960000C49920008312160A3716061E260A3601C
:10B970006382094909F008FC051E09D00100200076
:10B980001031022212300BF015FC28000BF06BFA7C
:10B99000200070BD187502002982020030B5022512
:10B9A000837987B004002B4204D1FDF74DFDA379C4
:10B9B0001D43A571200009F031FC00281CD06B4606
:10B9C000DD1C280009F021FC2B78002B17D001A8E2
:10B9D00009F019FC0321019AD3170B409B189B1007
:10B9E0002382FDF7B9FFE368A18818180123A0603E
:10B9F0001A0002A808F053FA002007B030BD012257
:10BA0000064B1A60064A51680029FCD0002151609B
:10BA1000044A1268019201225A60DBE700C000402C
:10BA2000FCC0004008C50040022802D10122014BA1
:10BA30001A7070471728002070B5064C050023784F
:10BA4000002B04D1044802F0FFFA012323702800E0
:10BA500070BDC0461828002029BA010070B50C003E
:10BA600008F010F8002810D00023144DA40A2B7001
:10BA7000200009F0E7FB002803D00A200BF005F9AD
:10BA8000F6E72B78002BFCD070BD02210C4B0D4A41
:10BA900099508021C90008005D58002DFCD0A121DB
:10BAA000C9005C5019580029FCD000219950802110
:10BAB000C9005A58002AFCD0E6E7C04617280020E3
:10BAC00000E0014004050000F8B50C0015001E0060
:10BAD00007F0D8FF002811D00023174F3B70320029
:10BAE0002900200009F0ACFB002803D00A200BF04D
:10BAF000CCF8F4E73B78002BFCD0F8BD01210F48CF
:10BB00000F4B844619508021C9005A58002AFCD096
:10BB100080270022FF00964207DD910068586050A0
:10BB2000D9590029FCD00132F5E7002261465A506C
:10BB3000DA59002AFCD0E0E71728002004050000AD
:10BB400000E0014008B4024B9C46443808BC604702
:10BB500049520200FA21F8B50389C900040059438B
:10BB6000324809F037FEFA21890005F0FFFB304F1B
:10BB70002081A17A380009F02DFE2300260025003F
:10BB800022894C33A072A0361A808C35317800237C
:10BB90002A22286808F09FFF002801D02548F8BD18
:10BBA00031781F235B22286808F095FF0028F5D123
:10BBB000317820235C22286808F08DFF0028EDD121
:10BBC000317801232C22286808F085FF0028E5D170
:10BBD000317801232D22286808F07DFF0028DDD16F
:10BBE000317801232E22286808F075FF0028D5D16E
:10BBF000A17A380009F0E9FD3178C3B20E22286835
:10BC000008F069FF0028C9D1FA2123898900594326
:10BC1000064809F0DAFD01230343DBB231782A221A
:10BC2000286808F058FF0028B9D0B7E73875020037
:10BC3000307502000EFCFFFF08B4024B9C464438EE
:10BC400008BC604755BB0100074B10B51A00040043
:10BC500008323C3302604364443008F03CFB20006F
:10BC600008F06CFA200010BD9875020008B4024B71
:10BC70009C46443808BC604749BC010008B4024BEC
:10BC80009C46443808BC604753520200F0B5042576
:10BC900083798BB004002B4204D1FDF7D5FBA37947
:10BCA0001D43A57120009030FFF7BCFB0026B04279
:10BCB0000FD12300A033197820000C2307AD009387
:10BCC0008C302B0001220068FFF73AF9061E03D0E2
:10BCD0002C4E30000BB0F0BD0A2304AA9B182A7822
:10BCE0005A706A781A700022985EAA785A70EA78B8
:10BCF0001A700022995E03912A795A706A791A7033
:10BD000000229F5EAA795A70EA791A7000215A5E61
:10BD100004922A7A5A706A7A1A7000215A5E059241
:10BD2000AA7A5A70EA7A1F251A7000229B5EA27ABC
:10BD300003999C46514349425043CB172B407A43C9
:10BD40005B185B11A361C3172B401818D3171D4054
:10BD50006423AD18059A5B425343A367642361468D
:10BD6000049A40115A434B43E2676D11221DE06172
:10BD700025622000D36708F053FA2000443008F011
:10BD8000B1FAA6E70EFCFFFF08B4024B9C4644380C
:10BD900008BC60478DBC0100F7B51E00040008AB6D
:10BDA0001B881500019309AB00911A8831000AAB7A
:10BDB0001F88FEF707F820003A0031004430FEF7F4
:10BDC00055FA134B20001A003C33636423000832F9
:10BDD0002260009A8C331A60AB8890308380AB79F4
:10BDE000019A83710B4B03210360AB6883602B7B4B
:10BDF00003736B7B4373AB7B83732300A0331A8085
:10BE0000FFF746FB2000FFF7A5FE2000FEBDC04661
:10BE100098750200EC730200F8B5FA260189B600A5
:10BE200004007143264809F0D5FC310005F09EFA64
:10BE3000244F2081A17A380009F0CCFC2500A072A3
:10BE40005835297800232A22606C08F044FE002827
:10BE500001D01D48F8BD297810232B22606C08F012
:10BE60003AFE0028F5D1297801232D22606C08F0D4
:10BE700032FE0028EDD1297801232E22606C08F0D3
:10BE80002AFE0028E5D1A17A380009F09EFC297825
:10BE9000C3B20E22606C08F01EFE0028D9D12189A1
:10BEA0000748714309F091FC01230343DBB2297871
:10BEB0002A22606C08F00FFE0028CBD0C9E7C046EC
:10BEC00000760200F87502000EFCFFFF10B50400BA
:10BED000034B0833036008F031F9200010BDC04661
:10BEE000607602007FB50425837904002B4204D1DB
:10BEF000FDF7AAFAA3791D43A57120004830FFF78A
:10BF000091FA0025A8420DD1230058331978062351
:10BF100002AE009301223300606CFFF711F8051E9A
:10BF200003D00D4D280004B070BD02230021042071
:10BF3000F356A27ADB00715630565343C000C90055
:10BF4000514342435B42A3612368E16122629B6AE1
:10BF500020009847E6E7C0460EFCFFFFF8B5040056
:10BF6000150006AA168807AA0F0012881900FDF707
:10BF700029FF0F4B6764083323602300AA884833E6
:10BF80009A80AA7920009A710A4AA264AA68226556
:10BF90002A7B1A736A7B5A73AA7B9A730023A37154
:10BFA000230058331E80FFF737FF2000F8BDC0463E
:10BFB00060760200EC73020010B50400034B0833F6
:10BFC000036008F088F9200010BDC046F476020036
:10BFD000F0B507005C3787B00400397800231022E1
:10BFE000806C08F078FD0326002802D01F4807B0B7
:10BFF000F0BD0F2502ABED1801233978082200931C
:10C00000A06C2B00FEF79CFF184B9842EED02B78CB
:10C01000334203D06420FDF7B1FAEAE7FA2621891A
:10C02000134DB6007143280009F0D4FB310005F030
:10C030009DF920813978A0231122A06C08F04BFDD6
:10C040000028D3D1A36C21890393714328003F7842
:10C0500009F0BBFB01231843C3B210223900039837
:10C0600008F039FD0028C2D0C0E7C0460EFCFFFF33
:10C070009476020070B50825837986B004002B42BF
:10C0800004D1FDF7E1F9A3791D43A57120004C30DF
:10C09000FFF7C8F9061E0DD023005C33197806237C
:10C0A00004AD009301222B00A06CFEF749FF061E91
:10C0B00003D0134E300006B070BD0E232A786B44B7
:10C0C0005A706A7820001A700022995E64224A43EE
:10C0D000A263AA785A70EA781A700022995E6422E4
:10C0E000524251436163297959706979197000216D
:10C0F0005B5E5A432368E2631B6A9847DAE7C046EF
:10C100000EFCFFFFF8B50400150006AA168807AA62
:10C110000F0012881900FEF7A9F80D4BA764083329
:10C1200023602300AA884C339A80AA7920009A7150
:10C13000084AE264AA6862652A7B1A736A7B5A73AA
:10C14000AA7B1E829A73FFF743FF2000F8BDC0460A
:10C15000F4760200EC730200F7B5FA250189204F4E
:10C16000AD0004006943380009F034FB290005F0F4
:10C17000FDF8A17A20811B4809F02CFB2600636C96
:10C18000A0720093218958363378694338000193AF
:10C1900009F01BFB07230343DBB22022019900981F
:10C1A00008F099FC002801D00F48FEBD317810231B
:10C1B0002222606C08F08FFC0028F5D1A17A094892
:10C1C000656C377809F001FB80235B420343DBB2E7
:10C1D00023223900280008F07EFC0028E5D0E3E7A0
:10C1E00028770200207702000EFCFFFF10B5040044
:10C1F000034B0833036007F0A1FF200010BDC046C9
:10C2000098770200F0B50425837985B004002B42AD
:10C2100004D1FDF719F9A3791D43A5712000483019
:10C22000FFF700F9061E0DD02300583319780623B6
:10C2300002AD0093A8222B00606CFEF781FE061E63
:10C2400003D0144E300005B0F0BD1F200023EA5E7D
:10C25000D31703409B180222A95E5B11CA17024044
:10C26000521804216F5E5211F9170140C919491182
:10C270002B806A80A980A07A4343424341435B42BA
:10C28000E36123685242A26121629B6A20009847C1
:10C29000D8E7C0460EFCFFFFF8B50400150006AA5B
:10C2A000168807AA0F0012881900FDF78BFD0F4BA7
:10C2B0006764083323602300AA8848339A80AA79E8
:10C2C00020009A710A4AA264AA6822652A7B1A731E
:10C2D0006A7B5A73AA7B9A730023A3712300583395
:10C2E0001E80FFF739FF2000F8BDC0469877020096
:10C2F000EC730200F7B5FA2504000189134EAD0076
:10C300006943300009F066FA290005F02FF827008C
:10C31000A36C208100935C373B7881B26943300085
:10C32000019309F052FA6022C3B20199009808F013
:10C33000D2FB002801D00648FEBD397801236222D5
:10C34000A06C08F0C8FB0028F6D0F4E7CC77020018
:10C350000EFCFFFF10B50400034B0833036007F029
:10C36000BAFF200010BDC046F47702007FB5082553
:10C37000837904002B4204D1FDF766F8A3791D43AD
:10C38000A57120004C30FFF74DF8051E0DD023009D
:10C390005C331978062302AE0093E8223300A06CC8
:10C3A000FEF7CEFD051E03D00B4D280004B070BD76
:10C3B0000223F25E96235B425A4362630021725E5F
:10C3C00020005343A3630423F25E96235343E363A5
:10C3D00023681B6A9847E8E70EFCFFFFF8B50400E6
:10C3E000150006AA168807AA0F0012881900FDF783
:10C3F0003DFF0D4BA764083323602300AA884C330C
:10C400009A80AA7920009A71084AE264AA68626553
:10C410002A7B1A736A7B5A73AA7B1E829A73FFF770
:10C4200069FF2000F8BDC046F4770200EC730200FB
:10C4300010B50400054B083303601C3007F089FC7D
:10C440002000183007F085FC200010BD2078020085
:10C45000FF23F0B52C4D8DB02B70002304006946EE
:10C460000088009303F0B2F9002802D16B469B7854
:10C470002B70264E3368DB68002B07D10023208801
:10C480001A00190008F055FF0DB0F0BD2B78032BF2
:10C49000F4D81F4901A8FDF7A3FA336801A9DE68A3
:10C4A00004A807F0B8FC04A9300008F0A0FE00279B
:10C4B000060004A807F04DFCBE421ED03100202229
:10C4C000103104A80AF076FE30000AF0CCFC29787E
:10C4D00004ABC9005918082202A80AF06BFE208894
:10C4E0000123082202A908F024FF0137002804D103
:10C4F0002088084A0C2108F01AFF01A807F029FC3F
:10C50000002FBBD0C0E7C04680200020442500207B
:10C51000BC820200FFFF0000F0B5837991B00400F7
:10C520005B071BD5FDF718FA00232269801A994191
:10C53000994203D1F423FF3398420FD9A068002811
:10C5400008D0364B1D8809F0BDF9036815221B6A17
:10C55000290098470422A3799343A371A3799B07E9
:10C5600059D52F4D2B68DB68002B50D02D4B1B78F5
:10C57000032B4CD8294B2C491B8804A80193FDF7A9
:10C580002FFA2B6804A9DE6808A807F044FC08A964
:10C59000300008F02CFE070008A807F0DAFB02AB19
:10C5A0009E1D08233200338006A9073B019808F03E
:10C5B000C2FE002F08D039002022103108A80AF04E
:10C5C000F9FD38000AF04FFC164B32881B7806A99B
:10C5D000DE0008AB9E1930000AF0DDFD002813D004
:10C5E000082206A930000AF0E5FD2B6804A9DD68E1
:10C5F00005A807F010FC202308AA05A9280008F0C8
:10C60000FCFD05A807F0A5FB04A807F0A2FB022289
:10C61000A3799343A37111B0F0BDC046C027002099
:10C620004425002080200020BC820200F7B5089E2F
:10C630000500152922D8012007008F40244C2742ED
:10C640001CD0E97FCC181F2C41DC69183418A1429A
:10C6500010D80021C8B2834204D9545C7018847089
:10C660000131F7E732789A183270EA7F9B18EB773E
:10C6700000202CE00878C8540139E8E73478013C00
:10C68000E4B2A34208D10023D9B28C42F0D9D05CE5
:10C69000F11888700133F7E7EF7F0120FF183F1B87
:10C6A0001F2F14DC0227A01C7F423618381B019074
:10C6B000E87F2F18BE4204D23078019FF055013632
:10C6C000F6E7041B023CEC77280008F07EFEFEBD76
:10C6D000FC002000F0B5040085B001930AAB1E8871
:10C6E0000BAB1B78451C02930EAB1B781700039312
:10C6F0000B78102203704B8A0131438228000AF024
:10C7000059FD268300260122019B67616383039BF9
:10C71000E6832377029B2000EB77A31CDA770C9B40
:10C720000C25636223000D9A28331A705E709E7088
:10C730002A0031002C300AF059FD2000064BE66338
:10C74000A3632A00310040300AF050FD2000034B63
:10C750002665E36405B0F0BD4D5302003F5302006F
:10C7600070B50D0009F0AEF804000368002D09D182
:10C770005B699847FA2080006843074904F0F6FD9A
:10C78000E08070BD9B6898478542F3D22368200003
:10C790009B6898470500EDE771020000F0B50700BF
:10C7A0001600A1B002C704006B4918A81D0008F0CC
:10C7B00053FE331E03D030000AF058FD83B201222D
:10C7C00004920022039202920232019200933200FC
:10C7D00018A93800FFF77EFF23006049583318A8D6
:10C7E000079308F039FE2B1E03D028000AF03EFD07
:10C7F00083B2012204920022039202920232019239
:10C8000000932A0018A90798FFF764FF23005449F2
:10C81000AC3318A8089308F01FFE269B002B03D00A
:10C8200018000AF023FD83B2012204920022039231
:10C830000292023201920093269A18A90898FFF7F3
:10C8400049FF631CFF33474918A8099308F004FE09
:10C85000279B002B03D018000AF008FD83B20122A9
:10C8600004920022601C0392029202320192009311
:10C87000279A18A9FF30FFF72DFF23005533FF3308
:10C88000394918A8099308F0E7FD289B002B03D02D
:10C8900018000AF0EBFC83B20122049200220392FA
:10C8A0000292023201920093289A18A90998FFF780
:10C8B00011FF2300A933FF332C4918A80A9308F06D
:10C8C000CBFD299B002B03D018000AF0CFFC83B2CC
:10C8D00001220492002218AD0392029202320192C8
:10C8E0000093299A29000A98FFF7F4FE204B1B7841
:10C8F0000B93002B2CD1079B12971393089B0DAF22
:10C900001493631CFF331593099B1A4916930A9BD2
:10C910003800179308F0A0FD1D2149203B78102214
:10C920002B707B8A12AE6B8206ABC918C0180AF056
:10C9300041FC06232B750B9B2068AB83AE6108F08E
:10C94000C5FF036829001B6898470122084B1A702D
:10C95000200021B0F0BDC046292A0000242A000092
:10C96000252A0000272A0000262A0000282A000085
:10C97000192800200A18000070B5002504000B4B90
:10C980008580083385710360C1601830FDF762F857
:10C9900020001C30FDF75EF80123621CD377044AA7
:10C9A000A560656120001460A37170BD207802004D
:10C9B00044250020FA2130B585B00500012302226C
:10C9C0008900684607F06BFA074C2068002809D0F8
:10C9D00008F07BFD2988054B226819800223917994
:10C9E0000B43937105B030BD44250020C0270020C3
:10C9F00010B50C0007290DD8806808F063FF064BBE
:10CA0000195703685B6C9847431E9841034B40429B
:10CA1000184010BD0248FCE7B482020016FCFFFF7C
:10CA200017FCFFFFF0B5A44C0D00A54404000793CC
:10CA30009AAB1B78A14909A804930692FCF7D0FF92
:10CA4000200029001C3007F0EEF9C020800001F022
:10CA5000F1FA08200AF012FA0600002100F0AEFEFA
:10CA600015ADA66000210C220EA80AF0BFFB2B001A
:10CA70000EAA83CA83C3924B2900EB6000233000C7
:10CA80002B6108F008FFA06808F01CFF08220021B5
:10CA9000059016A80AF0AAFB14200AF0EFF9290065
:10CAA0000200884B1593C8C9C8C2874B059EC36056
:10CAB0000023A43603613368002B00D0F5E030601A
:10CAC000A06808F003FF08220021060016A80AF05B
:10CAD0008DFB14200AF0D2F97C4B1593030086CD10
:10CAE00086C37B4BC36000230361336B002B00D0F4
:10CAF000DDE03063A06808F0E5FE082200210500B3
:10CB000016A80AF073FB14200AF0B8F9714B15AEA1
:10CB10001593030086CE86C36F4B9835C360002300
:10CB200003612B68002B00D0C3E02860012504AB13
:10CB30001B7C04AA2B4308A92800137408F0FDFBF2
:10CB4000A06808F0C7FE036864495B6A9847A0685C
:10CB500008F0C0FE036862499B699847A06808F026
:10CB6000B9FE002302680093166804992A00B047B2
:10CB7000049B002B0AD0200008F0B0FC032805DD40
:10CB8000A06808F0A7FE0368DB6898470EA808F0C5
:10CB900013FC2F2004ABC01808F00EFC362004ABA9
:10CBA000C01808F009FC3D20042504ABC01808F0AB
:10CBB00003FC0EAB0A93A06804AB5D7708F08AFE15
:10CBC00003680AA91B699847A06808F07BFE036800
:10CBD0000AA95B6D9847A06808F074FE03680021FD
:10CBE000DB6D9847A06808F06DFE036802219B6D1D
:10CBF000984700212000FFF7FBFE18200AF03EF9BD
:10CC0000A16800F055FA374B374A1B68A1680393B7
:10CC1000364B15A81B6800260293354B0CAF1B68DA
:10CC20000193069B1B685B190093324B12681B68CB
:10CC3000FFF7B4FD30200AF021F9079AA16800F04F
:10CC4000F7FAA06808F03EFE036839009B6A98472F
:10CC5000294BBE80A0680C9308F034FE03683900AD
:10CC6000DB6A98472900A06808F002FC099A0921AC
:10CC70009378A068521908F00EFCA06808F022FE14
:10CC800032210671A068FFF76BFD04AB1B7FB34236
:10CC900004D0A06808F016FE08F0D4FB09A807F03D
:10CCA00058F895239B009D44F0BD036107E703619D
:10CCB0001FE7036139E7C046ACFDFFFFA183020017
:10CCC0005B530200B5C901006953020051C4010061
:10CCD00077530200A553020085530200FDCC0100EA
:10CCE00031CD0100402500203C25002008200020F7
:10CCF000382500200C2000200800100013B5062263
:10CD00006846FCF77DFE094B1C68002C0AD069467A
:10CD100001A807F080F8200001A908F000FC01A894
:10CD200007F017F8684607F014F813BD44250020F3
:10CD3000002373B501AE0C0031000500019302F031
:10CD400045FD002802D1B278064B1A70064B1868D0
:10CD5000002806D061426141044BC9B21D8008F031
:10CD6000E6FB73BD8020002044250020C027002062
:10CD700030B5284CA9B06A220D000DA821000AF098
:10CD800019FA0DA903A8FCF799FE03A906A807F054
:10CD9000B6F801230193013BFF3B00930533FF33BA
:10CDA000642206A92800FEF773F806A807F09AF88F
:10CDB000210019226A3106A80AF0FCF90522002494
:10CDC000110006AB04A807F0C1F804A905A807F0F4
:10CDD00096F8019400942300220005A92800FDF78D
:10CDE0009BFF05A807F07EF821002800FEF77EF8DB
:10CDF00005340520FCF7C2FBFF2CF5D1FA2080009A
:10CE0000FCF7BCFB04A807F06DF803A807F06AF86C
:10CE100029B030BD31820200F0B59C4B95B005922F
:10CE20001A68082304000391D16C06A80B43D3644D
:10CE30009749FCF7D5FD974907A8FCF7D1FD2200DB
:10CE400000250DAE30001C3206A906F0FBFF07AA34
:10CE5000310008A806F0F6FF300006F07AFF631CE8
:10CE6000DD77A06808F02EFD03680BAF5B6998477B
:10CE7000300008F0A1FA2B2004ABC01808F09CFA8F
:10CE8000322004ABC01808F097FA392004ABC01860
:10CE900008F092FA8023DB00BB80A0680B9608F0B4
:10CEA00011FD036839005B6D9847A06808F00AFD22
:10CEB000036829009B6D9847A06808F003FD0700F0
:10CEC00006000A371F22290038000AF08FF9FD7783
:10CED000300008F0AEFA0621A06808F0C9FA089AF6
:10CEE00009219378A068043208F0D5FAA06808F008
:10CEF000E9FCC8210571A068FFF732FCA06808F0C2
:10CF0000E1FCFF272E000581A06808F0DBFC08F09B
:10CF100099FA0398FDF704FE2000FCF795FA0399AF
:10CF20002000FFF725FF0399200008F013FB04956C
:10CF3000012563691D402DD0574909A8FCF73CFE27
:10CF400009A90AA806F0DBFF00220AA91300019232
:10CF500000920398FDF7E0FE0AA806F0C3FF049BC9
:10CF6000002B42D1043F282F41DD0025FE2F00DC9D
:10CF7000049D059807F09BF9002806D001236269FB
:10CF80009A431300042213436361002609A806F0A4
:10CF9000A9FF049504226369134233D0FF2103984B
:10CFA000C826FDF7A3FF0025B600A36902229B5EF9
:10CFB000AB4222DD200029B2183006F059FF0023D1
:10CFC000010003981A007430FCF746FE3000FCF7AD
:10CFD000D5FA039807F072FDC820FCF7CFFA0222B9
:10CFE0006369134209D10135DFE70437BBE70398D2
:10CFF00007F064FD002FBCDDBAE7FA208000FCF7E3
:10D00000BDFA0026022365691D421CD006331D406F
:10D0100024D0224909A8FCF7CFFD09A90AA806F0E7
:10D020006EFF00220AA90192009213000398FDF7F7
:10D0300073FE0AA806F056FF1948FCF79FFA09A8E4
:10D0400006F050FF174E6420FCF798FA164B013695
:10D050009E4200DC6CE706F027FD69E7134909A84A
:10D06000FCF7AAFD09A90AA806F049FF2B002A002F
:10D070000AA9019500950398FDF74EFE0AA806F04F
:10D0800031FF09A806F02EFFDDE7C046C8240020C6
:10D09000C8820200D8820200DA8202001F830200E6
:10D0A000983A00008C0A00008B0A00005C830200A2
:10D0B0000022594BF0B50833060003600F00100042
:10D0C000A9B0B1600BAB991801324870102AFAD19F
:10D0D0000F3A524C1A700E32105D991A0874013AC8
:10D0E000FAD2997B5A7B09020A4331000C31039131
:10D0F00025211B7813AD2B7002ABC918452302A85C
:10D100001B186A82180010220AF054F8039B64214D
:10D110006B610123002402AA2B775218199309335B
:10D1200013701DAB1C706D2302AA9B181C706E231C
:10D1300021009B181EA80C22EC836C621C700AF064
:10D1400055F8374B0C22210023A8AB63EC630AF09F
:10D150004DF8344B02AAEB6446239B180322DA777E
:10D1600022002C650595347306AD2B1901345A70D5
:10D17000102CFAD101232C482B700E33195CEA1ABB
:10D180001174013BFAD211212520AA7B6B7B12027C
:10D190000BAC13432A78638202ABC9182270C01803
:10D1A00010220AF007F80123237505ABA3610023C1
:10D1B0003800A38308F08AFB036821001B689847A6
:10D1C00013ABDB8BB068B38208F080FB00220368EE
:10D1D0000092B18A039ADC680123A047B06808F086
:10D1E00075FB0700142009F049FE0022012304000A
:10D1F0000261069240C008322900079309F0DAFF65
:10D200000A4BE360BB69002B03D13000BC6129B03D
:10D21000F0BD2361F9E7C04638780200B58302000B
:10D220004D5302003F530200C5830200B555020072
:10D23000F0B500260400724BDDB008330360816056
:10D24000C2608680867132006E4947A808F052FAA3
:10D250002300143301250427089312230097049513
:10D260000193089A330047A9039602961DA8FFF779
:10D2700031FA3200644947A808F03CFA0C23220036
:10D280000097103215AF0495019347A93300039618
:10D29000029632A8FFF71EFA32005C49380008F007
:10D2A00029FA21001C3109910423082104950191D8
:10D2B000009339003300099A0396029647A8FFF7B6
:10D2C00009FA32005249380008F014FA542009F0E3
:10D2D000D5FD2100122204231831079104950192F3
:10D2E00000930A0033003900039602960690FFF778
:10D2F000F1F9069A474B1000A262D4620AA90822EB
:10D3000030300A930B9609F055FF434B069A099962
:10D3100093632932157026610422E661079809F0AB
:10D3200049FF04220799089809F044FF6622032365
:10D3300004A95218D377BA225218D3778722520001
:10D340005218D377069A35490232D3771DAA0C9228
:10D3500032AA0D9247AA0E92069AA6850F9210A89D
:10D36000320008F0C7F93021452004AA521813787A
:10D37000123104AA3B705218138811397B8204AB16
:10D380001022C918C01809F015FF04230CADA068BD
:10D390003B75BD61BE8308F099FA036839001B68CC
:10D3A0009847822204AB9B181B885432238404AB19
:10D3B0009B181B885432A38404AB9B181B88A0685D
:10D3C000638408F083FA0700142009F057FD050074
:10D3D000134B0661082210C010A91093119609F092
:10D3E000E9FE104BEB60BB69B34206D1BD61200082
:10D3F000FCF72AF820005DB0F0BD2B61F6E7C046CF
:10D4000044780200F5830200D5830200E583020020
:10D4100005840200C756020033560200158402003C
:10D4200091D401005D560200F0B504000E00150015
:10D4300085B01F000CAB1B881030019306F025FD52
:10D4400026806580182009F019FD02AE0500330022
:10D450000AAA03CA03C32F602800082700213A0044
:10D460000C3009F0C3FE3A003100281D09F0A2FE7D
:10D47000064B02226B61200000230199A5600A433C
:10D48000E360A2802362636205B0F0BD87560200AC
:10D49000F0B50B898DB00593CB68050004934B88DC
:10D4A000828C9A420ED1049C049B059A9B181B1BEC
:10D4B000032B39DD62882188012308A806F0EFFCE0
:10D4C0000434F1E7428C9A422ED1049C049B059AC5
:10D4D0009B181B1B032B27DD2388282006936388BA
:10D4E000EF680793114B08930023099309F0C6FCDA
:10D4F000C0236A460600029308AB03CB03C22B008D
:10D500000699079A3000FFF78FFF3B6831005B6890
:10D5100038009847002805D0300006F0D0FB3000D6
:10D5200009F0A1FC0434D1E70DB0F0BD455702006D
:10D5300070B5040090B0806808F0FFF80221014047
:10D540001AD1A38D002B17D00C4B6A4604931023DD
:10D55000E568A1850591029304AB41CB41C20A0065
:10D56000230006A8FFF760FF2B6806A99B68280028
:10D57000984706A806F0A3FB10B070BD45570200FF
:10D58000002815D0006041608260C360046145617D
:10D590008661C761444604624C46446254468462D4
:10D5A0005C46C462644604636E46466374468463A4
:10D5B000002A06D0C46B043C043A25681560B442C6
:10D5C000F9D18C6BA6464E6BB546002B06D0CC6BC2
:10D5D000043C043B1D682560B442F9D10C6BA446A1
:10D5E000CC6AA3468C6AA2464C6AA1460C6AA04645
:10D5F000CF698E694D690C69CB688A68086849688B
:10D600007047006041608260C3600461456186616B
:10D61000C761444604624C464462544684625C4698
:10D62000C462644604636E46466374468463C46B96
:10D63000043C043925680D60B442F9D1C769866994
:10D64000456904697047006041608260C36004619D
:10D6500045618661C761444604624C464462544653
:10D6600084625C46C462644604636C4644637446E8
:10D67000846304697047846BA646446BA546046BBB
:10D68000A446C46AA346846AA246446AA146046AC0
:10D69000A046C769866945690469C36882680068ED
:10D6A0004168704710B5041E0CD009F0DFFD431E21
:10D6B000E3189C4208D222781978013B21705A70F5
:10D6C0000134F6E7014810BD0020FCE717FCFFFF1E
:10D6D000F0B585B002900C1E2AD00023C217161A8E
:10D6E00056400193019B30005D1C63190A215F1EA7
:10D6F000039303F0ABFF49423031397030000A2107
:10D7000003F0BEFE47420600002F0FD1029B002B04
:10D7100004DA2D23019D039A0235137000232000A3
:10D720006355FFF7BFFF380005B0F0BD0195D9E79D
:10D73000004FF8E717FCFFFF0268084B406810B580
:10D74000C018C000101803009A4205D81C688C420B
:10D7500002D31800083BF7E710BDC046FFFFFF1FCC
:10D7600070B5002817D1114D2E68002E11D1083048
:10D7700009F084FB066046600D4E04003368002B00
:10D7800002D108F0DAFA306023682C609B00F3586D
:10D790006360286870BD0122064907480B68134082
:10D7A000F8D1026043600A60F4E7C0464C250020CF
:10D7B000582500204825002050250020002370B562
:10D7C00004000160436099420AD1064D2B68002B8A
:10D7D00002D108F0B2FA286023689B00EB5863601E
:10D7E000200070BD58250020436810B50400002BB0
:10D7F00002D1044809F050FA606803681B69984731
:10D8000010BDC04625840200436810B50400002BFB
:10D8100002D1044809F040FA606803689B699847A0
:10D8200010BDC04625840200436810B50400002BDB
:10D8300002D1044809F030FA606803685B6A9847CF
:10D8400010BDC0462584020000487047FFFF00005D
:10D85000F0B597B00593036807AD1B680491039377
:10D8600011002B00060091C991C30024D368210048
:10D870000C220CA8EB602C6109F0B8FC22000B4BC9
:10D8800010940F9311AB1C70191901344A70102CAD
:10D89000FAD15A820193059B2A00009304990CAB9C
:10D8A0003000039CA04717B0F0BDC046F3590200FA
:10D8B00070B5FC30046C0500002C0DD1242009F05B
:10D8C000DDFA064B44608361054B8460C4600461EB
:10D8D0004461C46103602864286C70BD3079020023
:10D8E000187A020070B5FC30C56B0400002D11D110
:10D8F000342009F0C3FA084B85604360074B45614B
:10D900000361074B0562C361064BC5628362064B28
:10D91000E0630360E06B70BD607902005079020043
:10D92000C0790200D0790200E07902007FB5037966
:10D930001548002B22D0154E154C33782000002BB3
:10D940001CD102AD280008F031F8002810D16B88F6
:10D95000592B0DD12B78AA88D91F012910D80092F4
:10D960000C4A2021200005F07FFB0123337004E0E6
:10D9700020220949200009F080FC200004B070BD7D
:10D980000092064AEDE7C046488402003A2800208B
:10D990001A2800206A840200628402008784020040
:10D9A00010B50400024B08C008F0E0F8200010BDDC
:10D9B0005079020010B50400024B08C008F0EBF8E3
:10D9C000200010BD60790200064B70B504000360B2
:10D9D0004068002804D0056909F045FA2800F8E7F6
:10D9E000200070BD40790200064B70B50400036052
:10D9F0004068002804D0056909F035FA2800F8E7E6
:10DA0000200070BD70790200064B70B50400036001
:10DA10004068002804D0056909F025FA2800F8E7D5
:10DA2000200070BD80790200064B70B504000360D1
:10DA30004068002804D0056909F015FA2800F8E7C5
:10DA4000200070BDC0790200064B70B50400036071
:10DA50004068002804D0056909F005FA2800F8E7B5
:10DA6000200070BDD0790200064B70B50400036041
:10DA70004068002804D0056909F0F5F92800F8E7A6
:10DA8000200070BD64780200064B70B5040003608E
:10DA90004068002804D0056909F0E5F92800F8E796
:10DAA000200070BD74780200064B70B5040003605E
:10DAB0004068002804D0056909F0D5F92800F8E786
:10DAC000200070BD84780200064B70B5040003602E
:10DAD0004068002804D0056909F0C5F92800F8E776
